{
	"21.10/contracts/Cofre.sol": {
		"Cofre": {
			"abi": [
				{
					"inputs": [],
					"stateMutability": "nonpayable",
					"type": "constructor"
				},
				{
					"inputs": [],
					"name": "depositar",
					"outputs": [],
					"stateMutability": "payable",
					"type": "function"
				},
				{
					"inputs": [],
					"name": "dono",
					"outputs": [
						{
							"internalType": "address",
							"name": "",
							"type": "address"
						}
					],
					"stateMutability": "view",
					"type": "function"
				},
				{
					"inputs": [
						{
							"internalType": "uint256",
							"name": "valor",
							"type": "uint256"
						}
					],
					"name": "sacar",
					"outputs": [],
					"stateMutability": "nonpayable",
					"type": "function"
				},
				{
					"inputs": [],
					"name": "saldoDoContrato",
					"outputs": [
						{
							"internalType": "uint256",
							"name": "",
							"type": "uint256"
						}
					],
					"stateMutability": "view",
					"type": "function"
				},
				{
					"inputs": [
						{
							"internalType": "address payable",
							"name": "destinatario",
							"type": "address"
						},
						{
							"internalType": "uint256",
							"name": "valor",
							"type": "uint256"
						}
					],
					"name": "transferirPara",
					"outputs": [],
					"stateMutability": "payable",
					"type": "function"
				},
				{
					"stateMutability": "payable",
					"type": "receive"
				}
			],
			"devdoc": {
				"kind": "dev",
				"methods": {},
				"version": 1
			},
			"evm": {
				"assembly": "    /* \"21.10/contracts/Cofre.sol\":60:1447  contract Cofre {... */\n  mstore(0x40, 0x80)\n    /* \"21.10/contracts/Cofre.sol\":108:158  constructor() {... */\n  callvalue\n  dup1\n  iszero\n  tag_1\n  jumpi\n  0x00\n  dup1\n  revert\ntag_1:\n  pop\n    /* \"21.10/contracts/Cofre.sol\":140:150  msg.sender */\n  caller\n    /* \"21.10/contracts/Cofre.sol\":133:137  dono */\n  0x00\n  dup1\n    /* \"21.10/contracts/Cofre.sol\":133:150  dono = msg.sender */\n  0x0100\n  exp\n  dup2\n  sload\n  dup2\n  0xffffffffffffffffffffffffffffffffffffffff\n  mul\n  not\n  and\n  swap1\n  dup4\n  0xffffffffffffffffffffffffffffffffffffffff\n  and\n  mul\n  or\n  swap1\n  sstore\n  pop\n    /* \"21.10/contracts/Cofre.sol\":60:1447  contract Cofre {... */\n  dataSize(sub_0)\n  dup1\n  dataOffset(sub_0)\n  0x00\n  codecopy\n  0x00\n  return\nstop\n\nsub_0: assembly {\n        /* \"21.10/contracts/Cofre.sol\":60:1447  contract Cofre {... */\n      mstore(0x40, 0x80)\n      jumpi(tag_1, lt(calldatasize, 0x04))\n      shr(0xe0, calldataload(0x00))\n      dup1\n      0x3d922f90\n      eq\n      tag_3\n      jumpi\n      dup1\n      0x40a8b75a\n      eq\n      tag_4\n      jumpi\n      dup1\n      0x70514bea\n      eq\n      tag_5\n      jumpi\n      dup1\n      0x7371b0d6\n      eq\n      tag_6\n      jumpi\n      dup1\n      0xbcb753fe\n      eq\n      tag_7\n      jumpi\n      jump(tag_2)\n    tag_1:\n      jumpi(tag_2, calldatasize)\n      stop\n    tag_2:\n      0x00\n      dup1\n      revert\n        /* \"21.10/contracts/Cofre.sol\":476:566  function depositar() public payable {... */\n    tag_3:\n      tag_10\n      tag_11\n      jump\t// in\n    tag_10:\n      stop\n        /* \"21.10/contracts/Cofre.sol\":746:860  function saldoDoContrato() public view onlyOwner returns (uint256) {... */\n    tag_4:\n      callvalue\n      dup1\n      iszero\n      tag_12\n      jumpi\n      0x00\n      dup1\n      revert\n    tag_12:\n      pop\n      tag_13\n      tag_14\n      jump\t// in\n    tag_13:\n      mload(0x40)\n      tag_15\n      swap2\n      swap1\n      tag_16\n      jump\t// in\n    tag_15:\n      mload(0x40)\n      dup1\n      swap2\n      sub\n      swap1\n      return\n        /* \"21.10/contracts/Cofre.sol\":82:101  address public dono */\n    tag_5:\n      callvalue\n      dup1\n      iszero\n      tag_17\n      jumpi\n      0x00\n      dup1\n      revert\n    tag_17:\n      pop\n      tag_18\n      tag_19\n      jump\t// in\n    tag_18:\n      mload(0x40)\n      tag_20\n      swap2\n      swap1\n      tag_21\n      jump\t// in\n    tag_20:\n      mload(0x40)\n      dup1\n      swap2\n      sub\n      swap1\n      return\n        /* \"21.10/contracts/Cofre.sol\":1170:1444  function sacar(uint256 valor) public onlyOwner {... */\n    tag_6:\n      callvalue\n      dup1\n      iszero\n      tag_22\n      jumpi\n      0x00\n      dup1\n      revert\n    tag_22:\n      pop\n      tag_23\n      0x04\n      dup1\n      calldatasize\n      sub\n      dup2\n      add\n      swap1\n      tag_24\n      swap2\n      swap1\n      tag_25\n      jump\t// in\n    tag_24:\n      tag_26\n      jump\t// in\n    tag_23:\n      stop\n        /* \"21.10/contracts/Cofre.sol\":866:1164  function transferirPara(address payable destinatario, uint256 valor) public payable onlyOwner denyZero{... */\n    tag_7:\n      tag_27\n      0x04\n      dup1\n      calldatasize\n      sub\n      dup2\n      add\n      swap1\n      tag_28\n      swap2\n      swap1\n      tag_29\n      jump\t// in\n    tag_28:\n      tag_30\n      jump\t// in\n    tag_27:\n      stop\n        /* \"21.10/contracts/Cofre.sol\":476:566  function depositar() public payable {... */\n    tag_11:\n      jump\t// out\n        /* \"21.10/contracts/Cofre.sol\":746:860  function saldoDoContrato() public view onlyOwner returns (uint256) {... */\n    tag_14:\n        /* \"21.10/contracts/Cofre.sol\":804:811  uint256 */\n      0x00\n        /* \"21.10/contracts/Cofre.sol\":217:221  dono */\n      dup1\n      0x00\n      swap1\n      sload\n      swap1\n      0x0100\n      exp\n      swap1\n      div\n      0xffffffffffffffffffffffffffffffffffffffff\n      and\n        /* \"21.10/contracts/Cofre.sol\":203:221  msg.sender == dono */\n      0xffffffffffffffffffffffffffffffffffffffff\n      and\n        /* \"21.10/contracts/Cofre.sol\":203:213  msg.sender */\n      caller\n        /* \"21.10/contracts/Cofre.sol\":203:221  msg.sender == dono */\n      0xffffffffffffffffffffffffffffffffffffffff\n      and\n      eq\n        /* \"21.10/contracts/Cofre.sol\":195:255  require(msg.sender == dono, \"Apenas o dono pode transferir\") */\n      tag_33\n      jumpi\n      mload(0x40)\n      0x08c379a000000000000000000000000000000000000000000000000000000000\n      dup2\n      mstore\n      0x04\n      add\n      tag_34\n      swap1\n      tag_35\n      jump\t// in\n    tag_34:\n      mload(0x40)\n      dup1\n      swap2\n      sub\n      swap1\n      revert\n    tag_33:\n        /* \"21.10/contracts/Cofre.sol\":831:852  address(this).balance */\n      selfbalance\n        /* \"21.10/contracts/Cofre.sol\":824:852  return address(this).balance */\n      swap1\n      pop\n        /* \"21.10/contracts/Cofre.sol\":746:860  function saldoDoContrato() public view onlyOwner returns (uint256) {... */\n      swap1\n      jump\t// out\n        /* \"21.10/contracts/Cofre.sol\":82:101  address public dono */\n    tag_19:\n      0x00\n      dup1\n      sload\n      swap1\n      0x0100\n      exp\n      swap1\n      div\n      0xffffffffffffffffffffffffffffffffffffffff\n      and\n      dup2\n      jump\t// out\n        /* \"21.10/contracts/Cofre.sol\":1170:1444  function sacar(uint256 valor) public onlyOwner {... */\n    tag_26:\n        /* \"21.10/contracts/Cofre.sol\":217:221  dono */\n      0x00\n      dup1\n      sload\n      swap1\n      0x0100\n      exp\n      swap1\n      div\n      0xffffffffffffffffffffffffffffffffffffffff\n      and\n        /* \"21.10/contracts/Cofre.sol\":203:221  msg.sender == dono */\n      0xffffffffffffffffffffffffffffffffffffffff\n      and\n        /* \"21.10/contracts/Cofre.sol\":203:213  msg.sender */\n      caller\n        /* \"21.10/contracts/Cofre.sol\":203:221  msg.sender == dono */\n      0xffffffffffffffffffffffffffffffffffffffff\n      and\n      eq\n        /* \"21.10/contracts/Cofre.sol\":195:255  require(msg.sender == dono, \"Apenas o dono pode transferir\") */\n      tag_38\n      jumpi\n      mload(0x40)\n      0x08c379a000000000000000000000000000000000000000000000000000000000\n      dup2\n      mstore\n      0x04\n      add\n      tag_39\n      swap1\n      tag_35\n      jump\t// in\n    tag_39:\n      mload(0x40)\n      dup1\n      swap2\n      sub\n      swap1\n      revert\n    tag_38:\n        /* \"21.10/contracts/Cofre.sol\":1224:1236  uint256 taxa */\n      0x00\n        /* \"21.10/contracts/Cofre.sol\":1239:1254  100000000000000 */\n      0x5af3107a4000\n        /* \"21.10/contracts/Cofre.sol\":1224:1254  uint256 taxa = 100000000000000 */\n      swap1\n      pop\n        /* \"21.10/contracts/Cofre.sol\":1294:1298  taxa */\n      dup1\n        /* \"21.10/contracts/Cofre.sol\":1285:1290  valor */\n      dup3\n        /* \"21.10/contracts/Cofre.sol\":1285:1298  valor >= taxa */\n      lt\n      iszero\n        /* \"21.10/contracts/Cofre.sol\":1277:1325  require(valor >= taxa, \"Valor menor que a taxa\") */\n      tag_41\n      jumpi\n      mload(0x40)\n      0x08c379a000000000000000000000000000000000000000000000000000000000\n      dup2\n      mstore\n      0x04\n      add\n      tag_42\n      swap1\n      tag_43\n      jump\t// in\n    tag_42:\n      mload(0x40)\n      dup1\n      swap2\n      sub\n      swap1\n      revert\n    tag_41:\n        /* \"21.10/contracts/Cofre.sol\":1349:1370  address(this).balance */\n      selfbalance\n        /* \"21.10/contracts/Cofre.sol\":1340:1345  valor */\n      dup3\n        /* \"21.10/contracts/Cofre.sol\":1340:1370  valor <= address(this).balance */\n      gt\n      iszero\n        /* \"21.10/contracts/Cofre.sol\":1332:1393  require(valor <= address(this).balance, \"Saldo insuficiente\") */\n      tag_44\n      jumpi\n      mload(0x40)\n      0x08c379a000000000000000000000000000000000000000000000000000000000\n      dup2\n      mstore\n      0x04\n      add\n      tag_45\n      swap1\n      tag_46\n      jump\t// in\n    tag_45:\n      mload(0x40)\n      dup1\n      swap2\n      sub\n      swap1\n      revert\n    tag_44:\n        /* \"21.10/contracts/Cofre.sol\":1408:1412  dono */\n      0x00\n      dup1\n      sload\n      swap1\n      0x0100\n      exp\n      swap1\n      div\n      0xffffffffffffffffffffffffffffffffffffffff\n      and\n        /* \"21.10/contracts/Cofre.sol\":1400:1422  payable(dono).transfer */\n      0xffffffffffffffffffffffffffffffffffffffff\n      and\n        /* \"21.10/contracts/Cofre.sol\":1400:1436  payable(dono).transfer(valor - taxa) */\n      0x08fc\n        /* \"21.10/contracts/Cofre.sol\":1431:1435  taxa */\n      dup3\n        /* \"21.10/contracts/Cofre.sol\":1423:1428  valor */\n      dup5\n        /* \"21.10/contracts/Cofre.sol\":1423:1435  valor - taxa */\n      tag_47\n      swap2\n      swap1\n      tag_48\n      jump\t// in\n    tag_47:\n        /* \"21.10/contracts/Cofre.sol\":1400:1436  payable(dono).transfer(valor - taxa) */\n      swap1\n      dup2\n      iszero\n      mul\n      swap1\n      mload(0x40)\n      0x00\n      mload(0x40)\n      dup1\n      dup4\n      sub\n      dup2\n      dup6\n      dup9\n      dup9\n      call\n      swap4\n      pop\n      pop\n      pop\n      pop\n      iszero\n      dup1\n      iszero\n      tag_50\n      jumpi\n      returndatasize\n      0x00\n      dup1\n      returndatacopy\n      revert(0x00, returndatasize)\n    tag_50:\n      pop\n        /* \"21.10/contracts/Cofre.sol\":1217:1444  {... */\n      pop\n        /* \"21.10/contracts/Cofre.sol\":1170:1444  function sacar(uint256 valor) public onlyOwner {... */\n      pop\n      jump\t// out\n        /* \"21.10/contracts/Cofre.sol\":866:1164  function transferirPara(address payable destinatario, uint256 valor) public payable onlyOwner denyZero{... */\n    tag_30:\n        /* \"21.10/contracts/Cofre.sol\":217:221  dono */\n      0x00\n      dup1\n      sload\n      swap1\n      0x0100\n      exp\n      swap1\n      div\n      0xffffffffffffffffffffffffffffffffffffffff\n      and\n        /* \"21.10/contracts/Cofre.sol\":203:221  msg.sender == dono */\n      0xffffffffffffffffffffffffffffffffffffffff\n      and\n        /* \"21.10/contracts/Cofre.sol\":203:213  msg.sender */\n      caller\n        /* \"21.10/contracts/Cofre.sol\":203:221  msg.sender == dono */\n      0xffffffffffffffffffffffffffffffffffffffff\n      and\n      eq\n        /* \"21.10/contracts/Cofre.sol\":195:255  require(msg.sender == dono, \"Apenas o dono pode transferir\") */\n      tag_52\n      jumpi\n      mload(0x40)\n      0x08c379a000000000000000000000000000000000000000000000000000000000\n      dup2\n      mstore\n      0x04\n      add\n      tag_53\n      swap1\n      tag_35\n      jump\t// in\n    tag_53:\n      mload(0x40)\n      dup1\n      swap2\n      sub\n      swap1\n      revert\n    tag_52:\n        /* \"21.10/contracts/Cofre.sol\":332:353  address(this).balance */\n      selfbalance\n        /* \"21.10/contracts/Cofre.sol\":319:328  msg.value */\n      callvalue\n        /* \"21.10/contracts/Cofre.sol\":319:353  msg.value <= address(this).balance */\n      gt\n      iszero\n        /* \"21.10/contracts/Cofre.sol\":311:376  require(msg.value <= address(this).balance, \"Saldo insuficiente\") */\n      tag_55\n      jumpi\n      mload(0x40)\n      0x08c379a000000000000000000000000000000000000000000000000000000000\n      dup2\n      mstore\n      0x04\n      add\n      tag_56\n      swap1\n      tag_46\n      jump\t// in\n    tag_56:\n      mload(0x40)\n      dup1\n      swap2\n      sub\n      swap1\n      revert\n    tag_55:\n        /* \"21.10/contracts/Cofre.sol\":1128:1140  destinatario */\n      dup2\n        /* \"21.10/contracts/Cofre.sol\":1128:1149  destinatario.transfer */\n      0xffffffffffffffffffffffffffffffffffffffff\n      and\n        /* \"21.10/contracts/Cofre.sol\":1128:1156  destinatario.transfer(valor) */\n      0x08fc\n        /* \"21.10/contracts/Cofre.sol\":1150:1155  valor */\n      dup3\n        /* \"21.10/contracts/Cofre.sol\":1128:1156  destinatario.transfer(valor) */\n      swap1\n      dup2\n      iszero\n      mul\n      swap1\n      mload(0x40)\n      0x00\n      mload(0x40)\n      dup1\n      dup4\n      sub\n      dup2\n      dup6\n      dup9\n      dup9\n      call\n      swap4\n      pop\n      pop\n      pop\n      pop\n      iszero\n      dup1\n      iszero\n      tag_59\n      jumpi\n      returndatasize\n      0x00\n      dup1\n      returndatacopy\n      revert(0x00, returndatasize)\n    tag_59:\n      pop\n        /* \"21.10/contracts/Cofre.sol\":866:1164  function transferirPara(address payable destinatario, uint256 valor) public payable onlyOwner denyZero{... */\n      pop\n      pop\n      jump\t// out\n        /* \"#utility.yul\":7:84   */\n    tag_60:\n        /* \"#utility.yul\":44:51   */\n      0x00\n        /* \"#utility.yul\":73:78   */\n      dup2\n        /* \"#utility.yul\":62:78   */\n      swap1\n      pop\n        /* \"#utility.yul\":7:84   */\n      swap2\n      swap1\n      pop\n      jump\t// out\n        /* \"#utility.yul\":90:208   */\n    tag_61:\n        /* \"#utility.yul\":177:201   */\n      tag_84\n        /* \"#utility.yul\":195:200   */\n      dup2\n        /* \"#utility.yul\":177:201   */\n      tag_60\n      jump\t// in\n    tag_84:\n        /* \"#utility.yul\":172:175   */\n      dup3\n        /* \"#utility.yul\":165:202   */\n      mstore\n        /* \"#utility.yul\":90:208   */\n      pop\n      pop\n      jump\t// out\n        /* \"#utility.yul\":214:436   */\n    tag_16:\n        /* \"#utility.yul\":307:311   */\n      0x00\n        /* \"#utility.yul\":345:347   */\n      0x20\n        /* \"#utility.yul\":334:343   */\n      dup3\n        /* \"#utility.yul\":330:348   */\n      add\n        /* \"#utility.yul\":322:348   */\n      swap1\n      pop\n        /* \"#utility.yul\":358:429   */\n      tag_86\n        /* \"#utility.yul\":426:427   */\n      0x00\n        /* \"#utility.yul\":415:424   */\n      dup4\n        /* \"#utility.yul\":411:428   */\n      add\n        /* \"#utility.yul\":402:408   */\n      dup5\n        /* \"#utility.yul\":358:429   */\n      tag_61\n      jump\t// in\n    tag_86:\n        /* \"#utility.yul\":214:436   */\n      swap3\n      swap2\n      pop\n      pop\n      jump\t// out\n        /* \"#utility.yul\":442:568   */\n    tag_62:\n        /* \"#utility.yul\":479:486   */\n      0x00\n        /* \"#utility.yul\":519:561   */\n      0xffffffffffffffffffffffffffffffffffffffff\n        /* \"#utility.yul\":512:517   */\n      dup3\n        /* \"#utility.yul\":508:562   */\n      and\n        /* \"#utility.yul\":497:562   */\n      swap1\n      pop\n        /* \"#utility.yul\":442:568   */\n      swap2\n      swap1\n      pop\n      jump\t// out\n        /* \"#utility.yul\":574:670   */\n    tag_63:\n        /* \"#utility.yul\":611:618   */\n      0x00\n        /* \"#utility.yul\":640:664   */\n      tag_89\n        /* \"#utility.yul\":658:663   */\n      dup3\n        /* \"#utility.yul\":640:664   */\n      tag_62\n      jump\t// in\n    tag_89:\n        /* \"#utility.yul\":629:664   */\n      swap1\n      pop\n        /* \"#utility.yul\":574:670   */\n      swap2\n      swap1\n      pop\n      jump\t// out\n        /* \"#utility.yul\":676:794   */\n    tag_64:\n        /* \"#utility.yul\":763:787   */\n      tag_91\n        /* \"#utility.yul\":781:786   */\n      dup2\n        /* \"#utility.yul\":763:787   */\n      tag_63\n      jump\t// in\n    tag_91:\n        /* \"#utility.yul\":758:761   */\n      dup3\n        /* \"#utility.yul\":751:788   */\n      mstore\n        /* \"#utility.yul\":676:794   */\n      pop\n      pop\n      jump\t// out\n        /* \"#utility.yul\":800:1022   */\n    tag_21:\n        /* \"#utility.yul\":893:897   */\n      0x00\n        /* \"#utility.yul\":931:933   */\n      0x20\n        /* \"#utility.yul\":920:929   */\n      dup3\n        /* \"#utility.yul\":916:934   */\n      add\n        /* \"#utility.yul\":908:934   */\n      swap1\n      pop\n        /* \"#utility.yul\":944:1015   */\n      tag_93\n        /* \"#utility.yul\":1012:1013   */\n      0x00\n        /* \"#utility.yul\":1001:1010   */\n      dup4\n        /* \"#utility.yul\":997:1014   */\n      add\n        /* \"#utility.yul\":988:994   */\n      dup5\n        /* \"#utility.yul\":944:1015   */\n      tag_64\n      jump\t// in\n    tag_93:\n        /* \"#utility.yul\":800:1022   */\n      swap3\n      swap2\n      pop\n      pop\n      jump\t// out\n        /* \"#utility.yul\":1109:1226   */\n    tag_66:\n        /* \"#utility.yul\":1218:1219   */\n      0x00\n        /* \"#utility.yul\":1215:1216   */\n      dup1\n        /* \"#utility.yul\":1208:1220   */\n      revert\n        /* \"#utility.yul\":1355:1477   */\n    tag_68:\n        /* \"#utility.yul\":1428:1452   */\n      tag_98\n        /* \"#utility.yul\":1446:1451   */\n      dup2\n        /* \"#utility.yul\":1428:1452   */\n      tag_60\n      jump\t// in\n    tag_98:\n        /* \"#utility.yul\":1421:1426   */\n      dup2\n        /* \"#utility.yul\":1418:1453   */\n      eq\n        /* \"#utility.yul\":1408:1471   */\n      tag_99\n      jumpi\n        /* \"#utility.yul\":1467:1468   */\n      0x00\n        /* \"#utility.yul\":1464:1465   */\n      dup1\n        /* \"#utility.yul\":1457:1469   */\n      revert\n        /* \"#utility.yul\":1408:1471   */\n    tag_99:\n        /* \"#utility.yul\":1355:1477   */\n      pop\n      jump\t// out\n        /* \"#utility.yul\":1483:1622   */\n    tag_69:\n        /* \"#utility.yul\":1529:1534   */\n      0x00\n        /* \"#utility.yul\":1567:1573   */\n      dup2\n        /* \"#utility.yul\":1554:1574   */\n      calldataload\n        /* \"#utility.yul\":1545:1574   */\n      swap1\n      pop\n        /* \"#utility.yul\":1583:1616   */\n      tag_101\n        /* \"#utility.yul\":1610:1615   */\n      dup2\n        /* \"#utility.yul\":1583:1616   */\n      tag_68\n      jump\t// in\n    tag_101:\n        /* \"#utility.yul\":1483:1622   */\n      swap3\n      swap2\n      pop\n      pop\n      jump\t// out\n        /* \"#utility.yul\":1628:1957   */\n    tag_25:\n        /* \"#utility.yul\":1687:1693   */\n      0x00\n        /* \"#utility.yul\":1736:1738   */\n      0x20\n        /* \"#utility.yul\":1724:1733   */\n      dup3\n        /* \"#utility.yul\":1715:1722   */\n      dup5\n        /* \"#utility.yul\":1711:1734   */\n      sub\n        /* \"#utility.yul\":1707:1739   */\n      slt\n        /* \"#utility.yul\":1704:1823   */\n      iszero\n      tag_103\n      jumpi\n        /* \"#utility.yul\":1742:1821   */\n      tag_104\n      tag_66\n      jump\t// in\n    tag_104:\n        /* \"#utility.yul\":1704:1823   */\n    tag_103:\n        /* \"#utility.yul\":1862:1863   */\n      0x00\n        /* \"#utility.yul\":1887:1940   */\n      tag_105\n        /* \"#utility.yul\":1932:1939   */\n      dup5\n        /* \"#utility.yul\":1923:1929   */\n      dup3\n        /* \"#utility.yul\":1912:1921   */\n      dup6\n        /* \"#utility.yul\":1908:1930   */\n      add\n        /* \"#utility.yul\":1887:1940   */\n      tag_69\n      jump\t// in\n    tag_105:\n        /* \"#utility.yul\":1877:1940   */\n      swap2\n      pop\n        /* \"#utility.yul\":1833:1950   */\n      pop\n        /* \"#utility.yul\":1628:1957   */\n      swap3\n      swap2\n      pop\n      pop\n      jump\t// out\n        /* \"#utility.yul\":1963:2067   */\n    tag_70:\n        /* \"#utility.yul\":2008:2015   */\n      0x00\n        /* \"#utility.yul\":2037:2061   */\n      tag_107\n        /* \"#utility.yul\":2055:2060   */\n      dup3\n        /* \"#utility.yul\":2037:2061   */\n      tag_62\n      jump\t// in\n    tag_107:\n        /* \"#utility.yul\":2026:2061   */\n      swap1\n      pop\n        /* \"#utility.yul\":1963:2067   */\n      swap2\n      swap1\n      pop\n      jump\t// out\n        /* \"#utility.yul\":2073:2211   */\n    tag_71:\n        /* \"#utility.yul\":2154:2186   */\n      tag_109\n        /* \"#utility.yul\":2180:2185   */\n      dup2\n        /* \"#utility.yul\":2154:2186   */\n      tag_70\n      jump\t// in\n    tag_109:\n        /* \"#utility.yul\":2147:2152   */\n      dup2\n        /* \"#utility.yul\":2144:2187   */\n      eq\n        /* \"#utility.yul\":2134:2205   */\n      tag_110\n      jumpi\n        /* \"#utility.yul\":2201:2202   */\n      0x00\n        /* \"#utility.yul\":2198:2199   */\n      dup1\n        /* \"#utility.yul\":2191:2203   */\n      revert\n        /* \"#utility.yul\":2134:2205   */\n    tag_110:\n        /* \"#utility.yul\":2073:2211   */\n      pop\n      jump\t// out\n        /* \"#utility.yul\":2217:2372   */\n    tag_72:\n        /* \"#utility.yul\":2271:2276   */\n      0x00\n        /* \"#utility.yul\":2309:2315   */\n      dup2\n        /* \"#utility.yul\":2296:2316   */\n      calldataload\n        /* \"#utility.yul\":2287:2316   */\n      swap1\n      pop\n        /* \"#utility.yul\":2325:2366   */\n      tag_112\n        /* \"#utility.yul\":2360:2365   */\n      dup2\n        /* \"#utility.yul\":2325:2366   */\n      tag_71\n      jump\t// in\n    tag_112:\n        /* \"#utility.yul\":2217:2372   */\n      swap3\n      swap2\n      pop\n      pop\n      jump\t// out\n        /* \"#utility.yul\":2378:2868   */\n    tag_29:\n        /* \"#utility.yul\":2454:2460   */\n      0x00\n        /* \"#utility.yul\":2462:2468   */\n      dup1\n        /* \"#utility.yul\":2511:2513   */\n      0x40\n        /* \"#utility.yul\":2499:2508   */\n      dup4\n        /* \"#utility.yul\":2490:2497   */\n      dup6\n        /* \"#utility.yul\":2486:2509   */\n      sub\n        /* \"#utility.yul\":2482:2514   */\n      slt\n        /* \"#utility.yul\":2479:2598   */\n      iszero\n      tag_114\n      jumpi\n        /* \"#utility.yul\":2517:2596   */\n      tag_115\n      tag_66\n      jump\t// in\n    tag_115:\n        /* \"#utility.yul\":2479:2598   */\n    tag_114:\n        /* \"#utility.yul\":2637:2638   */\n      0x00\n        /* \"#utility.yul\":2662:2723   */\n      tag_116\n        /* \"#utility.yul\":2715:2722   */\n      dup6\n        /* \"#utility.yul\":2706:2712   */\n      dup3\n        /* \"#utility.yul\":2695:2704   */\n      dup7\n        /* \"#utility.yul\":2691:2713   */\n      add\n        /* \"#utility.yul\":2662:2723   */\n      tag_72\n      jump\t// in\n    tag_116:\n        /* \"#utility.yul\":2652:2723   */\n      swap3\n      pop\n        /* \"#utility.yul\":2608:2733   */\n      pop\n        /* \"#utility.yul\":2772:2774   */\n      0x20\n        /* \"#utility.yul\":2798:2851   */\n      tag_117\n        /* \"#utility.yul\":2843:2850   */\n      dup6\n        /* \"#utility.yul\":2834:2840   */\n      dup3\n        /* \"#utility.yul\":2823:2832   */\n      dup7\n        /* \"#utility.yul\":2819:2841   */\n      add\n        /* \"#utility.yul\":2798:2851   */\n      tag_69\n      jump\t// in\n    tag_117:\n        /* \"#utility.yul\":2788:2851   */\n      swap2\n      pop\n        /* \"#utility.yul\":2743:2861   */\n      pop\n        /* \"#utility.yul\":2378:2868   */\n      swap3\n      pop\n      swap3\n      swap1\n      pop\n      jump\t// out\n        /* \"#utility.yul\":2874:3043   */\n    tag_73:\n        /* \"#utility.yul\":2958:2969   */\n      0x00\n        /* \"#utility.yul\":2992:2998   */\n      dup3\n        /* \"#utility.yul\":2987:2990   */\n      dup3\n        /* \"#utility.yul\":2980:2999   */\n      mstore\n        /* \"#utility.yul\":3032:3036   */\n      0x20\n        /* \"#utility.yul\":3027:3030   */\n      dup3\n        /* \"#utility.yul\":3023:3037   */\n      add\n        /* \"#utility.yul\":3008:3037   */\n      swap1\n      pop\n        /* \"#utility.yul\":2874:3043   */\n      swap3\n      swap2\n      pop\n      pop\n      jump\t// out\n        /* \"#utility.yul\":3049:3228   */\n    tag_74:\n        /* \"#utility.yul\":3189:3220   */\n      0x4170656e6173206f20646f6e6f20706f6465207472616e736665726972000000\n        /* \"#utility.yul\":3185:3186   */\n      0x00\n        /* \"#utility.yul\":3177:3183   */\n      dup3\n        /* \"#utility.yul\":3173:3187   */\n      add\n        /* \"#utility.yul\":3166:3221   */\n      mstore\n        /* \"#utility.yul\":3049:3228   */\n      pop\n      jump\t// out\n        /* \"#utility.yul\":3234:3600   */\n    tag_75:\n        /* \"#utility.yul\":3376:3379   */\n      0x00\n        /* \"#utility.yul\":3397:3464   */\n      tag_121\n        /* \"#utility.yul\":3461:3463   */\n      0x1d\n        /* \"#utility.yul\":3456:3459   */\n      dup4\n        /* \"#utility.yul\":3397:3464   */\n      tag_73\n      jump\t// in\n    tag_121:\n        /* \"#utility.yul\":3390:3464   */\n      swap2\n      pop\n        /* \"#utility.yul\":3473:3566   */\n      tag_122\n        /* \"#utility.yul\":3562:3565   */\n      dup3\n        /* \"#utility.yul\":3473:3566   */\n      tag_74\n      jump\t// in\n    tag_122:\n        /* \"#utility.yul\":3591:3593   */\n      0x20\n        /* \"#utility.yul\":3586:3589   */\n      dup3\n        /* \"#utility.yul\":3582:3594   */\n      add\n        /* \"#utility.yul\":3575:3594   */\n      swap1\n      pop\n        /* \"#utility.yul\":3234:3600   */\n      swap2\n      swap1\n      pop\n      jump\t// out\n        /* \"#utility.yul\":3606:4025   */\n    tag_35:\n        /* \"#utility.yul\":3772:3776   */\n      0x00\n        /* \"#utility.yul\":3810:3812   */\n      0x20\n        /* \"#utility.yul\":3799:3808   */\n      dup3\n        /* \"#utility.yul\":3795:3813   */\n      add\n        /* \"#utility.yul\":3787:3813   */\n      swap1\n      pop\n        /* \"#utility.yul\":3859:3868   */\n      dup2\n        /* \"#utility.yul\":3853:3857   */\n      dup2\n        /* \"#utility.yul\":3849:3869   */\n      sub\n        /* \"#utility.yul\":3845:3846   */\n      0x00\n        /* \"#utility.yul\":3834:3843   */\n      dup4\n        /* \"#utility.yul\":3830:3847   */\n      add\n        /* \"#utility.yul\":3823:3870   */\n      mstore\n        /* \"#utility.yul\":3887:4018   */\n      tag_124\n        /* \"#utility.yul\":4013:4017   */\n      dup2\n        /* \"#utility.yul\":3887:4018   */\n      tag_75\n      jump\t// in\n    tag_124:\n        /* \"#utility.yul\":3879:4018   */\n      swap1\n      pop\n        /* \"#utility.yul\":3606:4025   */\n      swap2\n      swap1\n      pop\n      jump\t// out\n        /* \"#utility.yul\":4031:4203   */\n    tag_76:\n        /* \"#utility.yul\":4171:4195   */\n      0x56616c6f72206d656e6f72207175652061207461786100000000000000000000\n        /* \"#utility.yul\":4167:4168   */\n      0x00\n        /* \"#utility.yul\":4159:4165   */\n      dup3\n        /* \"#utility.yul\":4155:4169   */\n      add\n        /* \"#utility.yul\":4148:4196   */\n      mstore\n        /* \"#utility.yul\":4031:4203   */\n      pop\n      jump\t// out\n        /* \"#utility.yul\":4209:4575   */\n    tag_77:\n        /* \"#utility.yul\":4351:4354   */\n      0x00\n        /* \"#utility.yul\":4372:4439   */\n      tag_127\n        /* \"#utility.yul\":4436:4438   */\n      0x16\n        /* \"#utility.yul\":4431:4434   */\n      dup4\n        /* \"#utility.yul\":4372:4439   */\n      tag_73\n      jump\t// in\n    tag_127:\n        /* \"#utility.yul\":4365:4439   */\n      swap2\n      pop\n        /* \"#utility.yul\":4448:4541   */\n      tag_128\n        /* \"#utility.yul\":4537:4540   */\n      dup3\n        /* \"#utility.yul\":4448:4541   */\n      tag_76\n      jump\t// in\n    tag_128:\n        /* \"#utility.yul\":4566:4568   */\n      0x20\n        /* \"#utility.yul\":4561:4564   */\n      dup3\n        /* \"#utility.yul\":4557:4569   */\n      add\n        /* \"#utility.yul\":4550:4569   */\n      swap1\n      pop\n        /* \"#utility.yul\":4209:4575   */\n      swap2\n      swap1\n      pop\n      jump\t// out\n        /* \"#utility.yul\":4581:5000   */\n    tag_43:\n        /* \"#utility.yul\":4747:4751   */\n      0x00\n        /* \"#utility.yul\":4785:4787   */\n      0x20\n        /* \"#utility.yul\":4774:4783   */\n      dup3\n        /* \"#utility.yul\":4770:4788   */\n      add\n        /* \"#utility.yul\":4762:4788   */\n      swap1\n      pop\n        /* \"#utility.yul\":4834:4843   */\n      dup2\n        /* \"#utility.yul\":4828:4832   */\n      dup2\n        /* \"#utility.yul\":4824:4844   */\n      sub\n        /* \"#utility.yul\":4820:4821   */\n      0x00\n        /* \"#utility.yul\":4809:4818   */\n      dup4\n        /* \"#utility.yul\":4805:4822   */\n      add\n        /* \"#utility.yul\":4798:4845   */\n      mstore\n        /* \"#utility.yul\":4862:4993   */\n      tag_130\n        /* \"#utility.yul\":4988:4992   */\n      dup2\n        /* \"#utility.yul\":4862:4993   */\n      tag_77\n      jump\t// in\n    tag_130:\n        /* \"#utility.yul\":4854:4993   */\n      swap1\n      pop\n        /* \"#utility.yul\":4581:5000   */\n      swap2\n      swap1\n      pop\n      jump\t// out\n        /* \"#utility.yul\":5006:5174   */\n    tag_78:\n        /* \"#utility.yul\":5146:5166   */\n      0x53616c646f20696e737566696369656e74650000000000000000000000000000\n        /* \"#utility.yul\":5142:5143   */\n      0x00\n        /* \"#utility.yul\":5134:5140   */\n      dup3\n        /* \"#utility.yul\":5130:5144   */\n      add\n        /* \"#utility.yul\":5123:5167   */\n      mstore\n        /* \"#utility.yul\":5006:5174   */\n      pop\n      jump\t// out\n        /* \"#utility.yul\":5180:5546   */\n    tag_79:\n        /* \"#utility.yul\":5322:5325   */\n      0x00\n        /* \"#utility.yul\":5343:5410   */\n      tag_133\n        /* \"#utility.yul\":5407:5409   */\n      0x12\n        /* \"#utility.yul\":5402:5405   */\n      dup4\n        /* \"#utility.yul\":5343:5410   */\n      tag_73\n      jump\t// in\n    tag_133:\n        /* \"#utility.yul\":5336:5410   */\n      swap2\n      pop\n        /* \"#utility.yul\":5419:5512   */\n      tag_134\n        /* \"#utility.yul\":5508:5511   */\n      dup3\n        /* \"#utility.yul\":5419:5512   */\n      tag_78\n      jump\t// in\n    tag_134:\n        /* \"#utility.yul\":5537:5539   */\n      0x20\n        /* \"#utility.yul\":5532:5535   */\n      dup3\n        /* \"#utility.yul\":5528:5540   */\n      add\n        /* \"#utility.yul\":5521:5540   */\n      swap1\n      pop\n        /* \"#utility.yul\":5180:5546   */\n      swap2\n      swap1\n      pop\n      jump\t// out\n        /* \"#utility.yul\":5552:5971   */\n    tag_46:\n        /* \"#utility.yul\":5718:5722   */\n      0x00\n        /* \"#utility.yul\":5756:5758   */\n      0x20\n        /* \"#utility.yul\":5745:5754   */\n      dup3\n        /* \"#utility.yul\":5741:5759   */\n      add\n        /* \"#utility.yul\":5733:5759   */\n      swap1\n      pop\n        /* \"#utility.yul\":5805:5814   */\n      dup2\n        /* \"#utility.yul\":5799:5803   */\n      dup2\n        /* \"#utility.yul\":5795:5815   */\n      sub\n        /* \"#utility.yul\":5791:5792   */\n      0x00\n        /* \"#utility.yul\":5780:5789   */\n      dup4\n        /* \"#utility.yul\":5776:5793   */\n      add\n        /* \"#utility.yul\":5769:5816   */\n      mstore\n        /* \"#utility.yul\":5833:5964   */\n      tag_136\n        /* \"#utility.yul\":5959:5963   */\n      dup2\n        /* \"#utility.yul\":5833:5964   */\n      tag_79\n      jump\t// in\n    tag_136:\n        /* \"#utility.yul\":5825:5964   */\n      swap1\n      pop\n        /* \"#utility.yul\":5552:5971   */\n      swap2\n      swap1\n      pop\n      jump\t// out\n        /* \"#utility.yul\":5977:6157   */\n    tag_80:\n        /* \"#utility.yul\":6025:6102   */\n      0x4e487b7100000000000000000000000000000000000000000000000000000000\n        /* \"#utility.yul\":6022:6023   */\n      0x00\n        /* \"#utility.yul\":6015:6103   */\n      mstore\n        /* \"#utility.yul\":6122:6126   */\n      0x11\n        /* \"#utility.yul\":6119:6120   */\n      0x04\n        /* \"#utility.yul\":6112:6127   */\n      mstore\n        /* \"#utility.yul\":6146:6150   */\n      0x24\n        /* \"#utility.yul\":6143:6144   */\n      0x00\n        /* \"#utility.yul\":6136:6151   */\n      revert\n        /* \"#utility.yul\":6163:6357   */\n    tag_48:\n        /* \"#utility.yul\":6203:6207   */\n      0x00\n        /* \"#utility.yul\":6223:6243   */\n      tag_139\n        /* \"#utility.yul\":6241:6242   */\n      dup3\n        /* \"#utility.yul\":6223:6243   */\n      tag_60\n      jump\t// in\n    tag_139:\n        /* \"#utility.yul\":6218:6243   */\n      swap2\n      pop\n        /* \"#utility.yul\":6257:6277   */\n      tag_140\n        /* \"#utility.yul\":6275:6276   */\n      dup4\n        /* \"#utility.yul\":6257:6277   */\n      tag_60\n      jump\t// in\n    tag_140:\n        /* \"#utility.yul\":6252:6277   */\n      swap3\n      pop\n        /* \"#utility.yul\":6301:6302   */\n      dup3\n        /* \"#utility.yul\":6298:6299   */\n      dup3\n        /* \"#utility.yul\":6294:6303   */\n      sub\n        /* \"#utility.yul\":6286:6303   */\n      swap1\n      pop\n        /* \"#utility.yul\":6325:6326   */\n      dup2\n        /* \"#utility.yul\":6319:6323   */\n      dup2\n        /* \"#utility.yul\":6316:6327   */\n      gt\n        /* \"#utility.yul\":6313:6350   */\n      iszero\n      tag_141\n      jumpi\n        /* \"#utility.yul\":6330:6348   */\n      tag_142\n      tag_80\n      jump\t// in\n    tag_142:\n        /* \"#utility.yul\":6313:6350   */\n    tag_141:\n        /* \"#utility.yul\":6163:6357   */\n      swap3\n      swap2\n      pop\n      pop\n      jump\t// out\n\n    auxdata: 0xa2646970667358221220cce3d612d02fd83a56ba8b991e537e47fbde9f2bd51a7d32df1c57d3a39eb1d964736f6c634300081e0033\n}\n",
				"bytecode": {
					"linkReferences": {},
					"object": "6080604052348015600f57600080fd5b50336000806101000a81548173ffffffffffffffffffffffffffffffffffffffff021916908373ffffffffffffffffffffffffffffffffffffffff1602179055506107c78061005f6000396000f3fe60806040526004361061004e5760003560e01c80633d922f901461005a57806340a8b75a1461006457806370514bea1461008f5780637371b0d6146100ba578063bcb753fe146100e357610055565b3661005557005b600080fd5b6100626100ff565b005b34801561007057600080fd5b50610079610101565b6040516100869190610486565b60405180910390f35b34801561009b57600080fd5b506100a4610198565b6040516100b191906104e2565b60405180910390f35b3480156100c657600080fd5b506100e160048036038101906100dc919061052e565b6101bc565b005b6100fd60048036038101906100f89190610599565b610351565b005b565b60008060009054906101000a900473ffffffffffffffffffffffffffffffffffffffff1673ffffffffffffffffffffffffffffffffffffffff163373ffffffffffffffffffffffffffffffffffffffff1614610192576040517f08c379a000000000000000000000000000000000000000000000000000000000815260040161018990610636565b60405180910390fd5b47905090565b60008054906101000a900473ffffffffffffffffffffffffffffffffffffffff1681565b60008054906101000a900473ffffffffffffffffffffffffffffffffffffffff1673ffffffffffffffffffffffffffffffffffffffff163373ffffffffffffffffffffffffffffffffffffffff161461024a576040517f08c379a000000000000000000000000000000000000000000000000000000000815260040161024190610636565b60405180910390fd5b6000655af3107a4000905080821015610298576040517f08c379a000000000000000000000000000000000000000000000000000000000815260040161028f906106a2565b60405180910390fd5b478211156102db576040517f08c379a00000000000000000000000000000000000000000000000000000000081526004016102d29061070e565b60405180910390fd5b60008054906101000a900473ffffffffffffffffffffffffffffffffffffffff1673ffffffffffffffffffffffffffffffffffffffff166108fc8284610321919061075d565b9081150290604051600060405180830381858888f1935050505015801561034c573d6000803e3d6000fd5b505050565b60008054906101000a900473ffffffffffffffffffffffffffffffffffffffff1673ffffffffffffffffffffffffffffffffffffffff163373ffffffffffffffffffffffffffffffffffffffff16146103df576040517f08c379a00000000000000000000000000000000000000000000000000000000081526004016103d690610636565b60405180910390fd5b47341115610422576040517f08c379a00000000000000000000000000000000000000000000000000000000081526004016104199061070e565b60405180910390fd5b8173ffffffffffffffffffffffffffffffffffffffff166108fc829081150290604051600060405180830381858888f19350505050158015610468573d6000803e3d6000fd5b505050565b6000819050919050565b6104808161046d565b82525050565b600060208201905061049b6000830184610477565b92915050565b600073ffffffffffffffffffffffffffffffffffffffff82169050919050565b60006104cc826104a1565b9050919050565b6104dc816104c1565b82525050565b60006020820190506104f760008301846104d3565b92915050565b600080fd5b61050b8161046d565b811461051657600080fd5b50565b60008135905061052881610502565b92915050565b600060208284031215610544576105436104fd565b5b600061055284828501610519565b91505092915050565b6000610566826104a1565b9050919050565b6105768161055b565b811461058157600080fd5b50565b6000813590506105938161056d565b92915050565b600080604083850312156105b0576105af6104fd565b5b60006105be85828601610584565b92505060206105cf85828601610519565b9150509250929050565b600082825260208201905092915050565b7f4170656e6173206f20646f6e6f20706f6465207472616e736665726972000000600082015250565b6000610620601d836105d9565b915061062b826105ea565b602082019050919050565b6000602082019050818103600083015261064f81610613565b9050919050565b7f56616c6f72206d656e6f72207175652061207461786100000000000000000000600082015250565b600061068c6016836105d9565b915061069782610656565b602082019050919050565b600060208201905081810360008301526106bb8161067f565b9050919050565b7f53616c646f20696e737566696369656e74650000000000000000000000000000600082015250565b60006106f86012836105d9565b9150610703826106c2565b602082019050919050565b60006020820190508181036000830152610727816106eb565b9050919050565b7f4e487b7100000000000000000000000000000000000000000000000000000000600052601160045260246000fd5b60006107688261046d565b91506107738361046d565b925082820390508181111561078b5761078a61072e565b5b9291505056fea2646970667358221220cce3d612d02fd83a56ba8b991e537e47fbde9f2bd51a7d32df1c57d3a39eb1d964736f6c634300081e0033",
					"opcodes": "PUSH1 0x80 PUSH1 0x40 MSTORE CALLVALUE DUP1 ISZERO PUSH1 0xF JUMPI PUSH1 0x0 DUP1 REVERT JUMPDEST POP CALLER PUSH1 0x0 DUP1 PUSH2 0x100 EXP DUP2 SLOAD DUP2 PUSH20 0xFFFFFFFFFFFFFFFFFFFFFFFFFFFFFFFFFFFFFFFF MUL NOT AND SWAP1 DUP4 PUSH20 0xFFFFFFFFFFFFFFFFFFFFFFFFFFFFFFFFFFFFFFFF AND MUL OR SWAP1 SSTORE POP PUSH2 0x7C7 DUP1 PUSH2 0x5F PUSH1 0x0 CODECOPY PUSH1 0x0 RETURN INVALID PUSH1 0x80 PUSH1 0x40 MSTORE PUSH1 0x4 CALLDATASIZE LT PUSH2 0x4E JUMPI PUSH1 0x0 CALLDATALOAD PUSH1 0xE0 SHR DUP1 PUSH4 0x3D922F90 EQ PUSH2 0x5A JUMPI DUP1 PUSH4 0x40A8B75A EQ PUSH2 0x64 JUMPI DUP1 PUSH4 0x70514BEA EQ PUSH2 0x8F JUMPI DUP1 PUSH4 0x7371B0D6 EQ PUSH2 0xBA JUMPI DUP1 PUSH4 0xBCB753FE EQ PUSH2 0xE3 JUMPI PUSH2 0x55 JUMP JUMPDEST CALLDATASIZE PUSH2 0x55 JUMPI STOP JUMPDEST PUSH1 0x0 DUP1 REVERT JUMPDEST PUSH2 0x62 PUSH2 0xFF JUMP JUMPDEST STOP JUMPDEST CALLVALUE DUP1 ISZERO PUSH2 0x70 JUMPI PUSH1 0x0 DUP1 REVERT JUMPDEST POP PUSH2 0x79 PUSH2 0x101 JUMP JUMPDEST PUSH1 0x40 MLOAD PUSH2 0x86 SWAP2 SWAP1 PUSH2 0x486 JUMP JUMPDEST PUSH1 0x40 MLOAD DUP1 SWAP2 SUB SWAP1 RETURN JUMPDEST CALLVALUE DUP1 ISZERO PUSH2 0x9B JUMPI PUSH1 0x0 DUP1 REVERT JUMPDEST POP PUSH2 0xA4 PUSH2 0x198 JUMP JUMPDEST PUSH1 0x40 MLOAD PUSH2 0xB1 SWAP2 SWAP1 PUSH2 0x4E2 JUMP JUMPDEST PUSH1 0x40 MLOAD DUP1 SWAP2 SUB SWAP1 RETURN JUMPDEST CALLVALUE DUP1 ISZERO PUSH2 0xC6 JUMPI PUSH1 0x0 DUP1 REVERT JUMPDEST POP PUSH2 0xE1 PUSH1 0x4 DUP1 CALLDATASIZE SUB DUP2 ADD SWAP1 PUSH2 0xDC SWAP2 SWAP1 PUSH2 0x52E JUMP JUMPDEST PUSH2 0x1BC JUMP JUMPDEST STOP JUMPDEST PUSH2 0xFD PUSH1 0x4 DUP1 CALLDATASIZE SUB DUP2 ADD SWAP1 PUSH2 0xF8 SWAP2 SWAP1 PUSH2 0x599 JUMP JUMPDEST PUSH2 0x351 JUMP JUMPDEST STOP JUMPDEST JUMP JUMPDEST PUSH1 0x0 DUP1 PUSH1 0x0 SWAP1 SLOAD SWAP1 PUSH2 0x100 EXP SWAP1 DIV PUSH20 0xFFFFFFFFFFFFFFFFFFFFFFFFFFFFFFFFFFFFFFFF AND PUSH20 0xFFFFFFFFFFFFFFFFFFFFFFFFFFFFFFFFFFFFFFFF AND CALLER PUSH20 0xFFFFFFFFFFFFFFFFFFFFFFFFFFFFFFFFFFFFFFFF AND EQ PUSH2 0x192 JUMPI PUSH1 0x40 MLOAD PUSH32 0x8C379A000000000000000000000000000000000000000000000000000000000 DUP2 MSTORE PUSH1 0x4 ADD PUSH2 0x189 SWAP1 PUSH2 0x636 JUMP JUMPDEST PUSH1 0x40 MLOAD DUP1 SWAP2 SUB SWAP1 REVERT JUMPDEST SELFBALANCE SWAP1 POP SWAP1 JUMP JUMPDEST PUSH1 0x0 DUP1 SLOAD SWAP1 PUSH2 0x100 EXP SWAP1 DIV PUSH20 0xFFFFFFFFFFFFFFFFFFFFFFFFFFFFFFFFFFFFFFFF AND DUP2 JUMP JUMPDEST PUSH1 0x0 DUP1 SLOAD SWAP1 PUSH2 0x100 EXP SWAP1 DIV PUSH20 0xFFFFFFFFFFFFFFFFFFFFFFFFFFFFFFFFFFFFFFFF AND PUSH20 0xFFFFFFFFFFFFFFFFFFFFFFFFFFFFFFFFFFFFFFFF AND CALLER PUSH20 0xFFFFFFFFFFFFFFFFFFFFFFFFFFFFFFFFFFFFFFFF AND EQ PUSH2 0x24A JUMPI PUSH1 0x40 MLOAD PUSH32 0x8C379A000000000000000000000000000000000000000000000000000000000 DUP2 MSTORE PUSH1 0x4 ADD PUSH2 0x241 SWAP1 PUSH2 0x636 JUMP JUMPDEST PUSH1 0x40 MLOAD DUP1 SWAP2 SUB SWAP1 REVERT JUMPDEST PUSH1 0x0 PUSH6 0x5AF3107A4000 SWAP1 POP DUP1 DUP3 LT ISZERO PUSH2 0x298 JUMPI PUSH1 0x40 MLOAD PUSH32 0x8C379A000000000000000000000000000000000000000000000000000000000 DUP2 MSTORE PUSH1 0x4 ADD PUSH2 0x28F SWAP1 PUSH2 0x6A2 JUMP JUMPDEST PUSH1 0x40 MLOAD DUP1 SWAP2 SUB SWAP1 REVERT JUMPDEST SELFBALANCE DUP3 GT ISZERO PUSH2 0x2DB JUMPI PUSH1 0x40 MLOAD PUSH32 0x8C379A000000000000000000000000000000000000000000000000000000000 DUP2 MSTORE PUSH1 0x4 ADD PUSH2 0x2D2 SWAP1 PUSH2 0x70E JUMP JUMPDEST PUSH1 0x40 MLOAD DUP1 SWAP2 SUB SWAP1 REVERT JUMPDEST PUSH1 0x0 DUP1 SLOAD SWAP1 PUSH2 0x100 EXP SWAP1 DIV PUSH20 0xFFFFFFFFFFFFFFFFFFFFFFFFFFFFFFFFFFFFFFFF AND PUSH20 0xFFFFFFFFFFFFFFFFFFFFFFFFFFFFFFFFFFFFFFFF AND PUSH2 0x8FC DUP3 DUP5 PUSH2 0x321 SWAP2 SWAP1 PUSH2 0x75D JUMP JUMPDEST SWAP1 DUP2 ISZERO MUL SWAP1 PUSH1 0x40 MLOAD PUSH1 0x0 PUSH1 0x40 MLOAD DUP1 DUP4 SUB DUP2 DUP6 DUP9 DUP9 CALL SWAP4 POP POP POP POP ISZERO DUP1 ISZERO PUSH2 0x34C JUMPI RETURNDATASIZE PUSH1 0x0 DUP1 RETURNDATACOPY RETURNDATASIZE PUSH1 0x0 REVERT JUMPDEST POP POP POP JUMP JUMPDEST PUSH1 0x0 DUP1 SLOAD SWAP1 PUSH2 0x100 EXP SWAP1 DIV PUSH20 0xFFFFFFFFFFFFFFFFFFFFFFFFFFFFFFFFFFFFFFFF AND PUSH20 0xFFFFFFFFFFFFFFFFFFFFFFFFFFFFFFFFFFFFFFFF AND CALLER PUSH20 0xFFFFFFFFFFFFFFFFFFFFFFFFFFFFFFFFFFFFFFFF AND EQ PUSH2 0x3DF JUMPI PUSH1 0x40 MLOAD PUSH32 0x8C379A000000000000000000000000000000000000000000000000000000000 DUP2 MSTORE PUSH1 0x4 ADD PUSH2 0x3D6 SWAP1 PUSH2 0x636 JUMP JUMPDEST PUSH1 0x40 MLOAD DUP1 SWAP2 SUB SWAP1 REVERT JUMPDEST SELFBALANCE CALLVALUE GT ISZERO PUSH2 0x422 JUMPI PUSH1 0x40 MLOAD PUSH32 0x8C379A000000000000000000000000000000000000000000000000000000000 DUP2 MSTORE PUSH1 0x4 ADD PUSH2 0x419 SWAP1 PUSH2 0x70E JUMP JUMPDEST PUSH1 0x40 MLOAD DUP1 SWAP2 SUB SWAP1 REVERT JUMPDEST DUP2 PUSH20 0xFFFFFFFFFFFFFFFFFFFFFFFFFFFFFFFFFFFFFFFF AND PUSH2 0x8FC DUP3 SWAP1 DUP2 ISZERO MUL SWAP1 PUSH1 0x40 MLOAD PUSH1 0x0 PUSH1 0x40 MLOAD DUP1 DUP4 SUB DUP2 DUP6 DUP9 DUP9 CALL SWAP4 POP POP POP POP ISZERO DUP1 ISZERO PUSH2 0x468 JUMPI RETURNDATASIZE PUSH1 0x0 DUP1 RETURNDATACOPY RETURNDATASIZE PUSH1 0x0 REVERT JUMPDEST POP POP POP JUMP JUMPDEST PUSH1 0x0 DUP2 SWAP1 POP SWAP2 SWAP1 POP JUMP JUMPDEST PUSH2 0x480 DUP2 PUSH2 0x46D JUMP JUMPDEST DUP3 MSTORE POP POP JUMP JUMPDEST PUSH1 0x0 PUSH1 0x20 DUP3 ADD SWAP1 POP PUSH2 0x49B PUSH1 0x0 DUP4 ADD DUP5 PUSH2 0x477 JUMP JUMPDEST SWAP3 SWAP2 POP POP JUMP JUMPDEST PUSH1 0x0 PUSH20 0xFFFFFFFFFFFFFFFFFFFFFFFFFFFFFFFFFFFFFFFF DUP3 AND SWAP1 POP SWAP2 SWAP1 POP JUMP JUMPDEST PUSH1 0x0 PUSH2 0x4CC DUP3 PUSH2 0x4A1 JUMP JUMPDEST SWAP1 POP SWAP2 SWAP1 POP JUMP JUMPDEST PUSH2 0x4DC DUP2 PUSH2 0x4C1 JUMP JUMPDEST DUP3 MSTORE POP POP JUMP JUMPDEST PUSH1 0x0 PUSH1 0x20 DUP3 ADD SWAP1 POP PUSH2 0x4F7 PUSH1 0x0 DUP4 ADD DUP5 PUSH2 0x4D3 JUMP JUMPDEST SWAP3 SWAP2 POP POP JUMP JUMPDEST PUSH1 0x0 DUP1 REVERT JUMPDEST PUSH2 0x50B DUP2 PUSH2 0x46D JUMP JUMPDEST DUP2 EQ PUSH2 0x516 JUMPI PUSH1 0x0 DUP1 REVERT JUMPDEST POP JUMP JUMPDEST PUSH1 0x0 DUP2 CALLDATALOAD SWAP1 POP PUSH2 0x528 DUP2 PUSH2 0x502 JUMP JUMPDEST SWAP3 SWAP2 POP POP JUMP JUMPDEST PUSH1 0x0 PUSH1 0x20 DUP3 DUP5 SUB SLT ISZERO PUSH2 0x544 JUMPI PUSH2 0x543 PUSH2 0x4FD JUMP JUMPDEST JUMPDEST PUSH1 0x0 PUSH2 0x552 DUP5 DUP3 DUP6 ADD PUSH2 0x519 JUMP JUMPDEST SWAP2 POP POP SWAP3 SWAP2 POP POP JUMP JUMPDEST PUSH1 0x0 PUSH2 0x566 DUP3 PUSH2 0x4A1 JUMP JUMPDEST SWAP1 POP SWAP2 SWAP1 POP JUMP JUMPDEST PUSH2 0x576 DUP2 PUSH2 0x55B JUMP JUMPDEST DUP2 EQ PUSH2 0x581 JUMPI PUSH1 0x0 DUP1 REVERT JUMPDEST POP JUMP JUMPDEST PUSH1 0x0 DUP2 CALLDATALOAD SWAP1 POP PUSH2 0x593 DUP2 PUSH2 0x56D JUMP JUMPDEST SWAP3 SWAP2 POP POP JUMP JUMPDEST PUSH1 0x0 DUP1 PUSH1 0x40 DUP4 DUP6 SUB SLT ISZERO PUSH2 0x5B0 JUMPI PUSH2 0x5AF PUSH2 0x4FD JUMP JUMPDEST JUMPDEST PUSH1 0x0 PUSH2 0x5BE DUP6 DUP3 DUP7 ADD PUSH2 0x584 JUMP JUMPDEST SWAP3 POP POP PUSH1 0x20 PUSH2 0x5CF DUP6 DUP3 DUP7 ADD PUSH2 0x519 JUMP JUMPDEST SWAP2 POP POP SWAP3 POP SWAP3 SWAP1 POP JUMP JUMPDEST PUSH1 0x0 DUP3 DUP3 MSTORE PUSH1 0x20 DUP3 ADD SWAP1 POP SWAP3 SWAP2 POP POP JUMP JUMPDEST PUSH32 0x4170656E6173206F20646F6E6F20706F6465207472616E736665726972000000 PUSH1 0x0 DUP3 ADD MSTORE POP JUMP JUMPDEST PUSH1 0x0 PUSH2 0x620 PUSH1 0x1D DUP4 PUSH2 0x5D9 JUMP JUMPDEST SWAP2 POP PUSH2 0x62B DUP3 PUSH2 0x5EA JUMP JUMPDEST PUSH1 0x20 DUP3 ADD SWAP1 POP SWAP2 SWAP1 POP JUMP JUMPDEST PUSH1 0x0 PUSH1 0x20 DUP3 ADD SWAP1 POP DUP2 DUP2 SUB PUSH1 0x0 DUP4 ADD MSTORE PUSH2 0x64F DUP2 PUSH2 0x613 JUMP JUMPDEST SWAP1 POP SWAP2 SWAP1 POP JUMP JUMPDEST PUSH32 0x56616C6F72206D656E6F72207175652061207461786100000000000000000000 PUSH1 0x0 DUP3 ADD MSTORE POP JUMP JUMPDEST PUSH1 0x0 PUSH2 0x68C PUSH1 0x16 DUP4 PUSH2 0x5D9 JUMP JUMPDEST SWAP2 POP PUSH2 0x697 DUP3 PUSH2 0x656 JUMP JUMPDEST PUSH1 0x20 DUP3 ADD SWAP1 POP SWAP2 SWAP1 POP JUMP JUMPDEST PUSH1 0x0 PUSH1 0x20 DUP3 ADD SWAP1 POP DUP2 DUP2 SUB PUSH1 0x0 DUP4 ADD MSTORE PUSH2 0x6BB DUP2 PUSH2 0x67F JUMP JUMPDEST SWAP1 POP SWAP2 SWAP1 POP JUMP JUMPDEST PUSH32 0x53616C646F20696E737566696369656E74650000000000000000000000000000 PUSH1 0x0 DUP3 ADD MSTORE POP JUMP JUMPDEST PUSH1 0x0 PUSH2 0x6F8 PUSH1 0x12 DUP4 PUSH2 0x5D9 JUMP JUMPDEST SWAP2 POP PUSH2 0x703 DUP3 PUSH2 0x6C2 JUMP JUMPDEST PUSH1 0x20 DUP3 ADD SWAP1 POP SWAP2 SWAP1 POP JUMP JUMPDEST PUSH1 0x0 PUSH1 0x20 DUP3 ADD SWAP1 POP DUP2 DUP2 SUB PUSH1 0x0 DUP4 ADD MSTORE PUSH2 0x727 DUP2 PUSH2 0x6EB JUMP JUMPDEST SWAP1 POP SWAP2 SWAP1 POP JUMP JUMPDEST PUSH32 0x4E487B7100000000000000000000000000000000000000000000000000000000 PUSH1 0x0 MSTORE PUSH1 0x11 PUSH1 0x4 MSTORE PUSH1 0x24 PUSH1 0x0 REVERT JUMPDEST PUSH1 0x0 PUSH2 0x768 DUP3 PUSH2 0x46D JUMP JUMPDEST SWAP2 POP PUSH2 0x773 DUP4 PUSH2 0x46D JUMP JUMPDEST SWAP3 POP DUP3 DUP3 SUB SWAP1 POP DUP2 DUP2 GT ISZERO PUSH2 0x78B JUMPI PUSH2 0x78A PUSH2 0x72E JUMP JUMPDEST JUMPDEST SWAP3 SWAP2 POP POP JUMP INVALID LOG2 PUSH5 0x6970667358 0x22 SLT KECCAK256 0xCC CALLF 0xD612 0xD0 0x2F 0xD8 GASPRICE JUMP 0xBA DUP12 SWAP10 0x1E MSTORE8 PUSH31 0x47FBDE9F2BD51A7D32DF1C57D3A39EB1D964736F6C634300081E0033000000 "
				},
				"gasEstimates": {
					"creation": {
						"codeDepositCost": "398200",
						"executionCost": "24702",
						"totalCost": "422902"
					},
					"external": {
						"depositar()": "98",
						"dono()": "2533",
						"sacar(uint256)": "infinite",
						"saldoDoContrato()": "2606",
						"transferirPara(address,uint256)": "infinite"
					}
				},
				"methodIdentifiers": {
					"depositar()": "3d922f90",
					"dono()": "70514bea",
					"sacar(uint256)": "7371b0d6",
					"saldoDoContrato()": "40a8b75a",
					"transferirPara(address,uint256)": "bcb753fe"
				}
			},
			"storageLayout": {
				"storage": [
					{
						"astId": 3,
						"contract": "21.10/contracts/Cofre.sol:Cofre",
						"label": "dono",
						"offset": 0,
						"slot": "0",
						"type": "t_address"
					}
				],
				"types": {
					"t_address": {
						"encoding": "inplace",
						"label": "address",
						"numberOfBytes": "20"
					}
				}
			},
			"userdoc": {
				"kind": "user",
				"methods": {},
				"version": 1
			}
		}
	}
}