{
	"21.10/contracts/projeto_final/rastreio_baterias.sol": {
		"BateriasDefeituosas": {
			"abi": [
				{
					"anonymous": false,
					"inputs": [
						{
							"indexed": false,
							"internalType": "uint256",
							"name": "index",
							"type": "uint256"
						},
						{
							"indexed": false,
							"internalType": "string",
							"name": "numeroSerie",
							"type": "string"
						}
					],
					"name": "BateriaRegistrada",
					"type": "event"
				},
				{
					"inputs": [
						{
							"internalType": "uint256",
							"name": "",
							"type": "uint256"
						}
					],
					"name": "baterias",
					"outputs": [
						{
							"internalType": "string",
							"name": "tipo",
							"type": "string"
						},
						{
							"internalType": "string",
							"name": "uso",
							"type": "string"
						},
						{
							"internalType": "string",
							"name": "numeroSerie",
							"type": "string"
						},
						{
							"internalType": "string",
							"name": "dataProducao",
							"type": "string"
						},
						{
							"internalType": "string",
							"name": "lote",
							"type": "string"
						}
					],
					"stateMutability": "view",
					"type": "function"
				},
				{
					"inputs": [
						{
							"internalType": "uint256",
							"name": "index",
							"type": "uint256"
						}
					],
					"name": "getBateria",
					"outputs": [
						{
							"internalType": "string",
							"name": "tipo",
							"type": "string"
						},
						{
							"internalType": "string",
							"name": "uso",
							"type": "string"
						},
						{
							"internalType": "string",
							"name": "numeroSerie",
							"type": "string"
						},
						{
							"internalType": "string",
							"name": "dataProducao",
							"type": "string"
						},
						{
							"internalType": "string",
							"name": "lote",
							"type": "string"
						}
					],
					"stateMutability": "view",
					"type": "function"
				},
				{
					"inputs": [],
					"name": "listar",
					"outputs": [
						{
							"components": [
								{
									"internalType": "string",
									"name": "tipo",
									"type": "string"
								},
								{
									"internalType": "string",
									"name": "uso",
									"type": "string"
								},
								{
									"internalType": "string",
									"name": "numeroSerie",
									"type": "string"
								},
								{
									"internalType": "string",
									"name": "dataProducao",
									"type": "string"
								},
								{
									"internalType": "string",
									"name": "lote",
									"type": "string"
								}
							],
							"internalType": "struct BateriasDefeituosas.Bateria[]",
							"name": "",
							"type": "tuple[]"
						}
					],
					"stateMutability": "view",
					"type": "function"
				},
				{
					"inputs": [
						{
							"internalType": "string",
							"name": "_tipo",
							"type": "string"
						},
						{
							"internalType": "string",
							"name": "_uso",
							"type": "string"
						},
						{
							"internalType": "string",
							"name": "_numeroSerie",
							"type": "string"
						},
						{
							"internalType": "string",
							"name": "_dataProducao",
							"type": "string"
						},
						{
							"internalType": "string",
							"name": "_lote",
							"type": "string"
						}
					],
					"name": "registrarBateria",
					"outputs": [],
					"stateMutability": "nonpayable",
					"type": "function"
				}
			],
			"devdoc": {
				"kind": "dev",
				"methods": {},
				"version": 1
			},
			"evm": {
				"assembly": "    /* \"21.10/contracts/projeto_final/rastreio_baterias.sol\":60:1641  contract BateriasDefeituosas {... */\n  mstore(0x40, 0x80)\n  callvalue\n  dup1\n  iszero\n  tag_1\n  jumpi\n  0x00\n  dup1\n  revert\ntag_1:\n  pop\n  dataSize(sub_0)\n  dup1\n  dataOffset(sub_0)\n  0x00\n  codecopy\n  0x00\n  return\nstop\n\nsub_0: assembly {\n        /* \"21.10/contracts/projeto_final/rastreio_baterias.sol\":60:1641  contract BateriasDefeituosas {... */\n      mstore(0x40, 0x80)\n      callvalue\n      dup1\n      iszero\n      tag_1\n      jumpi\n      0x00\n      dup1\n      revert\n    tag_1:\n      pop\n      jumpi(tag_2, lt(calldatasize, 0x04))\n      shr(0xe0, calldataload(0x00))\n      dup1\n      0x46012018\n      eq\n      tag_3\n      jumpi\n      dup1\n      0x7da30b73\n      eq\n      tag_4\n      jumpi\n      dup1\n      0xc64a5e0c\n      eq\n      tag_5\n      jumpi\n      dup1\n      0xdcc6408a\n      eq\n      tag_6\n      jumpi\n    tag_2:\n      0x00\n      dup1\n      revert\n        /* \"21.10/contracts/projeto_final/rastreio_baterias.sol\":1547:1638  function listar() public view returns (Bateria[] memory) {... */\n    tag_3:\n      tag_7\n      tag_8\n      jump\t// in\n    tag_7:\n      mload(0x40)\n      tag_9\n      swap2\n      swap1\n      tag_10\n      jump\t// in\n    tag_9:\n      mload(0x40)\n      dup1\n      swap2\n      sub\n      swap1\n      return\n        /* \"21.10/contracts/projeto_final/rastreio_baterias.sol\":406:431  Bateria[] public baterias */\n    tag_4:\n      tag_11\n      0x04\n      dup1\n      calldatasize\n      sub\n      dup2\n      add\n      swap1\n      tag_12\n      swap2\n      swap1\n      tag_13\n      jump\t// in\n    tag_12:\n      tag_14\n      jump\t// in\n    tag_11:\n      mload(0x40)\n      tag_15\n      swap6\n      swap5\n      swap4\n      swap3\n      swap2\n      swap1\n      tag_16\n      jump\t// in\n    tag_15:\n      mload(0x40)\n      dup1\n      swap2\n      sub\n      swap1\n      return\n        /* \"21.10/contracts/projeto_final/rastreio_baterias.sol\":1065:1480  function getBateria(uint index) public view returns (... */\n    tag_5:\n      tag_17\n      0x04\n      dup1\n      calldatasize\n      sub\n      dup2\n      add\n      swap1\n      tag_18\n      swap2\n      swap1\n      tag_13\n      jump\t// in\n    tag_18:\n      tag_19\n      jump\t// in\n    tag_17:\n      mload(0x40)\n      tag_20\n      swap6\n      swap5\n      swap4\n      swap3\n      swap2\n      swap1\n      tag_16\n      jump\t// in\n    tag_20:\n      mload(0x40)\n      dup1\n      swap2\n      sub\n      swap1\n      return\n        /* \"21.10/contracts/projeto_final/rastreio_baterias.sol\":627:989  function registrarBateria(... */\n    tag_6:\n      tag_21\n      0x04\n      dup1\n      calldatasize\n      sub\n      dup2\n      add\n      swap1\n      tag_22\n      swap2\n      swap1\n      tag_23\n      jump\t// in\n    tag_22:\n      tag_24\n      jump\t// in\n    tag_21:\n      stop\n        /* \"21.10/contracts/projeto_final/rastreio_baterias.sol\":1547:1638  function listar() public view returns (Bateria[] memory) {... */\n    tag_8:\n        /* \"21.10/contracts/projeto_final/rastreio_baterias.sol\":1586:1602  Bateria[] memory */\n      0x60\n        /* \"21.10/contracts/projeto_final/rastreio_baterias.sol\":1622:1630  baterias */\n      0x00\n        /* \"21.10/contracts/projeto_final/rastreio_baterias.sol\":1615:1630  return baterias */\n      dup1\n      sload\n      dup1\n      0x20\n      mul\n      0x20\n      add\n      mload(0x40)\n      swap1\n      dup2\n      add\n      0x40\n      mstore\n      dup1\n      swap3\n      swap2\n      swap1\n      dup2\n      dup2\n      mstore\n      0x20\n      add\n      0x00\n      swap1\n    tag_26:\n      dup3\n      dup3\n      lt\n      iszero\n      tag_27\n      jumpi\n      dup4\n      dup3\n      swap1\n      0x00\n      mstore\n      keccak256(0x00, 0x20)\n      swap1\n      0x05\n      mul\n      add\n      mload(0x40)\n      dup1\n      0xa0\n      add\n      0x40\n      mstore\n      swap1\n      dup2\n      0x00\n      dup3\n      add\n      dup1\n      sload\n      tag_29\n      swap1\n      tag_30\n      jump\t// in\n    tag_29:\n      dup1\n      0x1f\n      add\n      0x20\n      dup1\n      swap2\n      div\n      mul\n      0x20\n      add\n      mload(0x40)\n      swap1\n      dup2\n      add\n      0x40\n      mstore\n      dup1\n      swap3\n      swap2\n      swap1\n      dup2\n      dup2\n      mstore\n      0x20\n      add\n      dup3\n      dup1\n      sload\n      tag_31\n      swap1\n      tag_30\n      jump\t// in\n    tag_31:\n      dup1\n      iszero\n      tag_32\n      jumpi\n      dup1\n      0x1f\n      lt\n      tag_33\n      jumpi\n      0x0100\n      dup1\n      dup4\n      sload\n      div\n      mul\n      dup4\n      mstore\n      swap2\n      0x20\n      add\n      swap2\n      jump(tag_32)\n    tag_33:\n      dup3\n      add\n      swap2\n      swap1\n      0x00\n      mstore\n      keccak256(0x00, 0x20)\n      swap1\n    tag_34:\n      dup2\n      sload\n      dup2\n      mstore\n      swap1\n      0x01\n      add\n      swap1\n      0x20\n      add\n      dup1\n      dup4\n      gt\n      tag_34\n      jumpi\n      dup3\n      swap1\n      sub\n      0x1f\n      and\n      dup3\n      add\n      swap2\n    tag_32:\n      pop\n      pop\n      pop\n      pop\n      pop\n      dup2\n      mstore\n      0x20\n      add\n      0x01\n      dup3\n      add\n      dup1\n      sload\n      tag_35\n      swap1\n      tag_30\n      jump\t// in\n    tag_35:\n      dup1\n      0x1f\n      add\n      0x20\n      dup1\n      swap2\n      div\n      mul\n      0x20\n      add\n      mload(0x40)\n      swap1\n      dup2\n      add\n      0x40\n      mstore\n      dup1\n      swap3\n      swap2\n      swap1\n      dup2\n      dup2\n      mstore\n      0x20\n      add\n      dup3\n      dup1\n      sload\n      tag_36\n      swap1\n      tag_30\n      jump\t// in\n    tag_36:\n      dup1\n      iszero\n      tag_37\n      jumpi\n      dup1\n      0x1f\n      lt\n      tag_38\n      jumpi\n      0x0100\n      dup1\n      dup4\n      sload\n      div\n      mul\n      dup4\n      mstore\n      swap2\n      0x20\n      add\n      swap2\n      jump(tag_37)\n    tag_38:\n      dup3\n      add\n      swap2\n      swap1\n      0x00\n      mstore\n      keccak256(0x00, 0x20)\n      swap1\n    tag_39:\n      dup2\n      sload\n      dup2\n      mstore\n      swap1\n      0x01\n      add\n      swap1\n      0x20\n      add\n      dup1\n      dup4\n      gt\n      tag_39\n      jumpi\n      dup3\n      swap1\n      sub\n      0x1f\n      and\n      dup3\n      add\n      swap2\n    tag_37:\n      pop\n      pop\n      pop\n      pop\n      pop\n      dup2\n      mstore\n      0x20\n      add\n      0x02\n      dup3\n      add\n      dup1\n      sload\n      tag_40\n      swap1\n      tag_30\n      jump\t// in\n    tag_40:\n      dup1\n      0x1f\n      add\n      0x20\n      dup1\n      swap2\n      div\n      mul\n      0x20\n      add\n      mload(0x40)\n      swap1\n      dup2\n      add\n      0x40\n      mstore\n      dup1\n      swap3\n      swap2\n      swap1\n      dup2\n      dup2\n      mstore\n      0x20\n      add\n      dup3\n      dup1\n      sload\n      tag_41\n      swap1\n      tag_30\n      jump\t// in\n    tag_41:\n      dup1\n      iszero\n      tag_42\n      jumpi\n      dup1\n      0x1f\n      lt\n      tag_43\n      jumpi\n      0x0100\n      dup1\n      dup4\n      sload\n      div\n      mul\n      dup4\n      mstore\n      swap2\n      0x20\n      add\n      swap2\n      jump(tag_42)\n    tag_43:\n      dup3\n      add\n      swap2\n      swap1\n      0x00\n      mstore\n      keccak256(0x00, 0x20)\n      swap1\n    tag_44:\n      dup2\n      sload\n      dup2\n      mstore\n      swap1\n      0x01\n      add\n      swap1\n      0x20\n      add\n      dup1\n      dup4\n      gt\n      tag_44\n      jumpi\n      dup3\n      swap1\n      sub\n      0x1f\n      and\n      dup3\n      add\n      swap2\n    tag_42:\n      pop\n      pop\n      pop\n      pop\n      pop\n      dup2\n      mstore\n      0x20\n      add\n      0x03\n      dup3\n      add\n      dup1\n      sload\n      tag_45\n      swap1\n      tag_30\n      jump\t// in\n    tag_45:\n      dup1\n      0x1f\n      add\n      0x20\n      dup1\n      swap2\n      div\n      mul\n      0x20\n      add\n      mload(0x40)\n      swap1\n      dup2\n      add\n      0x40\n      mstore\n      dup1\n      swap3\n      swap2\n      swap1\n      dup2\n      dup2\n      mstore\n      0x20\n      add\n      dup3\n      dup1\n      sload\n      tag_46\n      swap1\n      tag_30\n      jump\t// in\n    tag_46:\n      dup1\n      iszero\n      tag_47\n      jumpi\n      dup1\n      0x1f\n      lt\n      tag_48\n      jumpi\n      0x0100\n      dup1\n      dup4\n      sload\n      div\n      mul\n      dup4\n      mstore\n      swap2\n      0x20\n      add\n      swap2\n      jump(tag_47)\n    tag_48:\n      dup3\n      add\n      swap2\n      swap1\n      0x00\n      mstore\n      keccak256(0x00, 0x20)\n      swap1\n    tag_49:\n      dup2\n      sload\n      dup2\n      mstore\n      swap1\n      0x01\n      add\n      swap1\n      0x20\n      add\n      dup1\n      dup4\n      gt\n      tag_49\n      jumpi\n      dup3\n      swap1\n      sub\n      0x1f\n      and\n      dup3\n      add\n      swap2\n    tag_47:\n      pop\n      pop\n      pop\n      pop\n      pop\n      dup2\n      mstore\n      0x20\n      add\n      0x04\n      dup3\n      add\n      dup1\n      sload\n      tag_50\n      swap1\n      tag_30\n      jump\t// in\n    tag_50:\n      dup1\n      0x1f\n      add\n      0x20\n      dup1\n      swap2\n      div\n      mul\n      0x20\n      add\n      mload(0x40)\n      swap1\n      dup2\n      add\n      0x40\n      mstore\n      dup1\n      swap3\n      swap2\n      swap1\n      dup2\n      dup2\n      mstore\n      0x20\n      add\n      dup3\n      dup1\n      sload\n      tag_51\n      swap1\n      tag_30\n      jump\t// in\n    tag_51:\n      dup1\n      iszero\n      tag_52\n      jumpi\n      dup1\n      0x1f\n      lt\n      tag_53\n      jumpi\n      0x0100\n      dup1\n      dup4\n      sload\n      div\n      mul\n      dup4\n      mstore\n      swap2\n      0x20\n      add\n      swap2\n      jump(tag_52)\n    tag_53:\n      dup3\n      add\n      swap2\n      swap1\n      0x00\n      mstore\n      keccak256(0x00, 0x20)\n      swap1\n    tag_54:\n      dup2\n      sload\n      dup2\n      mstore\n      swap1\n      0x01\n      add\n      swap1\n      0x20\n      add\n      dup1\n      dup4\n      gt\n      tag_54\n      jumpi\n      dup3\n      swap1\n      sub\n      0x1f\n      and\n      dup3\n      add\n      swap2\n    tag_52:\n      pop\n      pop\n      pop\n      pop\n      pop\n      dup2\n      mstore\n      pop\n      pop\n      dup2\n      mstore\n      0x20\n      add\n      swap1\n      0x01\n      add\n      swap1\n      jump(tag_26)\n    tag_27:\n      pop\n      pop\n      pop\n      pop\n      swap1\n      pop\n        /* \"21.10/contracts/projeto_final/rastreio_baterias.sol\":1547:1638  function listar() public view returns (Bateria[] memory) {... */\n      swap1\n      jump\t// out\n        /* \"21.10/contracts/projeto_final/rastreio_baterias.sol\":406:431  Bateria[] public baterias */\n    tag_14:\n      0x00\n      dup2\n      dup2\n      sload\n      dup2\n      lt\n      tag_55\n      jumpi\n      0x00\n      dup1\n      revert\n    tag_55:\n      swap1\n      0x00\n      mstore\n      keccak256(0x00, 0x20)\n      swap1\n      0x05\n      mul\n      add\n      0x00\n      swap2\n      pop\n      swap1\n      pop\n      dup1\n      0x00\n      add\n      dup1\n      sload\n      tag_57\n      swap1\n      tag_30\n      jump\t// in\n    tag_57:\n      dup1\n      0x1f\n      add\n      0x20\n      dup1\n      swap2\n      div\n      mul\n      0x20\n      add\n      mload(0x40)\n      swap1\n      dup2\n      add\n      0x40\n      mstore\n      dup1\n      swap3\n      swap2\n      swap1\n      dup2\n      dup2\n      mstore\n      0x20\n      add\n      dup3\n      dup1\n      sload\n      tag_58\n      swap1\n      tag_30\n      jump\t// in\n    tag_58:\n      dup1\n      iszero\n      tag_59\n      jumpi\n      dup1\n      0x1f\n      lt\n      tag_60\n      jumpi\n      0x0100\n      dup1\n      dup4\n      sload\n      div\n      mul\n      dup4\n      mstore\n      swap2\n      0x20\n      add\n      swap2\n      jump(tag_59)\n    tag_60:\n      dup3\n      add\n      swap2\n      swap1\n      0x00\n      mstore\n      keccak256(0x00, 0x20)\n      swap1\n    tag_61:\n      dup2\n      sload\n      dup2\n      mstore\n      swap1\n      0x01\n      add\n      swap1\n      0x20\n      add\n      dup1\n      dup4\n      gt\n      tag_61\n      jumpi\n      dup3\n      swap1\n      sub\n      0x1f\n      and\n      dup3\n      add\n      swap2\n    tag_59:\n      pop\n      pop\n      pop\n      pop\n      pop\n      swap1\n      dup1\n      0x01\n      add\n      dup1\n      sload\n      tag_62\n      swap1\n      tag_30\n      jump\t// in\n    tag_62:\n      dup1\n      0x1f\n      add\n      0x20\n      dup1\n      swap2\n      div\n      mul\n      0x20\n      add\n      mload(0x40)\n      swap1\n      dup2\n      add\n      0x40\n      mstore\n      dup1\n      swap3\n      swap2\n      swap1\n      dup2\n      dup2\n      mstore\n      0x20\n      add\n      dup3\n      dup1\n      sload\n      tag_63\n      swap1\n      tag_30\n      jump\t// in\n    tag_63:\n      dup1\n      iszero\n      tag_64\n      jumpi\n      dup1\n      0x1f\n      lt\n      tag_65\n      jumpi\n      0x0100\n      dup1\n      dup4\n      sload\n      div\n      mul\n      dup4\n      mstore\n      swap2\n      0x20\n      add\n      swap2\n      jump(tag_64)\n    tag_65:\n      dup3\n      add\n      swap2\n      swap1\n      0x00\n      mstore\n      keccak256(0x00, 0x20)\n      swap1\n    tag_66:\n      dup2\n      sload\n      dup2\n      mstore\n      swap1\n      0x01\n      add\n      swap1\n      0x20\n      add\n      dup1\n      dup4\n      gt\n      tag_66\n      jumpi\n      dup3\n      swap1\n      sub\n      0x1f\n      and\n      dup3\n      add\n      swap2\n    tag_64:\n      pop\n      pop\n      pop\n      pop\n      pop\n      swap1\n      dup1\n      0x02\n      add\n      dup1\n      sload\n      tag_67\n      swap1\n      tag_30\n      jump\t// in\n    tag_67:\n      dup1\n      0x1f\n      add\n      0x20\n      dup1\n      swap2\n      div\n      mul\n      0x20\n      add\n      mload(0x40)\n      swap1\n      dup2\n      add\n      0x40\n      mstore\n      dup1\n      swap3\n      swap2\n      swap1\n      dup2\n      dup2\n      mstore\n      0x20\n      add\n      dup3\n      dup1\n      sload\n      tag_68\n      swap1\n      tag_30\n      jump\t// in\n    tag_68:\n      dup1\n      iszero\n      tag_69\n      jumpi\n      dup1\n      0x1f\n      lt\n      tag_70\n      jumpi\n      0x0100\n      dup1\n      dup4\n      sload\n      div\n      mul\n      dup4\n      mstore\n      swap2\n      0x20\n      add\n      swap2\n      jump(tag_69)\n    tag_70:\n      dup3\n      add\n      swap2\n      swap1\n      0x00\n      mstore\n      keccak256(0x00, 0x20)\n      swap1\n    tag_71:\n      dup2\n      sload\n      dup2\n      mstore\n      swap1\n      0x01\n      add\n      swap1\n      0x20\n      add\n      dup1\n      dup4\n      gt\n      tag_71\n      jumpi\n      dup3\n      swap1\n      sub\n      0x1f\n      and\n      dup3\n      add\n      swap2\n    tag_69:\n      pop\n      pop\n      pop\n      pop\n      pop\n      swap1\n      dup1\n      0x03\n      add\n      dup1\n      sload\n      tag_72\n      swap1\n      tag_30\n      jump\t// in\n    tag_72:\n      dup1\n      0x1f\n      add\n      0x20\n      dup1\n      swap2\n      div\n      mul\n      0x20\n      add\n      mload(0x40)\n      swap1\n      dup2\n      add\n      0x40\n      mstore\n      dup1\n      swap3\n      swap2\n      swap1\n      dup2\n      dup2\n      mstore\n      0x20\n      add\n      dup3\n      dup1\n      sload\n      tag_73\n      swap1\n      tag_30\n      jump\t// in\n    tag_73:\n      dup1\n      iszero\n      tag_74\n      jumpi\n      dup1\n      0x1f\n      lt\n      tag_75\n      jumpi\n      0x0100\n      dup1\n      dup4\n      sload\n      div\n      mul\n      dup4\n      mstore\n      swap2\n      0x20\n      add\n      swap2\n      jump(tag_74)\n    tag_75:\n      dup3\n      add\n      swap2\n      swap1\n      0x00\n      mstore\n      keccak256(0x00, 0x20)\n      swap1\n    tag_76:\n      dup2\n      sload\n      dup2\n      mstore\n      swap1\n      0x01\n      add\n      swap1\n      0x20\n      add\n      dup1\n      dup4\n      gt\n      tag_76\n      jumpi\n      dup3\n      swap1\n      sub\n      0x1f\n      and\n      dup3\n      add\n      swap2\n    tag_74:\n      pop\n      pop\n      pop\n      pop\n      pop\n      swap1\n      dup1\n      0x04\n      add\n      dup1\n      sload\n      tag_77\n      swap1\n      tag_30\n      jump\t// in\n    tag_77:\n      dup1\n      0x1f\n      add\n      0x20\n      dup1\n      swap2\n      div\n      mul\n      0x20\n      add\n      mload(0x40)\n      swap1\n      dup2\n      add\n      0x40\n      mstore\n      dup1\n      swap3\n      swap2\n      swap1\n      dup2\n      dup2\n      mstore\n      0x20\n      add\n      dup3\n      dup1\n      sload\n      tag_78\n      swap1\n      tag_30\n      jump\t// in\n    tag_78:\n      dup1\n      iszero\n      tag_79\n      jumpi\n      dup1\n      0x1f\n      lt\n      tag_80\n      jumpi\n      0x0100\n      dup1\n      dup4\n      sload\n      div\n      mul\n      dup4\n      mstore\n      swap2\n      0x20\n      add\n      swap2\n      jump(tag_79)\n    tag_80:\n      dup3\n      add\n      swap2\n      swap1\n      0x00\n      mstore\n      keccak256(0x00, 0x20)\n      swap1\n    tag_81:\n      dup2\n      sload\n      dup2\n      mstore\n      swap1\n      0x01\n      add\n      swap1\n      0x20\n      add\n      dup1\n      dup4\n      gt\n      tag_81\n      jumpi\n      dup3\n      swap1\n      sub\n      0x1f\n      and\n      dup3\n      add\n      swap2\n    tag_79:\n      pop\n      pop\n      pop\n      pop\n      pop\n      swap1\n      pop\n      dup6\n      jump\t// out\n        /* \"21.10/contracts/projeto_final/rastreio_baterias.sol\":1065:1480  function getBateria(uint index) public view returns (... */\n    tag_19:\n        /* \"21.10/contracts/projeto_final/rastreio_baterias.sol\":1128:1146  string memory tipo */\n      0x60\n        /* \"21.10/contracts/projeto_final/rastreio_baterias.sol\":1157:1174  string memory uso */\n      dup1\n        /* \"21.10/contracts/projeto_final/rastreio_baterias.sol\":1185:1210  string memory numeroSerie */\n      0x60\n        /* \"21.10/contracts/projeto_final/rastreio_baterias.sol\":1221:1247  string memory dataProducao */\n      dup1\n        /* \"21.10/contracts/projeto_final/rastreio_baterias.sol\":1258:1276  string memory lote */\n      0x60\n        /* \"21.10/contracts/projeto_final/rastreio_baterias.sol\":1311:1319  baterias */\n      0x00\n        /* \"21.10/contracts/projeto_final/rastreio_baterias.sol\":1311:1326  baterias.length */\n      dup1\n      sload\n      swap1\n      pop\n        /* \"21.10/contracts/projeto_final/rastreio_baterias.sol\":1303:1308  index */\n      dup7\n        /* \"21.10/contracts/projeto_final/rastreio_baterias.sol\":1303:1326  index < baterias.length */\n      lt\n        /* \"21.10/contracts/projeto_final/rastreio_baterias.sol\":1295:1355  require(index < baterias.length, unicode\"Índice inválido\") */\n      tag_83\n      jumpi\n      mload(0x40)\n      0x08c379a000000000000000000000000000000000000000000000000000000000\n      dup2\n      mstore\n      0x04\n      add\n      tag_84\n      swap1\n      tag_85\n      jump\t// in\n    tag_84:\n      mload(0x40)\n      dup1\n      swap2\n      sub\n      swap1\n      revert\n    tag_83:\n        /* \"21.10/contracts/projeto_final/rastreio_baterias.sol\":1366:1382  Bateria memory b */\n      0x00\n        /* \"21.10/contracts/projeto_final/rastreio_baterias.sol\":1385:1393  baterias */\n      dup1\n        /* \"21.10/contracts/projeto_final/rastreio_baterias.sol\":1394:1399  index */\n      dup8\n        /* \"21.10/contracts/projeto_final/rastreio_baterias.sol\":1385:1400  baterias[index] */\n      dup2\n      sload\n      dup2\n      lt\n      tag_86\n      jumpi\n      tag_87\n      tag_88\n      jump\t// in\n    tag_87:\n    tag_86:\n      swap1\n      0x00\n      mstore\n      keccak256(0x00, 0x20)\n      swap1\n      0x05\n      mul\n      add\n        /* \"21.10/contracts/projeto_final/rastreio_baterias.sol\":1366:1400  Bateria memory b = baterias[index] */\n      mload(0x40)\n      dup1\n      0xa0\n      add\n      0x40\n      mstore\n      swap1\n      dup2\n      0x00\n      dup3\n      add\n      dup1\n      sload\n      tag_90\n      swap1\n      tag_30\n      jump\t// in\n    tag_90:\n      dup1\n      0x1f\n      add\n      0x20\n      dup1\n      swap2\n      div\n      mul\n      0x20\n      add\n      mload(0x40)\n      swap1\n      dup2\n      add\n      0x40\n      mstore\n      dup1\n      swap3\n      swap2\n      swap1\n      dup2\n      dup2\n      mstore\n      0x20\n      add\n      dup3\n      dup1\n      sload\n      tag_91\n      swap1\n      tag_30\n      jump\t// in\n    tag_91:\n      dup1\n      iszero\n      tag_92\n      jumpi\n      dup1\n      0x1f\n      lt\n      tag_93\n      jumpi\n      0x0100\n      dup1\n      dup4\n      sload\n      div\n      mul\n      dup4\n      mstore\n      swap2\n      0x20\n      add\n      swap2\n      jump(tag_92)\n    tag_93:\n      dup3\n      add\n      swap2\n      swap1\n      0x00\n      mstore\n      keccak256(0x00, 0x20)\n      swap1\n    tag_94:\n      dup2\n      sload\n      dup2\n      mstore\n      swap1\n      0x01\n      add\n      swap1\n      0x20\n      add\n      dup1\n      dup4\n      gt\n      tag_94\n      jumpi\n      dup3\n      swap1\n      sub\n      0x1f\n      and\n      dup3\n      add\n      swap2\n    tag_92:\n      pop\n      pop\n      pop\n      pop\n      pop\n      dup2\n      mstore\n      0x20\n      add\n      0x01\n      dup3\n      add\n      dup1\n      sload\n      tag_95\n      swap1\n      tag_30\n      jump\t// in\n    tag_95:\n      dup1\n      0x1f\n      add\n      0x20\n      dup1\n      swap2\n      div\n      mul\n      0x20\n      add\n      mload(0x40)\n      swap1\n      dup2\n      add\n      0x40\n      mstore\n      dup1\n      swap3\n      swap2\n      swap1\n      dup2\n      dup2\n      mstore\n      0x20\n      add\n      dup3\n      dup1\n      sload\n      tag_96\n      swap1\n      tag_30\n      jump\t// in\n    tag_96:\n      dup1\n      iszero\n      tag_97\n      jumpi\n      dup1\n      0x1f\n      lt\n      tag_98\n      jumpi\n      0x0100\n      dup1\n      dup4\n      sload\n      div\n      mul\n      dup4\n      mstore\n      swap2\n      0x20\n      add\n      swap2\n      jump(tag_97)\n    tag_98:\n      dup3\n      add\n      swap2\n      swap1\n      0x00\n      mstore\n      keccak256(0x00, 0x20)\n      swap1\n    tag_99:\n      dup2\n      sload\n      dup2\n      mstore\n      swap1\n      0x01\n      add\n      swap1\n      0x20\n      add\n      dup1\n      dup4\n      gt\n      tag_99\n      jumpi\n      dup3\n      swap1\n      sub\n      0x1f\n      and\n      dup3\n      add\n      swap2\n    tag_97:\n      pop\n      pop\n      pop\n      pop\n      pop\n      dup2\n      mstore\n      0x20\n      add\n      0x02\n      dup3\n      add\n      dup1\n      sload\n      tag_100\n      swap1\n      tag_30\n      jump\t// in\n    tag_100:\n      dup1\n      0x1f\n      add\n      0x20\n      dup1\n      swap2\n      div\n      mul\n      0x20\n      add\n      mload(0x40)\n      swap1\n      dup2\n      add\n      0x40\n      mstore\n      dup1\n      swap3\n      swap2\n      swap1\n      dup2\n      dup2\n      mstore\n      0x20\n      add\n      dup3\n      dup1\n      sload\n      tag_101\n      swap1\n      tag_30\n      jump\t// in\n    tag_101:\n      dup1\n      iszero\n      tag_102\n      jumpi\n      dup1\n      0x1f\n      lt\n      tag_103\n      jumpi\n      0x0100\n      dup1\n      dup4\n      sload\n      div\n      mul\n      dup4\n      mstore\n      swap2\n      0x20\n      add\n      swap2\n      jump(tag_102)\n    tag_103:\n      dup3\n      add\n      swap2\n      swap1\n      0x00\n      mstore\n      keccak256(0x00, 0x20)\n      swap1\n    tag_104:\n      dup2\n      sload\n      dup2\n      mstore\n      swap1\n      0x01\n      add\n      swap1\n      0x20\n      add\n      dup1\n      dup4\n      gt\n      tag_104\n      jumpi\n      dup3\n      swap1\n      sub\n      0x1f\n      and\n      dup3\n      add\n      swap2\n    tag_102:\n      pop\n      pop\n      pop\n      pop\n      pop\n      dup2\n      mstore\n      0x20\n      add\n      0x03\n      dup3\n      add\n      dup1\n      sload\n      tag_105\n      swap1\n      tag_30\n      jump\t// in\n    tag_105:\n      dup1\n      0x1f\n      add\n      0x20\n      dup1\n      swap2\n      div\n      mul\n      0x20\n      add\n      mload(0x40)\n      swap1\n      dup2\n      add\n      0x40\n      mstore\n      dup1\n      swap3\n      swap2\n      swap1\n      dup2\n      dup2\n      mstore\n      0x20\n      add\n      dup3\n      dup1\n      sload\n      tag_106\n      swap1\n      tag_30\n      jump\t// in\n    tag_106:\n      dup1\n      iszero\n      tag_107\n      jumpi\n      dup1\n      0x1f\n      lt\n      tag_108\n      jumpi\n      0x0100\n      dup1\n      dup4\n      sload\n      div\n      mul\n      dup4\n      mstore\n      swap2\n      0x20\n      add\n      swap2\n      jump(tag_107)\n    tag_108:\n      dup3\n      add\n      swap2\n      swap1\n      0x00\n      mstore\n      keccak256(0x00, 0x20)\n      swap1\n    tag_109:\n      dup2\n      sload\n      dup2\n      mstore\n      swap1\n      0x01\n      add\n      swap1\n      0x20\n      add\n      dup1\n      dup4\n      gt\n      tag_109\n      jumpi\n      dup3\n      swap1\n      sub\n      0x1f\n      and\n      dup3\n      add\n      swap2\n    tag_107:\n      pop\n      pop\n      pop\n      pop\n      pop\n      dup2\n      mstore\n      0x20\n      add\n      0x04\n      dup3\n      add\n      dup1\n      sload\n      tag_110\n      swap1\n      tag_30\n      jump\t// in\n    tag_110:\n      dup1\n      0x1f\n      add\n      0x20\n      dup1\n      swap2\n      div\n      mul\n      0x20\n      add\n      mload(0x40)\n      swap1\n      dup2\n      add\n      0x40\n      mstore\n      dup1\n      swap3\n      swap2\n      swap1\n      dup2\n      dup2\n      mstore\n      0x20\n      add\n      dup3\n      dup1\n      sload\n      tag_111\n      swap1\n      tag_30\n      jump\t// in\n    tag_111:\n      dup1\n      iszero\n      tag_112\n      jumpi\n      dup1\n      0x1f\n      lt\n      tag_113\n      jumpi\n      0x0100\n      dup1\n      dup4\n      sload\n      div\n      mul\n      dup4\n      mstore\n      swap2\n      0x20\n      add\n      swap2\n      jump(tag_112)\n    tag_113:\n      dup3\n      add\n      swap2\n      swap1\n      0x00\n      mstore\n      keccak256(0x00, 0x20)\n      swap1\n    tag_114:\n      dup2\n      sload\n      dup2\n      mstore\n      swap1\n      0x01\n      add\n      swap1\n      0x20\n      add\n      dup1\n      dup4\n      gt\n      tag_114\n      jumpi\n      dup3\n      swap1\n      sub\n      0x1f\n      and\n      dup3\n      add\n      swap2\n    tag_112:\n      pop\n      pop\n      pop\n      pop\n      pop\n      dup2\n      mstore\n      pop\n      pop\n      swap1\n      pop\n        /* \"21.10/contracts/projeto_final/rastreio_baterias.sol\":1419:1420  b */\n      dup1\n        /* \"21.10/contracts/projeto_final/rastreio_baterias.sol\":1419:1425  b.tipo */\n      0x00\n      add\n      mload\n        /* \"21.10/contracts/projeto_final/rastreio_baterias.sol\":1427:1428  b */\n      dup2\n        /* \"21.10/contracts/projeto_final/rastreio_baterias.sol\":1427:1432  b.uso */\n      0x20\n      add\n      mload\n        /* \"21.10/contracts/projeto_final/rastreio_baterias.sol\":1434:1435  b */\n      dup3\n        /* \"21.10/contracts/projeto_final/rastreio_baterias.sol\":1434:1447  b.numeroSerie */\n      0x40\n      add\n      mload\n        /* \"21.10/contracts/projeto_final/rastreio_baterias.sol\":1449:1450  b */\n      dup4\n        /* \"21.10/contracts/projeto_final/rastreio_baterias.sol\":1449:1463  b.dataProducao */\n      0x60\n      add\n      mload\n        /* \"21.10/contracts/projeto_final/rastreio_baterias.sol\":1465:1466  b */\n      dup5\n        /* \"21.10/contracts/projeto_final/rastreio_baterias.sol\":1465:1471  b.lote */\n      0x80\n      add\n      mload\n        /* \"21.10/contracts/projeto_final/rastreio_baterias.sol\":1411:1472  return (b.tipo, b.uso, b.numeroSerie, b.dataProducao, b.lote) */\n      swap6\n      pop\n      swap6\n      pop\n      swap6\n      pop\n      swap6\n      pop\n      swap6\n      pop\n      pop\n        /* \"21.10/contracts/projeto_final/rastreio_baterias.sol\":1065:1480  function getBateria(uint index) public view returns (... */\n      swap2\n      swap4\n      swap6\n      swap1\n      swap3\n      swap5\n      pop\n      jump\t// out\n        /* \"21.10/contracts/projeto_final/rastreio_baterias.sol\":627:989  function registrarBateria(... */\n    tag_24:\n        /* \"21.10/contracts/projeto_final/rastreio_baterias.sol\":842:850  baterias */\n      0x00\n        /* \"21.10/contracts/projeto_final/rastreio_baterias.sol\":856:912  Bateria(_tipo, _uso, _numeroSerie, _dataProducao, _lote) */\n      mload(0x40)\n      dup1\n      0xa0\n      add\n      0x40\n      mstore\n      dup1\n        /* \"21.10/contracts/projeto_final/rastreio_baterias.sol\":864:869  _tipo */\n      dup8\n        /* \"21.10/contracts/projeto_final/rastreio_baterias.sol\":856:912  Bateria(_tipo, _uso, _numeroSerie, _dataProducao, _lote) */\n      dup2\n      mstore\n      0x20\n      add\n        /* \"21.10/contracts/projeto_final/rastreio_baterias.sol\":871:875  _uso */\n      dup7\n        /* \"21.10/contracts/projeto_final/rastreio_baterias.sol\":856:912  Bateria(_tipo, _uso, _numeroSerie, _dataProducao, _lote) */\n      dup2\n      mstore\n      0x20\n      add\n        /* \"21.10/contracts/projeto_final/rastreio_baterias.sol\":877:889  _numeroSerie */\n      dup6\n        /* \"21.10/contracts/projeto_final/rastreio_baterias.sol\":856:912  Bateria(_tipo, _uso, _numeroSerie, _dataProducao, _lote) */\n      dup2\n      mstore\n      0x20\n      add\n        /* \"21.10/contracts/projeto_final/rastreio_baterias.sol\":891:904  _dataProducao */\n      dup5\n        /* \"21.10/contracts/projeto_final/rastreio_baterias.sol\":856:912  Bateria(_tipo, _uso, _numeroSerie, _dataProducao, _lote) */\n      dup2\n      mstore\n      0x20\n      add\n        /* \"21.10/contracts/projeto_final/rastreio_baterias.sol\":906:911  _lote */\n      dup4\n        /* \"21.10/contracts/projeto_final/rastreio_baterias.sol\":856:912  Bateria(_tipo, _uso, _numeroSerie, _dataProducao, _lote) */\n      dup2\n      mstore\n      pop\n        /* \"21.10/contracts/projeto_final/rastreio_baterias.sol\":842:913  baterias.push(Bateria(_tipo, _uso, _numeroSerie, _dataProducao, _lote)) */\n      swap1\n      dup1\n      0x01\n      dup2\n      sload\n      add\n      dup1\n      dup3\n      sstore\n      dup1\n      swap2\n      pop\n      pop\n      0x01\n      swap1\n      sub\n      swap1\n      0x00\n      mstore\n      keccak256(0x00, 0x20)\n      swap1\n      0x05\n      mul\n      add\n      0x00\n      swap1\n      swap2\n      swap1\n      swap2\n      swap1\n      swap2\n      pop\n      0x00\n      dup3\n      add\n      mload\n      dup2\n      0x00\n      add\n      swap1\n      dup2\n      tag_117\n      swap2\n      swap1\n      tag_118\n      jump\t// in\n    tag_117:\n      pop\n      0x20\n      dup3\n      add\n      mload\n      dup2\n      0x01\n      add\n      swap1\n      dup2\n      tag_119\n      swap2\n      swap1\n      tag_118\n      jump\t// in\n    tag_119:\n      pop\n      0x40\n      dup3\n      add\n      mload\n      dup2\n      0x02\n      add\n      swap1\n      dup2\n      tag_120\n      swap2\n      swap1\n      tag_118\n      jump\t// in\n    tag_120:\n      pop\n      0x60\n      dup3\n      add\n      mload\n      dup2\n      0x03\n      add\n      swap1\n      dup2\n      tag_121\n      swap2\n      swap1\n      tag_118\n      jump\t// in\n    tag_121:\n      pop\n      0x80\n      dup3\n      add\n      mload\n      dup2\n      0x04\n      add\n      swap1\n      dup2\n      tag_122\n      swap2\n      swap1\n      tag_118\n      jump\t// in\n    tag_122:\n      pop\n      pop\n      pop\n        /* \"21.10/contracts/projeto_final/rastreio_baterias.sol\":929:981  BateriaRegistrada(baterias.length - 1, _numeroSerie) */\n      0x26b242ce039f3c3a2405b1ed562708522ace92186a3b4d899fb64d3f23b22d95\n        /* \"21.10/contracts/projeto_final/rastreio_baterias.sol\":965:966  1 */\n      0x01\n        /* \"21.10/contracts/projeto_final/rastreio_baterias.sol\":947:955  baterias */\n      0x00\n        /* \"21.10/contracts/projeto_final/rastreio_baterias.sol\":947:962  baterias.length */\n      dup1\n      sload\n      swap1\n      pop\n        /* \"21.10/contracts/projeto_final/rastreio_baterias.sol\":947:966  baterias.length - 1 */\n      tag_123\n      swap2\n      swap1\n      tag_124\n      jump\t// in\n    tag_123:\n        /* \"21.10/contracts/projeto_final/rastreio_baterias.sol\":968:980  _numeroSerie */\n      dup5\n        /* \"21.10/contracts/projeto_final/rastreio_baterias.sol\":929:981  BateriaRegistrada(baterias.length - 1, _numeroSerie) */\n      mload(0x40)\n      tag_125\n      swap3\n      swap2\n      swap1\n      tag_126\n      jump\t// in\n    tag_125:\n      mload(0x40)\n      dup1\n      swap2\n      sub\n      swap1\n      log1\n        /* \"21.10/contracts/projeto_final/rastreio_baterias.sol\":627:989  function registrarBateria(... */\n      pop\n      pop\n      pop\n      pop\n      pop\n      jump\t// out\n        /* \"#utility.yul\":7:144   */\n    tag_127:\n        /* \"#utility.yul\":97:103   */\n      0x00\n        /* \"#utility.yul\":131:136   */\n      dup2\n        /* \"#utility.yul\":125:137   */\n      mload\n        /* \"#utility.yul\":115:137   */\n      swap1\n      pop\n        /* \"#utility.yul\":7:144   */\n      swap2\n      swap1\n      pop\n      jump\t// out\n        /* \"#utility.yul\":150:357   */\n    tag_128:\n        /* \"#utility.yul\":272:283   */\n      0x00\n        /* \"#utility.yul\":306:312   */\n      dup3\n        /* \"#utility.yul\":301:304   */\n      dup3\n        /* \"#utility.yul\":294:313   */\n      mstore\n        /* \"#utility.yul\":346:350   */\n      0x20\n        /* \"#utility.yul\":341:344   */\n      dup3\n        /* \"#utility.yul\":337:351   */\n      add\n        /* \"#utility.yul\":322:351   */\n      swap1\n      pop\n        /* \"#utility.yul\":150:357   */\n      swap3\n      swap2\n      pop\n      pop\n      jump\t// out\n        /* \"#utility.yul\":363:518   */\n    tag_129:\n        /* \"#utility.yul\":453:457   */\n      0x00\n        /* \"#utility.yul\":476:479   */\n      dup2\n        /* \"#utility.yul\":468:479   */\n      swap1\n      pop\n        /* \"#utility.yul\":506:510   */\n      0x20\n        /* \"#utility.yul\":501:504   */\n      dup3\n        /* \"#utility.yul\":497:511   */\n      add\n        /* \"#utility.yul\":489:511   */\n      swap1\n      pop\n        /* \"#utility.yul\":363:518   */\n      swap2\n      swap1\n      pop\n      jump\t// out\n        /* \"#utility.yul\":524:623   */\n    tag_130:\n        /* \"#utility.yul\":576:582   */\n      0x00\n        /* \"#utility.yul\":610:615   */\n      dup2\n        /* \"#utility.yul\":604:616   */\n      mload\n        /* \"#utility.yul\":594:616   */\n      swap1\n      pop\n        /* \"#utility.yul\":524:623   */\n      swap2\n      swap1\n      pop\n      jump\t// out\n        /* \"#utility.yul\":629:788   */\n    tag_131:\n        /* \"#utility.yul\":703:714   */\n      0x00\n        /* \"#utility.yul\":737:743   */\n      dup3\n        /* \"#utility.yul\":732:735   */\n      dup3\n        /* \"#utility.yul\":725:744   */\n      mstore\n        /* \"#utility.yul\":777:781   */\n      0x20\n        /* \"#utility.yul\":772:775   */\n      dup3\n        /* \"#utility.yul\":768:782   */\n      add\n        /* \"#utility.yul\":753:782   */\n      swap1\n      pop\n        /* \"#utility.yul\":629:788   */\n      swap3\n      swap2\n      pop\n      pop\n      jump\t// out\n        /* \"#utility.yul\":794:1042   */\n    tag_132:\n        /* \"#utility.yul\":876:877   */\n      0x00\n        /* \"#utility.yul\":886:999   */\n    tag_183:\n        /* \"#utility.yul\":900:906   */\n      dup4\n        /* \"#utility.yul\":897:898   */\n      dup2\n        /* \"#utility.yul\":894:907   */\n      lt\n        /* \"#utility.yul\":886:999   */\n      iszero\n      tag_185\n      jumpi\n        /* \"#utility.yul\":985:986   */\n      dup1\n        /* \"#utility.yul\":980:983   */\n      dup3\n        /* \"#utility.yul\":976:987   */\n      add\n        /* \"#utility.yul\":970:988   */\n      mload\n        /* \"#utility.yul\":966:967   */\n      dup2\n        /* \"#utility.yul\":961:964   */\n      dup5\n        /* \"#utility.yul\":957:968   */\n      add\n        /* \"#utility.yul\":950:989   */\n      mstore\n        /* \"#utility.yul\":922:924   */\n      0x20\n        /* \"#utility.yul\":919:920   */\n      dup2\n        /* \"#utility.yul\":915:925   */\n      add\n        /* \"#utility.yul\":910:925   */\n      swap1\n      pop\n        /* \"#utility.yul\":886:999   */\n      jump(tag_183)\n    tag_185:\n        /* \"#utility.yul\":1033:1034   */\n      0x00\n        /* \"#utility.yul\":1024:1030   */\n      dup5\n        /* \"#utility.yul\":1019:1022   */\n      dup5\n        /* \"#utility.yul\":1015:1031   */\n      add\n        /* \"#utility.yul\":1008:1035   */\n      mstore\n        /* \"#utility.yul\":856:1042   */\n      pop\n        /* \"#utility.yul\":794:1042   */\n      pop\n      pop\n      pop\n      jump\t// out\n        /* \"#utility.yul\":1048:1150   */\n    tag_133:\n        /* \"#utility.yul\":1089:1095   */\n      0x00\n        /* \"#utility.yul\":1140:1142   */\n      0x1f\n        /* \"#utility.yul\":1136:1143   */\n      not\n        /* \"#utility.yul\":1131:1133   */\n      0x1f\n        /* \"#utility.yul\":1124:1129   */\n      dup4\n        /* \"#utility.yul\":1120:1134   */\n      add\n        /* \"#utility.yul\":1116:1144   */\n      and\n        /* \"#utility.yul\":1106:1144   */\n      swap1\n      pop\n        /* \"#utility.yul\":1048:1150   */\n      swap2\n      swap1\n      pop\n      jump\t// out\n        /* \"#utility.yul\":1156:1513   */\n    tag_134:\n        /* \"#utility.yul\":1234:1237   */\n      0x00\n        /* \"#utility.yul\":1262:1301   */\n      tag_188\n        /* \"#utility.yul\":1295:1300   */\n      dup3\n        /* \"#utility.yul\":1262:1301   */\n      tag_130\n      jump\t// in\n    tag_188:\n        /* \"#utility.yul\":1317:1378   */\n      tag_189\n        /* \"#utility.yul\":1371:1377   */\n      dup2\n        /* \"#utility.yul\":1366:1369   */\n      dup6\n        /* \"#utility.yul\":1317:1378   */\n      tag_131\n      jump\t// in\n    tag_189:\n        /* \"#utility.yul\":1310:1378   */\n      swap4\n      pop\n        /* \"#utility.yul\":1387:1452   */\n      tag_190\n        /* \"#utility.yul\":1445:1451   */\n      dup2\n        /* \"#utility.yul\":1440:1443   */\n      dup6\n        /* \"#utility.yul\":1433:1437   */\n      0x20\n        /* \"#utility.yul\":1426:1431   */\n      dup7\n        /* \"#utility.yul\":1422:1438   */\n      add\n        /* \"#utility.yul\":1387:1452   */\n      tag_132\n      jump\t// in\n    tag_190:\n        /* \"#utility.yul\":1477:1506   */\n      tag_191\n        /* \"#utility.yul\":1499:1505   */\n      dup2\n        /* \"#utility.yul\":1477:1506   */\n      tag_133\n      jump\t// in\n    tag_191:\n        /* \"#utility.yul\":1472:1475   */\n      dup5\n        /* \"#utility.yul\":1468:1507   */\n      add\n        /* \"#utility.yul\":1461:1507   */\n      swap2\n      pop\n        /* \"#utility.yul\":1238:1513   */\n      pop\n        /* \"#utility.yul\":1156:1513   */\n      swap3\n      swap2\n      pop\n      pop\n      jump\t// out\n        /* \"#utility.yul\":1599:3011   */\n    tag_135:\n        /* \"#utility.yul\":1704:1707   */\n      0x00\n        /* \"#utility.yul\":1740:1744   */\n      0xa0\n        /* \"#utility.yul\":1735:1738   */\n      dup4\n        /* \"#utility.yul\":1731:1745   */\n      add\n        /* \"#utility.yul\":1827:1831   */\n      0x00\n        /* \"#utility.yul\":1820:1825   */\n      dup4\n        /* \"#utility.yul\":1816:1832   */\n      add\n        /* \"#utility.yul\":1810:1833   */\n      mload\n        /* \"#utility.yul\":1880:1883   */\n      dup5\n        /* \"#utility.yul\":1874:1878   */\n      dup3\n        /* \"#utility.yul\":1870:1884   */\n      sub\n        /* \"#utility.yul\":1863:1867   */\n      0x00\n        /* \"#utility.yul\":1858:1861   */\n      dup7\n        /* \"#utility.yul\":1854:1868   */\n      add\n        /* \"#utility.yul\":1847:1885   */\n      mstore\n        /* \"#utility.yul\":1906:1979   */\n      tag_193\n        /* \"#utility.yul\":1974:1978   */\n      dup3\n        /* \"#utility.yul\":1960:1972   */\n      dup3\n        /* \"#utility.yul\":1906:1979   */\n      tag_134\n      jump\t// in\n    tag_193:\n        /* \"#utility.yul\":1898:1979   */\n      swap2\n      pop\n        /* \"#utility.yul\":1755:1990   */\n      pop\n        /* \"#utility.yul\":2071:2075   */\n      0x20\n        /* \"#utility.yul\":2064:2069   */\n      dup4\n        /* \"#utility.yul\":2060:2076   */\n      add\n        /* \"#utility.yul\":2054:2077   */\n      mload\n        /* \"#utility.yul\":2124:2127   */\n      dup5\n        /* \"#utility.yul\":2118:2122   */\n      dup3\n        /* \"#utility.yul\":2114:2128   */\n      sub\n        /* \"#utility.yul\":2107:2111   */\n      0x20\n        /* \"#utility.yul\":2102:2105   */\n      dup7\n        /* \"#utility.yul\":2098:2112   */\n      add\n        /* \"#utility.yul\":2091:2129   */\n      mstore\n        /* \"#utility.yul\":2150:2223   */\n      tag_194\n        /* \"#utility.yul\":2218:2222   */\n      dup3\n        /* \"#utility.yul\":2204:2216   */\n      dup3\n        /* \"#utility.yul\":2150:2223   */\n      tag_134\n      jump\t// in\n    tag_194:\n        /* \"#utility.yul\":2142:2223   */\n      swap2\n      pop\n        /* \"#utility.yul\":2000:2234   */\n      pop\n        /* \"#utility.yul\":2323:2327   */\n      0x40\n        /* \"#utility.yul\":2316:2321   */\n      dup4\n        /* \"#utility.yul\":2312:2328   */\n      add\n        /* \"#utility.yul\":2306:2329   */\n      mload\n        /* \"#utility.yul\":2376:2379   */\n      dup5\n        /* \"#utility.yul\":2370:2374   */\n      dup3\n        /* \"#utility.yul\":2366:2380   */\n      sub\n        /* \"#utility.yul\":2359:2363   */\n      0x40\n        /* \"#utility.yul\":2354:2357   */\n      dup7\n        /* \"#utility.yul\":2350:2364   */\n      add\n        /* \"#utility.yul\":2343:2381   */\n      mstore\n        /* \"#utility.yul\":2402:2475   */\n      tag_195\n        /* \"#utility.yul\":2470:2474   */\n      dup3\n        /* \"#utility.yul\":2456:2468   */\n      dup3\n        /* \"#utility.yul\":2402:2475   */\n      tag_134\n      jump\t// in\n    tag_195:\n        /* \"#utility.yul\":2394:2475   */\n      swap2\n      pop\n        /* \"#utility.yul\":2244:2486   */\n      pop\n        /* \"#utility.yul\":2576:2580   */\n      0x60\n        /* \"#utility.yul\":2569:2574   */\n      dup4\n        /* \"#utility.yul\":2565:2581   */\n      add\n        /* \"#utility.yul\":2559:2582   */\n      mload\n        /* \"#utility.yul\":2629:2632   */\n      dup5\n        /* \"#utility.yul\":2623:2627   */\n      dup3\n        /* \"#utility.yul\":2619:2633   */\n      sub\n        /* \"#utility.yul\":2612:2616   */\n      0x60\n        /* \"#utility.yul\":2607:2610   */\n      dup7\n        /* \"#utility.yul\":2603:2617   */\n      add\n        /* \"#utility.yul\":2596:2634   */\n      mstore\n        /* \"#utility.yul\":2655:2728   */\n      tag_196\n        /* \"#utility.yul\":2723:2727   */\n      dup3\n        /* \"#utility.yul\":2709:2721   */\n      dup3\n        /* \"#utility.yul\":2655:2728   */\n      tag_134\n      jump\t// in\n    tag_196:\n        /* \"#utility.yul\":2647:2728   */\n      swap2\n      pop\n        /* \"#utility.yul\":2496:2739   */\n      pop\n        /* \"#utility.yul\":2821:2825   */\n      0x80\n        /* \"#utility.yul\":2814:2819   */\n      dup4\n        /* \"#utility.yul\":2810:2826   */\n      add\n        /* \"#utility.yul\":2804:2827   */\n      mload\n        /* \"#utility.yul\":2874:2877   */\n      dup5\n        /* \"#utility.yul\":2868:2872   */\n      dup3\n        /* \"#utility.yul\":2864:2878   */\n      sub\n        /* \"#utility.yul\":2857:2861   */\n      0x80\n        /* \"#utility.yul\":2852:2855   */\n      dup7\n        /* \"#utility.yul\":2848:2862   */\n      add\n        /* \"#utility.yul\":2841:2879   */\n      mstore\n        /* \"#utility.yul\":2900:2973   */\n      tag_197\n        /* \"#utility.yul\":2968:2972   */\n      dup3\n        /* \"#utility.yul\":2954:2966   */\n      dup3\n        /* \"#utility.yul\":2900:2973   */\n      tag_134\n      jump\t// in\n    tag_197:\n        /* \"#utility.yul\":2892:2973   */\n      swap2\n      pop\n        /* \"#utility.yul\":2749:2984   */\n      pop\n        /* \"#utility.yul\":3001:3005   */\n      dup1\n        /* \"#utility.yul\":2994:3005   */\n      swap2\n      pop\n        /* \"#utility.yul\":1709:3011   */\n      pop\n        /* \"#utility.yul\":1599:3011   */\n      swap3\n      swap2\n      pop\n      pop\n      jump\t// out\n        /* \"#utility.yul\":3017:3265   */\n    tag_136:\n        /* \"#utility.yul\":3132:3142   */\n      0x00\n        /* \"#utility.yul\":3167:3259   */\n      tag_199\n        /* \"#utility.yul\":3255:3258   */\n      dup4\n        /* \"#utility.yul\":3247:3253   */\n      dup4\n        /* \"#utility.yul\":3167:3259   */\n      tag_135\n      jump\t// in\n    tag_199:\n        /* \"#utility.yul\":3153:3259   */\n      swap1\n      pop\n        /* \"#utility.yul\":3017:3265   */\n      swap3\n      swap2\n      pop\n      pop\n      jump\t// out\n        /* \"#utility.yul\":3271:3407   */\n    tag_137:\n        /* \"#utility.yul\":3364:3368   */\n      0x00\n        /* \"#utility.yul\":3396:3400   */\n      0x20\n        /* \"#utility.yul\":3391:3394   */\n      dup3\n        /* \"#utility.yul\":3387:3401   */\n      add\n        /* \"#utility.yul\":3379:3401   */\n      swap1\n      pop\n        /* \"#utility.yul\":3271:3407   */\n      swap2\n      swap1\n      pop\n      jump\t// out\n        /* \"#utility.yul\":3497:4592   */\n    tag_138:\n        /* \"#utility.yul\":3662:3665   */\n      0x00\n        /* \"#utility.yul\":3691:3768   */\n      tag_202\n        /* \"#utility.yul\":3762:3767   */\n      dup3\n        /* \"#utility.yul\":3691:3768   */\n      tag_127\n      jump\t// in\n    tag_202:\n        /* \"#utility.yul\":3784:3893   */\n      tag_203\n        /* \"#utility.yul\":3886:3892   */\n      dup2\n        /* \"#utility.yul\":3881:3884   */\n      dup6\n        /* \"#utility.yul\":3784:3893   */\n      tag_128\n      jump\t// in\n    tag_203:\n        /* \"#utility.yul\":3777:3893   */\n      swap4\n      pop\n        /* \"#utility.yul\":3919:3922   */\n      dup4\n        /* \"#utility.yul\":3964:3968   */\n      0x20\n        /* \"#utility.yul\":3956:3962   */\n      dup3\n        /* \"#utility.yul\":3952:3969   */\n      mul\n        /* \"#utility.yul\":3947:3950   */\n      dup6\n        /* \"#utility.yul\":3943:3970   */\n      add\n        /* \"#utility.yul\":3994:4073   */\n      tag_204\n        /* \"#utility.yul\":4067:4072   */\n      dup6\n        /* \"#utility.yul\":3994:4073   */\n      tag_129\n      jump\t// in\n    tag_204:\n        /* \"#utility.yul\":4096:4103   */\n      dup1\n        /* \"#utility.yul\":4127:4128   */\n      0x00\n        /* \"#utility.yul\":4112:4547   */\n    tag_205:\n        /* \"#utility.yul\":4137:4143   */\n      dup6\n        /* \"#utility.yul\":4134:4135   */\n      dup2\n        /* \"#utility.yul\":4131:4144   */\n      lt\n        /* \"#utility.yul\":4112:4547   */\n      iszero\n      tag_207\n      jumpi\n        /* \"#utility.yul\":4208:4217   */\n      dup5\n        /* \"#utility.yul\":4202:4206   */\n      dup5\n        /* \"#utility.yul\":4198:4218   */\n      sub\n        /* \"#utility.yul\":4193:4196   */\n      dup10\n        /* \"#utility.yul\":4186:4219   */\n      mstore\n        /* \"#utility.yul\":4259:4265   */\n      dup2\n        /* \"#utility.yul\":4253:4266   */\n      mload\n        /* \"#utility.yul\":4287:4397   */\n      tag_208\n        /* \"#utility.yul\":4392:4396   */\n      dup6\n        /* \"#utility.yul\":4377:4390   */\n      dup3\n        /* \"#utility.yul\":4287:4397   */\n      tag_136\n      jump\t// in\n    tag_208:\n        /* \"#utility.yul\":4279:4397   */\n      swap5\n      pop\n        /* \"#utility.yul\":4420:4503   */\n      tag_209\n        /* \"#utility.yul\":4496:4502   */\n      dup4\n        /* \"#utility.yul\":4420:4503   */\n      tag_137\n      jump\t// in\n    tag_209:\n        /* \"#utility.yul\":4410:4503   */\n      swap3\n      pop\n        /* \"#utility.yul\":4532:4536   */\n      0x20\n        /* \"#utility.yul\":4527:4530   */\n      dup11\n        /* \"#utility.yul\":4523:4537   */\n      add\n        /* \"#utility.yul\":4516:4537   */\n      swap10\n      pop\n        /* \"#utility.yul\":4172:4547   */\n      pop\n        /* \"#utility.yul\":4159:4160   */\n      0x01\n        /* \"#utility.yul\":4156:4157   */\n      dup2\n        /* \"#utility.yul\":4152:4161   */\n      add\n        /* \"#utility.yul\":4147:4161   */\n      swap1\n      pop\n        /* \"#utility.yul\":4112:4547   */\n      jump(tag_205)\n    tag_207:\n        /* \"#utility.yul\":4116:4130   */\n      pop\n        /* \"#utility.yul\":4563:4567   */\n      dup3\n        /* \"#utility.yul\":4556:4567   */\n      swap8\n      pop\n        /* \"#utility.yul\":4583:4586   */\n      dup8\n        /* \"#utility.yul\":4576:4586   */\n      swap6\n      pop\n        /* \"#utility.yul\":3667:4592   */\n      pop\n      pop\n      pop\n      pop\n      pop\n        /* \"#utility.yul\":3497:4592   */\n      swap3\n      swap2\n      pop\n      pop\n      jump\t// out\n        /* \"#utility.yul\":4598:5063   */\n    tag_10:\n        /* \"#utility.yul\":4787:4791   */\n      0x00\n        /* \"#utility.yul\":4825:4827   */\n      0x20\n        /* \"#utility.yul\":4814:4823   */\n      dup3\n        /* \"#utility.yul\":4810:4828   */\n      add\n        /* \"#utility.yul\":4802:4828   */\n      swap1\n      pop\n        /* \"#utility.yul\":4874:4883   */\n      dup2\n        /* \"#utility.yul\":4868:4872   */\n      dup2\n        /* \"#utility.yul\":4864:4884   */\n      sub\n        /* \"#utility.yul\":4860:4861   */\n      0x00\n        /* \"#utility.yul\":4849:4858   */\n      dup4\n        /* \"#utility.yul\":4845:4862   */\n      add\n        /* \"#utility.yul\":4838:4885   */\n      mstore\n        /* \"#utility.yul\":4902:5056   */\n      tag_211\n        /* \"#utility.yul\":5051:5055   */\n      dup2\n        /* \"#utility.yul\":5042:5048   */\n      dup5\n        /* \"#utility.yul\":4902:5056   */\n      tag_138\n      jump\t// in\n    tag_211:\n        /* \"#utility.yul\":4894:5056   */\n      swap1\n      pop\n        /* \"#utility.yul\":4598:5063   */\n      swap3\n      swap2\n      pop\n      pop\n      jump\t// out\n        /* \"#utility.yul\":5069:5144   */\n    tag_139:\n        /* \"#utility.yul\":5102:5108   */\n      0x00\n        /* \"#utility.yul\":5135:5137   */\n      0x40\n        /* \"#utility.yul\":5129:5138   */\n      mload\n        /* \"#utility.yul\":5119:5138   */\n      swap1\n      pop\n        /* \"#utility.yul\":5069:5144   */\n      swap1\n      jump\t// out\n        /* \"#utility.yul\":5150:5267   */\n    tag_140:\n        /* \"#utility.yul\":5259:5260   */\n      0x00\n        /* \"#utility.yul\":5256:5257   */\n      dup1\n        /* \"#utility.yul\":5249:5261   */\n      revert\n        /* \"#utility.yul\":5273:5390   */\n    tag_141:\n        /* \"#utility.yul\":5382:5383   */\n      0x00\n        /* \"#utility.yul\":5379:5380   */\n      dup1\n        /* \"#utility.yul\":5372:5384   */\n      revert\n        /* \"#utility.yul\":5396:5473   */\n    tag_142:\n        /* \"#utility.yul\":5433:5440   */\n      0x00\n        /* \"#utility.yul\":5462:5467   */\n      dup2\n        /* \"#utility.yul\":5451:5467   */\n      swap1\n      pop\n        /* \"#utility.yul\":5396:5473   */\n      swap2\n      swap1\n      pop\n      jump\t// out\n        /* \"#utility.yul\":5479:5601   */\n    tag_143:\n        /* \"#utility.yul\":5552:5576   */\n      tag_217\n        /* \"#utility.yul\":5570:5575   */\n      dup2\n        /* \"#utility.yul\":5552:5576   */\n      tag_142\n      jump\t// in\n    tag_217:\n        /* \"#utility.yul\":5545:5550   */\n      dup2\n        /* \"#utility.yul\":5542:5577   */\n      eq\n        /* \"#utility.yul\":5532:5595   */\n      tag_218\n      jumpi\n        /* \"#utility.yul\":5591:5592   */\n      0x00\n        /* \"#utility.yul\":5588:5589   */\n      dup1\n        /* \"#utility.yul\":5581:5593   */\n      revert\n        /* \"#utility.yul\":5532:5595   */\n    tag_218:\n        /* \"#utility.yul\":5479:5601   */\n      pop\n      jump\t// out\n        /* \"#utility.yul\":5607:5746   */\n    tag_144:\n        /* \"#utility.yul\":5653:5658   */\n      0x00\n        /* \"#utility.yul\":5691:5697   */\n      dup2\n        /* \"#utility.yul\":5678:5698   */\n      calldataload\n        /* \"#utility.yul\":5669:5698   */\n      swap1\n      pop\n        /* \"#utility.yul\":5707:5740   */\n      tag_220\n        /* \"#utility.yul\":5734:5739   */\n      dup2\n        /* \"#utility.yul\":5707:5740   */\n      tag_143\n      jump\t// in\n    tag_220:\n        /* \"#utility.yul\":5607:5746   */\n      swap3\n      swap2\n      pop\n      pop\n      jump\t// out\n        /* \"#utility.yul\":5752:6081   */\n    tag_13:\n        /* \"#utility.yul\":5811:5817   */\n      0x00\n        /* \"#utility.yul\":5860:5862   */\n      0x20\n        /* \"#utility.yul\":5848:5857   */\n      dup3\n        /* \"#utility.yul\":5839:5846   */\n      dup5\n        /* \"#utility.yul\":5835:5858   */\n      sub\n        /* \"#utility.yul\":5831:5863   */\n      slt\n        /* \"#utility.yul\":5828:5947   */\n      iszero\n      tag_222\n      jumpi\n        /* \"#utility.yul\":5866:5945   */\n      tag_223\n      tag_140\n      jump\t// in\n    tag_223:\n        /* \"#utility.yul\":5828:5947   */\n    tag_222:\n        /* \"#utility.yul\":5986:5987   */\n      0x00\n        /* \"#utility.yul\":6011:6064   */\n      tag_224\n        /* \"#utility.yul\":6056:6063   */\n      dup5\n        /* \"#utility.yul\":6047:6053   */\n      dup3\n        /* \"#utility.yul\":6036:6045   */\n      dup6\n        /* \"#utility.yul\":6032:6054   */\n      add\n        /* \"#utility.yul\":6011:6064   */\n      tag_144\n      jump\t// in\n    tag_224:\n        /* \"#utility.yul\":6001:6064   */\n      swap2\n      pop\n        /* \"#utility.yul\":5957:6074   */\n      pop\n        /* \"#utility.yul\":5752:6081   */\n      swap3\n      swap2\n      pop\n      pop\n      jump\t// out\n        /* \"#utility.yul\":6087:6256   */\n    tag_145:\n        /* \"#utility.yul\":6171:6182   */\n      0x00\n        /* \"#utility.yul\":6205:6211   */\n      dup3\n        /* \"#utility.yul\":6200:6203   */\n      dup3\n        /* \"#utility.yul\":6193:6212   */\n      mstore\n        /* \"#utility.yul\":6245:6249   */\n      0x20\n        /* \"#utility.yul\":6240:6243   */\n      dup3\n        /* \"#utility.yul\":6236:6250   */\n      add\n        /* \"#utility.yul\":6221:6250   */\n      swap1\n      pop\n        /* \"#utility.yul\":6087:6256   */\n      swap3\n      swap2\n      pop\n      pop\n      jump\t// out\n        /* \"#utility.yul\":6262:6639   */\n    tag_146:\n        /* \"#utility.yul\":6350:6353   */\n      0x00\n        /* \"#utility.yul\":6378:6417   */\n      tag_227\n        /* \"#utility.yul\":6411:6416   */\n      dup3\n        /* \"#utility.yul\":6378:6417   */\n      tag_130\n      jump\t// in\n    tag_227:\n        /* \"#utility.yul\":6433:6504   */\n      tag_228\n        /* \"#utility.yul\":6497:6503   */\n      dup2\n        /* \"#utility.yul\":6492:6495   */\n      dup6\n        /* \"#utility.yul\":6433:6504   */\n      tag_145\n      jump\t// in\n    tag_228:\n        /* \"#utility.yul\":6426:6504   */\n      swap4\n      pop\n        /* \"#utility.yul\":6513:6578   */\n      tag_229\n        /* \"#utility.yul\":6571:6577   */\n      dup2\n        /* \"#utility.yul\":6566:6569   */\n      dup6\n        /* \"#utility.yul\":6559:6563   */\n      0x20\n        /* \"#utility.yul\":6552:6557   */\n      dup7\n        /* \"#utility.yul\":6548:6564   */\n      add\n        /* \"#utility.yul\":6513:6578   */\n      tag_132\n      jump\t// in\n    tag_229:\n        /* \"#utility.yul\":6603:6632   */\n      tag_230\n        /* \"#utility.yul\":6625:6631   */\n      dup2\n        /* \"#utility.yul\":6603:6632   */\n      tag_133\n      jump\t// in\n    tag_230:\n        /* \"#utility.yul\":6598:6601   */\n      dup5\n        /* \"#utility.yul\":6594:6633   */\n      add\n        /* \"#utility.yul\":6587:6633   */\n      swap2\n      pop\n        /* \"#utility.yul\":6354:6639   */\n      pop\n        /* \"#utility.yul\":6262:6639   */\n      swap3\n      swap2\n      pop\n      pop\n      jump\t// out\n        /* \"#utility.yul\":6645:7764   */\n    tag_16:\n        /* \"#utility.yul\":6950:6954   */\n      0x00\n        /* \"#utility.yul\":6988:6991   */\n      0xa0\n        /* \"#utility.yul\":6977:6986   */\n      dup3\n        /* \"#utility.yul\":6973:6992   */\n      add\n        /* \"#utility.yul\":6965:6992   */\n      swap1\n      pop\n        /* \"#utility.yul\":7038:7047   */\n      dup2\n        /* \"#utility.yul\":7032:7036   */\n      dup2\n        /* \"#utility.yul\":7028:7048   */\n      sub\n        /* \"#utility.yul\":7024:7025   */\n      0x00\n        /* \"#utility.yul\":7013:7022   */\n      dup4\n        /* \"#utility.yul\":7009:7026   */\n      add\n        /* \"#utility.yul\":7002:7049   */\n      mstore\n        /* \"#utility.yul\":7066:7144   */\n      tag_232\n        /* \"#utility.yul\":7139:7143   */\n      dup2\n        /* \"#utility.yul\":7130:7136   */\n      dup9\n        /* \"#utility.yul\":7066:7144   */\n      tag_146\n      jump\t// in\n    tag_232:\n        /* \"#utility.yul\":7058:7144   */\n      swap1\n      pop\n        /* \"#utility.yul\":7191:7200   */\n      dup2\n        /* \"#utility.yul\":7185:7189   */\n      dup2\n        /* \"#utility.yul\":7181:7201   */\n      sub\n        /* \"#utility.yul\":7176:7178   */\n      0x20\n        /* \"#utility.yul\":7165:7174   */\n      dup4\n        /* \"#utility.yul\":7161:7179   */\n      add\n        /* \"#utility.yul\":7154:7202   */\n      mstore\n        /* \"#utility.yul\":7219:7297   */\n      tag_233\n        /* \"#utility.yul\":7292:7296   */\n      dup2\n        /* \"#utility.yul\":7283:7289   */\n      dup8\n        /* \"#utility.yul\":7219:7297   */\n      tag_146\n      jump\t// in\n    tag_233:\n        /* \"#utility.yul\":7211:7297   */\n      swap1\n      pop\n        /* \"#utility.yul\":7344:7353   */\n      dup2\n        /* \"#utility.yul\":7338:7342   */\n      dup2\n        /* \"#utility.yul\":7334:7354   */\n      sub\n        /* \"#utility.yul\":7329:7331   */\n      0x40\n        /* \"#utility.yul\":7318:7327   */\n      dup4\n        /* \"#utility.yul\":7314:7332   */\n      add\n        /* \"#utility.yul\":7307:7355   */\n      mstore\n        /* \"#utility.yul\":7372:7450   */\n      tag_234\n        /* \"#utility.yul\":7445:7449   */\n      dup2\n        /* \"#utility.yul\":7436:7442   */\n      dup7\n        /* \"#utility.yul\":7372:7450   */\n      tag_146\n      jump\t// in\n    tag_234:\n        /* \"#utility.yul\":7364:7450   */\n      swap1\n      pop\n        /* \"#utility.yul\":7497:7506   */\n      dup2\n        /* \"#utility.yul\":7491:7495   */\n      dup2\n        /* \"#utility.yul\":7487:7507   */\n      sub\n        /* \"#utility.yul\":7482:7484   */\n      0x60\n        /* \"#utility.yul\":7471:7480   */\n      dup4\n        /* \"#utility.yul\":7467:7485   */\n      add\n        /* \"#utility.yul\":7460:7508   */\n      mstore\n        /* \"#utility.yul\":7525:7603   */\n      tag_235\n        /* \"#utility.yul\":7598:7602   */\n      dup2\n        /* \"#utility.yul\":7589:7595   */\n      dup6\n        /* \"#utility.yul\":7525:7603   */\n      tag_146\n      jump\t// in\n    tag_235:\n        /* \"#utility.yul\":7517:7603   */\n      swap1\n      pop\n        /* \"#utility.yul\":7651:7660   */\n      dup2\n        /* \"#utility.yul\":7645:7649   */\n      dup2\n        /* \"#utility.yul\":7641:7661   */\n      sub\n        /* \"#utility.yul\":7635:7638   */\n      0x80\n        /* \"#utility.yul\":7624:7633   */\n      dup4\n        /* \"#utility.yul\":7620:7639   */\n      add\n        /* \"#utility.yul\":7613:7662   */\n      mstore\n        /* \"#utility.yul\":7679:7757   */\n      tag_236\n        /* \"#utility.yul\":7752:7756   */\n      dup2\n        /* \"#utility.yul\":7743:7749   */\n      dup5\n        /* \"#utility.yul\":7679:7757   */\n      tag_146\n      jump\t// in\n    tag_236:\n        /* \"#utility.yul\":7671:7757   */\n      swap1\n      pop\n        /* \"#utility.yul\":6645:7764   */\n      swap7\n      swap6\n      pop\n      pop\n      pop\n      pop\n      pop\n      pop\n      jump\t// out\n        /* \"#utility.yul\":7770:7887   */\n    tag_147:\n        /* \"#utility.yul\":7879:7880   */\n      0x00\n        /* \"#utility.yul\":7876:7877   */\n      dup1\n        /* \"#utility.yul\":7869:7881   */\n      revert\n        /* \"#utility.yul\":7893:8010   */\n    tag_148:\n        /* \"#utility.yul\":8002:8003   */\n      0x00\n        /* \"#utility.yul\":7999:8000   */\n      dup1\n        /* \"#utility.yul\":7992:8004   */\n      revert\n        /* \"#utility.yul\":8016:8196   */\n    tag_149:\n        /* \"#utility.yul\":8064:8141   */\n      0x4e487b7100000000000000000000000000000000000000000000000000000000\n        /* \"#utility.yul\":8061:8062   */\n      0x00\n        /* \"#utility.yul\":8054:8142   */\n      mstore\n        /* \"#utility.yul\":8161:8165   */\n      0x41\n        /* \"#utility.yul\":8158:8159   */\n      0x04\n        /* \"#utility.yul\":8151:8166   */\n      mstore\n        /* \"#utility.yul\":8185:8189   */\n      0x24\n        /* \"#utility.yul\":8182:8183   */\n      0x00\n        /* \"#utility.yul\":8175:8190   */\n      revert\n        /* \"#utility.yul\":8202:8483   */\n    tag_150:\n        /* \"#utility.yul\":8285:8312   */\n      tag_241\n        /* \"#utility.yul\":8307:8311   */\n      dup3\n        /* \"#utility.yul\":8285:8312   */\n      tag_133\n      jump\t// in\n    tag_241:\n        /* \"#utility.yul\":8277:8283   */\n      dup2\n        /* \"#utility.yul\":8273:8313   */\n      add\n        /* \"#utility.yul\":8415:8421   */\n      dup2\n        /* \"#utility.yul\":8403:8413   */\n      dup2\n        /* \"#utility.yul\":8400:8422   */\n      lt\n        /* \"#utility.yul\":8379:8397   */\n      0xffffffffffffffff\n        /* \"#utility.yul\":8367:8377   */\n      dup3\n        /* \"#utility.yul\":8364:8398   */\n      gt\n        /* \"#utility.yul\":8361:8423   */\n      or\n        /* \"#utility.yul\":8358:8446   */\n      iszero\n      tag_242\n      jumpi\n        /* \"#utility.yul\":8426:8444   */\n      tag_243\n      tag_149\n      jump\t// in\n    tag_243:\n        /* \"#utility.yul\":8358:8446   */\n    tag_242:\n        /* \"#utility.yul\":8466:8476   */\n      dup1\n        /* \"#utility.yul\":8462:8464   */\n      0x40\n        /* \"#utility.yul\":8455:8477   */\n      mstore\n        /* \"#utility.yul\":8245:8483   */\n      pop\n        /* \"#utility.yul\":8202:8483   */\n      pop\n      pop\n      jump\t// out\n        /* \"#utility.yul\":8489:8618   */\n    tag_151:\n        /* \"#utility.yul\":8523:8529   */\n      0x00\n        /* \"#utility.yul\":8550:8570   */\n      tag_245\n      tag_139\n      jump\t// in\n    tag_245:\n        /* \"#utility.yul\":8540:8570   */\n      swap1\n      pop\n        /* \"#utility.yul\":8579:8612   */\n      tag_246\n        /* \"#utility.yul\":8607:8611   */\n      dup3\n        /* \"#utility.yul\":8599:8605   */\n      dup3\n        /* \"#utility.yul\":8579:8612   */\n      tag_150\n      jump\t// in\n    tag_246:\n        /* \"#utility.yul\":8489:8618   */\n      swap2\n      swap1\n      pop\n      jump\t// out\n        /* \"#utility.yul\":8624:8932   */\n    tag_152:\n        /* \"#utility.yul\":8686:8690   */\n      0x00\n        /* \"#utility.yul\":8776:8794   */\n      0xffffffffffffffff\n        /* \"#utility.yul\":8768:8774   */\n      dup3\n        /* \"#utility.yul\":8765:8795   */\n      gt\n        /* \"#utility.yul\":8762:8818   */\n      iszero\n      tag_248\n      jumpi\n        /* \"#utility.yul\":8798:8816   */\n      tag_249\n      tag_149\n      jump\t// in\n    tag_249:\n        /* \"#utility.yul\":8762:8818   */\n    tag_248:\n        /* \"#utility.yul\":8836:8865   */\n      tag_250\n        /* \"#utility.yul\":8858:8864   */\n      dup3\n        /* \"#utility.yul\":8836:8865   */\n      tag_133\n      jump\t// in\n    tag_250:\n        /* \"#utility.yul\":8828:8865   */\n      swap1\n      pop\n        /* \"#utility.yul\":8920:8924   */\n      0x20\n        /* \"#utility.yul\":8914:8918   */\n      dup2\n        /* \"#utility.yul\":8910:8925   */\n      add\n        /* \"#utility.yul\":8902:8925   */\n      swap1\n      pop\n        /* \"#utility.yul\":8624:8932   */\n      swap2\n      swap1\n      pop\n      jump\t// out\n        /* \"#utility.yul\":8938:9086   */\n    tag_153:\n        /* \"#utility.yul\":9036:9042   */\n      dup3\n        /* \"#utility.yul\":9031:9034   */\n      dup2\n        /* \"#utility.yul\":9026:9029   */\n      dup4\n        /* \"#utility.yul\":9013:9043   */\n      calldatacopy\n        /* \"#utility.yul\":9077:9078   */\n      0x00\n        /* \"#utility.yul\":9068:9074   */\n      dup4\n        /* \"#utility.yul\":9063:9066   */\n      dup4\n        /* \"#utility.yul\":9059:9075   */\n      add\n        /* \"#utility.yul\":9052:9079   */\n      mstore\n        /* \"#utility.yul\":8938:9086   */\n      pop\n      pop\n      pop\n      jump\t// out\n        /* \"#utility.yul\":9092:9517   */\n    tag_154:\n        /* \"#utility.yul\":9170:9175   */\n      0x00\n        /* \"#utility.yul\":9195:9261   */\n      tag_253\n        /* \"#utility.yul\":9211:9260   */\n      tag_254\n        /* \"#utility.yul\":9253:9259   */\n      dup5\n        /* \"#utility.yul\":9211:9260   */\n      tag_152\n      jump\t// in\n    tag_254:\n        /* \"#utility.yul\":9195:9261   */\n      tag_151\n      jump\t// in\n    tag_253:\n        /* \"#utility.yul\":9186:9261   */\n      swap1\n      pop\n        /* \"#utility.yul\":9284:9290   */\n      dup3\n        /* \"#utility.yul\":9277:9282   */\n      dup2\n        /* \"#utility.yul\":9270:9291   */\n      mstore\n        /* \"#utility.yul\":9322:9326   */\n      0x20\n        /* \"#utility.yul\":9315:9320   */\n      dup2\n        /* \"#utility.yul\":9311:9327   */\n      add\n        /* \"#utility.yul\":9360:9363   */\n      dup5\n        /* \"#utility.yul\":9351:9357   */\n      dup5\n        /* \"#utility.yul\":9346:9349   */\n      dup5\n        /* \"#utility.yul\":9342:9358   */\n      add\n        /* \"#utility.yul\":9339:9364   */\n      gt\n        /* \"#utility.yul\":9336:9448   */\n      iszero\n      tag_255\n      jumpi\n        /* \"#utility.yul\":9367:9446   */\n      tag_256\n      tag_148\n      jump\t// in\n    tag_256:\n        /* \"#utility.yul\":9336:9448   */\n    tag_255:\n        /* \"#utility.yul\":9457:9511   */\n      tag_257\n        /* \"#utility.yul\":9504:9510   */\n      dup5\n        /* \"#utility.yul\":9499:9502   */\n      dup3\n        /* \"#utility.yul\":9494:9497   */\n      dup6\n        /* \"#utility.yul\":9457:9511   */\n      tag_153\n      jump\t// in\n    tag_257:\n        /* \"#utility.yul\":9176:9517   */\n      pop\n        /* \"#utility.yul\":9092:9517   */\n      swap4\n      swap3\n      pop\n      pop\n      pop\n      jump\t// out\n        /* \"#utility.yul\":9537:9877   */\n    tag_155:\n        /* \"#utility.yul\":9593:9598   */\n      0x00\n        /* \"#utility.yul\":9642:9645   */\n      dup3\n        /* \"#utility.yul\":9635:9639   */\n      0x1f\n        /* \"#utility.yul\":9627:9633   */\n      dup4\n        /* \"#utility.yul\":9623:9640   */\n      add\n        /* \"#utility.yul\":9619:9646   */\n      slt\n        /* \"#utility.yul\":9609:9731   */\n      tag_259\n      jumpi\n        /* \"#utility.yul\":9650:9729   */\n      tag_260\n      tag_147\n      jump\t// in\n    tag_260:\n        /* \"#utility.yul\":9609:9731   */\n    tag_259:\n        /* \"#utility.yul\":9767:9773   */\n      dup2\n        /* \"#utility.yul\":9754:9774   */\n      calldataload\n        /* \"#utility.yul\":9792:9871   */\n      tag_261\n        /* \"#utility.yul\":9867:9870   */\n      dup5\n        /* \"#utility.yul\":9859:9865   */\n      dup3\n        /* \"#utility.yul\":9852:9856   */\n      0x20\n        /* \"#utility.yul\":9844:9850   */\n      dup7\n        /* \"#utility.yul\":9840:9857   */\n      add\n        /* \"#utility.yul\":9792:9871   */\n      tag_154\n      jump\t// in\n    tag_261:\n        /* \"#utility.yul\":9783:9871   */\n      swap2\n      pop\n        /* \"#utility.yul\":9599:9877   */\n      pop\n        /* \"#utility.yul\":9537:9877   */\n      swap3\n      swap2\n      pop\n      pop\n      jump\t// out\n        /* \"#utility.yul\":9883:11694   */\n    tag_23:\n        /* \"#utility.yul\":10028:10034   */\n      0x00\n        /* \"#utility.yul\":10036:10042   */\n      dup1\n        /* \"#utility.yul\":10044:10050   */\n      0x00\n        /* \"#utility.yul\":10052:10058   */\n      dup1\n        /* \"#utility.yul\":10060:10066   */\n      0x00\n        /* \"#utility.yul\":10109:10112   */\n      0xa0\n        /* \"#utility.yul\":10097:10106   */\n      dup7\n        /* \"#utility.yul\":10088:10095   */\n      dup9\n        /* \"#utility.yul\":10084:10107   */\n      sub\n        /* \"#utility.yul\":10080:10113   */\n      slt\n        /* \"#utility.yul\":10077:10197   */\n      iszero\n      tag_263\n      jumpi\n        /* \"#utility.yul\":10116:10195   */\n      tag_264\n      tag_140\n      jump\t// in\n    tag_264:\n        /* \"#utility.yul\":10077:10197   */\n    tag_263:\n        /* \"#utility.yul\":10264:10265   */\n      0x00\n        /* \"#utility.yul\":10253:10262   */\n      dup7\n        /* \"#utility.yul\":10249:10266   */\n      add\n        /* \"#utility.yul\":10236:10267   */\n      calldataload\n        /* \"#utility.yul\":10294:10312   */\n      0xffffffffffffffff\n        /* \"#utility.yul\":10286:10292   */\n      dup2\n        /* \"#utility.yul\":10283:10313   */\n      gt\n        /* \"#utility.yul\":10280:10397   */\n      iszero\n      tag_265\n      jumpi\n        /* \"#utility.yul\":10316:10395   */\n      tag_266\n      tag_141\n      jump\t// in\n    tag_266:\n        /* \"#utility.yul\":10280:10397   */\n    tag_265:\n        /* \"#utility.yul\":10421:10484   */\n      tag_267\n        /* \"#utility.yul\":10476:10483   */\n      dup9\n        /* \"#utility.yul\":10467:10473   */\n      dup3\n        /* \"#utility.yul\":10456:10465   */\n      dup10\n        /* \"#utility.yul\":10452:10474   */\n      add\n        /* \"#utility.yul\":10421:10484   */\n      tag_155\n      jump\t// in\n    tag_267:\n        /* \"#utility.yul\":10411:10484   */\n      swap6\n      pop\n        /* \"#utility.yul\":10207:10494   */\n      pop\n        /* \"#utility.yul\":10561:10563   */\n      0x20\n        /* \"#utility.yul\":10550:10559   */\n      dup7\n        /* \"#utility.yul\":10546:10564   */\n      add\n        /* \"#utility.yul\":10533:10565   */\n      calldataload\n        /* \"#utility.yul\":10592:10610   */\n      0xffffffffffffffff\n        /* \"#utility.yul\":10584:10590   */\n      dup2\n        /* \"#utility.yul\":10581:10611   */\n      gt\n        /* \"#utility.yul\":10578:10695   */\n      iszero\n      tag_268\n      jumpi\n        /* \"#utility.yul\":10614:10693   */\n      tag_269\n      tag_141\n      jump\t// in\n    tag_269:\n        /* \"#utility.yul\":10578:10695   */\n    tag_268:\n        /* \"#utility.yul\":10719:10782   */\n      tag_270\n        /* \"#utility.yul\":10774:10781   */\n      dup9\n        /* \"#utility.yul\":10765:10771   */\n      dup3\n        /* \"#utility.yul\":10754:10763   */\n      dup10\n        /* \"#utility.yul\":10750:10772   */\n      add\n        /* \"#utility.yul\":10719:10782   */\n      tag_155\n      jump\t// in\n    tag_270:\n        /* \"#utility.yul\":10709:10782   */\n      swap5\n      pop\n        /* \"#utility.yul\":10504:10792   */\n      pop\n        /* \"#utility.yul\":10859:10861   */\n      0x40\n        /* \"#utility.yul\":10848:10857   */\n      dup7\n        /* \"#utility.yul\":10844:10862   */\n      add\n        /* \"#utility.yul\":10831:10863   */\n      calldataload\n        /* \"#utility.yul\":10890:10908   */\n      0xffffffffffffffff\n        /* \"#utility.yul\":10882:10888   */\n      dup2\n        /* \"#utility.yul\":10879:10909   */\n      gt\n        /* \"#utility.yul\":10876:10993   */\n      iszero\n      tag_271\n      jumpi\n        /* \"#utility.yul\":10912:10991   */\n      tag_272\n      tag_141\n      jump\t// in\n    tag_272:\n        /* \"#utility.yul\":10876:10993   */\n    tag_271:\n        /* \"#utility.yul\":11017:11080   */\n      tag_273\n        /* \"#utility.yul\":11072:11079   */\n      dup9\n        /* \"#utility.yul\":11063:11069   */\n      dup3\n        /* \"#utility.yul\":11052:11061   */\n      dup10\n        /* \"#utility.yul\":11048:11070   */\n      add\n        /* \"#utility.yul\":11017:11080   */\n      tag_155\n      jump\t// in\n    tag_273:\n        /* \"#utility.yul\":11007:11080   */\n      swap4\n      pop\n        /* \"#utility.yul\":10802:11090   */\n      pop\n        /* \"#utility.yul\":11157:11159   */\n      0x60\n        /* \"#utility.yul\":11146:11155   */\n      dup7\n        /* \"#utility.yul\":11142:11160   */\n      add\n        /* \"#utility.yul\":11129:11161   */\n      calldataload\n        /* \"#utility.yul\":11188:11206   */\n      0xffffffffffffffff\n        /* \"#utility.yul\":11180:11186   */\n      dup2\n        /* \"#utility.yul\":11177:11207   */\n      gt\n        /* \"#utility.yul\":11174:11291   */\n      iszero\n      tag_274\n      jumpi\n        /* \"#utility.yul\":11210:11289   */\n      tag_275\n      tag_141\n      jump\t// in\n    tag_275:\n        /* \"#utility.yul\":11174:11291   */\n    tag_274:\n        /* \"#utility.yul\":11315:11378   */\n      tag_276\n        /* \"#utility.yul\":11370:11377   */\n      dup9\n        /* \"#utility.yul\":11361:11367   */\n      dup3\n        /* \"#utility.yul\":11350:11359   */\n      dup10\n        /* \"#utility.yul\":11346:11368   */\n      add\n        /* \"#utility.yul\":11315:11378   */\n      tag_155\n      jump\t// in\n    tag_276:\n        /* \"#utility.yul\":11305:11378   */\n      swap3\n      pop\n        /* \"#utility.yul\":11100:11388   */\n      pop\n        /* \"#utility.yul\":11455:11458   */\n      0x80\n        /* \"#utility.yul\":11444:11453   */\n      dup7\n        /* \"#utility.yul\":11440:11459   */\n      add\n        /* \"#utility.yul\":11427:11460   */\n      calldataload\n        /* \"#utility.yul\":11487:11505   */\n      0xffffffffffffffff\n        /* \"#utility.yul\":11479:11485   */\n      dup2\n        /* \"#utility.yul\":11476:11506   */\n      gt\n        /* \"#utility.yul\":11473:11590   */\n      iszero\n      tag_277\n      jumpi\n        /* \"#utility.yul\":11509:11588   */\n      tag_278\n      tag_141\n      jump\t// in\n    tag_278:\n        /* \"#utility.yul\":11473:11590   */\n    tag_277:\n        /* \"#utility.yul\":11614:11677   */\n      tag_279\n        /* \"#utility.yul\":11669:11676   */\n      dup9\n        /* \"#utility.yul\":11660:11666   */\n      dup3\n        /* \"#utility.yul\":11649:11658   */\n      dup10\n        /* \"#utility.yul\":11645:11667   */\n      add\n        /* \"#utility.yul\":11614:11677   */\n      tag_155\n      jump\t// in\n    tag_279:\n        /* \"#utility.yul\":11604:11677   */\n      swap2\n      pop\n        /* \"#utility.yul\":11398:11687   */\n      pop\n        /* \"#utility.yul\":9883:11694   */\n      swap3\n      swap6\n      pop\n      swap3\n      swap6\n      swap1\n      swap4\n      pop\n      jump\t// out\n        /* \"#utility.yul\":11700:11880   */\n    tag_156:\n        /* \"#utility.yul\":11748:11825   */\n      0x4e487b7100000000000000000000000000000000000000000000000000000000\n        /* \"#utility.yul\":11745:11746   */\n      0x00\n        /* \"#utility.yul\":11738:11826   */\n      mstore\n        /* \"#utility.yul\":11845:11849   */\n      0x22\n        /* \"#utility.yul\":11842:11843   */\n      0x04\n        /* \"#utility.yul\":11835:11850   */\n      mstore\n        /* \"#utility.yul\":11869:11873   */\n      0x24\n        /* \"#utility.yul\":11866:11867   */\n      0x00\n        /* \"#utility.yul\":11859:11874   */\n      revert\n        /* \"#utility.yul\":11886:12206   */\n    tag_30:\n        /* \"#utility.yul\":11930:11936   */\n      0x00\n        /* \"#utility.yul\":11967:11968   */\n      0x02\n        /* \"#utility.yul\":11961:11965   */\n      dup3\n        /* \"#utility.yul\":11957:11969   */\n      div\n        /* \"#utility.yul\":11947:11969   */\n      swap1\n      pop\n        /* \"#utility.yul\":12014:12015   */\n      0x01\n        /* \"#utility.yul\":12008:12012   */\n      dup3\n        /* \"#utility.yul\":12004:12016   */\n      and\n        /* \"#utility.yul\":12035:12053   */\n      dup1\n        /* \"#utility.yul\":12025:12106   */\n      tag_282\n      jumpi\n        /* \"#utility.yul\":12091:12095   */\n      0x7f\n        /* \"#utility.yul\":12083:12089   */\n      dup3\n        /* \"#utility.yul\":12079:12096   */\n      and\n        /* \"#utility.yul\":12069:12096   */\n      swap2\n      pop\n        /* \"#utility.yul\":12025:12106   */\n    tag_282:\n        /* \"#utility.yul\":12153:12155   */\n      0x20\n        /* \"#utility.yul\":12145:12151   */\n      dup3\n        /* \"#utility.yul\":12142:12156   */\n      lt\n        /* \"#utility.yul\":12122:12140   */\n      dup2\n        /* \"#utility.yul\":12119:12157   */\n      sub\n        /* \"#utility.yul\":12116:12200   */\n      tag_283\n      jumpi\n        /* \"#utility.yul\":12172:12190   */\n      tag_284\n      tag_156\n      jump\t// in\n    tag_284:\n        /* \"#utility.yul\":12116:12200   */\n    tag_283:\n        /* \"#utility.yul\":11937:12206   */\n      pop\n        /* \"#utility.yul\":11886:12206   */\n      swap2\n      swap1\n      pop\n      jump\t// out\n        /* \"#utility.yul\":12212:12426   */\n    tag_157:\n        /* \"#utility.yul\":12352:12418   */\n      0xc38d6e6469636520696e76c3a16c69646f000000000000000000000000000000\n        /* \"#utility.yul\":12348:12349   */\n      0x00\n        /* \"#utility.yul\":12340:12346   */\n      dup3\n        /* \"#utility.yul\":12336:12350   */\n      add\n        /* \"#utility.yul\":12329:12419   */\n      mstore\n        /* \"#utility.yul\":12212:12426   */\n      pop\n      jump\t// out\n        /* \"#utility.yul\":12432:12798   */\n    tag_158:\n        /* \"#utility.yul\":12574:12577   */\n      0x00\n        /* \"#utility.yul\":12595:12662   */\n      tag_287\n        /* \"#utility.yul\":12659:12661   */\n      0x11\n        /* \"#utility.yul\":12654:12657   */\n      dup4\n        /* \"#utility.yul\":12595:12662   */\n      tag_145\n      jump\t// in\n    tag_287:\n        /* \"#utility.yul\":12588:12662   */\n      swap2\n      pop\n        /* \"#utility.yul\":12671:12764   */\n      tag_288\n        /* \"#utility.yul\":12760:12763   */\n      dup3\n        /* \"#utility.yul\":12671:12764   */\n      tag_157\n      jump\t// in\n    tag_288:\n        /* \"#utility.yul\":12789:12791   */\n      0x20\n        /* \"#utility.yul\":12784:12787   */\n      dup3\n        /* \"#utility.yul\":12780:12792   */\n      add\n        /* \"#utility.yul\":12773:12792   */\n      swap1\n      pop\n        /* \"#utility.yul\":12432:12798   */\n      swap2\n      swap1\n      pop\n      jump\t// out\n        /* \"#utility.yul\":12804:13223   */\n    tag_85:\n        /* \"#utility.yul\":12970:12974   */\n      0x00\n        /* \"#utility.yul\":13008:13010   */\n      0x20\n        /* \"#utility.yul\":12997:13006   */\n      dup3\n        /* \"#utility.yul\":12993:13011   */\n      add\n        /* \"#utility.yul\":12985:13011   */\n      swap1\n      pop\n        /* \"#utility.yul\":13057:13066   */\n      dup2\n        /* \"#utility.yul\":13051:13055   */\n      dup2\n        /* \"#utility.yul\":13047:13067   */\n      sub\n        /* \"#utility.yul\":13043:13044   */\n      0x00\n        /* \"#utility.yul\":13032:13041   */\n      dup4\n        /* \"#utility.yul\":13028:13045   */\n      add\n        /* \"#utility.yul\":13021:13068   */\n      mstore\n        /* \"#utility.yul\":13085:13216   */\n      tag_290\n        /* \"#utility.yul\":13211:13215   */\n      dup2\n        /* \"#utility.yul\":13085:13216   */\n      tag_158\n      jump\t// in\n    tag_290:\n        /* \"#utility.yul\":13077:13216   */\n      swap1\n      pop\n        /* \"#utility.yul\":12804:13223   */\n      swap2\n      swap1\n      pop\n      jump\t// out\n        /* \"#utility.yul\":13229:13409   */\n    tag_88:\n        /* \"#utility.yul\":13277:13354   */\n      0x4e487b7100000000000000000000000000000000000000000000000000000000\n        /* \"#utility.yul\":13274:13275   */\n      0x00\n        /* \"#utility.yul\":13267:13355   */\n      mstore\n        /* \"#utility.yul\":13374:13378   */\n      0x32\n        /* \"#utility.yul\":13371:13372   */\n      0x04\n        /* \"#utility.yul\":13364:13379   */\n      mstore\n        /* \"#utility.yul\":13398:13402   */\n      0x24\n        /* \"#utility.yul\":13395:13396   */\n      0x00\n        /* \"#utility.yul\":13388:13403   */\n      revert\n        /* \"#utility.yul\":13415:13556   */\n    tag_159:\n        /* \"#utility.yul\":13464:13468   */\n      0x00\n        /* \"#utility.yul\":13487:13490   */\n      dup2\n        /* \"#utility.yul\":13479:13490   */\n      swap1\n      pop\n        /* \"#utility.yul\":13510:13513   */\n      dup2\n        /* \"#utility.yul\":13507:13508   */\n      0x00\n        /* \"#utility.yul\":13500:13514   */\n      mstore\n        /* \"#utility.yul\":13544:13548   */\n      0x20\n        /* \"#utility.yul\":13541:13542   */\n      0x00\n        /* \"#utility.yul\":13531:13549   */\n      keccak256\n        /* \"#utility.yul\":13523:13549   */\n      swap1\n      pop\n        /* \"#utility.yul\":13415:13556   */\n      swap2\n      swap1\n      pop\n      jump\t// out\n        /* \"#utility.yul\":13562:13655   */\n    tag_160:\n        /* \"#utility.yul\":13599:13605   */\n      0x00\n        /* \"#utility.yul\":13646:13648   */\n      0x20\n        /* \"#utility.yul\":13641:13643   */\n      0x1f\n        /* \"#utility.yul\":13634:13639   */\n      dup4\n        /* \"#utility.yul\":13630:13644   */\n      add\n        /* \"#utility.yul\":13626:13649   */\n      div\n        /* \"#utility.yul\":13616:13649   */\n      swap1\n      pop\n        /* \"#utility.yul\":13562:13655   */\n      swap2\n      swap1\n      pop\n      jump\t// out\n        /* \"#utility.yul\":13661:13768   */\n    tag_161:\n        /* \"#utility.yul\":13705:13713   */\n      0x00\n        /* \"#utility.yul\":13755:13760   */\n      dup3\n        /* \"#utility.yul\":13749:13753   */\n      dup3\n        /* \"#utility.yul\":13745:13761   */\n      shl\n        /* \"#utility.yul\":13724:13761   */\n      swap1\n      pop\n        /* \"#utility.yul\":13661:13768   */\n      swap3\n      swap2\n      pop\n      pop\n      jump\t// out\n        /* \"#utility.yul\":13774:14167   */\n    tag_162:\n        /* \"#utility.yul\":13843:13849   */\n      0x00\n        /* \"#utility.yul\":13893:13894   */\n      0x08\n        /* \"#utility.yul\":13881:13891   */\n      dup4\n        /* \"#utility.yul\":13877:13895   */\n      mul\n        /* \"#utility.yul\":13916:14013   */\n      tag_296\n        /* \"#utility.yul\":13946:14012   */\n      0xffffffffffffffffffffffffffffffffffffffffffffffffffffffffffffffff\n        /* \"#utility.yul\":13935:13944   */\n      dup3\n        /* \"#utility.yul\":13916:14013   */\n      tag_161\n      jump\t// in\n    tag_296:\n        /* \"#utility.yul\":14034:14073   */\n      tag_297\n        /* \"#utility.yul\":14064:14072   */\n      dup7\n        /* \"#utility.yul\":14053:14062   */\n      dup4\n        /* \"#utility.yul\":14034:14073   */\n      tag_161\n      jump\t// in\n    tag_297:\n        /* \"#utility.yul\":14022:14073   */\n      swap6\n      pop\n        /* \"#utility.yul\":14106:14110   */\n      dup1\n        /* \"#utility.yul\":14102:14111   */\n      not\n        /* \"#utility.yul\":14095:14100   */\n      dup5\n        /* \"#utility.yul\":14091:14112   */\n      and\n        /* \"#utility.yul\":14082:14112   */\n      swap4\n      pop\n        /* \"#utility.yul\":14155:14159   */\n      dup1\n        /* \"#utility.yul\":14145:14153   */\n      dup7\n        /* \"#utility.yul\":14141:14160   */\n      and\n        /* \"#utility.yul\":14134:14139   */\n      dup5\n        /* \"#utility.yul\":14131:14161   */\n      or\n        /* \"#utility.yul\":14121:14161   */\n      swap3\n      pop\n        /* \"#utility.yul\":13850:14167   */\n      pop\n      pop\n        /* \"#utility.yul\":13774:14167   */\n      swap4\n      swap3\n      pop\n      pop\n      pop\n      jump\t// out\n        /* \"#utility.yul\":14173:14233   */\n    tag_163:\n        /* \"#utility.yul\":14201:14204   */\n      0x00\n        /* \"#utility.yul\":14222:14227   */\n      dup2\n        /* \"#utility.yul\":14215:14227   */\n      swap1\n      pop\n        /* \"#utility.yul\":14173:14233   */\n      swap2\n      swap1\n      pop\n      jump\t// out\n        /* \"#utility.yul\":14239:14381   */\n    tag_164:\n        /* \"#utility.yul\":14289:14298   */\n      0x00\n        /* \"#utility.yul\":14322:14375   */\n      tag_300\n        /* \"#utility.yul\":14340:14374   */\n      tag_301\n        /* \"#utility.yul\":14349:14373   */\n      tag_302\n        /* \"#utility.yul\":14367:14372   */\n      dup5\n        /* \"#utility.yul\":14349:14373   */\n      tag_142\n      jump\t// in\n    tag_302:\n        /* \"#utility.yul\":14340:14374   */\n      tag_163\n      jump\t// in\n    tag_301:\n        /* \"#utility.yul\":14322:14375   */\n      tag_142\n      jump\t// in\n    tag_300:\n        /* \"#utility.yul\":14309:14375   */\n      swap1\n      pop\n        /* \"#utility.yul\":14239:14381   */\n      swap2\n      swap1\n      pop\n      jump\t// out\n        /* \"#utility.yul\":14387:14462   */\n    tag_165:\n        /* \"#utility.yul\":14430:14433   */\n      0x00\n        /* \"#utility.yul\":14451:14456   */\n      dup2\n        /* \"#utility.yul\":14444:14456   */\n      swap1\n      pop\n        /* \"#utility.yul\":14387:14462   */\n      swap2\n      swap1\n      pop\n      jump\t// out\n        /* \"#utility.yul\":14468:14737   */\n    tag_166:\n        /* \"#utility.yul\":14578:14617   */\n      tag_305\n        /* \"#utility.yul\":14609:14616   */\n      dup4\n        /* \"#utility.yul\":14578:14617   */\n      tag_164\n      jump\t// in\n    tag_305:\n        /* \"#utility.yul\":14639:14730   */\n      tag_306\n        /* \"#utility.yul\":14688:14729   */\n      tag_307\n        /* \"#utility.yul\":14712:14728   */\n      dup3\n        /* \"#utility.yul\":14688:14729   */\n      tag_165\n      jump\t// in\n    tag_307:\n        /* \"#utility.yul\":14680:14686   */\n      dup5\n        /* \"#utility.yul\":14673:14677   */\n      dup5\n        /* \"#utility.yul\":14667:14678   */\n      sload\n        /* \"#utility.yul\":14639:14730   */\n      tag_162\n      jump\t// in\n    tag_306:\n        /* \"#utility.yul\":14633:14637   */\n      dup3\n        /* \"#utility.yul\":14626:14731   */\n      sstore\n        /* \"#utility.yul\":14544:14737   */\n      pop\n        /* \"#utility.yul\":14468:14737   */\n      pop\n      pop\n      pop\n      jump\t// out\n        /* \"#utility.yul\":14743:14816   */\n    tag_167:\n        /* \"#utility.yul\":14788:14791   */\n      0x00\n        /* \"#utility.yul\":14743:14816   */\n      swap1\n      jump\t// out\n        /* \"#utility.yul\":14822:15011   */\n    tag_168:\n        /* \"#utility.yul\":14899:14931   */\n      tag_310\n      tag_167\n      jump\t// in\n    tag_310:\n        /* \"#utility.yul\":14940:15005   */\n      tag_311\n        /* \"#utility.yul\":14998:15004   */\n      dup2\n        /* \"#utility.yul\":14990:14996   */\n      dup5\n        /* \"#utility.yul\":14984:14988   */\n      dup5\n        /* \"#utility.yul\":14940:15005   */\n      tag_166\n      jump\t// in\n    tag_311:\n        /* \"#utility.yul\":14875:15011   */\n      pop\n        /* \"#utility.yul\":14822:15011   */\n      pop\n      pop\n      jump\t// out\n        /* \"#utility.yul\":15017:15203   */\n    tag_169:\n        /* \"#utility.yul\":15077:15197   */\n    tag_313:\n        /* \"#utility.yul\":15094:15097   */\n      dup2\n        /* \"#utility.yul\":15087:15092   */\n      dup2\n        /* \"#utility.yul\":15084:15098   */\n      lt\n        /* \"#utility.yul\":15077:15197   */\n      iszero\n      tag_315\n      jumpi\n        /* \"#utility.yul\":15148:15187   */\n      tag_316\n        /* \"#utility.yul\":15185:15186   */\n      0x00\n        /* \"#utility.yul\":15178:15183   */\n      dup3\n        /* \"#utility.yul\":15148:15187   */\n      tag_168\n      jump\t// in\n    tag_316:\n        /* \"#utility.yul\":15121:15122   */\n      0x01\n        /* \"#utility.yul\":15114:15119   */\n      dup2\n        /* \"#utility.yul\":15110:15123   */\n      add\n        /* \"#utility.yul\":15101:15123   */\n      swap1\n      pop\n        /* \"#utility.yul\":15077:15197   */\n      jump(tag_313)\n    tag_315:\n        /* \"#utility.yul\":15017:15203   */\n      pop\n      pop\n      jump\t// out\n        /* \"#utility.yul\":15209:15752   */\n    tag_170:\n        /* \"#utility.yul\":15310:15312   */\n      0x1f\n        /* \"#utility.yul\":15305:15308   */\n      dup3\n        /* \"#utility.yul\":15302:15313   */\n      gt\n        /* \"#utility.yul\":15299:15745   */\n      iszero\n      tag_318\n      jumpi\n        /* \"#utility.yul\":15344:15382   */\n      tag_319\n        /* \"#utility.yul\":15376:15381   */\n      dup2\n        /* \"#utility.yul\":15344:15382   */\n      tag_159\n      jump\t// in\n    tag_319:\n        /* \"#utility.yul\":15428:15457   */\n      tag_320\n        /* \"#utility.yul\":15446:15456   */\n      dup5\n        /* \"#utility.yul\":15428:15457   */\n      tag_160\n      jump\t// in\n    tag_320:\n        /* \"#utility.yul\":15418:15426   */\n      dup2\n        /* \"#utility.yul\":15414:15458   */\n      add\n        /* \"#utility.yul\":15611:15613   */\n      0x20\n        /* \"#utility.yul\":15599:15609   */\n      dup6\n        /* \"#utility.yul\":15596:15614   */\n      lt\n        /* \"#utility.yul\":15593:15642   */\n      iszero\n      tag_321\n      jumpi\n        /* \"#utility.yul\":15632:15640   */\n      dup2\n        /* \"#utility.yul\":15617:15640   */\n      swap1\n      pop\n        /* \"#utility.yul\":15593:15642   */\n    tag_321:\n        /* \"#utility.yul\":15655:15735   */\n      tag_322\n        /* \"#utility.yul\":15711:15733   */\n      tag_323\n        /* \"#utility.yul\":15729:15732   */\n      dup6\n        /* \"#utility.yul\":15711:15733   */\n      tag_160\n      jump\t// in\n    tag_323:\n        /* \"#utility.yul\":15701:15709   */\n      dup4\n        /* \"#utility.yul\":15697:15734   */\n      add\n        /* \"#utility.yul\":15684:15695   */\n      dup3\n        /* \"#utility.yul\":15655:15735   */\n      tag_169\n      jump\t// in\n    tag_322:\n        /* \"#utility.yul\":15314:15745   */\n      pop\n      pop\n        /* \"#utility.yul\":15299:15745   */\n    tag_318:\n        /* \"#utility.yul\":15209:15752   */\n      pop\n      pop\n      pop\n      jump\t// out\n        /* \"#utility.yul\":15758:15875   */\n    tag_171:\n        /* \"#utility.yul\":15812:15820   */\n      0x00\n        /* \"#utility.yul\":15862:15867   */\n      dup3\n        /* \"#utility.yul\":15856:15860   */\n      dup3\n        /* \"#utility.yul\":15852:15868   */\n      shr\n        /* \"#utility.yul\":15831:15868   */\n      swap1\n      pop\n        /* \"#utility.yul\":15758:15875   */\n      swap3\n      swap2\n      pop\n      pop\n      jump\t// out\n        /* \"#utility.yul\":15881:16050   */\n    tag_172:\n        /* \"#utility.yul\":15925:15931   */\n      0x00\n        /* \"#utility.yul\":15958:16009   */\n      tag_326\n        /* \"#utility.yul\":16006:16007   */\n      0x00\n        /* \"#utility.yul\":16002:16008   */\n      not\n        /* \"#utility.yul\":15994:15999   */\n      dup5\n        /* \"#utility.yul\":15991:15992   */\n      0x08\n        /* \"#utility.yul\":15987:16000   */\n      mul\n        /* \"#utility.yul\":15958:16009   */\n      tag_171\n      jump\t// in\n    tag_326:\n        /* \"#utility.yul\":15954:16010   */\n      not\n        /* \"#utility.yul\":16039:16043   */\n      dup1\n        /* \"#utility.yul\":16033:16037   */\n      dup4\n        /* \"#utility.yul\":16029:16044   */\n      and\n        /* \"#utility.yul\":16019:16044   */\n      swap2\n      pop\n        /* \"#utility.yul\":15932:16050   */\n      pop\n        /* \"#utility.yul\":15881:16050   */\n      swap3\n      swap2\n      pop\n      pop\n      jump\t// out\n        /* \"#utility.yul\":16055:16350   */\n    tag_173:\n        /* \"#utility.yul\":16131:16135   */\n      0x00\n        /* \"#utility.yul\":16277:16306   */\n      tag_328\n        /* \"#utility.yul\":16302:16305   */\n      dup4\n        /* \"#utility.yul\":16296:16300   */\n      dup4\n        /* \"#utility.yul\":16277:16306   */\n      tag_172\n      jump\t// in\n    tag_328:\n        /* \"#utility.yul\":16269:16306   */\n      swap2\n      pop\n        /* \"#utility.yul\":16339:16342   */\n      dup3\n        /* \"#utility.yul\":16336:16337   */\n      0x02\n        /* \"#utility.yul\":16332:16343   */\n      mul\n        /* \"#utility.yul\":16326:16330   */\n      dup3\n        /* \"#utility.yul\":16323:16344   */\n      or\n        /* \"#utility.yul\":16315:16344   */\n      swap1\n      pop\n        /* \"#utility.yul\":16055:16350   */\n      swap3\n      swap2\n      pop\n      pop\n      jump\t// out\n        /* \"#utility.yul\":16355:17750   */\n    tag_118:\n        /* \"#utility.yul\":16472:16509   */\n      tag_330\n        /* \"#utility.yul\":16505:16508   */\n      dup3\n        /* \"#utility.yul\":16472:16509   */\n      tag_130\n      jump\t// in\n    tag_330:\n        /* \"#utility.yul\":16574:16592   */\n      0xffffffffffffffff\n        /* \"#utility.yul\":16566:16572   */\n      dup2\n        /* \"#utility.yul\":16563:16593   */\n      gt\n        /* \"#utility.yul\":16560:16616   */\n      iszero\n      tag_331\n      jumpi\n        /* \"#utility.yul\":16596:16614   */\n      tag_332\n      tag_149\n      jump\t// in\n    tag_332:\n        /* \"#utility.yul\":16560:16616   */\n    tag_331:\n        /* \"#utility.yul\":16640:16678   */\n      tag_333\n        /* \"#utility.yul\":16672:16676   */\n      dup3\n        /* \"#utility.yul\":16666:16677   */\n      sload\n        /* \"#utility.yul\":16640:16678   */\n      tag_30\n      jump\t// in\n    tag_333:\n        /* \"#utility.yul\":16725:16792   */\n      tag_334\n        /* \"#utility.yul\":16785:16791   */\n      dup3\n        /* \"#utility.yul\":16777:16783   */\n      dup3\n        /* \"#utility.yul\":16771:16775   */\n      dup6\n        /* \"#utility.yul\":16725:16792   */\n      tag_170\n      jump\t// in\n    tag_334:\n        /* \"#utility.yul\":16819:16820   */\n      0x00\n        /* \"#utility.yul\":16843:16847   */\n      0x20\n        /* \"#utility.yul\":16830:16847   */\n      swap1\n      pop\n        /* \"#utility.yul\":16875:16877   */\n      0x1f\n        /* \"#utility.yul\":16867:16873   */\n      dup4\n        /* \"#utility.yul\":16864:16878   */\n      gt\n        /* \"#utility.yul\":16892:16893   */\n      0x01\n        /* \"#utility.yul\":16887:17505   */\n      dup2\n      eq\n      tag_336\n      jumpi\n        /* \"#utility.yul\":17549:17550   */\n      0x00\n        /* \"#utility.yul\":17566:17572   */\n      dup5\n        /* \"#utility.yul\":17563:17640   */\n      iszero\n      tag_337\n      jumpi\n        /* \"#utility.yul\":17615:17624   */\n      dup3\n        /* \"#utility.yul\":17610:17613   */\n      dup8\n        /* \"#utility.yul\":17606:17625   */\n      add\n        /* \"#utility.yul\":17600:17626   */\n      mload\n        /* \"#utility.yul\":17591:17626   */\n      swap1\n      pop\n        /* \"#utility.yul\":17563:17640   */\n    tag_337:\n        /* \"#utility.yul\":17666:17733   */\n      tag_338\n        /* \"#utility.yul\":17726:17732   */\n      dup6\n        /* \"#utility.yul\":17719:17724   */\n      dup3\n        /* \"#utility.yul\":17666:17733   */\n      tag_173\n      jump\t// in\n    tag_338:\n        /* \"#utility.yul\":17660:17664   */\n      dup7\n        /* \"#utility.yul\":17653:17734   */\n      sstore\n        /* \"#utility.yul\":17522:17744   */\n      pop\n        /* \"#utility.yul\":16857:17744   */\n      jump(tag_335)\n        /* \"#utility.yul\":16887:17505   */\n    tag_336:\n        /* \"#utility.yul\":16939:16943   */\n      0x1f\n        /* \"#utility.yul\":16935:16944   */\n      not\n        /* \"#utility.yul\":16927:16933   */\n      dup5\n        /* \"#utility.yul\":16923:16945   */\n      and\n        /* \"#utility.yul\":16973:17010   */\n      tag_339\n        /* \"#utility.yul\":17005:17009   */\n      dup7\n        /* \"#utility.yul\":16973:17010   */\n      tag_159\n      jump\t// in\n    tag_339:\n        /* \"#utility.yul\":17032:17033   */\n      0x00\n        /* \"#utility.yul\":17046:17254   */\n    tag_340:\n        /* \"#utility.yul\":17060:17067   */\n      dup3\n        /* \"#utility.yul\":17057:17058   */\n      dup2\n        /* \"#utility.yul\":17054:17068   */\n      lt\n        /* \"#utility.yul\":17046:17254   */\n      iszero\n      tag_342\n      jumpi\n        /* \"#utility.yul\":17139:17148   */\n      dup5\n        /* \"#utility.yul\":17134:17137   */\n      dup10\n        /* \"#utility.yul\":17130:17149   */\n      add\n        /* \"#utility.yul\":17124:17150   */\n      mload\n        /* \"#utility.yul\":17116:17122   */\n      dup3\n        /* \"#utility.yul\":17109:17151   */\n      sstore\n        /* \"#utility.yul\":17190:17191   */\n      0x01\n        /* \"#utility.yul\":17182:17188   */\n      dup3\n        /* \"#utility.yul\":17178:17192   */\n      add\n        /* \"#utility.yul\":17168:17192   */\n      swap2\n      pop\n        /* \"#utility.yul\":17237:17239   */\n      0x20\n        /* \"#utility.yul\":17226:17235   */\n      dup6\n        /* \"#utility.yul\":17222:17240   */\n      add\n        /* \"#utility.yul\":17209:17240   */\n      swap5\n      pop\n        /* \"#utility.yul\":17083:17087   */\n      0x20\n        /* \"#utility.yul\":17080:17081   */\n      dup2\n        /* \"#utility.yul\":17076:17088   */\n      add\n        /* \"#utility.yul\":17071:17088   */\n      swap1\n      pop\n        /* \"#utility.yul\":17046:17254   */\n      jump(tag_340)\n    tag_342:\n        /* \"#utility.yul\":17282:17288   */\n      dup7\n        /* \"#utility.yul\":17273:17280   */\n      dup4\n        /* \"#utility.yul\":17270:17289   */\n      lt\n        /* \"#utility.yul\":17267:17446   */\n      iszero\n      tag_343\n      jumpi\n        /* \"#utility.yul\":17340:17349   */\n      dup5\n        /* \"#utility.yul\":17335:17338   */\n      dup10\n        /* \"#utility.yul\":17331:17350   */\n      add\n        /* \"#utility.yul\":17325:17351   */\n      mload\n        /* \"#utility.yul\":17383:17431   */\n      tag_344\n        /* \"#utility.yul\":17425:17429   */\n      0x1f\n        /* \"#utility.yul\":17417:17423   */\n      dup10\n        /* \"#utility.yul\":17413:17430   */\n      and\n        /* \"#utility.yul\":17402:17411   */\n      dup3\n        /* \"#utility.yul\":17383:17431   */\n      tag_172\n      jump\t// in\n    tag_344:\n        /* \"#utility.yul\":17375:17381   */\n      dup4\n        /* \"#utility.yul\":17368:17432   */\n      sstore\n        /* \"#utility.yul\":17290:17446   */\n      pop\n        /* \"#utility.yul\":17267:17446   */\n    tag_343:\n        /* \"#utility.yul\":17492:17493   */\n      0x01\n        /* \"#utility.yul\":17488:17489   */\n      0x02\n        /* \"#utility.yul\":17480:17486   */\n      dup9\n        /* \"#utility.yul\":17476:17490   */\n      mul\n        /* \"#utility.yul\":17472:17494   */\n      add\n        /* \"#utility.yul\":17466:17470   */\n      dup9\n        /* \"#utility.yul\":17459:17495   */\n      sstore\n        /* \"#utility.yul\":16894:17505   */\n      pop\n      pop\n      pop\n        /* \"#utility.yul\":16857:17744   */\n    tag_335:\n      pop\n        /* \"#utility.yul\":16447:17750   */\n      pop\n      pop\n      pop\n        /* \"#utility.yul\":16355:17750   */\n      pop\n      pop\n      jump\t// out\n        /* \"#utility.yul\":17756:17936   */\n    tag_174:\n        /* \"#utility.yul\":17804:17881   */\n      0x4e487b7100000000000000000000000000000000000000000000000000000000\n        /* \"#utility.yul\":17801:17802   */\n      0x00\n        /* \"#utility.yul\":17794:17882   */\n      mstore\n        /* \"#utility.yul\":17901:17905   */\n      0x11\n        /* \"#utility.yul\":17898:17899   */\n      0x04\n        /* \"#utility.yul\":17891:17906   */\n      mstore\n        /* \"#utility.yul\":17925:17929   */\n      0x24\n        /* \"#utility.yul\":17922:17923   */\n      0x00\n        /* \"#utility.yul\":17915:17930   */\n      revert\n        /* \"#utility.yul\":17942:18136   */\n    tag_124:\n        /* \"#utility.yul\":17982:17986   */\n      0x00\n        /* \"#utility.yul\":18002:18022   */\n      tag_347\n        /* \"#utility.yul\":18020:18021   */\n      dup3\n        /* \"#utility.yul\":18002:18022   */\n      tag_142\n      jump\t// in\n    tag_347:\n        /* \"#utility.yul\":17997:18022   */\n      swap2\n      pop\n        /* \"#utility.yul\":18036:18056   */\n      tag_348\n        /* \"#utility.yul\":18054:18055   */\n      dup4\n        /* \"#utility.yul\":18036:18056   */\n      tag_142\n      jump\t// in\n    tag_348:\n        /* \"#utility.yul\":18031:18056   */\n      swap3\n      pop\n        /* \"#utility.yul\":18080:18081   */\n      dup3\n        /* \"#utility.yul\":18077:18078   */\n      dup3\n        /* \"#utility.yul\":18073:18082   */\n      sub\n        /* \"#utility.yul\":18065:18082   */\n      swap1\n      pop\n        /* \"#utility.yul\":18104:18105   */\n      dup2\n        /* \"#utility.yul\":18098:18102   */\n      dup2\n        /* \"#utility.yul\":18095:18106   */\n      gt\n        /* \"#utility.yul\":18092:18129   */\n      iszero\n      tag_349\n      jumpi\n        /* \"#utility.yul\":18109:18127   */\n      tag_350\n      tag_174\n      jump\t// in\n    tag_350:\n        /* \"#utility.yul\":18092:18129   */\n    tag_349:\n        /* \"#utility.yul\":17942:18136   */\n      swap3\n      swap2\n      pop\n      pop\n      jump\t// out\n        /* \"#utility.yul\":18142:18260   */\n    tag_175:\n        /* \"#utility.yul\":18229:18253   */\n      tag_352\n        /* \"#utility.yul\":18247:18252   */\n      dup2\n        /* \"#utility.yul\":18229:18253   */\n      tag_142\n      jump\t// in\n    tag_352:\n        /* \"#utility.yul\":18224:18227   */\n      dup3\n        /* \"#utility.yul\":18217:18254   */\n      mstore\n        /* \"#utility.yul\":18142:18260   */\n      pop\n      pop\n      jump\t// out\n        /* \"#utility.yul\":18266:18689   */\n    tag_126:\n        /* \"#utility.yul\":18407:18411   */\n      0x00\n        /* \"#utility.yul\":18445:18447   */\n      0x40\n        /* \"#utility.yul\":18434:18443   */\n      dup3\n        /* \"#utility.yul\":18430:18448   */\n      add\n        /* \"#utility.yul\":18422:18448   */\n      swap1\n      pop\n        /* \"#utility.yul\":18458:18529   */\n      tag_354\n        /* \"#utility.yul\":18526:18527   */\n      0x00\n        /* \"#utility.yul\":18515:18524   */\n      dup4\n        /* \"#utility.yul\":18511:18528   */\n      add\n        /* \"#utility.yul\":18502:18508   */\n      dup6\n        /* \"#utility.yul\":18458:18529   */\n      tag_175\n      jump\t// in\n    tag_354:\n        /* \"#utility.yul\":18576:18585   */\n      dup2\n        /* \"#utility.yul\":18570:18574   */\n      dup2\n        /* \"#utility.yul\":18566:18586   */\n      sub\n        /* \"#utility.yul\":18561:18563   */\n      0x20\n        /* \"#utility.yul\":18550:18559   */\n      dup4\n        /* \"#utility.yul\":18546:18564   */\n      add\n        /* \"#utility.yul\":18539:18587   */\n      mstore\n        /* \"#utility.yul\":18604:18682   */\n      tag_355\n        /* \"#utility.yul\":18677:18681   */\n      dup2\n        /* \"#utility.yul\":18668:18674   */\n      dup5\n        /* \"#utility.yul\":18604:18682   */\n      tag_146\n      jump\t// in\n    tag_355:\n        /* \"#utility.yul\":18596:18682   */\n      swap1\n      pop\n        /* \"#utility.yul\":18266:18689   */\n      swap4\n      swap3\n      pop\n      pop\n      pop\n      jump\t// out\n\n    auxdata: 0xa26469706673582212203e82f6c78a0da47353b1c68c210a28d06b5c2a927c3a54be66a5920a4cdabf5964736f6c634300081e0033\n}\n",
				"bytecode": {
					"linkReferences": {},
					"object": "6080604052348015600f57600080fd5b5061157d8061001f6000396000f3fe608060405234801561001057600080fd5b506004361061004c5760003560e01c806346012018146100515780637da30b731461006f578063c64a5e0c146100a3578063dcc6408a146100d7575b600080fd5b6100596100f3565b6040516100669190610d97565b60405180910390f35b61008960048036038101906100849190610e03565b61042c565b60405161009a959493929190610e7a565b60405180910390f35b6100bd60048036038101906100b89190610e03565b61071a565b6040516100ce959493929190610e7a565b60405180910390f35b6100f160048036038101906100ec9190611025565b610aa0565b005b60606000805480602002602001604051908101604052809291908181526020016000905b8282101561042357838290600052602060002090600502016040518060a001604052908160008201805461014a9061115b565b80601f01602080910402602001604051908101604052809291908181526020018280546101769061115b565b80156101c35780601f10610198576101008083540402835291602001916101c3565b820191906000526020600020905b8154815290600101906020018083116101a657829003601f168201915b505050505081526020016001820180546101dc9061115b565b80601f01602080910402602001604051908101604052809291908181526020018280546102089061115b565b80156102555780601f1061022a57610100808354040283529160200191610255565b820191906000526020600020905b81548152906001019060200180831161023857829003601f168201915b5050505050815260200160028201805461026e9061115b565b80601f016020809104026020016040519081016040528092919081815260200182805461029a9061115b565b80156102e75780601f106102bc576101008083540402835291602001916102e7565b820191906000526020600020905b8154815290600101906020018083116102ca57829003601f168201915b505050505081526020016003820180546103009061115b565b80601f016020809104026020016040519081016040528092919081815260200182805461032c9061115b565b80156103795780601f1061034e57610100808354040283529160200191610379565b820191906000526020600020905b81548152906001019060200180831161035c57829003601f168201915b505050505081526020016004820180546103929061115b565b80601f01602080910402602001604051908101604052809291908181526020018280546103be9061115b565b801561040b5780601f106103e05761010080835404028352916020019161040b565b820191906000526020600020905b8154815290600101906020018083116103ee57829003601f168201915b50505050508152505081526020019060010190610117565b50505050905090565b6000818154811061043c57600080fd5b906000526020600020906005020160009150905080600001805461045f9061115b565b80601f016020809104026020016040519081016040528092919081815260200182805461048b9061115b565b80156104d85780601f106104ad576101008083540402835291602001916104d8565b820191906000526020600020905b8154815290600101906020018083116104bb57829003601f168201915b5050505050908060010180546104ed9061115b565b80601f01602080910402602001604051908101604052809291908181526020018280546105199061115b565b80156105665780601f1061053b57610100808354040283529160200191610566565b820191906000526020600020905b81548152906001019060200180831161054957829003601f168201915b50505050509080600201805461057b9061115b565b80601f01602080910402602001604051908101604052809291908181526020018280546105a79061115b565b80156105f45780601f106105c9576101008083540402835291602001916105f4565b820191906000526020600020905b8154815290600101906020018083116105d757829003601f168201915b5050505050908060030180546106099061115b565b80601f01602080910402602001604051908101604052809291908181526020018280546106359061115b565b80156106825780601f1061065757610100808354040283529160200191610682565b820191906000526020600020905b81548152906001019060200180831161066557829003601f168201915b5050505050908060040180546106979061115b565b80601f01602080910402602001604051908101604052809291908181526020018280546106c39061115b565b80156107105780601f106106e557610100808354040283529160200191610710565b820191906000526020600020905b8154815290600101906020018083116106f357829003601f168201915b5050505050905085565b60608060608060606000805490508610610769576040517f08c379a0000000000000000000000000000000000000000000000000000000008152600401610760906111d8565b60405180910390fd5b600080878154811061077e5761077d6111f8565b5b90600052602060002090600502016040518060a00160405290816000820180546107a79061115b565b80601f01602080910402602001604051908101604052809291908181526020018280546107d39061115b565b80156108205780601f106107f557610100808354040283529160200191610820565b820191906000526020600020905b81548152906001019060200180831161080357829003601f168201915b505050505081526020016001820180546108399061115b565b80601f01602080910402602001604051908101604052809291908181526020018280546108659061115b565b80156108b25780601f10610887576101008083540402835291602001916108b2565b820191906000526020600020905b81548152906001019060200180831161089557829003601f168201915b505050505081526020016002820180546108cb9061115b565b80601f01602080910402602001604051908101604052809291908181526020018280546108f79061115b565b80156109445780601f1061091957610100808354040283529160200191610944565b820191906000526020600020905b81548152906001019060200180831161092757829003601f168201915b5050505050815260200160038201805461095d9061115b565b80601f01602080910402602001604051908101604052809291908181526020018280546109899061115b565b80156109d65780601f106109ab576101008083540402835291602001916109d6565b820191906000526020600020905b8154815290600101906020018083116109b957829003601f168201915b505050505081526020016004820180546109ef9061115b565b80601f0160208091040260200160405190810160405280929190818152602001828054610a1b9061115b565b8015610a685780601f10610a3d57610100808354040283529160200191610a68565b820191906000526020600020905b815481529060010190602001808311610a4b57829003601f168201915b505050505081525050905080600001518160200151826040015183606001518460800151955095509550955095505091939590929450565b60006040518060a001604052808781526020018681526020018581526020018481526020018381525090806001815401808255809150506001900390600052602060002090600502016000909190919091506000820151816000019081610b0791906113d3565b506020820151816001019081610b1d91906113d3565b506040820151816002019081610b3391906113d3565b506060820151816003019081610b4991906113d3565b506080820151816004019081610b5f91906113d3565b5050507f26b242ce039f3c3a2405b1ed562708522ace92186a3b4d899fb64d3f23b22d956001600080549050610b9591906114d4565b84604051610ba4929190611517565b60405180910390a15050505050565b600081519050919050565b600082825260208201905092915050565b6000819050602082019050919050565b600081519050919050565b600082825260208201905092915050565b60005b83811015610c19578082015181840152602081019050610bfe565b60008484015250505050565b6000601f19601f8301169050919050565b6000610c4182610bdf565b610c4b8185610bea565b9350610c5b818560208601610bfb565b610c6481610c25565b840191505092915050565b600060a0830160008301518482036000860152610c8c8282610c36565b91505060208301518482036020860152610ca68282610c36565b91505060408301518482036040860152610cc08282610c36565b91505060608301518482036060860152610cda8282610c36565b91505060808301518482036080860152610cf48282610c36565b9150508091505092915050565b6000610d0d8383610c6f565b905092915050565b6000602082019050919050565b6000610d2d82610bb3565b610d378185610bbe565b935083602082028501610d4985610bcf565b8060005b85811015610d855784840389528151610d668582610d01565b9450610d7183610d15565b925060208a01995050600181019050610d4d565b50829750879550505050505092915050565b60006020820190508181036000830152610db18184610d22565b905092915050565b6000604051905090565b600080fd5b600080fd5b6000819050919050565b610de081610dcd565b8114610deb57600080fd5b50565b600081359050610dfd81610dd7565b92915050565b600060208284031215610e1957610e18610dc3565b5b6000610e2784828501610dee565b91505092915050565b600082825260208201905092915050565b6000610e4c82610bdf565b610e568185610e30565b9350610e66818560208601610bfb565b610e6f81610c25565b840191505092915050565b600060a0820190508181036000830152610e948188610e41565b90508181036020830152610ea88187610e41565b90508181036040830152610ebc8186610e41565b90508181036060830152610ed08185610e41565b90508181036080830152610ee48184610e41565b90509695505050505050565b600080fd5b600080fd5b7f4e487b7100000000000000000000000000000000000000000000000000000000600052604160045260246000fd5b610f3282610c25565b810181811067ffffffffffffffff82111715610f5157610f50610efa565b5b80604052505050565b6000610f64610db9565b9050610f708282610f29565b919050565b600067ffffffffffffffff821115610f9057610f8f610efa565b5b610f9982610c25565b9050602081019050919050565b82818337600083830152505050565b6000610fc8610fc384610f75565b610f5a565b905082815260208101848484011115610fe457610fe3610ef5565b5b610fef848285610fa6565b509392505050565b600082601f83011261100c5761100b610ef0565b5b813561101c848260208601610fb5565b91505092915050565b600080600080600060a0868803121561104157611040610dc3565b5b600086013567ffffffffffffffff81111561105f5761105e610dc8565b5b61106b88828901610ff7565b955050602086013567ffffffffffffffff81111561108c5761108b610dc8565b5b61109888828901610ff7565b945050604086013567ffffffffffffffff8111156110b9576110b8610dc8565b5b6110c588828901610ff7565b935050606086013567ffffffffffffffff8111156110e6576110e5610dc8565b5b6110f288828901610ff7565b925050608086013567ffffffffffffffff81111561111357611112610dc8565b5b61111f88828901610ff7565b9150509295509295909350565b7f4e487b7100000000000000000000000000000000000000000000000000000000600052602260045260246000fd5b6000600282049050600182168061117357607f821691505b6020821081036111865761118561112c565b5b50919050565b7fc38d6e6469636520696e76c3a16c69646f000000000000000000000000000000600082015250565b60006111c2601183610e30565b91506111cd8261118c565b602082019050919050565b600060208201905081810360008301526111f1816111b5565b9050919050565b7f4e487b7100000000000000000000000000000000000000000000000000000000600052603260045260246000fd5b60008190508160005260206000209050919050565b60006020601f8301049050919050565b600082821b905092915050565b6000600883026112897fffffffffffffffffffffffffffffffffffffffffffffffffffffffffffffffff8261124c565b611293868361124c565b95508019841693508086168417925050509392505050565b6000819050919050565b60006112d06112cb6112c684610dcd565b6112ab565b610dcd565b9050919050565b6000819050919050565b6112ea836112b5565b6112fe6112f6826112d7565b848454611259565b825550505050565b600090565b611313611306565b61131e8184846112e1565b505050565b5b818110156113425761133760008261130b565b600181019050611324565b5050565b601f8211156113875761135881611227565b6113618461123c565b81016020851015611370578190505b61138461137c8561123c565b830182611323565b50505b505050565b600082821c905092915050565b60006113aa6000198460080261138c565b1980831691505092915050565b60006113c38383611399565b9150826002028217905092915050565b6113dc82610bdf565b67ffffffffffffffff8111156113f5576113f4610efa565b5b6113ff825461115b565b61140a828285611346565b600060209050601f83116001811461143d576000841561142b578287015190505b61143585826113b7565b86555061149d565b601f19841661144b86611227565b60005b828110156114735784890151825560018201915060208501945060208101905061144e565b86831015611490578489015161148c601f891682611399565b8355505b6001600288020188555050505b505050505050565b7f4e487b7100000000000000000000000000000000000000000000000000000000600052601160045260246000fd5b60006114df82610dcd565b91506114ea83610dcd565b9250828203905081811115611502576115016114a5565b5b92915050565b61151181610dcd565b82525050565b600060408201905061152c6000830185611508565b818103602083015261153e8184610e41565b9050939250505056fea26469706673582212203e82f6c78a0da47353b1c68c210a28d06b5c2a927c3a54be66a5920a4cdabf5964736f6c634300081e0033",
					"opcodes": "PUSH1 0x80 PUSH1 0x40 MSTORE CALLVALUE DUP1 ISZERO PUSH1 0xF JUMPI PUSH1 0x0 DUP1 REVERT JUMPDEST POP PUSH2 0x157D DUP1 PUSH2 0x1F PUSH1 0x0 CODECOPY PUSH1 0x0 RETURN INVALID PUSH1 0x80 PUSH1 0x40 MSTORE CALLVALUE DUP1 ISZERO PUSH2 0x10 JUMPI PUSH1 0x0 DUP1 REVERT JUMPDEST POP PUSH1 0x4 CALLDATASIZE LT PUSH2 0x4C JUMPI PUSH1 0x0 CALLDATALOAD PUSH1 0xE0 SHR DUP1 PUSH4 0x46012018 EQ PUSH2 0x51 JUMPI DUP1 PUSH4 0x7DA30B73 EQ PUSH2 0x6F JUMPI DUP1 PUSH4 0xC64A5E0C EQ PUSH2 0xA3 JUMPI DUP1 PUSH4 0xDCC6408A EQ PUSH2 0xD7 JUMPI JUMPDEST PUSH1 0x0 DUP1 REVERT JUMPDEST PUSH2 0x59 PUSH2 0xF3 JUMP JUMPDEST PUSH1 0x40 MLOAD PUSH2 0x66 SWAP2 SWAP1 PUSH2 0xD97 JUMP JUMPDEST PUSH1 0x40 MLOAD DUP1 SWAP2 SUB SWAP1 RETURN JUMPDEST PUSH2 0x89 PUSH1 0x4 DUP1 CALLDATASIZE SUB DUP2 ADD SWAP1 PUSH2 0x84 SWAP2 SWAP1 PUSH2 0xE03 JUMP JUMPDEST PUSH2 0x42C JUMP JUMPDEST PUSH1 0x40 MLOAD PUSH2 0x9A SWAP6 SWAP5 SWAP4 SWAP3 SWAP2 SWAP1 PUSH2 0xE7A JUMP JUMPDEST PUSH1 0x40 MLOAD DUP1 SWAP2 SUB SWAP1 RETURN JUMPDEST PUSH2 0xBD PUSH1 0x4 DUP1 CALLDATASIZE SUB DUP2 ADD SWAP1 PUSH2 0xB8 SWAP2 SWAP1 PUSH2 0xE03 JUMP JUMPDEST PUSH2 0x71A JUMP JUMPDEST PUSH1 0x40 MLOAD PUSH2 0xCE SWAP6 SWAP5 SWAP4 SWAP3 SWAP2 SWAP1 PUSH2 0xE7A JUMP JUMPDEST PUSH1 0x40 MLOAD DUP1 SWAP2 SUB SWAP1 RETURN JUMPDEST PUSH2 0xF1 PUSH1 0x4 DUP1 CALLDATASIZE SUB DUP2 ADD SWAP1 PUSH2 0xEC SWAP2 SWAP1 PUSH2 0x1025 JUMP JUMPDEST PUSH2 0xAA0 JUMP JUMPDEST STOP JUMPDEST PUSH1 0x60 PUSH1 0x0 DUP1 SLOAD DUP1 PUSH1 0x20 MUL PUSH1 0x20 ADD PUSH1 0x40 MLOAD SWAP1 DUP2 ADD PUSH1 0x40 MSTORE DUP1 SWAP3 SWAP2 SWAP1 DUP2 DUP2 MSTORE PUSH1 0x20 ADD PUSH1 0x0 SWAP1 JUMPDEST DUP3 DUP3 LT ISZERO PUSH2 0x423 JUMPI DUP4 DUP3 SWAP1 PUSH1 0x0 MSTORE PUSH1 0x20 PUSH1 0x0 KECCAK256 SWAP1 PUSH1 0x5 MUL ADD PUSH1 0x40 MLOAD DUP1 PUSH1 0xA0 ADD PUSH1 0x40 MSTORE SWAP1 DUP2 PUSH1 0x0 DUP3 ADD DUP1 SLOAD PUSH2 0x14A SWAP1 PUSH2 0x115B JUMP JUMPDEST DUP1 PUSH1 0x1F ADD PUSH1 0x20 DUP1 SWAP2 DIV MUL PUSH1 0x20 ADD PUSH1 0x40 MLOAD SWAP1 DUP2 ADD PUSH1 0x40 MSTORE DUP1 SWAP3 SWAP2 SWAP1 DUP2 DUP2 MSTORE PUSH1 0x20 ADD DUP3 DUP1 SLOAD PUSH2 0x176 SWAP1 PUSH2 0x115B JUMP JUMPDEST DUP1 ISZERO PUSH2 0x1C3 JUMPI DUP1 PUSH1 0x1F LT PUSH2 0x198 JUMPI PUSH2 0x100 DUP1 DUP4 SLOAD DIV MUL DUP4 MSTORE SWAP2 PUSH1 0x20 ADD SWAP2 PUSH2 0x1C3 JUMP JUMPDEST DUP3 ADD SWAP2 SWAP1 PUSH1 0x0 MSTORE PUSH1 0x20 PUSH1 0x0 KECCAK256 SWAP1 JUMPDEST DUP2 SLOAD DUP2 MSTORE SWAP1 PUSH1 0x1 ADD SWAP1 PUSH1 0x20 ADD DUP1 DUP4 GT PUSH2 0x1A6 JUMPI DUP3 SWAP1 SUB PUSH1 0x1F AND DUP3 ADD SWAP2 JUMPDEST POP POP POP POP POP DUP2 MSTORE PUSH1 0x20 ADD PUSH1 0x1 DUP3 ADD DUP1 SLOAD PUSH2 0x1DC SWAP1 PUSH2 0x115B JUMP JUMPDEST DUP1 PUSH1 0x1F ADD PUSH1 0x20 DUP1 SWAP2 DIV MUL PUSH1 0x20 ADD PUSH1 0x40 MLOAD SWAP1 DUP2 ADD PUSH1 0x40 MSTORE DUP1 SWAP3 SWAP2 SWAP1 DUP2 DUP2 MSTORE PUSH1 0x20 ADD DUP3 DUP1 SLOAD PUSH2 0x208 SWAP1 PUSH2 0x115B JUMP JUMPDEST DUP1 ISZERO PUSH2 0x255 JUMPI DUP1 PUSH1 0x1F LT PUSH2 0x22A JUMPI PUSH2 0x100 DUP1 DUP4 SLOAD DIV MUL DUP4 MSTORE SWAP2 PUSH1 0x20 ADD SWAP2 PUSH2 0x255 JUMP JUMPDEST DUP3 ADD SWAP2 SWAP1 PUSH1 0x0 MSTORE PUSH1 0x20 PUSH1 0x0 KECCAK256 SWAP1 JUMPDEST DUP2 SLOAD DUP2 MSTORE SWAP1 PUSH1 0x1 ADD SWAP1 PUSH1 0x20 ADD DUP1 DUP4 GT PUSH2 0x238 JUMPI DUP3 SWAP1 SUB PUSH1 0x1F AND DUP3 ADD SWAP2 JUMPDEST POP POP POP POP POP DUP2 MSTORE PUSH1 0x20 ADD PUSH1 0x2 DUP3 ADD DUP1 SLOAD PUSH2 0x26E SWAP1 PUSH2 0x115B JUMP JUMPDEST DUP1 PUSH1 0x1F ADD PUSH1 0x20 DUP1 SWAP2 DIV MUL PUSH1 0x20 ADD PUSH1 0x40 MLOAD SWAP1 DUP2 ADD PUSH1 0x40 MSTORE DUP1 SWAP3 SWAP2 SWAP1 DUP2 DUP2 MSTORE PUSH1 0x20 ADD DUP3 DUP1 SLOAD PUSH2 0x29A SWAP1 PUSH2 0x115B JUMP JUMPDEST DUP1 ISZERO PUSH2 0x2E7 JUMPI DUP1 PUSH1 0x1F LT PUSH2 0x2BC JUMPI PUSH2 0x100 DUP1 DUP4 SLOAD DIV MUL DUP4 MSTORE SWAP2 PUSH1 0x20 ADD SWAP2 PUSH2 0x2E7 JUMP JUMPDEST DUP3 ADD SWAP2 SWAP1 PUSH1 0x0 MSTORE PUSH1 0x20 PUSH1 0x0 KECCAK256 SWAP1 JUMPDEST DUP2 SLOAD DUP2 MSTORE SWAP1 PUSH1 0x1 ADD SWAP1 PUSH1 0x20 ADD DUP1 DUP4 GT PUSH2 0x2CA JUMPI DUP3 SWAP1 SUB PUSH1 0x1F AND DUP3 ADD SWAP2 JUMPDEST POP POP POP POP POP DUP2 MSTORE PUSH1 0x20 ADD PUSH1 0x3 DUP3 ADD DUP1 SLOAD PUSH2 0x300 SWAP1 PUSH2 0x115B JUMP JUMPDEST DUP1 PUSH1 0x1F ADD PUSH1 0x20 DUP1 SWAP2 DIV MUL PUSH1 0x20 ADD PUSH1 0x40 MLOAD SWAP1 DUP2 ADD PUSH1 0x40 MSTORE DUP1 SWAP3 SWAP2 SWAP1 DUP2 DUP2 MSTORE PUSH1 0x20 ADD DUP3 DUP1 SLOAD PUSH2 0x32C SWAP1 PUSH2 0x115B JUMP JUMPDEST DUP1 ISZERO PUSH2 0x379 JUMPI DUP1 PUSH1 0x1F LT PUSH2 0x34E JUMPI PUSH2 0x100 DUP1 DUP4 SLOAD DIV MUL DUP4 MSTORE SWAP2 PUSH1 0x20 ADD SWAP2 PUSH2 0x379 JUMP JUMPDEST DUP3 ADD SWAP2 SWAP1 PUSH1 0x0 MSTORE PUSH1 0x20 PUSH1 0x0 KECCAK256 SWAP1 JUMPDEST DUP2 SLOAD DUP2 MSTORE SWAP1 PUSH1 0x1 ADD SWAP1 PUSH1 0x20 ADD DUP1 DUP4 GT PUSH2 0x35C JUMPI DUP3 SWAP1 SUB PUSH1 0x1F AND DUP3 ADD SWAP2 JUMPDEST POP POP POP POP POP DUP2 MSTORE PUSH1 0x20 ADD PUSH1 0x4 DUP3 ADD DUP1 SLOAD PUSH2 0x392 SWAP1 PUSH2 0x115B JUMP JUMPDEST DUP1 PUSH1 0x1F ADD PUSH1 0x20 DUP1 SWAP2 DIV MUL PUSH1 0x20 ADD PUSH1 0x40 MLOAD SWAP1 DUP2 ADD PUSH1 0x40 MSTORE DUP1 SWAP3 SWAP2 SWAP1 DUP2 DUP2 MSTORE PUSH1 0x20 ADD DUP3 DUP1 SLOAD PUSH2 0x3BE SWAP1 PUSH2 0x115B JUMP JUMPDEST DUP1 ISZERO PUSH2 0x40B JUMPI DUP1 PUSH1 0x1F LT PUSH2 0x3E0 JUMPI PUSH2 0x100 DUP1 DUP4 SLOAD DIV MUL DUP4 MSTORE SWAP2 PUSH1 0x20 ADD SWAP2 PUSH2 0x40B JUMP JUMPDEST DUP3 ADD SWAP2 SWAP1 PUSH1 0x0 MSTORE PUSH1 0x20 PUSH1 0x0 KECCAK256 SWAP1 JUMPDEST DUP2 SLOAD DUP2 MSTORE SWAP1 PUSH1 0x1 ADD SWAP1 PUSH1 0x20 ADD DUP1 DUP4 GT PUSH2 0x3EE JUMPI DUP3 SWAP1 SUB PUSH1 0x1F AND DUP3 ADD SWAP2 JUMPDEST POP POP POP POP POP DUP2 MSTORE POP POP DUP2 MSTORE PUSH1 0x20 ADD SWAP1 PUSH1 0x1 ADD SWAP1 PUSH2 0x117 JUMP JUMPDEST POP POP POP POP SWAP1 POP SWAP1 JUMP JUMPDEST PUSH1 0x0 DUP2 DUP2 SLOAD DUP2 LT PUSH2 0x43C JUMPI PUSH1 0x0 DUP1 REVERT JUMPDEST SWAP1 PUSH1 0x0 MSTORE PUSH1 0x20 PUSH1 0x0 KECCAK256 SWAP1 PUSH1 0x5 MUL ADD PUSH1 0x0 SWAP2 POP SWAP1 POP DUP1 PUSH1 0x0 ADD DUP1 SLOAD PUSH2 0x45F SWAP1 PUSH2 0x115B JUMP JUMPDEST DUP1 PUSH1 0x1F ADD PUSH1 0x20 DUP1 SWAP2 DIV MUL PUSH1 0x20 ADD PUSH1 0x40 MLOAD SWAP1 DUP2 ADD PUSH1 0x40 MSTORE DUP1 SWAP3 SWAP2 SWAP1 DUP2 DUP2 MSTORE PUSH1 0x20 ADD DUP3 DUP1 SLOAD PUSH2 0x48B SWAP1 PUSH2 0x115B JUMP JUMPDEST DUP1 ISZERO PUSH2 0x4D8 JUMPI DUP1 PUSH1 0x1F LT PUSH2 0x4AD JUMPI PUSH2 0x100 DUP1 DUP4 SLOAD DIV MUL DUP4 MSTORE SWAP2 PUSH1 0x20 ADD SWAP2 PUSH2 0x4D8 JUMP JUMPDEST DUP3 ADD SWAP2 SWAP1 PUSH1 0x0 MSTORE PUSH1 0x20 PUSH1 0x0 KECCAK256 SWAP1 JUMPDEST DUP2 SLOAD DUP2 MSTORE SWAP1 PUSH1 0x1 ADD SWAP1 PUSH1 0x20 ADD DUP1 DUP4 GT PUSH2 0x4BB JUMPI DUP3 SWAP1 SUB PUSH1 0x1F AND DUP3 ADD SWAP2 JUMPDEST POP POP POP POP POP SWAP1 DUP1 PUSH1 0x1 ADD DUP1 SLOAD PUSH2 0x4ED SWAP1 PUSH2 0x115B JUMP JUMPDEST DUP1 PUSH1 0x1F ADD PUSH1 0x20 DUP1 SWAP2 DIV MUL PUSH1 0x20 ADD PUSH1 0x40 MLOAD SWAP1 DUP2 ADD PUSH1 0x40 MSTORE DUP1 SWAP3 SWAP2 SWAP1 DUP2 DUP2 MSTORE PUSH1 0x20 ADD DUP3 DUP1 SLOAD PUSH2 0x519 SWAP1 PUSH2 0x115B JUMP JUMPDEST DUP1 ISZERO PUSH2 0x566 JUMPI DUP1 PUSH1 0x1F LT PUSH2 0x53B JUMPI PUSH2 0x100 DUP1 DUP4 SLOAD DIV MUL DUP4 MSTORE SWAP2 PUSH1 0x20 ADD SWAP2 PUSH2 0x566 JUMP JUMPDEST DUP3 ADD SWAP2 SWAP1 PUSH1 0x0 MSTORE PUSH1 0x20 PUSH1 0x0 KECCAK256 SWAP1 JUMPDEST DUP2 SLOAD DUP2 MSTORE SWAP1 PUSH1 0x1 ADD SWAP1 PUSH1 0x20 ADD DUP1 DUP4 GT PUSH2 0x549 JUMPI DUP3 SWAP1 SUB PUSH1 0x1F AND DUP3 ADD SWAP2 JUMPDEST POP POP POP POP POP SWAP1 DUP1 PUSH1 0x2 ADD DUP1 SLOAD PUSH2 0x57B SWAP1 PUSH2 0x115B JUMP JUMPDEST DUP1 PUSH1 0x1F ADD PUSH1 0x20 DUP1 SWAP2 DIV MUL PUSH1 0x20 ADD PUSH1 0x40 MLOAD SWAP1 DUP2 ADD PUSH1 0x40 MSTORE DUP1 SWAP3 SWAP2 SWAP1 DUP2 DUP2 MSTORE PUSH1 0x20 ADD DUP3 DUP1 SLOAD PUSH2 0x5A7 SWAP1 PUSH2 0x115B JUMP JUMPDEST DUP1 ISZERO PUSH2 0x5F4 JUMPI DUP1 PUSH1 0x1F LT PUSH2 0x5C9 JUMPI PUSH2 0x100 DUP1 DUP4 SLOAD DIV MUL DUP4 MSTORE SWAP2 PUSH1 0x20 ADD SWAP2 PUSH2 0x5F4 JUMP JUMPDEST DUP3 ADD SWAP2 SWAP1 PUSH1 0x0 MSTORE PUSH1 0x20 PUSH1 0x0 KECCAK256 SWAP1 JUMPDEST DUP2 SLOAD DUP2 MSTORE SWAP1 PUSH1 0x1 ADD SWAP1 PUSH1 0x20 ADD DUP1 DUP4 GT PUSH2 0x5D7 JUMPI DUP3 SWAP1 SUB PUSH1 0x1F AND DUP3 ADD SWAP2 JUMPDEST POP POP POP POP POP SWAP1 DUP1 PUSH1 0x3 ADD DUP1 SLOAD PUSH2 0x609 SWAP1 PUSH2 0x115B JUMP JUMPDEST DUP1 PUSH1 0x1F ADD PUSH1 0x20 DUP1 SWAP2 DIV MUL PUSH1 0x20 ADD PUSH1 0x40 MLOAD SWAP1 DUP2 ADD PUSH1 0x40 MSTORE DUP1 SWAP3 SWAP2 SWAP1 DUP2 DUP2 MSTORE PUSH1 0x20 ADD DUP3 DUP1 SLOAD PUSH2 0x635 SWAP1 PUSH2 0x115B JUMP JUMPDEST DUP1 ISZERO PUSH2 0x682 JUMPI DUP1 PUSH1 0x1F LT PUSH2 0x657 JUMPI PUSH2 0x100 DUP1 DUP4 SLOAD DIV MUL DUP4 MSTORE SWAP2 PUSH1 0x20 ADD SWAP2 PUSH2 0x682 JUMP JUMPDEST DUP3 ADD SWAP2 SWAP1 PUSH1 0x0 MSTORE PUSH1 0x20 PUSH1 0x0 KECCAK256 SWAP1 JUMPDEST DUP2 SLOAD DUP2 MSTORE SWAP1 PUSH1 0x1 ADD SWAP1 PUSH1 0x20 ADD DUP1 DUP4 GT PUSH2 0x665 JUMPI DUP3 SWAP1 SUB PUSH1 0x1F AND DUP3 ADD SWAP2 JUMPDEST POP POP POP POP POP SWAP1 DUP1 PUSH1 0x4 ADD DUP1 SLOAD PUSH2 0x697 SWAP1 PUSH2 0x115B JUMP JUMPDEST DUP1 PUSH1 0x1F ADD PUSH1 0x20 DUP1 SWAP2 DIV MUL PUSH1 0x20 ADD PUSH1 0x40 MLOAD SWAP1 DUP2 ADD PUSH1 0x40 MSTORE DUP1 SWAP3 SWAP2 SWAP1 DUP2 DUP2 MSTORE PUSH1 0x20 ADD DUP3 DUP1 SLOAD PUSH2 0x6C3 SWAP1 PUSH2 0x115B JUMP JUMPDEST DUP1 ISZERO PUSH2 0x710 JUMPI DUP1 PUSH1 0x1F LT PUSH2 0x6E5 JUMPI PUSH2 0x100 DUP1 DUP4 SLOAD DIV MUL DUP4 MSTORE SWAP2 PUSH1 0x20 ADD SWAP2 PUSH2 0x710 JUMP JUMPDEST DUP3 ADD SWAP2 SWAP1 PUSH1 0x0 MSTORE PUSH1 0x20 PUSH1 0x0 KECCAK256 SWAP1 JUMPDEST DUP2 SLOAD DUP2 MSTORE SWAP1 PUSH1 0x1 ADD SWAP1 PUSH1 0x20 ADD DUP1 DUP4 GT PUSH2 0x6F3 JUMPI DUP3 SWAP1 SUB PUSH1 0x1F AND DUP3 ADD SWAP2 JUMPDEST POP POP POP POP POP SWAP1 POP DUP6 JUMP JUMPDEST PUSH1 0x60 DUP1 PUSH1 0x60 DUP1 PUSH1 0x60 PUSH1 0x0 DUP1 SLOAD SWAP1 POP DUP7 LT PUSH2 0x769 JUMPI PUSH1 0x40 MLOAD PUSH32 0x8C379A000000000000000000000000000000000000000000000000000000000 DUP2 MSTORE PUSH1 0x4 ADD PUSH2 0x760 SWAP1 PUSH2 0x11D8 JUMP JUMPDEST PUSH1 0x40 MLOAD DUP1 SWAP2 SUB SWAP1 REVERT JUMPDEST PUSH1 0x0 DUP1 DUP8 DUP2 SLOAD DUP2 LT PUSH2 0x77E JUMPI PUSH2 0x77D PUSH2 0x11F8 JUMP JUMPDEST JUMPDEST SWAP1 PUSH1 0x0 MSTORE PUSH1 0x20 PUSH1 0x0 KECCAK256 SWAP1 PUSH1 0x5 MUL ADD PUSH1 0x40 MLOAD DUP1 PUSH1 0xA0 ADD PUSH1 0x40 MSTORE SWAP1 DUP2 PUSH1 0x0 DUP3 ADD DUP1 SLOAD PUSH2 0x7A7 SWAP1 PUSH2 0x115B JUMP JUMPDEST DUP1 PUSH1 0x1F ADD PUSH1 0x20 DUP1 SWAP2 DIV MUL PUSH1 0x20 ADD PUSH1 0x40 MLOAD SWAP1 DUP2 ADD PUSH1 0x40 MSTORE DUP1 SWAP3 SWAP2 SWAP1 DUP2 DUP2 MSTORE PUSH1 0x20 ADD DUP3 DUP1 SLOAD PUSH2 0x7D3 SWAP1 PUSH2 0x115B JUMP JUMPDEST DUP1 ISZERO PUSH2 0x820 JUMPI DUP1 PUSH1 0x1F LT PUSH2 0x7F5 JUMPI PUSH2 0x100 DUP1 DUP4 SLOAD DIV MUL DUP4 MSTORE SWAP2 PUSH1 0x20 ADD SWAP2 PUSH2 0x820 JUMP JUMPDEST DUP3 ADD SWAP2 SWAP1 PUSH1 0x0 MSTORE PUSH1 0x20 PUSH1 0x0 KECCAK256 SWAP1 JUMPDEST DUP2 SLOAD DUP2 MSTORE SWAP1 PUSH1 0x1 ADD SWAP1 PUSH1 0x20 ADD DUP1 DUP4 GT PUSH2 0x803 JUMPI DUP3 SWAP1 SUB PUSH1 0x1F AND DUP3 ADD SWAP2 JUMPDEST POP POP POP POP POP DUP2 MSTORE PUSH1 0x20 ADD PUSH1 0x1 DUP3 ADD DUP1 SLOAD PUSH2 0x839 SWAP1 PUSH2 0x115B JUMP JUMPDEST DUP1 PUSH1 0x1F ADD PUSH1 0x20 DUP1 SWAP2 DIV MUL PUSH1 0x20 ADD PUSH1 0x40 MLOAD SWAP1 DUP2 ADD PUSH1 0x40 MSTORE DUP1 SWAP3 SWAP2 SWAP1 DUP2 DUP2 MSTORE PUSH1 0x20 ADD DUP3 DUP1 SLOAD PUSH2 0x865 SWAP1 PUSH2 0x115B JUMP JUMPDEST DUP1 ISZERO PUSH2 0x8B2 JUMPI DUP1 PUSH1 0x1F LT PUSH2 0x887 JUMPI PUSH2 0x100 DUP1 DUP4 SLOAD DIV MUL DUP4 MSTORE SWAP2 PUSH1 0x20 ADD SWAP2 PUSH2 0x8B2 JUMP JUMPDEST DUP3 ADD SWAP2 SWAP1 PUSH1 0x0 MSTORE PUSH1 0x20 PUSH1 0x0 KECCAK256 SWAP1 JUMPDEST DUP2 SLOAD DUP2 MSTORE SWAP1 PUSH1 0x1 ADD SWAP1 PUSH1 0x20 ADD DUP1 DUP4 GT PUSH2 0x895 JUMPI DUP3 SWAP1 SUB PUSH1 0x1F AND DUP3 ADD SWAP2 JUMPDEST POP POP POP POP POP DUP2 MSTORE PUSH1 0x20 ADD PUSH1 0x2 DUP3 ADD DUP1 SLOAD PUSH2 0x8CB SWAP1 PUSH2 0x115B JUMP JUMPDEST DUP1 PUSH1 0x1F ADD PUSH1 0x20 DUP1 SWAP2 DIV MUL PUSH1 0x20 ADD PUSH1 0x40 MLOAD SWAP1 DUP2 ADD PUSH1 0x40 MSTORE DUP1 SWAP3 SWAP2 SWAP1 DUP2 DUP2 MSTORE PUSH1 0x20 ADD DUP3 DUP1 SLOAD PUSH2 0x8F7 SWAP1 PUSH2 0x115B JUMP JUMPDEST DUP1 ISZERO PUSH2 0x944 JUMPI DUP1 PUSH1 0x1F LT PUSH2 0x919 JUMPI PUSH2 0x100 DUP1 DUP4 SLOAD DIV MUL DUP4 MSTORE SWAP2 PUSH1 0x20 ADD SWAP2 PUSH2 0x944 JUMP JUMPDEST DUP3 ADD SWAP2 SWAP1 PUSH1 0x0 MSTORE PUSH1 0x20 PUSH1 0x0 KECCAK256 SWAP1 JUMPDEST DUP2 SLOAD DUP2 MSTORE SWAP1 PUSH1 0x1 ADD SWAP1 PUSH1 0x20 ADD DUP1 DUP4 GT PUSH2 0x927 JUMPI DUP3 SWAP1 SUB PUSH1 0x1F AND DUP3 ADD SWAP2 JUMPDEST POP POP POP POP POP DUP2 MSTORE PUSH1 0x20 ADD PUSH1 0x3 DUP3 ADD DUP1 SLOAD PUSH2 0x95D SWAP1 PUSH2 0x115B JUMP JUMPDEST DUP1 PUSH1 0x1F ADD PUSH1 0x20 DUP1 SWAP2 DIV MUL PUSH1 0x20 ADD PUSH1 0x40 MLOAD SWAP1 DUP2 ADD PUSH1 0x40 MSTORE DUP1 SWAP3 SWAP2 SWAP1 DUP2 DUP2 MSTORE PUSH1 0x20 ADD DUP3 DUP1 SLOAD PUSH2 0x989 SWAP1 PUSH2 0x115B JUMP JUMPDEST DUP1 ISZERO PUSH2 0x9D6 JUMPI DUP1 PUSH1 0x1F LT PUSH2 0x9AB JUMPI PUSH2 0x100 DUP1 DUP4 SLOAD DIV MUL DUP4 MSTORE SWAP2 PUSH1 0x20 ADD SWAP2 PUSH2 0x9D6 JUMP JUMPDEST DUP3 ADD SWAP2 SWAP1 PUSH1 0x0 MSTORE PUSH1 0x20 PUSH1 0x0 KECCAK256 SWAP1 JUMPDEST DUP2 SLOAD DUP2 MSTORE SWAP1 PUSH1 0x1 ADD SWAP1 PUSH1 0x20 ADD DUP1 DUP4 GT PUSH2 0x9B9 JUMPI DUP3 SWAP1 SUB PUSH1 0x1F AND DUP3 ADD SWAP2 JUMPDEST POP POP POP POP POP DUP2 MSTORE PUSH1 0x20 ADD PUSH1 0x4 DUP3 ADD DUP1 SLOAD PUSH2 0x9EF SWAP1 PUSH2 0x115B JUMP JUMPDEST DUP1 PUSH1 0x1F ADD PUSH1 0x20 DUP1 SWAP2 DIV MUL PUSH1 0x20 ADD PUSH1 0x40 MLOAD SWAP1 DUP2 ADD PUSH1 0x40 MSTORE DUP1 SWAP3 SWAP2 SWAP1 DUP2 DUP2 MSTORE PUSH1 0x20 ADD DUP3 DUP1 SLOAD PUSH2 0xA1B SWAP1 PUSH2 0x115B JUMP JUMPDEST DUP1 ISZERO PUSH2 0xA68 JUMPI DUP1 PUSH1 0x1F LT PUSH2 0xA3D JUMPI PUSH2 0x100 DUP1 DUP4 SLOAD DIV MUL DUP4 MSTORE SWAP2 PUSH1 0x20 ADD SWAP2 PUSH2 0xA68 JUMP JUMPDEST DUP3 ADD SWAP2 SWAP1 PUSH1 0x0 MSTORE PUSH1 0x20 PUSH1 0x0 KECCAK256 SWAP1 JUMPDEST DUP2 SLOAD DUP2 MSTORE SWAP1 PUSH1 0x1 ADD SWAP1 PUSH1 0x20 ADD DUP1 DUP4 GT PUSH2 0xA4B JUMPI DUP3 SWAP1 SUB PUSH1 0x1F AND DUP3 ADD SWAP2 JUMPDEST POP POP POP POP POP DUP2 MSTORE POP POP SWAP1 POP DUP1 PUSH1 0x0 ADD MLOAD DUP2 PUSH1 0x20 ADD MLOAD DUP3 PUSH1 0x40 ADD MLOAD DUP4 PUSH1 0x60 ADD MLOAD DUP5 PUSH1 0x80 ADD MLOAD SWAP6 POP SWAP6 POP SWAP6 POP SWAP6 POP SWAP6 POP POP SWAP2 SWAP4 SWAP6 SWAP1 SWAP3 SWAP5 POP JUMP JUMPDEST PUSH1 0x0 PUSH1 0x40 MLOAD DUP1 PUSH1 0xA0 ADD PUSH1 0x40 MSTORE DUP1 DUP8 DUP2 MSTORE PUSH1 0x20 ADD DUP7 DUP2 MSTORE PUSH1 0x20 ADD DUP6 DUP2 MSTORE PUSH1 0x20 ADD DUP5 DUP2 MSTORE PUSH1 0x20 ADD DUP4 DUP2 MSTORE POP SWAP1 DUP1 PUSH1 0x1 DUP2 SLOAD ADD DUP1 DUP3 SSTORE DUP1 SWAP2 POP POP PUSH1 0x1 SWAP1 SUB SWAP1 PUSH1 0x0 MSTORE PUSH1 0x20 PUSH1 0x0 KECCAK256 SWAP1 PUSH1 0x5 MUL ADD PUSH1 0x0 SWAP1 SWAP2 SWAP1 SWAP2 SWAP1 SWAP2 POP PUSH1 0x0 DUP3 ADD MLOAD DUP2 PUSH1 0x0 ADD SWAP1 DUP2 PUSH2 0xB07 SWAP2 SWAP1 PUSH2 0x13D3 JUMP JUMPDEST POP PUSH1 0x20 DUP3 ADD MLOAD DUP2 PUSH1 0x1 ADD SWAP1 DUP2 PUSH2 0xB1D SWAP2 SWAP1 PUSH2 0x13D3 JUMP JUMPDEST POP PUSH1 0x40 DUP3 ADD MLOAD DUP2 PUSH1 0x2 ADD SWAP1 DUP2 PUSH2 0xB33 SWAP2 SWAP1 PUSH2 0x13D3 JUMP JUMPDEST POP PUSH1 0x60 DUP3 ADD MLOAD DUP2 PUSH1 0x3 ADD SWAP1 DUP2 PUSH2 0xB49 SWAP2 SWAP1 PUSH2 0x13D3 JUMP JUMPDEST POP PUSH1 0x80 DUP3 ADD MLOAD DUP2 PUSH1 0x4 ADD SWAP1 DUP2 PUSH2 0xB5F SWAP2 SWAP1 PUSH2 0x13D3 JUMP JUMPDEST POP POP POP PUSH32 0x26B242CE039F3C3A2405B1ED562708522ACE92186A3B4D899FB64D3F23B22D95 PUSH1 0x1 PUSH1 0x0 DUP1 SLOAD SWAP1 POP PUSH2 0xB95 SWAP2 SWAP1 PUSH2 0x14D4 JUMP JUMPDEST DUP5 PUSH1 0x40 MLOAD PUSH2 0xBA4 SWAP3 SWAP2 SWAP1 PUSH2 0x1517 JUMP JUMPDEST PUSH1 0x40 MLOAD DUP1 SWAP2 SUB SWAP1 LOG1 POP POP POP POP POP JUMP JUMPDEST PUSH1 0x0 DUP2 MLOAD SWAP1 POP SWAP2 SWAP1 POP JUMP JUMPDEST PUSH1 0x0 DUP3 DUP3 MSTORE PUSH1 0x20 DUP3 ADD SWAP1 POP SWAP3 SWAP2 POP POP JUMP JUMPDEST PUSH1 0x0 DUP2 SWAP1 POP PUSH1 0x20 DUP3 ADD SWAP1 POP SWAP2 SWAP1 POP JUMP JUMPDEST PUSH1 0x0 DUP2 MLOAD SWAP1 POP SWAP2 SWAP1 POP JUMP JUMPDEST PUSH1 0x0 DUP3 DUP3 MSTORE PUSH1 0x20 DUP3 ADD SWAP1 POP SWAP3 SWAP2 POP POP JUMP JUMPDEST PUSH1 0x0 JUMPDEST DUP4 DUP2 LT ISZERO PUSH2 0xC19 JUMPI DUP1 DUP3 ADD MLOAD DUP2 DUP5 ADD MSTORE PUSH1 0x20 DUP2 ADD SWAP1 POP PUSH2 0xBFE JUMP JUMPDEST PUSH1 0x0 DUP5 DUP5 ADD MSTORE POP POP POP POP JUMP JUMPDEST PUSH1 0x0 PUSH1 0x1F NOT PUSH1 0x1F DUP4 ADD AND SWAP1 POP SWAP2 SWAP1 POP JUMP JUMPDEST PUSH1 0x0 PUSH2 0xC41 DUP3 PUSH2 0xBDF JUMP JUMPDEST PUSH2 0xC4B DUP2 DUP6 PUSH2 0xBEA JUMP JUMPDEST SWAP4 POP PUSH2 0xC5B DUP2 DUP6 PUSH1 0x20 DUP7 ADD PUSH2 0xBFB JUMP JUMPDEST PUSH2 0xC64 DUP2 PUSH2 0xC25 JUMP JUMPDEST DUP5 ADD SWAP2 POP POP SWAP3 SWAP2 POP POP JUMP JUMPDEST PUSH1 0x0 PUSH1 0xA0 DUP4 ADD PUSH1 0x0 DUP4 ADD MLOAD DUP5 DUP3 SUB PUSH1 0x0 DUP7 ADD MSTORE PUSH2 0xC8C DUP3 DUP3 PUSH2 0xC36 JUMP JUMPDEST SWAP2 POP POP PUSH1 0x20 DUP4 ADD MLOAD DUP5 DUP3 SUB PUSH1 0x20 DUP7 ADD MSTORE PUSH2 0xCA6 DUP3 DUP3 PUSH2 0xC36 JUMP JUMPDEST SWAP2 POP POP PUSH1 0x40 DUP4 ADD MLOAD DUP5 DUP3 SUB PUSH1 0x40 DUP7 ADD MSTORE PUSH2 0xCC0 DUP3 DUP3 PUSH2 0xC36 JUMP JUMPDEST SWAP2 POP POP PUSH1 0x60 DUP4 ADD MLOAD DUP5 DUP3 SUB PUSH1 0x60 DUP7 ADD MSTORE PUSH2 0xCDA DUP3 DUP3 PUSH2 0xC36 JUMP JUMPDEST SWAP2 POP POP PUSH1 0x80 DUP4 ADD MLOAD DUP5 DUP3 SUB PUSH1 0x80 DUP7 ADD MSTORE PUSH2 0xCF4 DUP3 DUP3 PUSH2 0xC36 JUMP JUMPDEST SWAP2 POP POP DUP1 SWAP2 POP POP SWAP3 SWAP2 POP POP JUMP JUMPDEST PUSH1 0x0 PUSH2 0xD0D DUP4 DUP4 PUSH2 0xC6F JUMP JUMPDEST SWAP1 POP SWAP3 SWAP2 POP POP JUMP JUMPDEST PUSH1 0x0 PUSH1 0x20 DUP3 ADD SWAP1 POP SWAP2 SWAP1 POP JUMP JUMPDEST PUSH1 0x0 PUSH2 0xD2D DUP3 PUSH2 0xBB3 JUMP JUMPDEST PUSH2 0xD37 DUP2 DUP6 PUSH2 0xBBE JUMP JUMPDEST SWAP4 POP DUP4 PUSH1 0x20 DUP3 MUL DUP6 ADD PUSH2 0xD49 DUP6 PUSH2 0xBCF JUMP JUMPDEST DUP1 PUSH1 0x0 JUMPDEST DUP6 DUP2 LT ISZERO PUSH2 0xD85 JUMPI DUP5 DUP5 SUB DUP10 MSTORE DUP2 MLOAD PUSH2 0xD66 DUP6 DUP3 PUSH2 0xD01 JUMP JUMPDEST SWAP5 POP PUSH2 0xD71 DUP4 PUSH2 0xD15 JUMP JUMPDEST SWAP3 POP PUSH1 0x20 DUP11 ADD SWAP10 POP POP PUSH1 0x1 DUP2 ADD SWAP1 POP PUSH2 0xD4D JUMP JUMPDEST POP DUP3 SWAP8 POP DUP8 SWAP6 POP POP POP POP POP POP SWAP3 SWAP2 POP POP JUMP JUMPDEST PUSH1 0x0 PUSH1 0x20 DUP3 ADD SWAP1 POP DUP2 DUP2 SUB PUSH1 0x0 DUP4 ADD MSTORE PUSH2 0xDB1 DUP2 DUP5 PUSH2 0xD22 JUMP JUMPDEST SWAP1 POP SWAP3 SWAP2 POP POP JUMP JUMPDEST PUSH1 0x0 PUSH1 0x40 MLOAD SWAP1 POP SWAP1 JUMP JUMPDEST PUSH1 0x0 DUP1 REVERT JUMPDEST PUSH1 0x0 DUP1 REVERT JUMPDEST PUSH1 0x0 DUP2 SWAP1 POP SWAP2 SWAP1 POP JUMP JUMPDEST PUSH2 0xDE0 DUP2 PUSH2 0xDCD JUMP JUMPDEST DUP2 EQ PUSH2 0xDEB JUMPI PUSH1 0x0 DUP1 REVERT JUMPDEST POP JUMP JUMPDEST PUSH1 0x0 DUP2 CALLDATALOAD SWAP1 POP PUSH2 0xDFD DUP2 PUSH2 0xDD7 JUMP JUMPDEST SWAP3 SWAP2 POP POP JUMP JUMPDEST PUSH1 0x0 PUSH1 0x20 DUP3 DUP5 SUB SLT ISZERO PUSH2 0xE19 JUMPI PUSH2 0xE18 PUSH2 0xDC3 JUMP JUMPDEST JUMPDEST PUSH1 0x0 PUSH2 0xE27 DUP5 DUP3 DUP6 ADD PUSH2 0xDEE JUMP JUMPDEST SWAP2 POP POP SWAP3 SWAP2 POP POP JUMP JUMPDEST PUSH1 0x0 DUP3 DUP3 MSTORE PUSH1 0x20 DUP3 ADD SWAP1 POP SWAP3 SWAP2 POP POP JUMP JUMPDEST PUSH1 0x0 PUSH2 0xE4C DUP3 PUSH2 0xBDF JUMP JUMPDEST PUSH2 0xE56 DUP2 DUP6 PUSH2 0xE30 JUMP JUMPDEST SWAP4 POP PUSH2 0xE66 DUP2 DUP6 PUSH1 0x20 DUP7 ADD PUSH2 0xBFB JUMP JUMPDEST PUSH2 0xE6F DUP2 PUSH2 0xC25 JUMP JUMPDEST DUP5 ADD SWAP2 POP POP SWAP3 SWAP2 POP POP JUMP JUMPDEST PUSH1 0x0 PUSH1 0xA0 DUP3 ADD SWAP1 POP DUP2 DUP2 SUB PUSH1 0x0 DUP4 ADD MSTORE PUSH2 0xE94 DUP2 DUP9 PUSH2 0xE41 JUMP JUMPDEST SWAP1 POP DUP2 DUP2 SUB PUSH1 0x20 DUP4 ADD MSTORE PUSH2 0xEA8 DUP2 DUP8 PUSH2 0xE41 JUMP JUMPDEST SWAP1 POP DUP2 DUP2 SUB PUSH1 0x40 DUP4 ADD MSTORE PUSH2 0xEBC DUP2 DUP7 PUSH2 0xE41 JUMP JUMPDEST SWAP1 POP DUP2 DUP2 SUB PUSH1 0x60 DUP4 ADD MSTORE PUSH2 0xED0 DUP2 DUP6 PUSH2 0xE41 JUMP JUMPDEST SWAP1 POP DUP2 DUP2 SUB PUSH1 0x80 DUP4 ADD MSTORE PUSH2 0xEE4 DUP2 DUP5 PUSH2 0xE41 JUMP JUMPDEST SWAP1 POP SWAP7 SWAP6 POP POP POP POP POP POP JUMP JUMPDEST PUSH1 0x0 DUP1 REVERT JUMPDEST PUSH1 0x0 DUP1 REVERT JUMPDEST PUSH32 0x4E487B7100000000000000000000000000000000000000000000000000000000 PUSH1 0x0 MSTORE PUSH1 0x41 PUSH1 0x4 MSTORE PUSH1 0x24 PUSH1 0x0 REVERT JUMPDEST PUSH2 0xF32 DUP3 PUSH2 0xC25 JUMP JUMPDEST DUP2 ADD DUP2 DUP2 LT PUSH8 0xFFFFFFFFFFFFFFFF DUP3 GT OR ISZERO PUSH2 0xF51 JUMPI PUSH2 0xF50 PUSH2 0xEFA JUMP JUMPDEST JUMPDEST DUP1 PUSH1 0x40 MSTORE POP POP POP JUMP JUMPDEST PUSH1 0x0 PUSH2 0xF64 PUSH2 0xDB9 JUMP JUMPDEST SWAP1 POP PUSH2 0xF70 DUP3 DUP3 PUSH2 0xF29 JUMP JUMPDEST SWAP2 SWAP1 POP JUMP JUMPDEST PUSH1 0x0 PUSH8 0xFFFFFFFFFFFFFFFF DUP3 GT ISZERO PUSH2 0xF90 JUMPI PUSH2 0xF8F PUSH2 0xEFA JUMP JUMPDEST JUMPDEST PUSH2 0xF99 DUP3 PUSH2 0xC25 JUMP JUMPDEST SWAP1 POP PUSH1 0x20 DUP2 ADD SWAP1 POP SWAP2 SWAP1 POP JUMP JUMPDEST DUP3 DUP2 DUP4 CALLDATACOPY PUSH1 0x0 DUP4 DUP4 ADD MSTORE POP POP POP JUMP JUMPDEST PUSH1 0x0 PUSH2 0xFC8 PUSH2 0xFC3 DUP5 PUSH2 0xF75 JUMP JUMPDEST PUSH2 0xF5A JUMP JUMPDEST SWAP1 POP DUP3 DUP2 MSTORE PUSH1 0x20 DUP2 ADD DUP5 DUP5 DUP5 ADD GT ISZERO PUSH2 0xFE4 JUMPI PUSH2 0xFE3 PUSH2 0xEF5 JUMP JUMPDEST JUMPDEST PUSH2 0xFEF DUP5 DUP3 DUP6 PUSH2 0xFA6 JUMP JUMPDEST POP SWAP4 SWAP3 POP POP POP JUMP JUMPDEST PUSH1 0x0 DUP3 PUSH1 0x1F DUP4 ADD SLT PUSH2 0x100C JUMPI PUSH2 0x100B PUSH2 0xEF0 JUMP JUMPDEST JUMPDEST DUP2 CALLDATALOAD PUSH2 0x101C DUP5 DUP3 PUSH1 0x20 DUP7 ADD PUSH2 0xFB5 JUMP JUMPDEST SWAP2 POP POP SWAP3 SWAP2 POP POP JUMP JUMPDEST PUSH1 0x0 DUP1 PUSH1 0x0 DUP1 PUSH1 0x0 PUSH1 0xA0 DUP7 DUP9 SUB SLT ISZERO PUSH2 0x1041 JUMPI PUSH2 0x1040 PUSH2 0xDC3 JUMP JUMPDEST JUMPDEST PUSH1 0x0 DUP7 ADD CALLDATALOAD PUSH8 0xFFFFFFFFFFFFFFFF DUP2 GT ISZERO PUSH2 0x105F JUMPI PUSH2 0x105E PUSH2 0xDC8 JUMP JUMPDEST JUMPDEST PUSH2 0x106B DUP9 DUP3 DUP10 ADD PUSH2 0xFF7 JUMP JUMPDEST SWAP6 POP POP PUSH1 0x20 DUP7 ADD CALLDATALOAD PUSH8 0xFFFFFFFFFFFFFFFF DUP2 GT ISZERO PUSH2 0x108C JUMPI PUSH2 0x108B PUSH2 0xDC8 JUMP JUMPDEST JUMPDEST PUSH2 0x1098 DUP9 DUP3 DUP10 ADD PUSH2 0xFF7 JUMP JUMPDEST SWAP5 POP POP PUSH1 0x40 DUP7 ADD CALLDATALOAD PUSH8 0xFFFFFFFFFFFFFFFF DUP2 GT ISZERO PUSH2 0x10B9 JUMPI PUSH2 0x10B8 PUSH2 0xDC8 JUMP JUMPDEST JUMPDEST PUSH2 0x10C5 DUP9 DUP3 DUP10 ADD PUSH2 0xFF7 JUMP JUMPDEST SWAP4 POP POP PUSH1 0x60 DUP7 ADD CALLDATALOAD PUSH8 0xFFFFFFFFFFFFFFFF DUP2 GT ISZERO PUSH2 0x10E6 JUMPI PUSH2 0x10E5 PUSH2 0xDC8 JUMP JUMPDEST JUMPDEST PUSH2 0x10F2 DUP9 DUP3 DUP10 ADD PUSH2 0xFF7 JUMP JUMPDEST SWAP3 POP POP PUSH1 0x80 DUP7 ADD CALLDATALOAD PUSH8 0xFFFFFFFFFFFFFFFF DUP2 GT ISZERO PUSH2 0x1113 JUMPI PUSH2 0x1112 PUSH2 0xDC8 JUMP JUMPDEST JUMPDEST PUSH2 0x111F DUP9 DUP3 DUP10 ADD PUSH2 0xFF7 JUMP JUMPDEST SWAP2 POP POP SWAP3 SWAP6 POP SWAP3 SWAP6 SWAP1 SWAP4 POP JUMP JUMPDEST PUSH32 0x4E487B7100000000000000000000000000000000000000000000000000000000 PUSH1 0x0 MSTORE PUSH1 0x22 PUSH1 0x4 MSTORE PUSH1 0x24 PUSH1 0x0 REVERT JUMPDEST PUSH1 0x0 PUSH1 0x2 DUP3 DIV SWAP1 POP PUSH1 0x1 DUP3 AND DUP1 PUSH2 0x1173 JUMPI PUSH1 0x7F DUP3 AND SWAP2 POP JUMPDEST PUSH1 0x20 DUP3 LT DUP2 SUB PUSH2 0x1186 JUMPI PUSH2 0x1185 PUSH2 0x112C JUMP JUMPDEST JUMPDEST POP SWAP2 SWAP1 POP JUMP JUMPDEST PUSH32 0xC38D6E6469636520696E76C3A16C69646F000000000000000000000000000000 PUSH1 0x0 DUP3 ADD MSTORE POP JUMP JUMPDEST PUSH1 0x0 PUSH2 0x11C2 PUSH1 0x11 DUP4 PUSH2 0xE30 JUMP JUMPDEST SWAP2 POP PUSH2 0x11CD DUP3 PUSH2 0x118C JUMP JUMPDEST PUSH1 0x20 DUP3 ADD SWAP1 POP SWAP2 SWAP1 POP JUMP JUMPDEST PUSH1 0x0 PUSH1 0x20 DUP3 ADD SWAP1 POP DUP2 DUP2 SUB PUSH1 0x0 DUP4 ADD MSTORE PUSH2 0x11F1 DUP2 PUSH2 0x11B5 JUMP JUMPDEST SWAP1 POP SWAP2 SWAP1 POP JUMP JUMPDEST PUSH32 0x4E487B7100000000000000000000000000000000000000000000000000000000 PUSH1 0x0 MSTORE PUSH1 0x32 PUSH1 0x4 MSTORE PUSH1 0x24 PUSH1 0x0 REVERT JUMPDEST PUSH1 0x0 DUP2 SWAP1 POP DUP2 PUSH1 0x0 MSTORE PUSH1 0x20 PUSH1 0x0 KECCAK256 SWAP1 POP SWAP2 SWAP1 POP JUMP JUMPDEST PUSH1 0x0 PUSH1 0x20 PUSH1 0x1F DUP4 ADD DIV SWAP1 POP SWAP2 SWAP1 POP JUMP JUMPDEST PUSH1 0x0 DUP3 DUP3 SHL SWAP1 POP SWAP3 SWAP2 POP POP JUMP JUMPDEST PUSH1 0x0 PUSH1 0x8 DUP4 MUL PUSH2 0x1289 PUSH32 0xFFFFFFFFFFFFFFFFFFFFFFFFFFFFFFFFFFFFFFFFFFFFFFFFFFFFFFFFFFFFFFFF DUP3 PUSH2 0x124C JUMP JUMPDEST PUSH2 0x1293 DUP7 DUP4 PUSH2 0x124C JUMP JUMPDEST SWAP6 POP DUP1 NOT DUP5 AND SWAP4 POP DUP1 DUP7 AND DUP5 OR SWAP3 POP POP POP SWAP4 SWAP3 POP POP POP JUMP JUMPDEST PUSH1 0x0 DUP2 SWAP1 POP SWAP2 SWAP1 POP JUMP JUMPDEST PUSH1 0x0 PUSH2 0x12D0 PUSH2 0x12CB PUSH2 0x12C6 DUP5 PUSH2 0xDCD JUMP JUMPDEST PUSH2 0x12AB JUMP JUMPDEST PUSH2 0xDCD JUMP JUMPDEST SWAP1 POP SWAP2 SWAP1 POP JUMP JUMPDEST PUSH1 0x0 DUP2 SWAP1 POP SWAP2 SWAP1 POP JUMP JUMPDEST PUSH2 0x12EA DUP4 PUSH2 0x12B5 JUMP JUMPDEST PUSH2 0x12FE PUSH2 0x12F6 DUP3 PUSH2 0x12D7 JUMP JUMPDEST DUP5 DUP5 SLOAD PUSH2 0x1259 JUMP JUMPDEST DUP3 SSTORE POP POP POP POP JUMP JUMPDEST PUSH1 0x0 SWAP1 JUMP JUMPDEST PUSH2 0x1313 PUSH2 0x1306 JUMP JUMPDEST PUSH2 0x131E DUP2 DUP5 DUP5 PUSH2 0x12E1 JUMP JUMPDEST POP POP POP JUMP JUMPDEST JUMPDEST DUP2 DUP2 LT ISZERO PUSH2 0x1342 JUMPI PUSH2 0x1337 PUSH1 0x0 DUP3 PUSH2 0x130B JUMP JUMPDEST PUSH1 0x1 DUP2 ADD SWAP1 POP PUSH2 0x1324 JUMP JUMPDEST POP POP JUMP JUMPDEST PUSH1 0x1F DUP3 GT ISZERO PUSH2 0x1387 JUMPI PUSH2 0x1358 DUP2 PUSH2 0x1227 JUMP JUMPDEST PUSH2 0x1361 DUP5 PUSH2 0x123C JUMP JUMPDEST DUP2 ADD PUSH1 0x20 DUP6 LT ISZERO PUSH2 0x1370 JUMPI DUP2 SWAP1 POP JUMPDEST PUSH2 0x1384 PUSH2 0x137C DUP6 PUSH2 0x123C JUMP JUMPDEST DUP4 ADD DUP3 PUSH2 0x1323 JUMP JUMPDEST POP POP JUMPDEST POP POP POP JUMP JUMPDEST PUSH1 0x0 DUP3 DUP3 SHR SWAP1 POP SWAP3 SWAP2 POP POP JUMP JUMPDEST PUSH1 0x0 PUSH2 0x13AA PUSH1 0x0 NOT DUP5 PUSH1 0x8 MUL PUSH2 0x138C JUMP JUMPDEST NOT DUP1 DUP4 AND SWAP2 POP POP SWAP3 SWAP2 POP POP JUMP JUMPDEST PUSH1 0x0 PUSH2 0x13C3 DUP4 DUP4 PUSH2 0x1399 JUMP JUMPDEST SWAP2 POP DUP3 PUSH1 0x2 MUL DUP3 OR SWAP1 POP SWAP3 SWAP2 POP POP JUMP JUMPDEST PUSH2 0x13DC DUP3 PUSH2 0xBDF JUMP JUMPDEST PUSH8 0xFFFFFFFFFFFFFFFF DUP2 GT ISZERO PUSH2 0x13F5 JUMPI PUSH2 0x13F4 PUSH2 0xEFA JUMP JUMPDEST JUMPDEST PUSH2 0x13FF DUP3 SLOAD PUSH2 0x115B JUMP JUMPDEST PUSH2 0x140A DUP3 DUP3 DUP6 PUSH2 0x1346 JUMP JUMPDEST PUSH1 0x0 PUSH1 0x20 SWAP1 POP PUSH1 0x1F DUP4 GT PUSH1 0x1 DUP2 EQ PUSH2 0x143D JUMPI PUSH1 0x0 DUP5 ISZERO PUSH2 0x142B JUMPI DUP3 DUP8 ADD MLOAD SWAP1 POP JUMPDEST PUSH2 0x1435 DUP6 DUP3 PUSH2 0x13B7 JUMP JUMPDEST DUP7 SSTORE POP PUSH2 0x149D JUMP JUMPDEST PUSH1 0x1F NOT DUP5 AND PUSH2 0x144B DUP7 PUSH2 0x1227 JUMP JUMPDEST PUSH1 0x0 JUMPDEST DUP3 DUP2 LT ISZERO PUSH2 0x1473 JUMPI DUP5 DUP10 ADD MLOAD DUP3 SSTORE PUSH1 0x1 DUP3 ADD SWAP2 POP PUSH1 0x20 DUP6 ADD SWAP5 POP PUSH1 0x20 DUP2 ADD SWAP1 POP PUSH2 0x144E JUMP JUMPDEST DUP7 DUP4 LT ISZERO PUSH2 0x1490 JUMPI DUP5 DUP10 ADD MLOAD PUSH2 0x148C PUSH1 0x1F DUP10 AND DUP3 PUSH2 0x1399 JUMP JUMPDEST DUP4 SSTORE POP JUMPDEST PUSH1 0x1 PUSH1 0x2 DUP9 MUL ADD DUP9 SSTORE POP POP POP JUMPDEST POP POP POP POP POP POP JUMP JUMPDEST PUSH32 0x4E487B7100000000000000000000000000000000000000000000000000000000 PUSH1 0x0 MSTORE PUSH1 0x11 PUSH1 0x4 MSTORE PUSH1 0x24 PUSH1 0x0 REVERT JUMPDEST PUSH1 0x0 PUSH2 0x14DF DUP3 PUSH2 0xDCD JUMP JUMPDEST SWAP2 POP PUSH2 0x14EA DUP4 PUSH2 0xDCD JUMP JUMPDEST SWAP3 POP DUP3 DUP3 SUB SWAP1 POP DUP2 DUP2 GT ISZERO PUSH2 0x1502 JUMPI PUSH2 0x1501 PUSH2 0x14A5 JUMP JUMPDEST JUMPDEST SWAP3 SWAP2 POP POP JUMP JUMPDEST PUSH2 0x1511 DUP2 PUSH2 0xDCD JUMP JUMPDEST DUP3 MSTORE POP POP JUMP JUMPDEST PUSH1 0x0 PUSH1 0x40 DUP3 ADD SWAP1 POP PUSH2 0x152C PUSH1 0x0 DUP4 ADD DUP6 PUSH2 0x1508 JUMP JUMPDEST DUP2 DUP2 SUB PUSH1 0x20 DUP4 ADD MSTORE PUSH2 0x153E DUP2 DUP5 PUSH2 0xE41 JUMP JUMPDEST SWAP1 POP SWAP4 SWAP3 POP POP POP JUMP INVALID LOG2 PUSH5 0x6970667358 0x22 SLT KECCAK256 RETURNDATACOPY DUP3 0xF6 0xC7 DUP11 0xD LOG4 PUSH20 0x53B1C68C210A28D06B5C2A927C3A54BE66A5920A 0x4C 0xDA 0xBF MSIZE PUSH5 0x736F6C6343 STOP ADDMOD 0x1E STOP CALLER "
				},
				"gasEstimates": {
					"creation": {
						"codeDepositCost": "1100200",
						"executionCost": "1140",
						"totalCost": "1101340"
					},
					"external": {
						"baterias(uint256)": "infinite",
						"getBateria(uint256)": "infinite",
						"listar()": "infinite",
						"registrarBateria(string,string,string,string,string)": "infinite"
					}
				},
				"methodIdentifiers": {
					"baterias(uint256)": "7da30b73",
					"getBateria(uint256)": "c64a5e0c",
					"listar()": "46012018",
					"registrarBateria(string,string,string,string,string)": "dcc6408a"
				}
			},
			"storageLayout": {
				"storage": [
					{
						"astId": 16,
						"contract": "21.10/contracts/projeto_final/rastreio_baterias.sol:BateriasDefeituosas",
						"label": "baterias",
						"offset": 0,
						"slot": "0",
						"type": "t_array(t_struct(Bateria)12_storage)dyn_storage"
					}
				],
				"types": {
					"t_array(t_struct(Bateria)12_storage)dyn_storage": {
						"base": "t_struct(Bateria)12_storage",
						"encoding": "dynamic_array",
						"label": "struct BateriasDefeituosas.Bateria[]",
						"numberOfBytes": "32"
					},
					"t_string_storage": {
						"encoding": "bytes",
						"label": "string",
						"numberOfBytes": "32"
					},
					"t_struct(Bateria)12_storage": {
						"encoding": "inplace",
						"label": "struct BateriasDefeituosas.Bateria",
						"members": [
							{
								"astId": 3,
								"contract": "21.10/contracts/projeto_final/rastreio_baterias.sol:BateriasDefeituosas",
								"label": "tipo",
								"offset": 0,
								"slot": "0",
								"type": "t_string_storage"
							},
							{
								"astId": 5,
								"contract": "21.10/contracts/projeto_final/rastreio_baterias.sol:BateriasDefeituosas",
								"label": "uso",
								"offset": 0,
								"slot": "1",
								"type": "t_string_storage"
							},
							{
								"astId": 7,
								"contract": "21.10/contracts/projeto_final/rastreio_baterias.sol:BateriasDefeituosas",
								"label": "numeroSerie",
								"offset": 0,
								"slot": "2",
								"type": "t_string_storage"
							},
							{
								"astId": 9,
								"contract": "21.10/contracts/projeto_final/rastreio_baterias.sol:BateriasDefeituosas",
								"label": "dataProducao",
								"offset": 0,
								"slot": "3",
								"type": "t_string_storage"
							},
							{
								"astId": 11,
								"contract": "21.10/contracts/projeto_final/rastreio_baterias.sol:BateriasDefeituosas",
								"label": "lote",
								"offset": 0,
								"slot": "4",
								"type": "t_string_storage"
							}
						],
						"numberOfBytes": "160"
					}
				}
			},
			"userdoc": {
				"kind": "user",
				"methods": {},
				"version": 1
			}
		}
	}
}