{
	"21.10/contracts/projeto_final/rastreio_baterias.sol": {
		"BateriasDefeituosas": {
			"abi": [
				{
					"anonymous": false,
					"inputs": [
						{
							"indexed": false,
							"internalType": "uint256",
							"name": "index",
							"type": "uint256"
						},
						{
							"indexed": false,
							"internalType": "string",
							"name": "numeroSerie",
							"type": "string"
						}
					],
					"name": "BateriaRegistrada",
					"type": "event"
				},
				{
					"inputs": [
						{
							"internalType": "uint256",
							"name": "",
							"type": "uint256"
						}
					],
					"name": "baterias",
					"outputs": [
						{
							"internalType": "string",
							"name": "tipo",
							"type": "string"
						},
						{
							"internalType": "string",
							"name": "uso",
							"type": "string"
						},
						{
							"internalType": "string",
							"name": "numeroSerie",
							"type": "string"
						},
						{
							"internalType": "string",
							"name": "dataProducao",
							"type": "string"
						},
						{
							"internalType": "string",
							"name": "lote",
							"type": "string"
						}
					],
					"stateMutability": "view",
					"type": "function"
				},
				{
					"inputs": [
						{
							"internalType": "uint256",
							"name": "index",
							"type": "uint256"
						}
					],
					"name": "getBateria",
					"outputs": [
						{
							"internalType": "string",
							"name": "tipo",
							"type": "string"
						},
						{
							"internalType": "string",
							"name": "uso",
							"type": "string"
						},
						{
							"internalType": "string",
							"name": "numeroSerie",
							"type": "string"
						},
						{
							"internalType": "string",
							"name": "dataProducao",
							"type": "string"
						},
						{
							"internalType": "string",
							"name": "lote",
							"type": "string"
						}
					],
					"stateMutability": "view",
					"type": "function"
				},
				{
					"inputs": [],
					"name": "listar",
					"outputs": [
						{
							"components": [
								{
									"internalType": "string",
									"name": "tipo",
									"type": "string"
								},
								{
									"internalType": "string",
									"name": "uso",
									"type": "string"
								},
								{
									"internalType": "string",
									"name": "numeroSerie",
									"type": "string"
								},
								{
									"internalType": "string",
									"name": "dataProducao",
									"type": "string"
								},
								{
									"internalType": "string",
									"name": "lote",
									"type": "string"
								}
							],
							"internalType": "struct BateriasDefeituosas.Bateria[]",
							"name": "",
							"type": "tuple[]"
						}
					],
					"stateMutability": "view",
					"type": "function"
				},
				{
					"inputs": [
						{
							"internalType": "string",
							"name": "_tipo",
							"type": "string"
						},
						{
							"internalType": "string",
							"name": "_uso",
							"type": "string"
						},
						{
							"internalType": "string",
							"name": "_numeroSerie",
							"type": "string"
						},
						{
							"internalType": "string",
							"name": "_dataProducao",
							"type": "string"
						},
						{
							"internalType": "string",
							"name": "_lote",
							"type": "string"
						}
					],
					"name": "registrarBateria",
					"outputs": [],
					"stateMutability": "nonpayable",
					"type": "function"
				},
				{
					"inputs": [
						{
							"internalType": "uint256",
							"name": "index",
							"type": "uint256"
						}
					],
					"name": "removerBateria",
					"outputs": [],
					"stateMutability": "nonpayable",
					"type": "function"
				}
			],
			"devdoc": {
				"kind": "dev",
				"methods": {},
				"version": 1
			},
			"evm": {
				"assembly": "    /* \"21.10/contracts/projeto_final/rastreio_baterias.sol\":60:2026  contract BateriasDefeituosas {... */\n  mstore(0x40, 0x80)\n  callvalue\n  dup1\n  iszero\n  tag_1\n  jumpi\n  0x00\n  dup1\n  revert\ntag_1:\n  pop\n  dataSize(sub_0)\n  dup1\n  dataOffset(sub_0)\n  0x00\n  codecopy\n  0x00\n  return\nstop\n\nsub_0: assembly {\n        /* \"21.10/contracts/projeto_final/rastreio_baterias.sol\":60:2026  contract BateriasDefeituosas {... */\n      mstore(0x40, 0x80)\n      callvalue\n      dup1\n      iszero\n      tag_1\n      jumpi\n      0x00\n      dup1\n      revert\n    tag_1:\n      pop\n      jumpi(tag_2, lt(calldatasize, 0x04))\n      shr(0xe0, calldataload(0x00))\n      dup1\n      0x46012018\n      eq\n      tag_3\n      jumpi\n      dup1\n      0x64a96fea\n      eq\n      tag_4\n      jumpi\n      dup1\n      0x7da30b73\n      eq\n      tag_5\n      jumpi\n      dup1\n      0xc64a5e0c\n      eq\n      tag_6\n      jumpi\n      dup1\n      0xdcc6408a\n      eq\n      tag_7\n      jumpi\n    tag_2:\n      0x00\n      dup1\n      revert\n        /* \"21.10/contracts/projeto_final/rastreio_baterias.sol\":1547:1638  function listar() public view returns (Bateria[] memory) {... */\n    tag_3:\n      tag_8\n      tag_9\n      jump\t// in\n    tag_8:\n      mload(0x40)\n      tag_10\n      swap2\n      swap1\n      tag_11\n      jump\t// in\n    tag_10:\n      mload(0x40)\n      dup1\n      swap2\n      sub\n      swap1\n      return\n        /* \"21.10/contracts/projeto_final/rastreio_baterias.sol\":1712:2023  function removerBateria(uint index) public {... */\n    tag_4:\n      tag_12\n      0x04\n      dup1\n      calldatasize\n      sub\n      dup2\n      add\n      swap1\n      tag_13\n      swap2\n      swap1\n      tag_14\n      jump\t// in\n    tag_13:\n      tag_15\n      jump\t// in\n    tag_12:\n      stop\n        /* \"21.10/contracts/projeto_final/rastreio_baterias.sol\":406:431  Bateria[] public baterias */\n    tag_5:\n      tag_16\n      0x04\n      dup1\n      calldatasize\n      sub\n      dup2\n      add\n      swap1\n      tag_17\n      swap2\n      swap1\n      tag_14\n      jump\t// in\n    tag_17:\n      tag_18\n      jump\t// in\n    tag_16:\n      mload(0x40)\n      tag_19\n      swap6\n      swap5\n      swap4\n      swap3\n      swap2\n      swap1\n      tag_20\n      jump\t// in\n    tag_19:\n      mload(0x40)\n      dup1\n      swap2\n      sub\n      swap1\n      return\n        /* \"21.10/contracts/projeto_final/rastreio_baterias.sol\":1065:1480  function getBateria(uint index) public view returns (... */\n    tag_6:\n      tag_21\n      0x04\n      dup1\n      calldatasize\n      sub\n      dup2\n      add\n      swap1\n      tag_22\n      swap2\n      swap1\n      tag_14\n      jump\t// in\n    tag_22:\n      tag_23\n      jump\t// in\n    tag_21:\n      mload(0x40)\n      tag_24\n      swap6\n      swap5\n      swap4\n      swap3\n      swap2\n      swap1\n      tag_20\n      jump\t// in\n    tag_24:\n      mload(0x40)\n      dup1\n      swap2\n      sub\n      swap1\n      return\n        /* \"21.10/contracts/projeto_final/rastreio_baterias.sol\":627:989  function registrarBateria(... */\n    tag_7:\n      tag_25\n      0x04\n      dup1\n      calldatasize\n      sub\n      dup2\n      add\n      swap1\n      tag_26\n      swap2\n      swap1\n      tag_27\n      jump\t// in\n    tag_26:\n      tag_28\n      jump\t// in\n    tag_25:\n      stop\n        /* \"21.10/contracts/projeto_final/rastreio_baterias.sol\":1547:1638  function listar() public view returns (Bateria[] memory) {... */\n    tag_9:\n        /* \"21.10/contracts/projeto_final/rastreio_baterias.sol\":1586:1602  Bateria[] memory */\n      0x60\n        /* \"21.10/contracts/projeto_final/rastreio_baterias.sol\":1622:1630  baterias */\n      0x00\n        /* \"21.10/contracts/projeto_final/rastreio_baterias.sol\":1615:1630  return baterias */\n      dup1\n      sload\n      dup1\n      0x20\n      mul\n      0x20\n      add\n      mload(0x40)\n      swap1\n      dup2\n      add\n      0x40\n      mstore\n      dup1\n      swap3\n      swap2\n      swap1\n      dup2\n      dup2\n      mstore\n      0x20\n      add\n      0x00\n      swap1\n    tag_30:\n      dup3\n      dup3\n      lt\n      iszero\n      tag_31\n      jumpi\n      dup4\n      dup3\n      swap1\n      0x00\n      mstore\n      keccak256(0x00, 0x20)\n      swap1\n      0x05\n      mul\n      add\n      mload(0x40)\n      dup1\n      0xa0\n      add\n      0x40\n      mstore\n      swap1\n      dup2\n      0x00\n      dup3\n      add\n      dup1\n      sload\n      tag_33\n      swap1\n      tag_34\n      jump\t// in\n    tag_33:\n      dup1\n      0x1f\n      add\n      0x20\n      dup1\n      swap2\n      div\n      mul\n      0x20\n      add\n      mload(0x40)\n      swap1\n      dup2\n      add\n      0x40\n      mstore\n      dup1\n      swap3\n      swap2\n      swap1\n      dup2\n      dup2\n      mstore\n      0x20\n      add\n      dup3\n      dup1\n      sload\n      tag_35\n      swap1\n      tag_34\n      jump\t// in\n    tag_35:\n      dup1\n      iszero\n      tag_36\n      jumpi\n      dup1\n      0x1f\n      lt\n      tag_37\n      jumpi\n      0x0100\n      dup1\n      dup4\n      sload\n      div\n      mul\n      dup4\n      mstore\n      swap2\n      0x20\n      add\n      swap2\n      jump(tag_36)\n    tag_37:\n      dup3\n      add\n      swap2\n      swap1\n      0x00\n      mstore\n      keccak256(0x00, 0x20)\n      swap1\n    tag_38:\n      dup2\n      sload\n      dup2\n      mstore\n      swap1\n      0x01\n      add\n      swap1\n      0x20\n      add\n      dup1\n      dup4\n      gt\n      tag_38\n      jumpi\n      dup3\n      swap1\n      sub\n      0x1f\n      and\n      dup3\n      add\n      swap2\n    tag_36:\n      pop\n      pop\n      pop\n      pop\n      pop\n      dup2\n      mstore\n      0x20\n      add\n      0x01\n      dup3\n      add\n      dup1\n      sload\n      tag_39\n      swap1\n      tag_34\n      jump\t// in\n    tag_39:\n      dup1\n      0x1f\n      add\n      0x20\n      dup1\n      swap2\n      div\n      mul\n      0x20\n      add\n      mload(0x40)\n      swap1\n      dup2\n      add\n      0x40\n      mstore\n      dup1\n      swap3\n      swap2\n      swap1\n      dup2\n      dup2\n      mstore\n      0x20\n      add\n      dup3\n      dup1\n      sload\n      tag_40\n      swap1\n      tag_34\n      jump\t// in\n    tag_40:\n      dup1\n      iszero\n      tag_41\n      jumpi\n      dup1\n      0x1f\n      lt\n      tag_42\n      jumpi\n      0x0100\n      dup1\n      dup4\n      sload\n      div\n      mul\n      dup4\n      mstore\n      swap2\n      0x20\n      add\n      swap2\n      jump(tag_41)\n    tag_42:\n      dup3\n      add\n      swap2\n      swap1\n      0x00\n      mstore\n      keccak256(0x00, 0x20)\n      swap1\n    tag_43:\n      dup2\n      sload\n      dup2\n      mstore\n      swap1\n      0x01\n      add\n      swap1\n      0x20\n      add\n      dup1\n      dup4\n      gt\n      tag_43\n      jumpi\n      dup3\n      swap1\n      sub\n      0x1f\n      and\n      dup3\n      add\n      swap2\n    tag_41:\n      pop\n      pop\n      pop\n      pop\n      pop\n      dup2\n      mstore\n      0x20\n      add\n      0x02\n      dup3\n      add\n      dup1\n      sload\n      tag_44\n      swap1\n      tag_34\n      jump\t// in\n    tag_44:\n      dup1\n      0x1f\n      add\n      0x20\n      dup1\n      swap2\n      div\n      mul\n      0x20\n      add\n      mload(0x40)\n      swap1\n      dup2\n      add\n      0x40\n      mstore\n      dup1\n      swap3\n      swap2\n      swap1\n      dup2\n      dup2\n      mstore\n      0x20\n      add\n      dup3\n      dup1\n      sload\n      tag_45\n      swap1\n      tag_34\n      jump\t// in\n    tag_45:\n      dup1\n      iszero\n      tag_46\n      jumpi\n      dup1\n      0x1f\n      lt\n      tag_47\n      jumpi\n      0x0100\n      dup1\n      dup4\n      sload\n      div\n      mul\n      dup4\n      mstore\n      swap2\n      0x20\n      add\n      swap2\n      jump(tag_46)\n    tag_47:\n      dup3\n      add\n      swap2\n      swap1\n      0x00\n      mstore\n      keccak256(0x00, 0x20)\n      swap1\n    tag_48:\n      dup2\n      sload\n      dup2\n      mstore\n      swap1\n      0x01\n      add\n      swap1\n      0x20\n      add\n      dup1\n      dup4\n      gt\n      tag_48\n      jumpi\n      dup3\n      swap1\n      sub\n      0x1f\n      and\n      dup3\n      add\n      swap2\n    tag_46:\n      pop\n      pop\n      pop\n      pop\n      pop\n      dup2\n      mstore\n      0x20\n      add\n      0x03\n      dup3\n      add\n      dup1\n      sload\n      tag_49\n      swap1\n      tag_34\n      jump\t// in\n    tag_49:\n      dup1\n      0x1f\n      add\n      0x20\n      dup1\n      swap2\n      div\n      mul\n      0x20\n      add\n      mload(0x40)\n      swap1\n      dup2\n      add\n      0x40\n      mstore\n      dup1\n      swap3\n      swap2\n      swap1\n      dup2\n      dup2\n      mstore\n      0x20\n      add\n      dup3\n      dup1\n      sload\n      tag_50\n      swap1\n      tag_34\n      jump\t// in\n    tag_50:\n      dup1\n      iszero\n      tag_51\n      jumpi\n      dup1\n      0x1f\n      lt\n      tag_52\n      jumpi\n      0x0100\n      dup1\n      dup4\n      sload\n      div\n      mul\n      dup4\n      mstore\n      swap2\n      0x20\n      add\n      swap2\n      jump(tag_51)\n    tag_52:\n      dup3\n      add\n      swap2\n      swap1\n      0x00\n      mstore\n      keccak256(0x00, 0x20)\n      swap1\n    tag_53:\n      dup2\n      sload\n      dup2\n      mstore\n      swap1\n      0x01\n      add\n      swap1\n      0x20\n      add\n      dup1\n      dup4\n      gt\n      tag_53\n      jumpi\n      dup3\n      swap1\n      sub\n      0x1f\n      and\n      dup3\n      add\n      swap2\n    tag_51:\n      pop\n      pop\n      pop\n      pop\n      pop\n      dup2\n      mstore\n      0x20\n      add\n      0x04\n      dup3\n      add\n      dup1\n      sload\n      tag_54\n      swap1\n      tag_34\n      jump\t// in\n    tag_54:\n      dup1\n      0x1f\n      add\n      0x20\n      dup1\n      swap2\n      div\n      mul\n      0x20\n      add\n      mload(0x40)\n      swap1\n      dup2\n      add\n      0x40\n      mstore\n      dup1\n      swap3\n      swap2\n      swap1\n      dup2\n      dup2\n      mstore\n      0x20\n      add\n      dup3\n      dup1\n      sload\n      tag_55\n      swap1\n      tag_34\n      jump\t// in\n    tag_55:\n      dup1\n      iszero\n      tag_56\n      jumpi\n      dup1\n      0x1f\n      lt\n      tag_57\n      jumpi\n      0x0100\n      dup1\n      dup4\n      sload\n      div\n      mul\n      dup4\n      mstore\n      swap2\n      0x20\n      add\n      swap2\n      jump(tag_56)\n    tag_57:\n      dup3\n      add\n      swap2\n      swap1\n      0x00\n      mstore\n      keccak256(0x00, 0x20)\n      swap1\n    tag_58:\n      dup2\n      sload\n      dup2\n      mstore\n      swap1\n      0x01\n      add\n      swap1\n      0x20\n      add\n      dup1\n      dup4\n      gt\n      tag_58\n      jumpi\n      dup3\n      swap1\n      sub\n      0x1f\n      and\n      dup3\n      add\n      swap2\n    tag_56:\n      pop\n      pop\n      pop\n      pop\n      pop\n      dup2\n      mstore\n      pop\n      pop\n      dup2\n      mstore\n      0x20\n      add\n      swap1\n      0x01\n      add\n      swap1\n      jump(tag_30)\n    tag_31:\n      pop\n      pop\n      pop\n      pop\n      swap1\n      pop\n        /* \"21.10/contracts/projeto_final/rastreio_baterias.sol\":1547:1638  function listar() public view returns (Bateria[] memory) {... */\n      swap1\n      jump\t// out\n        /* \"21.10/contracts/projeto_final/rastreio_baterias.sol\":1712:2023  function removerBateria(uint index) public {... */\n    tag_15:\n        /* \"21.10/contracts/projeto_final/rastreio_baterias.sol\":1782:1790  baterias */\n      0x00\n        /* \"21.10/contracts/projeto_final/rastreio_baterias.sol\":1782:1797  baterias.length */\n      dup1\n      sload\n      swap1\n      pop\n        /* \"21.10/contracts/projeto_final/rastreio_baterias.sol\":1774:1779  index */\n      dup2\n        /* \"21.10/contracts/projeto_final/rastreio_baterias.sol\":1774:1797  index < baterias.length */\n      lt\n        /* \"21.10/contracts/projeto_final/rastreio_baterias.sol\":1766:1826  require(index < baterias.length, unicode\"Índice inválido\") */\n      tag_60\n      jumpi\n      mload(0x40)\n      0x08c379a000000000000000000000000000000000000000000000000000000000\n      dup2\n      mstore\n      0x04\n      add\n      tag_61\n      swap1\n      tag_62\n      jump\t// in\n    tag_61:\n      mload(0x40)\n      dup1\n      swap2\n      sub\n      swap1\n      revert\n    tag_60:\n        /* \"21.10/contracts/projeto_final/rastreio_baterias.sol\":1922:1930  baterias */\n      0x00\n        /* \"21.10/contracts/projeto_final/rastreio_baterias.sol\":1949:1950  1 */\n      0x01\n        /* \"21.10/contracts/projeto_final/rastreio_baterias.sol\":1931:1939  baterias */\n      0x00\n        /* \"21.10/contracts/projeto_final/rastreio_baterias.sol\":1931:1946  baterias.length */\n      dup1\n      sload\n      swap1\n      pop\n        /* \"21.10/contracts/projeto_final/rastreio_baterias.sol\":1931:1950  baterias.length - 1 */\n      tag_63\n      swap2\n      swap1\n      tag_64\n      jump\t// in\n    tag_63:\n        /* \"21.10/contracts/projeto_final/rastreio_baterias.sol\":1922:1951  baterias[baterias.length - 1] */\n      dup2\n      sload\n      dup2\n      lt\n      tag_65\n      jumpi\n      tag_66\n      tag_67\n      jump\t// in\n    tag_66:\n    tag_65:\n      swap1\n      0x00\n      mstore\n      keccak256(0x00, 0x20)\n      swap1\n      0x05\n      mul\n      add\n        /* \"21.10/contracts/projeto_final/rastreio_baterias.sol\":1904:1912  baterias */\n      0x00\n        /* \"21.10/contracts/projeto_final/rastreio_baterias.sol\":1913:1918  index */\n      dup3\n        /* \"21.10/contracts/projeto_final/rastreio_baterias.sol\":1904:1919  baterias[index] */\n      dup2\n      sload\n      dup2\n      lt\n      tag_69\n      jumpi\n      tag_70\n      tag_67\n      jump\t// in\n    tag_70:\n    tag_69:\n      swap1\n      0x00\n      mstore\n      keccak256(0x00, 0x20)\n      swap1\n      0x05\n      mul\n      add\n        /* \"21.10/contracts/projeto_final/rastreio_baterias.sol\":1904:1951  baterias[index] = baterias[baterias.length - 1] */\n      0x00\n      dup3\n      add\n      dup2\n      0x00\n      add\n      swap1\n      dup2\n      tag_72\n      swap2\n      swap1\n      tag_73\n      jump\t// in\n    tag_72:\n      pop\n      0x01\n      dup3\n      add\n      dup2\n      0x01\n      add\n      swap1\n      dup2\n      tag_74\n      swap2\n      swap1\n      tag_73\n      jump\t// in\n    tag_74:\n      pop\n      0x02\n      dup3\n      add\n      dup2\n      0x02\n      add\n      swap1\n      dup2\n      tag_75\n      swap2\n      swap1\n      tag_73\n      jump\t// in\n    tag_75:\n      pop\n      0x03\n      dup3\n      add\n      dup2\n      0x03\n      add\n      swap1\n      dup2\n      tag_76\n      swap2\n      swap1\n      tag_73\n      jump\t// in\n    tag_76:\n      pop\n      0x04\n      dup3\n      add\n      dup2\n      0x04\n      add\n      swap1\n      dup2\n      tag_77\n      swap2\n      swap1\n      tag_73\n      jump\t// in\n    tag_77:\n      pop\n      swap1\n      pop\n      pop\n        /* \"21.10/contracts/projeto_final/rastreio_baterias.sol\":2001:2009  baterias */\n      0x00\n        /* \"21.10/contracts/projeto_final/rastreio_baterias.sol\":2001:2015  baterias.pop() */\n      dup1\n      sload\n      dup1\n      tag_78\n      jumpi\n      tag_79\n      tag_80\n      jump\t// in\n    tag_79:\n    tag_78:\n      0x01\n      swap1\n      sub\n      dup2\n      dup2\n      swap1\n      0x00\n      mstore\n      keccak256(0x00, 0x20)\n      swap1\n      0x05\n      mul\n      add\n      0x00\n      dup1\n      dup3\n      add\n      0x00\n      tag_82\n      swap2\n      swap1\n      tag_83\n      jump\t// in\n    tag_82:\n      0x01\n      dup3\n      add\n      0x00\n      tag_84\n      swap2\n      swap1\n      tag_83\n      jump\t// in\n    tag_84:\n      0x02\n      dup3\n      add\n      0x00\n      tag_85\n      swap2\n      swap1\n      tag_83\n      jump\t// in\n    tag_85:\n      0x03\n      dup3\n      add\n      0x00\n      tag_86\n      swap2\n      swap1\n      tag_83\n      jump\t// in\n    tag_86:\n      0x04\n      dup3\n      add\n      0x00\n      tag_87\n      swap2\n      swap1\n      tag_83\n      jump\t// in\n    tag_87:\n      pop\n      pop\n      swap1\n      sstore\n        /* \"21.10/contracts/projeto_final/rastreio_baterias.sol\":1712:2023  function removerBateria(uint index) public {... */\n      pop\n      jump\t// out\n        /* \"21.10/contracts/projeto_final/rastreio_baterias.sol\":406:431  Bateria[] public baterias */\n    tag_18:\n      0x00\n      dup2\n      dup2\n      sload\n      dup2\n      lt\n      tag_88\n      jumpi\n      0x00\n      dup1\n      revert\n    tag_88:\n      swap1\n      0x00\n      mstore\n      keccak256(0x00, 0x20)\n      swap1\n      0x05\n      mul\n      add\n      0x00\n      swap2\n      pop\n      swap1\n      pop\n      dup1\n      0x00\n      add\n      dup1\n      sload\n      tag_90\n      swap1\n      tag_34\n      jump\t// in\n    tag_90:\n      dup1\n      0x1f\n      add\n      0x20\n      dup1\n      swap2\n      div\n      mul\n      0x20\n      add\n      mload(0x40)\n      swap1\n      dup2\n      add\n      0x40\n      mstore\n      dup1\n      swap3\n      swap2\n      swap1\n      dup2\n      dup2\n      mstore\n      0x20\n      add\n      dup3\n      dup1\n      sload\n      tag_91\n      swap1\n      tag_34\n      jump\t// in\n    tag_91:\n      dup1\n      iszero\n      tag_92\n      jumpi\n      dup1\n      0x1f\n      lt\n      tag_93\n      jumpi\n      0x0100\n      dup1\n      dup4\n      sload\n      div\n      mul\n      dup4\n      mstore\n      swap2\n      0x20\n      add\n      swap2\n      jump(tag_92)\n    tag_93:\n      dup3\n      add\n      swap2\n      swap1\n      0x00\n      mstore\n      keccak256(0x00, 0x20)\n      swap1\n    tag_94:\n      dup2\n      sload\n      dup2\n      mstore\n      swap1\n      0x01\n      add\n      swap1\n      0x20\n      add\n      dup1\n      dup4\n      gt\n      tag_94\n      jumpi\n      dup3\n      swap1\n      sub\n      0x1f\n      and\n      dup3\n      add\n      swap2\n    tag_92:\n      pop\n      pop\n      pop\n      pop\n      pop\n      swap1\n      dup1\n      0x01\n      add\n      dup1\n      sload\n      tag_95\n      swap1\n      tag_34\n      jump\t// in\n    tag_95:\n      dup1\n      0x1f\n      add\n      0x20\n      dup1\n      swap2\n      div\n      mul\n      0x20\n      add\n      mload(0x40)\n      swap1\n      dup2\n      add\n      0x40\n      mstore\n      dup1\n      swap3\n      swap2\n      swap1\n      dup2\n      dup2\n      mstore\n      0x20\n      add\n      dup3\n      dup1\n      sload\n      tag_96\n      swap1\n      tag_34\n      jump\t// in\n    tag_96:\n      dup1\n      iszero\n      tag_97\n      jumpi\n      dup1\n      0x1f\n      lt\n      tag_98\n      jumpi\n      0x0100\n      dup1\n      dup4\n      sload\n      div\n      mul\n      dup4\n      mstore\n      swap2\n      0x20\n      add\n      swap2\n      jump(tag_97)\n    tag_98:\n      dup3\n      add\n      swap2\n      swap1\n      0x00\n      mstore\n      keccak256(0x00, 0x20)\n      swap1\n    tag_99:\n      dup2\n      sload\n      dup2\n      mstore\n      swap1\n      0x01\n      add\n      swap1\n      0x20\n      add\n      dup1\n      dup4\n      gt\n      tag_99\n      jumpi\n      dup3\n      swap1\n      sub\n      0x1f\n      and\n      dup3\n      add\n      swap2\n    tag_97:\n      pop\n      pop\n      pop\n      pop\n      pop\n      swap1\n      dup1\n      0x02\n      add\n      dup1\n      sload\n      tag_100\n      swap1\n      tag_34\n      jump\t// in\n    tag_100:\n      dup1\n      0x1f\n      add\n      0x20\n      dup1\n      swap2\n      div\n      mul\n      0x20\n      add\n      mload(0x40)\n      swap1\n      dup2\n      add\n      0x40\n      mstore\n      dup1\n      swap3\n      swap2\n      swap1\n      dup2\n      dup2\n      mstore\n      0x20\n      add\n      dup3\n      dup1\n      sload\n      tag_101\n      swap1\n      tag_34\n      jump\t// in\n    tag_101:\n      dup1\n      iszero\n      tag_102\n      jumpi\n      dup1\n      0x1f\n      lt\n      tag_103\n      jumpi\n      0x0100\n      dup1\n      dup4\n      sload\n      div\n      mul\n      dup4\n      mstore\n      swap2\n      0x20\n      add\n      swap2\n      jump(tag_102)\n    tag_103:\n      dup3\n      add\n      swap2\n      swap1\n      0x00\n      mstore\n      keccak256(0x00, 0x20)\n      swap1\n    tag_104:\n      dup2\n      sload\n      dup2\n      mstore\n      swap1\n      0x01\n      add\n      swap1\n      0x20\n      add\n      dup1\n      dup4\n      gt\n      tag_104\n      jumpi\n      dup3\n      swap1\n      sub\n      0x1f\n      and\n      dup3\n      add\n      swap2\n    tag_102:\n      pop\n      pop\n      pop\n      pop\n      pop\n      swap1\n      dup1\n      0x03\n      add\n      dup1\n      sload\n      tag_105\n      swap1\n      tag_34\n      jump\t// in\n    tag_105:\n      dup1\n      0x1f\n      add\n      0x20\n      dup1\n      swap2\n      div\n      mul\n      0x20\n      add\n      mload(0x40)\n      swap1\n      dup2\n      add\n      0x40\n      mstore\n      dup1\n      swap3\n      swap2\n      swap1\n      dup2\n      dup2\n      mstore\n      0x20\n      add\n      dup3\n      dup1\n      sload\n      tag_106\n      swap1\n      tag_34\n      jump\t// in\n    tag_106:\n      dup1\n      iszero\n      tag_107\n      jumpi\n      dup1\n      0x1f\n      lt\n      tag_108\n      jumpi\n      0x0100\n      dup1\n      dup4\n      sload\n      div\n      mul\n      dup4\n      mstore\n      swap2\n      0x20\n      add\n      swap2\n      jump(tag_107)\n    tag_108:\n      dup3\n      add\n      swap2\n      swap1\n      0x00\n      mstore\n      keccak256(0x00, 0x20)\n      swap1\n    tag_109:\n      dup2\n      sload\n      dup2\n      mstore\n      swap1\n      0x01\n      add\n      swap1\n      0x20\n      add\n      dup1\n      dup4\n      gt\n      tag_109\n      jumpi\n      dup3\n      swap1\n      sub\n      0x1f\n      and\n      dup3\n      add\n      swap2\n    tag_107:\n      pop\n      pop\n      pop\n      pop\n      pop\n      swap1\n      dup1\n      0x04\n      add\n      dup1\n      sload\n      tag_110\n      swap1\n      tag_34\n      jump\t// in\n    tag_110:\n      dup1\n      0x1f\n      add\n      0x20\n      dup1\n      swap2\n      div\n      mul\n      0x20\n      add\n      mload(0x40)\n      swap1\n      dup2\n      add\n      0x40\n      mstore\n      dup1\n      swap3\n      swap2\n      swap1\n      dup2\n      dup2\n      mstore\n      0x20\n      add\n      dup3\n      dup1\n      sload\n      tag_111\n      swap1\n      tag_34\n      jump\t// in\n    tag_111:\n      dup1\n      iszero\n      tag_112\n      jumpi\n      dup1\n      0x1f\n      lt\n      tag_113\n      jumpi\n      0x0100\n      dup1\n      dup4\n      sload\n      div\n      mul\n      dup4\n      mstore\n      swap2\n      0x20\n      add\n      swap2\n      jump(tag_112)\n    tag_113:\n      dup3\n      add\n      swap2\n      swap1\n      0x00\n      mstore\n      keccak256(0x00, 0x20)\n      swap1\n    tag_114:\n      dup2\n      sload\n      dup2\n      mstore\n      swap1\n      0x01\n      add\n      swap1\n      0x20\n      add\n      dup1\n      dup4\n      gt\n      tag_114\n      jumpi\n      dup3\n      swap1\n      sub\n      0x1f\n      and\n      dup3\n      add\n      swap2\n    tag_112:\n      pop\n      pop\n      pop\n      pop\n      pop\n      swap1\n      pop\n      dup6\n      jump\t// out\n        /* \"21.10/contracts/projeto_final/rastreio_baterias.sol\":1065:1480  function getBateria(uint index) public view returns (... */\n    tag_23:\n        /* \"21.10/contracts/projeto_final/rastreio_baterias.sol\":1128:1146  string memory tipo */\n      0x60\n        /* \"21.10/contracts/projeto_final/rastreio_baterias.sol\":1157:1174  string memory uso */\n      dup1\n        /* \"21.10/contracts/projeto_final/rastreio_baterias.sol\":1185:1210  string memory numeroSerie */\n      0x60\n        /* \"21.10/contracts/projeto_final/rastreio_baterias.sol\":1221:1247  string memory dataProducao */\n      dup1\n        /* \"21.10/contracts/projeto_final/rastreio_baterias.sol\":1258:1276  string memory lote */\n      0x60\n        /* \"21.10/contracts/projeto_final/rastreio_baterias.sol\":1311:1319  baterias */\n      0x00\n        /* \"21.10/contracts/projeto_final/rastreio_baterias.sol\":1311:1326  baterias.length */\n      dup1\n      sload\n      swap1\n      pop\n        /* \"21.10/contracts/projeto_final/rastreio_baterias.sol\":1303:1308  index */\n      dup7\n        /* \"21.10/contracts/projeto_final/rastreio_baterias.sol\":1303:1326  index < baterias.length */\n      lt\n        /* \"21.10/contracts/projeto_final/rastreio_baterias.sol\":1295:1355  require(index < baterias.length, unicode\"Índice inválido\") */\n      tag_116\n      jumpi\n      mload(0x40)\n      0x08c379a000000000000000000000000000000000000000000000000000000000\n      dup2\n      mstore\n      0x04\n      add\n      tag_117\n      swap1\n      tag_62\n      jump\t// in\n    tag_117:\n      mload(0x40)\n      dup1\n      swap2\n      sub\n      swap1\n      revert\n    tag_116:\n        /* \"21.10/contracts/projeto_final/rastreio_baterias.sol\":1366:1382  Bateria memory b */\n      0x00\n        /* \"21.10/contracts/projeto_final/rastreio_baterias.sol\":1385:1393  baterias */\n      dup1\n        /* \"21.10/contracts/projeto_final/rastreio_baterias.sol\":1394:1399  index */\n      dup8\n        /* \"21.10/contracts/projeto_final/rastreio_baterias.sol\":1385:1400  baterias[index] */\n      dup2\n      sload\n      dup2\n      lt\n      tag_118\n      jumpi\n      tag_119\n      tag_67\n      jump\t// in\n    tag_119:\n    tag_118:\n      swap1\n      0x00\n      mstore\n      keccak256(0x00, 0x20)\n      swap1\n      0x05\n      mul\n      add\n        /* \"21.10/contracts/projeto_final/rastreio_baterias.sol\":1366:1400  Bateria memory b = baterias[index] */\n      mload(0x40)\n      dup1\n      0xa0\n      add\n      0x40\n      mstore\n      swap1\n      dup2\n      0x00\n      dup3\n      add\n      dup1\n      sload\n      tag_121\n      swap1\n      tag_34\n      jump\t// in\n    tag_121:\n      dup1\n      0x1f\n      add\n      0x20\n      dup1\n      swap2\n      div\n      mul\n      0x20\n      add\n      mload(0x40)\n      swap1\n      dup2\n      add\n      0x40\n      mstore\n      dup1\n      swap3\n      swap2\n      swap1\n      dup2\n      dup2\n      mstore\n      0x20\n      add\n      dup3\n      dup1\n      sload\n      tag_122\n      swap1\n      tag_34\n      jump\t// in\n    tag_122:\n      dup1\n      iszero\n      tag_123\n      jumpi\n      dup1\n      0x1f\n      lt\n      tag_124\n      jumpi\n      0x0100\n      dup1\n      dup4\n      sload\n      div\n      mul\n      dup4\n      mstore\n      swap2\n      0x20\n      add\n      swap2\n      jump(tag_123)\n    tag_124:\n      dup3\n      add\n      swap2\n      swap1\n      0x00\n      mstore\n      keccak256(0x00, 0x20)\n      swap1\n    tag_125:\n      dup2\n      sload\n      dup2\n      mstore\n      swap1\n      0x01\n      add\n      swap1\n      0x20\n      add\n      dup1\n      dup4\n      gt\n      tag_125\n      jumpi\n      dup3\n      swap1\n      sub\n      0x1f\n      and\n      dup3\n      add\n      swap2\n    tag_123:\n      pop\n      pop\n      pop\n      pop\n      pop\n      dup2\n      mstore\n      0x20\n      add\n      0x01\n      dup3\n      add\n      dup1\n      sload\n      tag_126\n      swap1\n      tag_34\n      jump\t// in\n    tag_126:\n      dup1\n      0x1f\n      add\n      0x20\n      dup1\n      swap2\n      div\n      mul\n      0x20\n      add\n      mload(0x40)\n      swap1\n      dup2\n      add\n      0x40\n      mstore\n      dup1\n      swap3\n      swap2\n      swap1\n      dup2\n      dup2\n      mstore\n      0x20\n      add\n      dup3\n      dup1\n      sload\n      tag_127\n      swap1\n      tag_34\n      jump\t// in\n    tag_127:\n      dup1\n      iszero\n      tag_128\n      jumpi\n      dup1\n      0x1f\n      lt\n      tag_129\n      jumpi\n      0x0100\n      dup1\n      dup4\n      sload\n      div\n      mul\n      dup4\n      mstore\n      swap2\n      0x20\n      add\n      swap2\n      jump(tag_128)\n    tag_129:\n      dup3\n      add\n      swap2\n      swap1\n      0x00\n      mstore\n      keccak256(0x00, 0x20)\n      swap1\n    tag_130:\n      dup2\n      sload\n      dup2\n      mstore\n      swap1\n      0x01\n      add\n      swap1\n      0x20\n      add\n      dup1\n      dup4\n      gt\n      tag_130\n      jumpi\n      dup3\n      swap1\n      sub\n      0x1f\n      and\n      dup3\n      add\n      swap2\n    tag_128:\n      pop\n      pop\n      pop\n      pop\n      pop\n      dup2\n      mstore\n      0x20\n      add\n      0x02\n      dup3\n      add\n      dup1\n      sload\n      tag_131\n      swap1\n      tag_34\n      jump\t// in\n    tag_131:\n      dup1\n      0x1f\n      add\n      0x20\n      dup1\n      swap2\n      div\n      mul\n      0x20\n      add\n      mload(0x40)\n      swap1\n      dup2\n      add\n      0x40\n      mstore\n      dup1\n      swap3\n      swap2\n      swap1\n      dup2\n      dup2\n      mstore\n      0x20\n      add\n      dup3\n      dup1\n      sload\n      tag_132\n      swap1\n      tag_34\n      jump\t// in\n    tag_132:\n      dup1\n      iszero\n      tag_133\n      jumpi\n      dup1\n      0x1f\n      lt\n      tag_134\n      jumpi\n      0x0100\n      dup1\n      dup4\n      sload\n      div\n      mul\n      dup4\n      mstore\n      swap2\n      0x20\n      add\n      swap2\n      jump(tag_133)\n    tag_134:\n      dup3\n      add\n      swap2\n      swap1\n      0x00\n      mstore\n      keccak256(0x00, 0x20)\n      swap1\n    tag_135:\n      dup2\n      sload\n      dup2\n      mstore\n      swap1\n      0x01\n      add\n      swap1\n      0x20\n      add\n      dup1\n      dup4\n      gt\n      tag_135\n      jumpi\n      dup3\n      swap1\n      sub\n      0x1f\n      and\n      dup3\n      add\n      swap2\n    tag_133:\n      pop\n      pop\n      pop\n      pop\n      pop\n      dup2\n      mstore\n      0x20\n      add\n      0x03\n      dup3\n      add\n      dup1\n      sload\n      tag_136\n      swap1\n      tag_34\n      jump\t// in\n    tag_136:\n      dup1\n      0x1f\n      add\n      0x20\n      dup1\n      swap2\n      div\n      mul\n      0x20\n      add\n      mload(0x40)\n      swap1\n      dup2\n      add\n      0x40\n      mstore\n      dup1\n      swap3\n      swap2\n      swap1\n      dup2\n      dup2\n      mstore\n      0x20\n      add\n      dup3\n      dup1\n      sload\n      tag_137\n      swap1\n      tag_34\n      jump\t// in\n    tag_137:\n      dup1\n      iszero\n      tag_138\n      jumpi\n      dup1\n      0x1f\n      lt\n      tag_139\n      jumpi\n      0x0100\n      dup1\n      dup4\n      sload\n      div\n      mul\n      dup4\n      mstore\n      swap2\n      0x20\n      add\n      swap2\n      jump(tag_138)\n    tag_139:\n      dup3\n      add\n      swap2\n      swap1\n      0x00\n      mstore\n      keccak256(0x00, 0x20)\n      swap1\n    tag_140:\n      dup2\n      sload\n      dup2\n      mstore\n      swap1\n      0x01\n      add\n      swap1\n      0x20\n      add\n      dup1\n      dup4\n      gt\n      tag_140\n      jumpi\n      dup3\n      swap1\n      sub\n      0x1f\n      and\n      dup3\n      add\n      swap2\n    tag_138:\n      pop\n      pop\n      pop\n      pop\n      pop\n      dup2\n      mstore\n      0x20\n      add\n      0x04\n      dup3\n      add\n      dup1\n      sload\n      tag_141\n      swap1\n      tag_34\n      jump\t// in\n    tag_141:\n      dup1\n      0x1f\n      add\n      0x20\n      dup1\n      swap2\n      div\n      mul\n      0x20\n      add\n      mload(0x40)\n      swap1\n      dup2\n      add\n      0x40\n      mstore\n      dup1\n      swap3\n      swap2\n      swap1\n      dup2\n      dup2\n      mstore\n      0x20\n      add\n      dup3\n      dup1\n      sload\n      tag_142\n      swap1\n      tag_34\n      jump\t// in\n    tag_142:\n      dup1\n      iszero\n      tag_143\n      jumpi\n      dup1\n      0x1f\n      lt\n      tag_144\n      jumpi\n      0x0100\n      dup1\n      dup4\n      sload\n      div\n      mul\n      dup4\n      mstore\n      swap2\n      0x20\n      add\n      swap2\n      jump(tag_143)\n    tag_144:\n      dup3\n      add\n      swap2\n      swap1\n      0x00\n      mstore\n      keccak256(0x00, 0x20)\n      swap1\n    tag_145:\n      dup2\n      sload\n      dup2\n      mstore\n      swap1\n      0x01\n      add\n      swap1\n      0x20\n      add\n      dup1\n      dup4\n      gt\n      tag_145\n      jumpi\n      dup3\n      swap1\n      sub\n      0x1f\n      and\n      dup3\n      add\n      swap2\n    tag_143:\n      pop\n      pop\n      pop\n      pop\n      pop\n      dup2\n      mstore\n      pop\n      pop\n      swap1\n      pop\n        /* \"21.10/contracts/projeto_final/rastreio_baterias.sol\":1419:1420  b */\n      dup1\n        /* \"21.10/contracts/projeto_final/rastreio_baterias.sol\":1419:1425  b.tipo */\n      0x00\n      add\n      mload\n        /* \"21.10/contracts/projeto_final/rastreio_baterias.sol\":1427:1428  b */\n      dup2\n        /* \"21.10/contracts/projeto_final/rastreio_baterias.sol\":1427:1432  b.uso */\n      0x20\n      add\n      mload\n        /* \"21.10/contracts/projeto_final/rastreio_baterias.sol\":1434:1435  b */\n      dup3\n        /* \"21.10/contracts/projeto_final/rastreio_baterias.sol\":1434:1447  b.numeroSerie */\n      0x40\n      add\n      mload\n        /* \"21.10/contracts/projeto_final/rastreio_baterias.sol\":1449:1450  b */\n      dup4\n        /* \"21.10/contracts/projeto_final/rastreio_baterias.sol\":1449:1463  b.dataProducao */\n      0x60\n      add\n      mload\n        /* \"21.10/contracts/projeto_final/rastreio_baterias.sol\":1465:1466  b */\n      dup5\n        /* \"21.10/contracts/projeto_final/rastreio_baterias.sol\":1465:1471  b.lote */\n      0x80\n      add\n      mload\n        /* \"21.10/contracts/projeto_final/rastreio_baterias.sol\":1411:1472  return (b.tipo, b.uso, b.numeroSerie, b.dataProducao, b.lote) */\n      swap6\n      pop\n      swap6\n      pop\n      swap6\n      pop\n      swap6\n      pop\n      swap6\n      pop\n      pop\n        /* \"21.10/contracts/projeto_final/rastreio_baterias.sol\":1065:1480  function getBateria(uint index) public view returns (... */\n      swap2\n      swap4\n      swap6\n      swap1\n      swap3\n      swap5\n      pop\n      jump\t// out\n        /* \"21.10/contracts/projeto_final/rastreio_baterias.sol\":627:989  function registrarBateria(... */\n    tag_28:\n        /* \"21.10/contracts/projeto_final/rastreio_baterias.sol\":842:850  baterias */\n      0x00\n        /* \"21.10/contracts/projeto_final/rastreio_baterias.sol\":856:912  Bateria(_tipo, _uso, _numeroSerie, _dataProducao, _lote) */\n      mload(0x40)\n      dup1\n      0xa0\n      add\n      0x40\n      mstore\n      dup1\n        /* \"21.10/contracts/projeto_final/rastreio_baterias.sol\":864:869  _tipo */\n      dup8\n        /* \"21.10/contracts/projeto_final/rastreio_baterias.sol\":856:912  Bateria(_tipo, _uso, _numeroSerie, _dataProducao, _lote) */\n      dup2\n      mstore\n      0x20\n      add\n        /* \"21.10/contracts/projeto_final/rastreio_baterias.sol\":871:875  _uso */\n      dup7\n        /* \"21.10/contracts/projeto_final/rastreio_baterias.sol\":856:912  Bateria(_tipo, _uso, _numeroSerie, _dataProducao, _lote) */\n      dup2\n      mstore\n      0x20\n      add\n        /* \"21.10/contracts/projeto_final/rastreio_baterias.sol\":877:889  _numeroSerie */\n      dup6\n        /* \"21.10/contracts/projeto_final/rastreio_baterias.sol\":856:912  Bateria(_tipo, _uso, _numeroSerie, _dataProducao, _lote) */\n      dup2\n      mstore\n      0x20\n      add\n        /* \"21.10/contracts/projeto_final/rastreio_baterias.sol\":891:904  _dataProducao */\n      dup5\n        /* \"21.10/contracts/projeto_final/rastreio_baterias.sol\":856:912  Bateria(_tipo, _uso, _numeroSerie, _dataProducao, _lote) */\n      dup2\n      mstore\n      0x20\n      add\n        /* \"21.10/contracts/projeto_final/rastreio_baterias.sol\":906:911  _lote */\n      dup4\n        /* \"21.10/contracts/projeto_final/rastreio_baterias.sol\":856:912  Bateria(_tipo, _uso, _numeroSerie, _dataProducao, _lote) */\n      dup2\n      mstore\n      pop\n        /* \"21.10/contracts/projeto_final/rastreio_baterias.sol\":842:913  baterias.push(Bateria(_tipo, _uso, _numeroSerie, _dataProducao, _lote)) */\n      swap1\n      dup1\n      0x01\n      dup2\n      sload\n      add\n      dup1\n      dup3\n      sstore\n      dup1\n      swap2\n      pop\n      pop\n      0x01\n      swap1\n      sub\n      swap1\n      0x00\n      mstore\n      keccak256(0x00, 0x20)\n      swap1\n      0x05\n      mul\n      add\n      0x00\n      swap1\n      swap2\n      swap1\n      swap2\n      swap1\n      swap2\n      pop\n      0x00\n      dup3\n      add\n      mload\n      dup2\n      0x00\n      add\n      swap1\n      dup2\n      tag_148\n      swap2\n      swap1\n      tag_149\n      jump\t// in\n    tag_148:\n      pop\n      0x20\n      dup3\n      add\n      mload\n      dup2\n      0x01\n      add\n      swap1\n      dup2\n      tag_150\n      swap2\n      swap1\n      tag_149\n      jump\t// in\n    tag_150:\n      pop\n      0x40\n      dup3\n      add\n      mload\n      dup2\n      0x02\n      add\n      swap1\n      dup2\n      tag_151\n      swap2\n      swap1\n      tag_149\n      jump\t// in\n    tag_151:\n      pop\n      0x60\n      dup3\n      add\n      mload\n      dup2\n      0x03\n      add\n      swap1\n      dup2\n      tag_152\n      swap2\n      swap1\n      tag_149\n      jump\t// in\n    tag_152:\n      pop\n      0x80\n      dup3\n      add\n      mload\n      dup2\n      0x04\n      add\n      swap1\n      dup2\n      tag_153\n      swap2\n      swap1\n      tag_149\n      jump\t// in\n    tag_153:\n      pop\n      pop\n      pop\n        /* \"21.10/contracts/projeto_final/rastreio_baterias.sol\":929:981  BateriaRegistrada(baterias.length - 1, _numeroSerie) */\n      0x26b242ce039f3c3a2405b1ed562708522ace92186a3b4d899fb64d3f23b22d95\n        /* \"21.10/contracts/projeto_final/rastreio_baterias.sol\":965:966  1 */\n      0x01\n        /* \"21.10/contracts/projeto_final/rastreio_baterias.sol\":947:955  baterias */\n      0x00\n        /* \"21.10/contracts/projeto_final/rastreio_baterias.sol\":947:962  baterias.length */\n      dup1\n      sload\n      swap1\n      pop\n        /* \"21.10/contracts/projeto_final/rastreio_baterias.sol\":947:966  baterias.length - 1 */\n      tag_154\n      swap2\n      swap1\n      tag_64\n      jump\t// in\n    tag_154:\n        /* \"21.10/contracts/projeto_final/rastreio_baterias.sol\":968:980  _numeroSerie */\n      dup5\n        /* \"21.10/contracts/projeto_final/rastreio_baterias.sol\":929:981  BateriaRegistrada(baterias.length - 1, _numeroSerie) */\n      mload(0x40)\n      tag_155\n      swap3\n      swap2\n      swap1\n      tag_156\n      jump\t// in\n    tag_155:\n      mload(0x40)\n      dup1\n      swap2\n      sub\n      swap1\n      log1\n        /* \"21.10/contracts/projeto_final/rastreio_baterias.sol\":627:989  function registrarBateria(... */\n      pop\n      pop\n      pop\n      pop\n      pop\n      jump\t// out\n    tag_83:\n      pop\n      dup1\n      sload\n      tag_157\n      swap1\n      tag_34\n      jump\t// in\n    tag_157:\n      0x00\n      dup3\n      sstore\n      dup1\n      0x1f\n      lt\n      tag_159\n      jumpi\n      pop\n      jump(tag_158)\n    tag_159:\n      0x1f\n      add\n      0x20\n      swap1\n      div\n      swap1\n      0x00\n      mstore\n      keccak256(0x00, 0x20)\n      swap1\n      dup2\n      add\n      swap1\n      tag_160\n      swap2\n      swap1\n      tag_161\n      jump\t// in\n    tag_160:\n    tag_158:\n      pop\n      jump\t// out\n    tag_161:\n    tag_162:\n      dup1\n      dup3\n      gt\n      iszero\n      tag_163\n      jumpi\n      0x00\n      dup2\n      0x00\n      swap1\n      sstore\n      pop\n      0x01\n      add\n      jump(tag_162)\n    tag_163:\n      pop\n      swap1\n      jump\t// out\n        /* \"#utility.yul\":7:144   */\n    tag_164:\n        /* \"#utility.yul\":97:103   */\n      0x00\n        /* \"#utility.yul\":131:136   */\n      dup2\n        /* \"#utility.yul\":125:137   */\n      mload\n        /* \"#utility.yul\":115:137   */\n      swap1\n      pop\n        /* \"#utility.yul\":7:144   */\n      swap2\n      swap1\n      pop\n      jump\t// out\n        /* \"#utility.yul\":150:357   */\n    tag_165:\n        /* \"#utility.yul\":272:283   */\n      0x00\n        /* \"#utility.yul\":306:312   */\n      dup3\n        /* \"#utility.yul\":301:304   */\n      dup3\n        /* \"#utility.yul\":294:313   */\n      mstore\n        /* \"#utility.yul\":346:350   */\n      0x20\n        /* \"#utility.yul\":341:344   */\n      dup3\n        /* \"#utility.yul\":337:351   */\n      add\n        /* \"#utility.yul\":322:351   */\n      swap1\n      pop\n        /* \"#utility.yul\":150:357   */\n      swap3\n      swap2\n      pop\n      pop\n      jump\t// out\n        /* \"#utility.yul\":363:518   */\n    tag_166:\n        /* \"#utility.yul\":453:457   */\n      0x00\n        /* \"#utility.yul\":476:479   */\n      dup2\n        /* \"#utility.yul\":468:479   */\n      swap1\n      pop\n        /* \"#utility.yul\":506:510   */\n      0x20\n        /* \"#utility.yul\":501:504   */\n      dup3\n        /* \"#utility.yul\":497:511   */\n      add\n        /* \"#utility.yul\":489:511   */\n      swap1\n      pop\n        /* \"#utility.yul\":363:518   */\n      swap2\n      swap1\n      pop\n      jump\t// out\n        /* \"#utility.yul\":524:623   */\n    tag_167:\n        /* \"#utility.yul\":576:582   */\n      0x00\n        /* \"#utility.yul\":610:615   */\n      dup2\n        /* \"#utility.yul\":604:616   */\n      mload\n        /* \"#utility.yul\":594:616   */\n      swap1\n      pop\n        /* \"#utility.yul\":524:623   */\n      swap2\n      swap1\n      pop\n      jump\t// out\n        /* \"#utility.yul\":629:788   */\n    tag_168:\n        /* \"#utility.yul\":703:714   */\n      0x00\n        /* \"#utility.yul\":737:743   */\n      dup3\n        /* \"#utility.yul\":732:735   */\n      dup3\n        /* \"#utility.yul\":725:744   */\n      mstore\n        /* \"#utility.yul\":777:781   */\n      0x20\n        /* \"#utility.yul\":772:775   */\n      dup3\n        /* \"#utility.yul\":768:782   */\n      add\n        /* \"#utility.yul\":753:782   */\n      swap1\n      pop\n        /* \"#utility.yul\":629:788   */\n      swap3\n      swap2\n      pop\n      pop\n      jump\t// out\n        /* \"#utility.yul\":794:1042   */\n    tag_169:\n        /* \"#utility.yul\":876:877   */\n      0x00\n        /* \"#utility.yul\":886:999   */\n    tag_221:\n        /* \"#utility.yul\":900:906   */\n      dup4\n        /* \"#utility.yul\":897:898   */\n      dup2\n        /* \"#utility.yul\":894:907   */\n      lt\n        /* \"#utility.yul\":886:999   */\n      iszero\n      tag_223\n      jumpi\n        /* \"#utility.yul\":985:986   */\n      dup1\n        /* \"#utility.yul\":980:983   */\n      dup3\n        /* \"#utility.yul\":976:987   */\n      add\n        /* \"#utility.yul\":970:988   */\n      mload\n        /* \"#utility.yul\":966:967   */\n      dup2\n        /* \"#utility.yul\":961:964   */\n      dup5\n        /* \"#utility.yul\":957:968   */\n      add\n        /* \"#utility.yul\":950:989   */\n      mstore\n        /* \"#utility.yul\":922:924   */\n      0x20\n        /* \"#utility.yul\":919:920   */\n      dup2\n        /* \"#utility.yul\":915:925   */\n      add\n        /* \"#utility.yul\":910:925   */\n      swap1\n      pop\n        /* \"#utility.yul\":886:999   */\n      jump(tag_221)\n    tag_223:\n        /* \"#utility.yul\":1033:1034   */\n      0x00\n        /* \"#utility.yul\":1024:1030   */\n      dup5\n        /* \"#utility.yul\":1019:1022   */\n      dup5\n        /* \"#utility.yul\":1015:1031   */\n      add\n        /* \"#utility.yul\":1008:1035   */\n      mstore\n        /* \"#utility.yul\":856:1042   */\n      pop\n        /* \"#utility.yul\":794:1042   */\n      pop\n      pop\n      pop\n      jump\t// out\n        /* \"#utility.yul\":1048:1150   */\n    tag_170:\n        /* \"#utility.yul\":1089:1095   */\n      0x00\n        /* \"#utility.yul\":1140:1142   */\n      0x1f\n        /* \"#utility.yul\":1136:1143   */\n      not\n        /* \"#utility.yul\":1131:1133   */\n      0x1f\n        /* \"#utility.yul\":1124:1129   */\n      dup4\n        /* \"#utility.yul\":1120:1134   */\n      add\n        /* \"#utility.yul\":1116:1144   */\n      and\n        /* \"#utility.yul\":1106:1144   */\n      swap1\n      pop\n        /* \"#utility.yul\":1048:1150   */\n      swap2\n      swap1\n      pop\n      jump\t// out\n        /* \"#utility.yul\":1156:1513   */\n    tag_171:\n        /* \"#utility.yul\":1234:1237   */\n      0x00\n        /* \"#utility.yul\":1262:1301   */\n      tag_226\n        /* \"#utility.yul\":1295:1300   */\n      dup3\n        /* \"#utility.yul\":1262:1301   */\n      tag_167\n      jump\t// in\n    tag_226:\n        /* \"#utility.yul\":1317:1378   */\n      tag_227\n        /* \"#utility.yul\":1371:1377   */\n      dup2\n        /* \"#utility.yul\":1366:1369   */\n      dup6\n        /* \"#utility.yul\":1317:1378   */\n      tag_168\n      jump\t// in\n    tag_227:\n        /* \"#utility.yul\":1310:1378   */\n      swap4\n      pop\n        /* \"#utility.yul\":1387:1452   */\n      tag_228\n        /* \"#utility.yul\":1445:1451   */\n      dup2\n        /* \"#utility.yul\":1440:1443   */\n      dup6\n        /* \"#utility.yul\":1433:1437   */\n      0x20\n        /* \"#utility.yul\":1426:1431   */\n      dup7\n        /* \"#utility.yul\":1422:1438   */\n      add\n        /* \"#utility.yul\":1387:1452   */\n      tag_169\n      jump\t// in\n    tag_228:\n        /* \"#utility.yul\":1477:1506   */\n      tag_229\n        /* \"#utility.yul\":1499:1505   */\n      dup2\n        /* \"#utility.yul\":1477:1506   */\n      tag_170\n      jump\t// in\n    tag_229:\n        /* \"#utility.yul\":1472:1475   */\n      dup5\n        /* \"#utility.yul\":1468:1507   */\n      add\n        /* \"#utility.yul\":1461:1507   */\n      swap2\n      pop\n        /* \"#utility.yul\":1238:1513   */\n      pop\n        /* \"#utility.yul\":1156:1513   */\n      swap3\n      swap2\n      pop\n      pop\n      jump\t// out\n        /* \"#utility.yul\":1599:3011   */\n    tag_172:\n        /* \"#utility.yul\":1704:1707   */\n      0x00\n        /* \"#utility.yul\":1740:1744   */\n      0xa0\n        /* \"#utility.yul\":1735:1738   */\n      dup4\n        /* \"#utility.yul\":1731:1745   */\n      add\n        /* \"#utility.yul\":1827:1831   */\n      0x00\n        /* \"#utility.yul\":1820:1825   */\n      dup4\n        /* \"#utility.yul\":1816:1832   */\n      add\n        /* \"#utility.yul\":1810:1833   */\n      mload\n        /* \"#utility.yul\":1880:1883   */\n      dup5\n        /* \"#utility.yul\":1874:1878   */\n      dup3\n        /* \"#utility.yul\":1870:1884   */\n      sub\n        /* \"#utility.yul\":1863:1867   */\n      0x00\n        /* \"#utility.yul\":1858:1861   */\n      dup7\n        /* \"#utility.yul\":1854:1868   */\n      add\n        /* \"#utility.yul\":1847:1885   */\n      mstore\n        /* \"#utility.yul\":1906:1979   */\n      tag_231\n        /* \"#utility.yul\":1974:1978   */\n      dup3\n        /* \"#utility.yul\":1960:1972   */\n      dup3\n        /* \"#utility.yul\":1906:1979   */\n      tag_171\n      jump\t// in\n    tag_231:\n        /* \"#utility.yul\":1898:1979   */\n      swap2\n      pop\n        /* \"#utility.yul\":1755:1990   */\n      pop\n        /* \"#utility.yul\":2071:2075   */\n      0x20\n        /* \"#utility.yul\":2064:2069   */\n      dup4\n        /* \"#utility.yul\":2060:2076   */\n      add\n        /* \"#utility.yul\":2054:2077   */\n      mload\n        /* \"#utility.yul\":2124:2127   */\n      dup5\n        /* \"#utility.yul\":2118:2122   */\n      dup3\n        /* \"#utility.yul\":2114:2128   */\n      sub\n        /* \"#utility.yul\":2107:2111   */\n      0x20\n        /* \"#utility.yul\":2102:2105   */\n      dup7\n        /* \"#utility.yul\":2098:2112   */\n      add\n        /* \"#utility.yul\":2091:2129   */\n      mstore\n        /* \"#utility.yul\":2150:2223   */\n      tag_232\n        /* \"#utility.yul\":2218:2222   */\n      dup3\n        /* \"#utility.yul\":2204:2216   */\n      dup3\n        /* \"#utility.yul\":2150:2223   */\n      tag_171\n      jump\t// in\n    tag_232:\n        /* \"#utility.yul\":2142:2223   */\n      swap2\n      pop\n        /* \"#utility.yul\":2000:2234   */\n      pop\n        /* \"#utility.yul\":2323:2327   */\n      0x40\n        /* \"#utility.yul\":2316:2321   */\n      dup4\n        /* \"#utility.yul\":2312:2328   */\n      add\n        /* \"#utility.yul\":2306:2329   */\n      mload\n        /* \"#utility.yul\":2376:2379   */\n      dup5\n        /* \"#utility.yul\":2370:2374   */\n      dup3\n        /* \"#utility.yul\":2366:2380   */\n      sub\n        /* \"#utility.yul\":2359:2363   */\n      0x40\n        /* \"#utility.yul\":2354:2357   */\n      dup7\n        /* \"#utility.yul\":2350:2364   */\n      add\n        /* \"#utility.yul\":2343:2381   */\n      mstore\n        /* \"#utility.yul\":2402:2475   */\n      tag_233\n        /* \"#utility.yul\":2470:2474   */\n      dup3\n        /* \"#utility.yul\":2456:2468   */\n      dup3\n        /* \"#utility.yul\":2402:2475   */\n      tag_171\n      jump\t// in\n    tag_233:\n        /* \"#utility.yul\":2394:2475   */\n      swap2\n      pop\n        /* \"#utility.yul\":2244:2486   */\n      pop\n        /* \"#utility.yul\":2576:2580   */\n      0x60\n        /* \"#utility.yul\":2569:2574   */\n      dup4\n        /* \"#utility.yul\":2565:2581   */\n      add\n        /* \"#utility.yul\":2559:2582   */\n      mload\n        /* \"#utility.yul\":2629:2632   */\n      dup5\n        /* \"#utility.yul\":2623:2627   */\n      dup3\n        /* \"#utility.yul\":2619:2633   */\n      sub\n        /* \"#utility.yul\":2612:2616   */\n      0x60\n        /* \"#utility.yul\":2607:2610   */\n      dup7\n        /* \"#utility.yul\":2603:2617   */\n      add\n        /* \"#utility.yul\":2596:2634   */\n      mstore\n        /* \"#utility.yul\":2655:2728   */\n      tag_234\n        /* \"#utility.yul\":2723:2727   */\n      dup3\n        /* \"#utility.yul\":2709:2721   */\n      dup3\n        /* \"#utility.yul\":2655:2728   */\n      tag_171\n      jump\t// in\n    tag_234:\n        /* \"#utility.yul\":2647:2728   */\n      swap2\n      pop\n        /* \"#utility.yul\":2496:2739   */\n      pop\n        /* \"#utility.yul\":2821:2825   */\n      0x80\n        /* \"#utility.yul\":2814:2819   */\n      dup4\n        /* \"#utility.yul\":2810:2826   */\n      add\n        /* \"#utility.yul\":2804:2827   */\n      mload\n        /* \"#utility.yul\":2874:2877   */\n      dup5\n        /* \"#utility.yul\":2868:2872   */\n      dup3\n        /* \"#utility.yul\":2864:2878   */\n      sub\n        /* \"#utility.yul\":2857:2861   */\n      0x80\n        /* \"#utility.yul\":2852:2855   */\n      dup7\n        /* \"#utility.yul\":2848:2862   */\n      add\n        /* \"#utility.yul\":2841:2879   */\n      mstore\n        /* \"#utility.yul\":2900:2973   */\n      tag_235\n        /* \"#utility.yul\":2968:2972   */\n      dup3\n        /* \"#utility.yul\":2954:2966   */\n      dup3\n        /* \"#utility.yul\":2900:2973   */\n      tag_171\n      jump\t// in\n    tag_235:\n        /* \"#utility.yul\":2892:2973   */\n      swap2\n      pop\n        /* \"#utility.yul\":2749:2984   */\n      pop\n        /* \"#utility.yul\":3001:3005   */\n      dup1\n        /* \"#utility.yul\":2994:3005   */\n      swap2\n      pop\n        /* \"#utility.yul\":1709:3011   */\n      pop\n        /* \"#utility.yul\":1599:3011   */\n      swap3\n      swap2\n      pop\n      pop\n      jump\t// out\n        /* \"#utility.yul\":3017:3265   */\n    tag_173:\n        /* \"#utility.yul\":3132:3142   */\n      0x00\n        /* \"#utility.yul\":3167:3259   */\n      tag_237\n        /* \"#utility.yul\":3255:3258   */\n      dup4\n        /* \"#utility.yul\":3247:3253   */\n      dup4\n        /* \"#utility.yul\":3167:3259   */\n      tag_172\n      jump\t// in\n    tag_237:\n        /* \"#utility.yul\":3153:3259   */\n      swap1\n      pop\n        /* \"#utility.yul\":3017:3265   */\n      swap3\n      swap2\n      pop\n      pop\n      jump\t// out\n        /* \"#utility.yul\":3271:3407   */\n    tag_174:\n        /* \"#utility.yul\":3364:3368   */\n      0x00\n        /* \"#utility.yul\":3396:3400   */\n      0x20\n        /* \"#utility.yul\":3391:3394   */\n      dup3\n        /* \"#utility.yul\":3387:3401   */\n      add\n        /* \"#utility.yul\":3379:3401   */\n      swap1\n      pop\n        /* \"#utility.yul\":3271:3407   */\n      swap2\n      swap1\n      pop\n      jump\t// out\n        /* \"#utility.yul\":3497:4592   */\n    tag_175:\n        /* \"#utility.yul\":3662:3665   */\n      0x00\n        /* \"#utility.yul\":3691:3768   */\n      tag_240\n        /* \"#utility.yul\":3762:3767   */\n      dup3\n        /* \"#utility.yul\":3691:3768   */\n      tag_164\n      jump\t// in\n    tag_240:\n        /* \"#utility.yul\":3784:3893   */\n      tag_241\n        /* \"#utility.yul\":3886:3892   */\n      dup2\n        /* \"#utility.yul\":3881:3884   */\n      dup6\n        /* \"#utility.yul\":3784:3893   */\n      tag_165\n      jump\t// in\n    tag_241:\n        /* \"#utility.yul\":3777:3893   */\n      swap4\n      pop\n        /* \"#utility.yul\":3919:3922   */\n      dup4\n        /* \"#utility.yul\":3964:3968   */\n      0x20\n        /* \"#utility.yul\":3956:3962   */\n      dup3\n        /* \"#utility.yul\":3952:3969   */\n      mul\n        /* \"#utility.yul\":3947:3950   */\n      dup6\n        /* \"#utility.yul\":3943:3970   */\n      add\n        /* \"#utility.yul\":3994:4073   */\n      tag_242\n        /* \"#utility.yul\":4067:4072   */\n      dup6\n        /* \"#utility.yul\":3994:4073   */\n      tag_166\n      jump\t// in\n    tag_242:\n        /* \"#utility.yul\":4096:4103   */\n      dup1\n        /* \"#utility.yul\":4127:4128   */\n      0x00\n        /* \"#utility.yul\":4112:4547   */\n    tag_243:\n        /* \"#utility.yul\":4137:4143   */\n      dup6\n        /* \"#utility.yul\":4134:4135   */\n      dup2\n        /* \"#utility.yul\":4131:4144   */\n      lt\n        /* \"#utility.yul\":4112:4547   */\n      iszero\n      tag_245\n      jumpi\n        /* \"#utility.yul\":4208:4217   */\n      dup5\n        /* \"#utility.yul\":4202:4206   */\n      dup5\n        /* \"#utility.yul\":4198:4218   */\n      sub\n        /* \"#utility.yul\":4193:4196   */\n      dup10\n        /* \"#utility.yul\":4186:4219   */\n      mstore\n        /* \"#utility.yul\":4259:4265   */\n      dup2\n        /* \"#utility.yul\":4253:4266   */\n      mload\n        /* \"#utility.yul\":4287:4397   */\n      tag_246\n        /* \"#utility.yul\":4392:4396   */\n      dup6\n        /* \"#utility.yul\":4377:4390   */\n      dup3\n        /* \"#utility.yul\":4287:4397   */\n      tag_173\n      jump\t// in\n    tag_246:\n        /* \"#utility.yul\":4279:4397   */\n      swap5\n      pop\n        /* \"#utility.yul\":4420:4503   */\n      tag_247\n        /* \"#utility.yul\":4496:4502   */\n      dup4\n        /* \"#utility.yul\":4420:4503   */\n      tag_174\n      jump\t// in\n    tag_247:\n        /* \"#utility.yul\":4410:4503   */\n      swap3\n      pop\n        /* \"#utility.yul\":4532:4536   */\n      0x20\n        /* \"#utility.yul\":4527:4530   */\n      dup11\n        /* \"#utility.yul\":4523:4537   */\n      add\n        /* \"#utility.yul\":4516:4537   */\n      swap10\n      pop\n        /* \"#utility.yul\":4172:4547   */\n      pop\n        /* \"#utility.yul\":4159:4160   */\n      0x01\n        /* \"#utility.yul\":4156:4157   */\n      dup2\n        /* \"#utility.yul\":4152:4161   */\n      add\n        /* \"#utility.yul\":4147:4161   */\n      swap1\n      pop\n        /* \"#utility.yul\":4112:4547   */\n      jump(tag_243)\n    tag_245:\n        /* \"#utility.yul\":4116:4130   */\n      pop\n        /* \"#utility.yul\":4563:4567   */\n      dup3\n        /* \"#utility.yul\":4556:4567   */\n      swap8\n      pop\n        /* \"#utility.yul\":4583:4586   */\n      dup8\n        /* \"#utility.yul\":4576:4586   */\n      swap6\n      pop\n        /* \"#utility.yul\":3667:4592   */\n      pop\n      pop\n      pop\n      pop\n      pop\n        /* \"#utility.yul\":3497:4592   */\n      swap3\n      swap2\n      pop\n      pop\n      jump\t// out\n        /* \"#utility.yul\":4598:5063   */\n    tag_11:\n        /* \"#utility.yul\":4787:4791   */\n      0x00\n        /* \"#utility.yul\":4825:4827   */\n      0x20\n        /* \"#utility.yul\":4814:4823   */\n      dup3\n        /* \"#utility.yul\":4810:4828   */\n      add\n        /* \"#utility.yul\":4802:4828   */\n      swap1\n      pop\n        /* \"#utility.yul\":4874:4883   */\n      dup2\n        /* \"#utility.yul\":4868:4872   */\n      dup2\n        /* \"#utility.yul\":4864:4884   */\n      sub\n        /* \"#utility.yul\":4860:4861   */\n      0x00\n        /* \"#utility.yul\":4849:4858   */\n      dup4\n        /* \"#utility.yul\":4845:4862   */\n      add\n        /* \"#utility.yul\":4838:4885   */\n      mstore\n        /* \"#utility.yul\":4902:5056   */\n      tag_249\n        /* \"#utility.yul\":5051:5055   */\n      dup2\n        /* \"#utility.yul\":5042:5048   */\n      dup5\n        /* \"#utility.yul\":4902:5056   */\n      tag_175\n      jump\t// in\n    tag_249:\n        /* \"#utility.yul\":4894:5056   */\n      swap1\n      pop\n        /* \"#utility.yul\":4598:5063   */\n      swap3\n      swap2\n      pop\n      pop\n      jump\t// out\n        /* \"#utility.yul\":5069:5144   */\n    tag_176:\n        /* \"#utility.yul\":5102:5108   */\n      0x00\n        /* \"#utility.yul\":5135:5137   */\n      0x40\n        /* \"#utility.yul\":5129:5138   */\n      mload\n        /* \"#utility.yul\":5119:5138   */\n      swap1\n      pop\n        /* \"#utility.yul\":5069:5144   */\n      swap1\n      jump\t// out\n        /* \"#utility.yul\":5150:5267   */\n    tag_177:\n        /* \"#utility.yul\":5259:5260   */\n      0x00\n        /* \"#utility.yul\":5256:5257   */\n      dup1\n        /* \"#utility.yul\":5249:5261   */\n      revert\n        /* \"#utility.yul\":5273:5390   */\n    tag_178:\n        /* \"#utility.yul\":5382:5383   */\n      0x00\n        /* \"#utility.yul\":5379:5380   */\n      dup1\n        /* \"#utility.yul\":5372:5384   */\n      revert\n        /* \"#utility.yul\":5396:5473   */\n    tag_179:\n        /* \"#utility.yul\":5433:5440   */\n      0x00\n        /* \"#utility.yul\":5462:5467   */\n      dup2\n        /* \"#utility.yul\":5451:5467   */\n      swap1\n      pop\n        /* \"#utility.yul\":5396:5473   */\n      swap2\n      swap1\n      pop\n      jump\t// out\n        /* \"#utility.yul\":5479:5601   */\n    tag_180:\n        /* \"#utility.yul\":5552:5576   */\n      tag_255\n        /* \"#utility.yul\":5570:5575   */\n      dup2\n        /* \"#utility.yul\":5552:5576   */\n      tag_179\n      jump\t// in\n    tag_255:\n        /* \"#utility.yul\":5545:5550   */\n      dup2\n        /* \"#utility.yul\":5542:5577   */\n      eq\n        /* \"#utility.yul\":5532:5595   */\n      tag_256\n      jumpi\n        /* \"#utility.yul\":5591:5592   */\n      0x00\n        /* \"#utility.yul\":5588:5589   */\n      dup1\n        /* \"#utility.yul\":5581:5593   */\n      revert\n        /* \"#utility.yul\":5532:5595   */\n    tag_256:\n        /* \"#utility.yul\":5479:5601   */\n      pop\n      jump\t// out\n        /* \"#utility.yul\":5607:5746   */\n    tag_181:\n        /* \"#utility.yul\":5653:5658   */\n      0x00\n        /* \"#utility.yul\":5691:5697   */\n      dup2\n        /* \"#utility.yul\":5678:5698   */\n      calldataload\n        /* \"#utility.yul\":5669:5698   */\n      swap1\n      pop\n        /* \"#utility.yul\":5707:5740   */\n      tag_258\n        /* \"#utility.yul\":5734:5739   */\n      dup2\n        /* \"#utility.yul\":5707:5740   */\n      tag_180\n      jump\t// in\n    tag_258:\n        /* \"#utility.yul\":5607:5746   */\n      swap3\n      swap2\n      pop\n      pop\n      jump\t// out\n        /* \"#utility.yul\":5752:6081   */\n    tag_14:\n        /* \"#utility.yul\":5811:5817   */\n      0x00\n        /* \"#utility.yul\":5860:5862   */\n      0x20\n        /* \"#utility.yul\":5848:5857   */\n      dup3\n        /* \"#utility.yul\":5839:5846   */\n      dup5\n        /* \"#utility.yul\":5835:5858   */\n      sub\n        /* \"#utility.yul\":5831:5863   */\n      slt\n        /* \"#utility.yul\":5828:5947   */\n      iszero\n      tag_260\n      jumpi\n        /* \"#utility.yul\":5866:5945   */\n      tag_261\n      tag_177\n      jump\t// in\n    tag_261:\n        /* \"#utility.yul\":5828:5947   */\n    tag_260:\n        /* \"#utility.yul\":5986:5987   */\n      0x00\n        /* \"#utility.yul\":6011:6064   */\n      tag_262\n        /* \"#utility.yul\":6056:6063   */\n      dup5\n        /* \"#utility.yul\":6047:6053   */\n      dup3\n        /* \"#utility.yul\":6036:6045   */\n      dup6\n        /* \"#utility.yul\":6032:6054   */\n      add\n        /* \"#utility.yul\":6011:6064   */\n      tag_181\n      jump\t// in\n    tag_262:\n        /* \"#utility.yul\":6001:6064   */\n      swap2\n      pop\n        /* \"#utility.yul\":5957:6074   */\n      pop\n        /* \"#utility.yul\":5752:6081   */\n      swap3\n      swap2\n      pop\n      pop\n      jump\t// out\n        /* \"#utility.yul\":6087:6256   */\n    tag_182:\n        /* \"#utility.yul\":6171:6182   */\n      0x00\n        /* \"#utility.yul\":6205:6211   */\n      dup3\n        /* \"#utility.yul\":6200:6203   */\n      dup3\n        /* \"#utility.yul\":6193:6212   */\n      mstore\n        /* \"#utility.yul\":6245:6249   */\n      0x20\n        /* \"#utility.yul\":6240:6243   */\n      dup3\n        /* \"#utility.yul\":6236:6250   */\n      add\n        /* \"#utility.yul\":6221:6250   */\n      swap1\n      pop\n        /* \"#utility.yul\":6087:6256   */\n      swap3\n      swap2\n      pop\n      pop\n      jump\t// out\n        /* \"#utility.yul\":6262:6639   */\n    tag_183:\n        /* \"#utility.yul\":6350:6353   */\n      0x00\n        /* \"#utility.yul\":6378:6417   */\n      tag_265\n        /* \"#utility.yul\":6411:6416   */\n      dup3\n        /* \"#utility.yul\":6378:6417   */\n      tag_167\n      jump\t// in\n    tag_265:\n        /* \"#utility.yul\":6433:6504   */\n      tag_266\n        /* \"#utility.yul\":6497:6503   */\n      dup2\n        /* \"#utility.yul\":6492:6495   */\n      dup6\n        /* \"#utility.yul\":6433:6504   */\n      tag_182\n      jump\t// in\n    tag_266:\n        /* \"#utility.yul\":6426:6504   */\n      swap4\n      pop\n        /* \"#utility.yul\":6513:6578   */\n      tag_267\n        /* \"#utility.yul\":6571:6577   */\n      dup2\n        /* \"#utility.yul\":6566:6569   */\n      dup6\n        /* \"#utility.yul\":6559:6563   */\n      0x20\n        /* \"#utility.yul\":6552:6557   */\n      dup7\n        /* \"#utility.yul\":6548:6564   */\n      add\n        /* \"#utility.yul\":6513:6578   */\n      tag_169\n      jump\t// in\n    tag_267:\n        /* \"#utility.yul\":6603:6632   */\n      tag_268\n        /* \"#utility.yul\":6625:6631   */\n      dup2\n        /* \"#utility.yul\":6603:6632   */\n      tag_170\n      jump\t// in\n    tag_268:\n        /* \"#utility.yul\":6598:6601   */\n      dup5\n        /* \"#utility.yul\":6594:6633   */\n      add\n        /* \"#utility.yul\":6587:6633   */\n      swap2\n      pop\n        /* \"#utility.yul\":6354:6639   */\n      pop\n        /* \"#utility.yul\":6262:6639   */\n      swap3\n      swap2\n      pop\n      pop\n      jump\t// out\n        /* \"#utility.yul\":6645:7764   */\n    tag_20:\n        /* \"#utility.yul\":6950:6954   */\n      0x00\n        /* \"#utility.yul\":6988:6991   */\n      0xa0\n        /* \"#utility.yul\":6977:6986   */\n      dup3\n        /* \"#utility.yul\":6973:6992   */\n      add\n        /* \"#utility.yul\":6965:6992   */\n      swap1\n      pop\n        /* \"#utility.yul\":7038:7047   */\n      dup2\n        /* \"#utility.yul\":7032:7036   */\n      dup2\n        /* \"#utility.yul\":7028:7048   */\n      sub\n        /* \"#utility.yul\":7024:7025   */\n      0x00\n        /* \"#utility.yul\":7013:7022   */\n      dup4\n        /* \"#utility.yul\":7009:7026   */\n      add\n        /* \"#utility.yul\":7002:7049   */\n      mstore\n        /* \"#utility.yul\":7066:7144   */\n      tag_270\n        /* \"#utility.yul\":7139:7143   */\n      dup2\n        /* \"#utility.yul\":7130:7136   */\n      dup9\n        /* \"#utility.yul\":7066:7144   */\n      tag_183\n      jump\t// in\n    tag_270:\n        /* \"#utility.yul\":7058:7144   */\n      swap1\n      pop\n        /* \"#utility.yul\":7191:7200   */\n      dup2\n        /* \"#utility.yul\":7185:7189   */\n      dup2\n        /* \"#utility.yul\":7181:7201   */\n      sub\n        /* \"#utility.yul\":7176:7178   */\n      0x20\n        /* \"#utility.yul\":7165:7174   */\n      dup4\n        /* \"#utility.yul\":7161:7179   */\n      add\n        /* \"#utility.yul\":7154:7202   */\n      mstore\n        /* \"#utility.yul\":7219:7297   */\n      tag_271\n        /* \"#utility.yul\":7292:7296   */\n      dup2\n        /* \"#utility.yul\":7283:7289   */\n      dup8\n        /* \"#utility.yul\":7219:7297   */\n      tag_183\n      jump\t// in\n    tag_271:\n        /* \"#utility.yul\":7211:7297   */\n      swap1\n      pop\n        /* \"#utility.yul\":7344:7353   */\n      dup2\n        /* \"#utility.yul\":7338:7342   */\n      dup2\n        /* \"#utility.yul\":7334:7354   */\n      sub\n        /* \"#utility.yul\":7329:7331   */\n      0x40\n        /* \"#utility.yul\":7318:7327   */\n      dup4\n        /* \"#utility.yul\":7314:7332   */\n      add\n        /* \"#utility.yul\":7307:7355   */\n      mstore\n        /* \"#utility.yul\":7372:7450   */\n      tag_272\n        /* \"#utility.yul\":7445:7449   */\n      dup2\n        /* \"#utility.yul\":7436:7442   */\n      dup7\n        /* \"#utility.yul\":7372:7450   */\n      tag_183\n      jump\t// in\n    tag_272:\n        /* \"#utility.yul\":7364:7450   */\n      swap1\n      pop\n        /* \"#utility.yul\":7497:7506   */\n      dup2\n        /* \"#utility.yul\":7491:7495   */\n      dup2\n        /* \"#utility.yul\":7487:7507   */\n      sub\n        /* \"#utility.yul\":7482:7484   */\n      0x60\n        /* \"#utility.yul\":7471:7480   */\n      dup4\n        /* \"#utility.yul\":7467:7485   */\n      add\n        /* \"#utility.yul\":7460:7508   */\n      mstore\n        /* \"#utility.yul\":7525:7603   */\n      tag_273\n        /* \"#utility.yul\":7598:7602   */\n      dup2\n        /* \"#utility.yul\":7589:7595   */\n      dup6\n        /* \"#utility.yul\":7525:7603   */\n      tag_183\n      jump\t// in\n    tag_273:\n        /* \"#utility.yul\":7517:7603   */\n      swap1\n      pop\n        /* \"#utility.yul\":7651:7660   */\n      dup2\n        /* \"#utility.yul\":7645:7649   */\n      dup2\n        /* \"#utility.yul\":7641:7661   */\n      sub\n        /* \"#utility.yul\":7635:7638   */\n      0x80\n        /* \"#utility.yul\":7624:7633   */\n      dup4\n        /* \"#utility.yul\":7620:7639   */\n      add\n        /* \"#utility.yul\":7613:7662   */\n      mstore\n        /* \"#utility.yul\":7679:7757   */\n      tag_274\n        /* \"#utility.yul\":7752:7756   */\n      dup2\n        /* \"#utility.yul\":7743:7749   */\n      dup5\n        /* \"#utility.yul\":7679:7757   */\n      tag_183\n      jump\t// in\n    tag_274:\n        /* \"#utility.yul\":7671:7757   */\n      swap1\n      pop\n        /* \"#utility.yul\":6645:7764   */\n      swap7\n      swap6\n      pop\n      pop\n      pop\n      pop\n      pop\n      pop\n      jump\t// out\n        /* \"#utility.yul\":7770:7887   */\n    tag_184:\n        /* \"#utility.yul\":7879:7880   */\n      0x00\n        /* \"#utility.yul\":7876:7877   */\n      dup1\n        /* \"#utility.yul\":7869:7881   */\n      revert\n        /* \"#utility.yul\":7893:8010   */\n    tag_185:\n        /* \"#utility.yul\":8002:8003   */\n      0x00\n        /* \"#utility.yul\":7999:8000   */\n      dup1\n        /* \"#utility.yul\":7992:8004   */\n      revert\n        /* \"#utility.yul\":8016:8196   */\n    tag_186:\n        /* \"#utility.yul\":8064:8141   */\n      0x4e487b7100000000000000000000000000000000000000000000000000000000\n        /* \"#utility.yul\":8061:8062   */\n      0x00\n        /* \"#utility.yul\":8054:8142   */\n      mstore\n        /* \"#utility.yul\":8161:8165   */\n      0x41\n        /* \"#utility.yul\":8158:8159   */\n      0x04\n        /* \"#utility.yul\":8151:8166   */\n      mstore\n        /* \"#utility.yul\":8185:8189   */\n      0x24\n        /* \"#utility.yul\":8182:8183   */\n      0x00\n        /* \"#utility.yul\":8175:8190   */\n      revert\n        /* \"#utility.yul\":8202:8483   */\n    tag_187:\n        /* \"#utility.yul\":8285:8312   */\n      tag_279\n        /* \"#utility.yul\":8307:8311   */\n      dup3\n        /* \"#utility.yul\":8285:8312   */\n      tag_170\n      jump\t// in\n    tag_279:\n        /* \"#utility.yul\":8277:8283   */\n      dup2\n        /* \"#utility.yul\":8273:8313   */\n      add\n        /* \"#utility.yul\":8415:8421   */\n      dup2\n        /* \"#utility.yul\":8403:8413   */\n      dup2\n        /* \"#utility.yul\":8400:8422   */\n      lt\n        /* \"#utility.yul\":8379:8397   */\n      0xffffffffffffffff\n        /* \"#utility.yul\":8367:8377   */\n      dup3\n        /* \"#utility.yul\":8364:8398   */\n      gt\n        /* \"#utility.yul\":8361:8423   */\n      or\n        /* \"#utility.yul\":8358:8446   */\n      iszero\n      tag_280\n      jumpi\n        /* \"#utility.yul\":8426:8444   */\n      tag_281\n      tag_186\n      jump\t// in\n    tag_281:\n        /* \"#utility.yul\":8358:8446   */\n    tag_280:\n        /* \"#utility.yul\":8466:8476   */\n      dup1\n        /* \"#utility.yul\":8462:8464   */\n      0x40\n        /* \"#utility.yul\":8455:8477   */\n      mstore\n        /* \"#utility.yul\":8245:8483   */\n      pop\n        /* \"#utility.yul\":8202:8483   */\n      pop\n      pop\n      jump\t// out\n        /* \"#utility.yul\":8489:8618   */\n    tag_188:\n        /* \"#utility.yul\":8523:8529   */\n      0x00\n        /* \"#utility.yul\":8550:8570   */\n      tag_283\n      tag_176\n      jump\t// in\n    tag_283:\n        /* \"#utility.yul\":8540:8570   */\n      swap1\n      pop\n        /* \"#utility.yul\":8579:8612   */\n      tag_284\n        /* \"#utility.yul\":8607:8611   */\n      dup3\n        /* \"#utility.yul\":8599:8605   */\n      dup3\n        /* \"#utility.yul\":8579:8612   */\n      tag_187\n      jump\t// in\n    tag_284:\n        /* \"#utility.yul\":8489:8618   */\n      swap2\n      swap1\n      pop\n      jump\t// out\n        /* \"#utility.yul\":8624:8932   */\n    tag_189:\n        /* \"#utility.yul\":8686:8690   */\n      0x00\n        /* \"#utility.yul\":8776:8794   */\n      0xffffffffffffffff\n        /* \"#utility.yul\":8768:8774   */\n      dup3\n        /* \"#utility.yul\":8765:8795   */\n      gt\n        /* \"#utility.yul\":8762:8818   */\n      iszero\n      tag_286\n      jumpi\n        /* \"#utility.yul\":8798:8816   */\n      tag_287\n      tag_186\n      jump\t// in\n    tag_287:\n        /* \"#utility.yul\":8762:8818   */\n    tag_286:\n        /* \"#utility.yul\":8836:8865   */\n      tag_288\n        /* \"#utility.yul\":8858:8864   */\n      dup3\n        /* \"#utility.yul\":8836:8865   */\n      tag_170\n      jump\t// in\n    tag_288:\n        /* \"#utility.yul\":8828:8865   */\n      swap1\n      pop\n        /* \"#utility.yul\":8920:8924   */\n      0x20\n        /* \"#utility.yul\":8914:8918   */\n      dup2\n        /* \"#utility.yul\":8910:8925   */\n      add\n        /* \"#utility.yul\":8902:8925   */\n      swap1\n      pop\n        /* \"#utility.yul\":8624:8932   */\n      swap2\n      swap1\n      pop\n      jump\t// out\n        /* \"#utility.yul\":8938:9086   */\n    tag_190:\n        /* \"#utility.yul\":9036:9042   */\n      dup3\n        /* \"#utility.yul\":9031:9034   */\n      dup2\n        /* \"#utility.yul\":9026:9029   */\n      dup4\n        /* \"#utility.yul\":9013:9043   */\n      calldatacopy\n        /* \"#utility.yul\":9077:9078   */\n      0x00\n        /* \"#utility.yul\":9068:9074   */\n      dup4\n        /* \"#utility.yul\":9063:9066   */\n      dup4\n        /* \"#utility.yul\":9059:9075   */\n      add\n        /* \"#utility.yul\":9052:9079   */\n      mstore\n        /* \"#utility.yul\":8938:9086   */\n      pop\n      pop\n      pop\n      jump\t// out\n        /* \"#utility.yul\":9092:9517   */\n    tag_191:\n        /* \"#utility.yul\":9170:9175   */\n      0x00\n        /* \"#utility.yul\":9195:9261   */\n      tag_291\n        /* \"#utility.yul\":9211:9260   */\n      tag_292\n        /* \"#utility.yul\":9253:9259   */\n      dup5\n        /* \"#utility.yul\":9211:9260   */\n      tag_189\n      jump\t// in\n    tag_292:\n        /* \"#utility.yul\":9195:9261   */\n      tag_188\n      jump\t// in\n    tag_291:\n        /* \"#utility.yul\":9186:9261   */\n      swap1\n      pop\n        /* \"#utility.yul\":9284:9290   */\n      dup3\n        /* \"#utility.yul\":9277:9282   */\n      dup2\n        /* \"#utility.yul\":9270:9291   */\n      mstore\n        /* \"#utility.yul\":9322:9326   */\n      0x20\n        /* \"#utility.yul\":9315:9320   */\n      dup2\n        /* \"#utility.yul\":9311:9327   */\n      add\n        /* \"#utility.yul\":9360:9363   */\n      dup5\n        /* \"#utility.yul\":9351:9357   */\n      dup5\n        /* \"#utility.yul\":9346:9349   */\n      dup5\n        /* \"#utility.yul\":9342:9358   */\n      add\n        /* \"#utility.yul\":9339:9364   */\n      gt\n        /* \"#utility.yul\":9336:9448   */\n      iszero\n      tag_293\n      jumpi\n        /* \"#utility.yul\":9367:9446   */\n      tag_294\n      tag_185\n      jump\t// in\n    tag_294:\n        /* \"#utility.yul\":9336:9448   */\n    tag_293:\n        /* \"#utility.yul\":9457:9511   */\n      tag_295\n        /* \"#utility.yul\":9504:9510   */\n      dup5\n        /* \"#utility.yul\":9499:9502   */\n      dup3\n        /* \"#utility.yul\":9494:9497   */\n      dup6\n        /* \"#utility.yul\":9457:9511   */\n      tag_190\n      jump\t// in\n    tag_295:\n        /* \"#utility.yul\":9176:9517   */\n      pop\n        /* \"#utility.yul\":9092:9517   */\n      swap4\n      swap3\n      pop\n      pop\n      pop\n      jump\t// out\n        /* \"#utility.yul\":9537:9877   */\n    tag_192:\n        /* \"#utility.yul\":9593:9598   */\n      0x00\n        /* \"#utility.yul\":9642:9645   */\n      dup3\n        /* \"#utility.yul\":9635:9639   */\n      0x1f\n        /* \"#utility.yul\":9627:9633   */\n      dup4\n        /* \"#utility.yul\":9623:9640   */\n      add\n        /* \"#utility.yul\":9619:9646   */\n      slt\n        /* \"#utility.yul\":9609:9731   */\n      tag_297\n      jumpi\n        /* \"#utility.yul\":9650:9729   */\n      tag_298\n      tag_184\n      jump\t// in\n    tag_298:\n        /* \"#utility.yul\":9609:9731   */\n    tag_297:\n        /* \"#utility.yul\":9767:9773   */\n      dup2\n        /* \"#utility.yul\":9754:9774   */\n      calldataload\n        /* \"#utility.yul\":9792:9871   */\n      tag_299\n        /* \"#utility.yul\":9867:9870   */\n      dup5\n        /* \"#utility.yul\":9859:9865   */\n      dup3\n        /* \"#utility.yul\":9852:9856   */\n      0x20\n        /* \"#utility.yul\":9844:9850   */\n      dup7\n        /* \"#utility.yul\":9840:9857   */\n      add\n        /* \"#utility.yul\":9792:9871   */\n      tag_191\n      jump\t// in\n    tag_299:\n        /* \"#utility.yul\":9783:9871   */\n      swap2\n      pop\n        /* \"#utility.yul\":9599:9877   */\n      pop\n        /* \"#utility.yul\":9537:9877   */\n      swap3\n      swap2\n      pop\n      pop\n      jump\t// out\n        /* \"#utility.yul\":9883:11694   */\n    tag_27:\n        /* \"#utility.yul\":10028:10034   */\n      0x00\n        /* \"#utility.yul\":10036:10042   */\n      dup1\n        /* \"#utility.yul\":10044:10050   */\n      0x00\n        /* \"#utility.yul\":10052:10058   */\n      dup1\n        /* \"#utility.yul\":10060:10066   */\n      0x00\n        /* \"#utility.yul\":10109:10112   */\n      0xa0\n        /* \"#utility.yul\":10097:10106   */\n      dup7\n        /* \"#utility.yul\":10088:10095   */\n      dup9\n        /* \"#utility.yul\":10084:10107   */\n      sub\n        /* \"#utility.yul\":10080:10113   */\n      slt\n        /* \"#utility.yul\":10077:10197   */\n      iszero\n      tag_301\n      jumpi\n        /* \"#utility.yul\":10116:10195   */\n      tag_302\n      tag_177\n      jump\t// in\n    tag_302:\n        /* \"#utility.yul\":10077:10197   */\n    tag_301:\n        /* \"#utility.yul\":10264:10265   */\n      0x00\n        /* \"#utility.yul\":10253:10262   */\n      dup7\n        /* \"#utility.yul\":10249:10266   */\n      add\n        /* \"#utility.yul\":10236:10267   */\n      calldataload\n        /* \"#utility.yul\":10294:10312   */\n      0xffffffffffffffff\n        /* \"#utility.yul\":10286:10292   */\n      dup2\n        /* \"#utility.yul\":10283:10313   */\n      gt\n        /* \"#utility.yul\":10280:10397   */\n      iszero\n      tag_303\n      jumpi\n        /* \"#utility.yul\":10316:10395   */\n      tag_304\n      tag_178\n      jump\t// in\n    tag_304:\n        /* \"#utility.yul\":10280:10397   */\n    tag_303:\n        /* \"#utility.yul\":10421:10484   */\n      tag_305\n        /* \"#utility.yul\":10476:10483   */\n      dup9\n        /* \"#utility.yul\":10467:10473   */\n      dup3\n        /* \"#utility.yul\":10456:10465   */\n      dup10\n        /* \"#utility.yul\":10452:10474   */\n      add\n        /* \"#utility.yul\":10421:10484   */\n      tag_192\n      jump\t// in\n    tag_305:\n        /* \"#utility.yul\":10411:10484   */\n      swap6\n      pop\n        /* \"#utility.yul\":10207:10494   */\n      pop\n        /* \"#utility.yul\":10561:10563   */\n      0x20\n        /* \"#utility.yul\":10550:10559   */\n      dup7\n        /* \"#utility.yul\":10546:10564   */\n      add\n        /* \"#utility.yul\":10533:10565   */\n      calldataload\n        /* \"#utility.yul\":10592:10610   */\n      0xffffffffffffffff\n        /* \"#utility.yul\":10584:10590   */\n      dup2\n        /* \"#utility.yul\":10581:10611   */\n      gt\n        /* \"#utility.yul\":10578:10695   */\n      iszero\n      tag_306\n      jumpi\n        /* \"#utility.yul\":10614:10693   */\n      tag_307\n      tag_178\n      jump\t// in\n    tag_307:\n        /* \"#utility.yul\":10578:10695   */\n    tag_306:\n        /* \"#utility.yul\":10719:10782   */\n      tag_308\n        /* \"#utility.yul\":10774:10781   */\n      dup9\n        /* \"#utility.yul\":10765:10771   */\n      dup3\n        /* \"#utility.yul\":10754:10763   */\n      dup10\n        /* \"#utility.yul\":10750:10772   */\n      add\n        /* \"#utility.yul\":10719:10782   */\n      tag_192\n      jump\t// in\n    tag_308:\n        /* \"#utility.yul\":10709:10782   */\n      swap5\n      pop\n        /* \"#utility.yul\":10504:10792   */\n      pop\n        /* \"#utility.yul\":10859:10861   */\n      0x40\n        /* \"#utility.yul\":10848:10857   */\n      dup7\n        /* \"#utility.yul\":10844:10862   */\n      add\n        /* \"#utility.yul\":10831:10863   */\n      calldataload\n        /* \"#utility.yul\":10890:10908   */\n      0xffffffffffffffff\n        /* \"#utility.yul\":10882:10888   */\n      dup2\n        /* \"#utility.yul\":10879:10909   */\n      gt\n        /* \"#utility.yul\":10876:10993   */\n      iszero\n      tag_309\n      jumpi\n        /* \"#utility.yul\":10912:10991   */\n      tag_310\n      tag_178\n      jump\t// in\n    tag_310:\n        /* \"#utility.yul\":10876:10993   */\n    tag_309:\n        /* \"#utility.yul\":11017:11080   */\n      tag_311\n        /* \"#utility.yul\":11072:11079   */\n      dup9\n        /* \"#utility.yul\":11063:11069   */\n      dup3\n        /* \"#utility.yul\":11052:11061   */\n      dup10\n        /* \"#utility.yul\":11048:11070   */\n      add\n        /* \"#utility.yul\":11017:11080   */\n      tag_192\n      jump\t// in\n    tag_311:\n        /* \"#utility.yul\":11007:11080   */\n      swap4\n      pop\n        /* \"#utility.yul\":10802:11090   */\n      pop\n        /* \"#utility.yul\":11157:11159   */\n      0x60\n        /* \"#utility.yul\":11146:11155   */\n      dup7\n        /* \"#utility.yul\":11142:11160   */\n      add\n        /* \"#utility.yul\":11129:11161   */\n      calldataload\n        /* \"#utility.yul\":11188:11206   */\n      0xffffffffffffffff\n        /* \"#utility.yul\":11180:11186   */\n      dup2\n        /* \"#utility.yul\":11177:11207   */\n      gt\n        /* \"#utility.yul\":11174:11291   */\n      iszero\n      tag_312\n      jumpi\n        /* \"#utility.yul\":11210:11289   */\n      tag_313\n      tag_178\n      jump\t// in\n    tag_313:\n        /* \"#utility.yul\":11174:11291   */\n    tag_312:\n        /* \"#utility.yul\":11315:11378   */\n      tag_314\n        /* \"#utility.yul\":11370:11377   */\n      dup9\n        /* \"#utility.yul\":11361:11367   */\n      dup3\n        /* \"#utility.yul\":11350:11359   */\n      dup10\n        /* \"#utility.yul\":11346:11368   */\n      add\n        /* \"#utility.yul\":11315:11378   */\n      tag_192\n      jump\t// in\n    tag_314:\n        /* \"#utility.yul\":11305:11378   */\n      swap3\n      pop\n        /* \"#utility.yul\":11100:11388   */\n      pop\n        /* \"#utility.yul\":11455:11458   */\n      0x80\n        /* \"#utility.yul\":11444:11453   */\n      dup7\n        /* \"#utility.yul\":11440:11459   */\n      add\n        /* \"#utility.yul\":11427:11460   */\n      calldataload\n        /* \"#utility.yul\":11487:11505   */\n      0xffffffffffffffff\n        /* \"#utility.yul\":11479:11485   */\n      dup2\n        /* \"#utility.yul\":11476:11506   */\n      gt\n        /* \"#utility.yul\":11473:11590   */\n      iszero\n      tag_315\n      jumpi\n        /* \"#utility.yul\":11509:11588   */\n      tag_316\n      tag_178\n      jump\t// in\n    tag_316:\n        /* \"#utility.yul\":11473:11590   */\n    tag_315:\n        /* \"#utility.yul\":11614:11677   */\n      tag_317\n        /* \"#utility.yul\":11669:11676   */\n      dup9\n        /* \"#utility.yul\":11660:11666   */\n      dup3\n        /* \"#utility.yul\":11649:11658   */\n      dup10\n        /* \"#utility.yul\":11645:11667   */\n      add\n        /* \"#utility.yul\":11614:11677   */\n      tag_192\n      jump\t// in\n    tag_317:\n        /* \"#utility.yul\":11604:11677   */\n      swap2\n      pop\n        /* \"#utility.yul\":11398:11687   */\n      pop\n        /* \"#utility.yul\":9883:11694   */\n      swap3\n      swap6\n      pop\n      swap3\n      swap6\n      swap1\n      swap4\n      pop\n      jump\t// out\n        /* \"#utility.yul\":11700:11880   */\n    tag_193:\n        /* \"#utility.yul\":11748:11825   */\n      0x4e487b7100000000000000000000000000000000000000000000000000000000\n        /* \"#utility.yul\":11745:11746   */\n      0x00\n        /* \"#utility.yul\":11738:11826   */\n      mstore\n        /* \"#utility.yul\":11845:11849   */\n      0x22\n        /* \"#utility.yul\":11842:11843   */\n      0x04\n        /* \"#utility.yul\":11835:11850   */\n      mstore\n        /* \"#utility.yul\":11869:11873   */\n      0x24\n        /* \"#utility.yul\":11866:11867   */\n      0x00\n        /* \"#utility.yul\":11859:11874   */\n      revert\n        /* \"#utility.yul\":11886:12206   */\n    tag_34:\n        /* \"#utility.yul\":11930:11936   */\n      0x00\n        /* \"#utility.yul\":11967:11968   */\n      0x02\n        /* \"#utility.yul\":11961:11965   */\n      dup3\n        /* \"#utility.yul\":11957:11969   */\n      div\n        /* \"#utility.yul\":11947:11969   */\n      swap1\n      pop\n        /* \"#utility.yul\":12014:12015   */\n      0x01\n        /* \"#utility.yul\":12008:12012   */\n      dup3\n        /* \"#utility.yul\":12004:12016   */\n      and\n        /* \"#utility.yul\":12035:12053   */\n      dup1\n        /* \"#utility.yul\":12025:12106   */\n      tag_320\n      jumpi\n        /* \"#utility.yul\":12091:12095   */\n      0x7f\n        /* \"#utility.yul\":12083:12089   */\n      dup3\n        /* \"#utility.yul\":12079:12096   */\n      and\n        /* \"#utility.yul\":12069:12096   */\n      swap2\n      pop\n        /* \"#utility.yul\":12025:12106   */\n    tag_320:\n        /* \"#utility.yul\":12153:12155   */\n      0x20\n        /* \"#utility.yul\":12145:12151   */\n      dup3\n        /* \"#utility.yul\":12142:12156   */\n      lt\n        /* \"#utility.yul\":12122:12140   */\n      dup2\n        /* \"#utility.yul\":12119:12157   */\n      sub\n        /* \"#utility.yul\":12116:12200   */\n      tag_321\n      jumpi\n        /* \"#utility.yul\":12172:12190   */\n      tag_322\n      tag_193\n      jump\t// in\n    tag_322:\n        /* \"#utility.yul\":12116:12200   */\n    tag_321:\n        /* \"#utility.yul\":11937:12206   */\n      pop\n        /* \"#utility.yul\":11886:12206   */\n      swap2\n      swap1\n      pop\n      jump\t// out\n        /* \"#utility.yul\":12212:12426   */\n    tag_194:\n        /* \"#utility.yul\":12352:12418   */\n      0xc38d6e6469636520696e76c3a16c69646f000000000000000000000000000000\n        /* \"#utility.yul\":12348:12349   */\n      0x00\n        /* \"#utility.yul\":12340:12346   */\n      dup3\n        /* \"#utility.yul\":12336:12350   */\n      add\n        /* \"#utility.yul\":12329:12419   */\n      mstore\n        /* \"#utility.yul\":12212:12426   */\n      pop\n      jump\t// out\n        /* \"#utility.yul\":12432:12798   */\n    tag_195:\n        /* \"#utility.yul\":12574:12577   */\n      0x00\n        /* \"#utility.yul\":12595:12662   */\n      tag_325\n        /* \"#utility.yul\":12659:12661   */\n      0x11\n        /* \"#utility.yul\":12654:12657   */\n      dup4\n        /* \"#utility.yul\":12595:12662   */\n      tag_182\n      jump\t// in\n    tag_325:\n        /* \"#utility.yul\":12588:12662   */\n      swap2\n      pop\n        /* \"#utility.yul\":12671:12764   */\n      tag_326\n        /* \"#utility.yul\":12760:12763   */\n      dup3\n        /* \"#utility.yul\":12671:12764   */\n      tag_194\n      jump\t// in\n    tag_326:\n        /* \"#utility.yul\":12789:12791   */\n      0x20\n        /* \"#utility.yul\":12784:12787   */\n      dup3\n        /* \"#utility.yul\":12780:12792   */\n      add\n        /* \"#utility.yul\":12773:12792   */\n      swap1\n      pop\n        /* \"#utility.yul\":12432:12798   */\n      swap2\n      swap1\n      pop\n      jump\t// out\n        /* \"#utility.yul\":12804:13223   */\n    tag_62:\n        /* \"#utility.yul\":12970:12974   */\n      0x00\n        /* \"#utility.yul\":13008:13010   */\n      0x20\n        /* \"#utility.yul\":12997:13006   */\n      dup3\n        /* \"#utility.yul\":12993:13011   */\n      add\n        /* \"#utility.yul\":12985:13011   */\n      swap1\n      pop\n        /* \"#utility.yul\":13057:13066   */\n      dup2\n        /* \"#utility.yul\":13051:13055   */\n      dup2\n        /* \"#utility.yul\":13047:13067   */\n      sub\n        /* \"#utility.yul\":13043:13044   */\n      0x00\n        /* \"#utility.yul\":13032:13041   */\n      dup4\n        /* \"#utility.yul\":13028:13045   */\n      add\n        /* \"#utility.yul\":13021:13068   */\n      mstore\n        /* \"#utility.yul\":13085:13216   */\n      tag_328\n        /* \"#utility.yul\":13211:13215   */\n      dup2\n        /* \"#utility.yul\":13085:13216   */\n      tag_195\n      jump\t// in\n    tag_328:\n        /* \"#utility.yul\":13077:13216   */\n      swap1\n      pop\n        /* \"#utility.yul\":12804:13223   */\n      swap2\n      swap1\n      pop\n      jump\t// out\n        /* \"#utility.yul\":13229:13409   */\n    tag_196:\n        /* \"#utility.yul\":13277:13354   */\n      0x4e487b7100000000000000000000000000000000000000000000000000000000\n        /* \"#utility.yul\":13274:13275   */\n      0x00\n        /* \"#utility.yul\":13267:13355   */\n      mstore\n        /* \"#utility.yul\":13374:13378   */\n      0x11\n        /* \"#utility.yul\":13371:13372   */\n      0x04\n        /* \"#utility.yul\":13364:13379   */\n      mstore\n        /* \"#utility.yul\":13398:13402   */\n      0x24\n        /* \"#utility.yul\":13395:13396   */\n      0x00\n        /* \"#utility.yul\":13388:13403   */\n      revert\n        /* \"#utility.yul\":13415:13609   */\n    tag_64:\n        /* \"#utility.yul\":13455:13459   */\n      0x00\n        /* \"#utility.yul\":13475:13495   */\n      tag_331\n        /* \"#utility.yul\":13493:13494   */\n      dup3\n        /* \"#utility.yul\":13475:13495   */\n      tag_179\n      jump\t// in\n    tag_331:\n        /* \"#utility.yul\":13470:13495   */\n      swap2\n      pop\n        /* \"#utility.yul\":13509:13529   */\n      tag_332\n        /* \"#utility.yul\":13527:13528   */\n      dup4\n        /* \"#utility.yul\":13509:13529   */\n      tag_179\n      jump\t// in\n    tag_332:\n        /* \"#utility.yul\":13504:13529   */\n      swap3\n      pop\n        /* \"#utility.yul\":13553:13554   */\n      dup3\n        /* \"#utility.yul\":13550:13551   */\n      dup3\n        /* \"#utility.yul\":13546:13555   */\n      sub\n        /* \"#utility.yul\":13538:13555   */\n      swap1\n      pop\n        /* \"#utility.yul\":13577:13578   */\n      dup2\n        /* \"#utility.yul\":13571:13575   */\n      dup2\n        /* \"#utility.yul\":13568:13579   */\n      gt\n        /* \"#utility.yul\":13565:13602   */\n      iszero\n      tag_333\n      jumpi\n        /* \"#utility.yul\":13582:13600   */\n      tag_334\n      tag_196\n      jump\t// in\n    tag_334:\n        /* \"#utility.yul\":13565:13602   */\n    tag_333:\n        /* \"#utility.yul\":13415:13609   */\n      swap3\n      swap2\n      pop\n      pop\n      jump\t// out\n        /* \"#utility.yul\":13615:13795   */\n    tag_67:\n        /* \"#utility.yul\":13663:13740   */\n      0x4e487b7100000000000000000000000000000000000000000000000000000000\n        /* \"#utility.yul\":13660:13661   */\n      0x00\n        /* \"#utility.yul\":13653:13741   */\n      mstore\n        /* \"#utility.yul\":13760:13764   */\n      0x32\n        /* \"#utility.yul\":13757:13758   */\n      0x04\n        /* \"#utility.yul\":13750:13765   */\n      mstore\n        /* \"#utility.yul\":13784:13788   */\n      0x24\n        /* \"#utility.yul\":13781:13782   */\n      0x00\n        /* \"#utility.yul\":13774:13789   */\n      revert\n        /* \"#utility.yul\":13801:13950   */\n    tag_197:\n        /* \"#utility.yul\":13850:13856   */\n      0x00\n        /* \"#utility.yul\":13884:13889   */\n      dup2\n        /* \"#utility.yul\":13878:13890   */\n      sload\n        /* \"#utility.yul\":13868:13890   */\n      swap1\n      pop\n        /* \"#utility.yul\":13910:13943   */\n      tag_337\n        /* \"#utility.yul\":13936:13942   */\n      dup2\n        /* \"#utility.yul\":13910:13943   */\n      tag_34\n      jump\t// in\n    tag_337:\n        /* \"#utility.yul\":13900:13943   */\n      swap1\n      pop\n        /* \"#utility.yul\":13801:13950   */\n      swap2\n      swap1\n      pop\n      jump\t// out\n        /* \"#utility.yul\":13956:14097   */\n    tag_198:\n        /* \"#utility.yul\":14005:14009   */\n      0x00\n        /* \"#utility.yul\":14028:14031   */\n      dup2\n        /* \"#utility.yul\":14020:14031   */\n      swap1\n      pop\n        /* \"#utility.yul\":14051:14054   */\n      dup2\n        /* \"#utility.yul\":14048:14049   */\n      0x00\n        /* \"#utility.yul\":14041:14055   */\n      mstore\n        /* \"#utility.yul\":14085:14089   */\n      0x20\n        /* \"#utility.yul\":14082:14083   */\n      0x00\n        /* \"#utility.yul\":14072:14090   */\n      keccak256\n        /* \"#utility.yul\":14064:14090   */\n      swap1\n      pop\n        /* \"#utility.yul\":13956:14097   */\n      swap2\n      swap1\n      pop\n      jump\t// out\n        /* \"#utility.yul\":14103:14196   */\n    tag_199:\n        /* \"#utility.yul\":14140:14146   */\n      0x00\n        /* \"#utility.yul\":14187:14189   */\n      0x20\n        /* \"#utility.yul\":14182:14184   */\n      0x1f\n        /* \"#utility.yul\":14175:14180   */\n      dup4\n        /* \"#utility.yul\":14171:14185   */\n      add\n        /* \"#utility.yul\":14167:14190   */\n      div\n        /* \"#utility.yul\":14157:14190   */\n      swap1\n      pop\n        /* \"#utility.yul\":14103:14196   */\n      swap2\n      swap1\n      pop\n      jump\t// out\n        /* \"#utility.yul\":14202:14309   */\n    tag_200:\n        /* \"#utility.yul\":14246:14254   */\n      0x00\n        /* \"#utility.yul\":14296:14301   */\n      dup3\n        /* \"#utility.yul\":14290:14294   */\n      dup3\n        /* \"#utility.yul\":14286:14302   */\n      shl\n        /* \"#utility.yul\":14265:14302   */\n      swap1\n      pop\n        /* \"#utility.yul\":14202:14309   */\n      swap3\n      swap2\n      pop\n      pop\n      jump\t// out\n        /* \"#utility.yul\":14315:14708   */\n    tag_201:\n        /* \"#utility.yul\":14384:14390   */\n      0x00\n        /* \"#utility.yul\":14434:14435   */\n      0x08\n        /* \"#utility.yul\":14422:14432   */\n      dup4\n        /* \"#utility.yul\":14418:14436   */\n      mul\n        /* \"#utility.yul\":14457:14554   */\n      tag_342\n        /* \"#utility.yul\":14487:14553   */\n      0xffffffffffffffffffffffffffffffffffffffffffffffffffffffffffffffff\n        /* \"#utility.yul\":14476:14485   */\n      dup3\n        /* \"#utility.yul\":14457:14554   */\n      tag_200\n      jump\t// in\n    tag_342:\n        /* \"#utility.yul\":14575:14614   */\n      tag_343\n        /* \"#utility.yul\":14605:14613   */\n      dup7\n        /* \"#utility.yul\":14594:14603   */\n      dup4\n        /* \"#utility.yul\":14575:14614   */\n      tag_200\n      jump\t// in\n    tag_343:\n        /* \"#utility.yul\":14563:14614   */\n      swap6\n      pop\n        /* \"#utility.yul\":14647:14651   */\n      dup1\n        /* \"#utility.yul\":14643:14652   */\n      not\n        /* \"#utility.yul\":14636:14641   */\n      dup5\n        /* \"#utility.yul\":14632:14653   */\n      and\n        /* \"#utility.yul\":14623:14653   */\n      swap4\n      pop\n        /* \"#utility.yul\":14696:14700   */\n      dup1\n        /* \"#utility.yul\":14686:14694   */\n      dup7\n        /* \"#utility.yul\":14682:14701   */\n      and\n        /* \"#utility.yul\":14675:14680   */\n      dup5\n        /* \"#utility.yul\":14672:14702   */\n      or\n        /* \"#utility.yul\":14662:14702   */\n      swap3\n      pop\n        /* \"#utility.yul\":14391:14708   */\n      pop\n      pop\n        /* \"#utility.yul\":14315:14708   */\n      swap4\n      swap3\n      pop\n      pop\n      pop\n      jump\t// out\n        /* \"#utility.yul\":14714:14774   */\n    tag_202:\n        /* \"#utility.yul\":14742:14745   */\n      0x00\n        /* \"#utility.yul\":14763:14768   */\n      dup2\n        /* \"#utility.yul\":14756:14768   */\n      swap1\n      pop\n        /* \"#utility.yul\":14714:14774   */\n      swap2\n      swap1\n      pop\n      jump\t// out\n        /* \"#utility.yul\":14780:14922   */\n    tag_203:\n        /* \"#utility.yul\":14830:14839   */\n      0x00\n        /* \"#utility.yul\":14863:14916   */\n      tag_346\n        /* \"#utility.yul\":14881:14915   */\n      tag_347\n        /* \"#utility.yul\":14890:14914   */\n      tag_348\n        /* \"#utility.yul\":14908:14913   */\n      dup5\n        /* \"#utility.yul\":14890:14914   */\n      tag_179\n      jump\t// in\n    tag_348:\n        /* \"#utility.yul\":14881:14915   */\n      tag_202\n      jump\t// in\n    tag_347:\n        /* \"#utility.yul\":14863:14916   */\n      tag_179\n      jump\t// in\n    tag_346:\n        /* \"#utility.yul\":14850:14916   */\n      swap1\n      pop\n        /* \"#utility.yul\":14780:14922   */\n      swap2\n      swap1\n      pop\n      jump\t// out\n        /* \"#utility.yul\":14928:15003   */\n    tag_204:\n        /* \"#utility.yul\":14971:14974   */\n      0x00\n        /* \"#utility.yul\":14992:14997   */\n      dup2\n        /* \"#utility.yul\":14985:14997   */\n      swap1\n      pop\n        /* \"#utility.yul\":14928:15003   */\n      swap2\n      swap1\n      pop\n      jump\t// out\n        /* \"#utility.yul\":15009:15278   */\n    tag_205:\n        /* \"#utility.yul\":15119:15158   */\n      tag_351\n        /* \"#utility.yul\":15150:15157   */\n      dup4\n        /* \"#utility.yul\":15119:15158   */\n      tag_203\n      jump\t// in\n    tag_351:\n        /* \"#utility.yul\":15180:15271   */\n      tag_352\n        /* \"#utility.yul\":15229:15270   */\n      tag_353\n        /* \"#utility.yul\":15253:15269   */\n      dup3\n        /* \"#utility.yul\":15229:15270   */\n      tag_204\n      jump\t// in\n    tag_353:\n        /* \"#utility.yul\":15221:15227   */\n      dup5\n        /* \"#utility.yul\":15214:15218   */\n      dup5\n        /* \"#utility.yul\":15208:15219   */\n      sload\n        /* \"#utility.yul\":15180:15271   */\n      tag_201\n      jump\t// in\n    tag_352:\n        /* \"#utility.yul\":15174:15178   */\n      dup3\n        /* \"#utility.yul\":15167:15272   */\n      sstore\n        /* \"#utility.yul\":15085:15278   */\n      pop\n        /* \"#utility.yul\":15009:15278   */\n      pop\n      pop\n      pop\n      jump\t// out\n        /* \"#utility.yul\":15284:15357   */\n    tag_206:\n        /* \"#utility.yul\":15329:15332   */\n      0x00\n        /* \"#utility.yul\":15284:15357   */\n      swap1\n      jump\t// out\n        /* \"#utility.yul\":15363:15552   */\n    tag_207:\n        /* \"#utility.yul\":15440:15472   */\n      tag_356\n      tag_206\n      jump\t// in\n    tag_356:\n        /* \"#utility.yul\":15481:15546   */\n      tag_357\n        /* \"#utility.yul\":15539:15545   */\n      dup2\n        /* \"#utility.yul\":15531:15537   */\n      dup5\n        /* \"#utility.yul\":15525:15529   */\n      dup5\n        /* \"#utility.yul\":15481:15546   */\n      tag_205\n      jump\t// in\n    tag_357:\n        /* \"#utility.yul\":15416:15552   */\n      pop\n        /* \"#utility.yul\":15363:15552   */\n      pop\n      pop\n      jump\t// out\n        /* \"#utility.yul\":15558:15744   */\n    tag_208:\n        /* \"#utility.yul\":15618:15738   */\n    tag_359:\n        /* \"#utility.yul\":15635:15638   */\n      dup2\n        /* \"#utility.yul\":15628:15633   */\n      dup2\n        /* \"#utility.yul\":15625:15639   */\n      lt\n        /* \"#utility.yul\":15618:15738   */\n      iszero\n      tag_361\n      jumpi\n        /* \"#utility.yul\":15689:15728   */\n      tag_362\n        /* \"#utility.yul\":15726:15727   */\n      0x00\n        /* \"#utility.yul\":15719:15724   */\n      dup3\n        /* \"#utility.yul\":15689:15728   */\n      tag_207\n      jump\t// in\n    tag_362:\n        /* \"#utility.yul\":15662:15663   */\n      0x01\n        /* \"#utility.yul\":15655:15660   */\n      dup2\n        /* \"#utility.yul\":15651:15664   */\n      add\n        /* \"#utility.yul\":15642:15664   */\n      swap1\n      pop\n        /* \"#utility.yul\":15618:15738   */\n      jump(tag_359)\n    tag_361:\n        /* \"#utility.yul\":15558:15744   */\n      pop\n      pop\n      jump\t// out\n        /* \"#utility.yul\":15750:16293   */\n    tag_209:\n        /* \"#utility.yul\":15851:15853   */\n      0x1f\n        /* \"#utility.yul\":15846:15849   */\n      dup3\n        /* \"#utility.yul\":15843:15854   */\n      gt\n        /* \"#utility.yul\":15840:16286   */\n      iszero\n      tag_364\n      jumpi\n        /* \"#utility.yul\":15885:15923   */\n      tag_365\n        /* \"#utility.yul\":15917:15922   */\n      dup2\n        /* \"#utility.yul\":15885:15923   */\n      tag_198\n      jump\t// in\n    tag_365:\n        /* \"#utility.yul\":15969:15998   */\n      tag_366\n        /* \"#utility.yul\":15987:15997   */\n      dup5\n        /* \"#utility.yul\":15969:15998   */\n      tag_199\n      jump\t// in\n    tag_366:\n        /* \"#utility.yul\":15959:15967   */\n      dup2\n        /* \"#utility.yul\":15955:15999   */\n      add\n        /* \"#utility.yul\":16152:16154   */\n      0x20\n        /* \"#utility.yul\":16140:16150   */\n      dup6\n        /* \"#utility.yul\":16137:16155   */\n      lt\n        /* \"#utility.yul\":16134:16183   */\n      iszero\n      tag_367\n      jumpi\n        /* \"#utility.yul\":16173:16181   */\n      dup2\n        /* \"#utility.yul\":16158:16181   */\n      swap1\n      pop\n        /* \"#utility.yul\":16134:16183   */\n    tag_367:\n        /* \"#utility.yul\":16196:16276   */\n      tag_368\n        /* \"#utility.yul\":16252:16274   */\n      tag_369\n        /* \"#utility.yul\":16270:16273   */\n      dup6\n        /* \"#utility.yul\":16252:16274   */\n      tag_199\n      jump\t// in\n    tag_369:\n        /* \"#utility.yul\":16242:16250   */\n      dup4\n        /* \"#utility.yul\":16238:16275   */\n      add\n        /* \"#utility.yul\":16225:16236   */\n      dup3\n        /* \"#utility.yul\":16196:16276   */\n      tag_208\n      jump\t// in\n    tag_368:\n        /* \"#utility.yul\":15855:16286   */\n      pop\n      pop\n        /* \"#utility.yul\":15840:16286   */\n    tag_364:\n        /* \"#utility.yul\":15750:16293   */\n      pop\n      pop\n      pop\n      jump\t// out\n        /* \"#utility.yul\":16299:16416   */\n    tag_210:\n        /* \"#utility.yul\":16353:16361   */\n      0x00\n        /* \"#utility.yul\":16403:16408   */\n      dup3\n        /* \"#utility.yul\":16397:16401   */\n      dup3\n        /* \"#utility.yul\":16393:16409   */\n      shr\n        /* \"#utility.yul\":16372:16409   */\n      swap1\n      pop\n        /* \"#utility.yul\":16299:16416   */\n      swap3\n      swap2\n      pop\n      pop\n      jump\t// out\n        /* \"#utility.yul\":16422:16591   */\n    tag_211:\n        /* \"#utility.yul\":16466:16472   */\n      0x00\n        /* \"#utility.yul\":16499:16550   */\n      tag_372\n        /* \"#utility.yul\":16547:16548   */\n      0x00\n        /* \"#utility.yul\":16543:16549   */\n      not\n        /* \"#utility.yul\":16535:16540   */\n      dup5\n        /* \"#utility.yul\":16532:16533   */\n      0x08\n        /* \"#utility.yul\":16528:16541   */\n      mul\n        /* \"#utility.yul\":16499:16550   */\n      tag_210\n      jump\t// in\n    tag_372:\n        /* \"#utility.yul\":16495:16551   */\n      not\n        /* \"#utility.yul\":16580:16584   */\n      dup1\n        /* \"#utility.yul\":16574:16578   */\n      dup4\n        /* \"#utility.yul\":16570:16585   */\n      and\n        /* \"#utility.yul\":16560:16585   */\n      swap2\n      pop\n        /* \"#utility.yul\":16473:16591   */\n      pop\n        /* \"#utility.yul\":16422:16591   */\n      swap3\n      swap2\n      pop\n      pop\n      jump\t// out\n        /* \"#utility.yul\":16596:16891   */\n    tag_212:\n        /* \"#utility.yul\":16672:16676   */\n      0x00\n        /* \"#utility.yul\":16818:16847   */\n      tag_374\n        /* \"#utility.yul\":16843:16846   */\n      dup4\n        /* \"#utility.yul\":16837:16841   */\n      dup4\n        /* \"#utility.yul\":16818:16847   */\n      tag_211\n      jump\t// in\n    tag_374:\n        /* \"#utility.yul\":16810:16847   */\n      swap2\n      pop\n        /* \"#utility.yul\":16880:16883   */\n      dup3\n        /* \"#utility.yul\":16877:16878   */\n      0x02\n        /* \"#utility.yul\":16873:16884   */\n      mul\n        /* \"#utility.yul\":16867:16871   */\n      dup3\n        /* \"#utility.yul\":16864:16885   */\n      or\n        /* \"#utility.yul\":16856:16885   */\n      swap1\n      pop\n        /* \"#utility.yul\":16596:16891   */\n      swap3\n      swap2\n      pop\n      pop\n      jump\t// out\n        /* \"#utility.yul\":16896:18347   */\n    tag_73:\n        /* \"#utility.yul\":17007:17010   */\n      dup2\n        /* \"#utility.yul\":17001:17005   */\n      dup2\n        /* \"#utility.yul\":16998:17011   */\n      sub\n        /* \"#utility.yul\":16995:17021   */\n      tag_376\n      jumpi\n        /* \"#utility.yul\":17014:17019   */\n      pop\n      pop\n      jump(tag_375)\n        /* \"#utility.yul\":16995:17021   */\n    tag_376:\n        /* \"#utility.yul\":17045:17079   */\n      tag_377\n        /* \"#utility.yul\":17075:17078   */\n      dup3\n        /* \"#utility.yul\":17045:17079   */\n      tag_197\n      jump\t// in\n    tag_377:\n        /* \"#utility.yul\":17144:17162   */\n      0xffffffffffffffff\n        /* \"#utility.yul\":17136:17142   */\n      dup2\n        /* \"#utility.yul\":17133:17163   */\n      gt\n        /* \"#utility.yul\":17130:17186   */\n      iszero\n      tag_378\n      jumpi\n        /* \"#utility.yul\":17166:17184   */\n      tag_379\n      tag_186\n      jump\t// in\n    tag_379:\n        /* \"#utility.yul\":17130:17186   */\n    tag_378:\n        /* \"#utility.yul\":17210:17248   */\n      tag_380\n        /* \"#utility.yul\":17242:17246   */\n      dup3\n        /* \"#utility.yul\":17236:17247   */\n      sload\n        /* \"#utility.yul\":17210:17248   */\n      tag_34\n      jump\t// in\n    tag_380:\n        /* \"#utility.yul\":17295:17362   */\n      tag_381\n        /* \"#utility.yul\":17355:17361   */\n      dup3\n        /* \"#utility.yul\":17347:17353   */\n      dup3\n        /* \"#utility.yul\":17341:17345   */\n      dup6\n        /* \"#utility.yul\":17295:17362   */\n      tag_209\n      jump\t// in\n    tag_381:\n        /* \"#utility.yul\":17389:17390   */\n      0x00\n        /* \"#utility.yul\":17418:17420   */\n      0x1f\n        /* \"#utility.yul\":17410:17416   */\n      dup4\n        /* \"#utility.yul\":17407:17421   */\n      gt\n        /* \"#utility.yul\":17435:17436   */\n      0x01\n        /* \"#utility.yul\":17430:18102   */\n      dup2\n      eq\n      tag_383\n      jumpi\n        /* \"#utility.yul\":18146:18147   */\n      0x00\n        /* \"#utility.yul\":18163:18169   */\n      dup5\n        /* \"#utility.yul\":18160:18237   */\n      iszero\n      tag_384\n      jumpi\n        /* \"#utility.yul\":18212:18221   */\n      dup3\n        /* \"#utility.yul\":18207:18210   */\n      dup8\n        /* \"#utility.yul\":18203:18222   */\n      add\n        /* \"#utility.yul\":18197:18223   */\n      sload\n        /* \"#utility.yul\":18188:18223   */\n      swap1\n      pop\n        /* \"#utility.yul\":18160:18237   */\n    tag_384:\n        /* \"#utility.yul\":18263:18330   */\n      tag_385\n        /* \"#utility.yul\":18323:18329   */\n      dup6\n        /* \"#utility.yul\":18316:18321   */\n      dup3\n        /* \"#utility.yul\":18263:18330   */\n      tag_212\n      jump\t// in\n    tag_385:\n        /* \"#utility.yul\":18257:18261   */\n      dup7\n        /* \"#utility.yul\":18250:18331   */\n      sstore\n        /* \"#utility.yul\":18119:18341   */\n      pop\n        /* \"#utility.yul\":17400:18341   */\n      jump(tag_382)\n        /* \"#utility.yul\":17430:18102   */\n    tag_383:\n        /* \"#utility.yul\":17482:17486   */\n      0x1f\n        /* \"#utility.yul\":17478:17487   */\n      not\n        /* \"#utility.yul\":17470:17476   */\n      dup5\n        /* \"#utility.yul\":17466:17488   */\n      and\n        /* \"#utility.yul\":17508:17544   */\n      tag_386\n        /* \"#utility.yul\":17540:17543   */\n      dup8\n        /* \"#utility.yul\":17508:17544   */\n      tag_198\n      jump\t// in\n    tag_386:\n        /* \"#utility.yul\":17501:17544   */\n      swap7\n      pop\n        /* \"#utility.yul\":17571:17608   */\n      tag_387\n        /* \"#utility.yul\":17603:17607   */\n      dup7\n        /* \"#utility.yul\":17571:17608   */\n      tag_198\n      jump\t// in\n    tag_387:\n        /* \"#utility.yul\":17630:17631   */\n      0x00\n        /* \"#utility.yul\":17644:17851   */\n    tag_388:\n        /* \"#utility.yul\":17658:17665   */\n      dup3\n        /* \"#utility.yul\":17655:17656   */\n      dup2\n        /* \"#utility.yul\":17652:17666   */\n      lt\n        /* \"#utility.yul\":17644:17851   */\n      iszero\n      tag_390\n      jumpi\n        /* \"#utility.yul\":17737:17746   */\n      dup5\n        /* \"#utility.yul\":17732:17735   */\n      dup10\n        /* \"#utility.yul\":17728:17747   */\n      add\n        /* \"#utility.yul\":17722:17748   */\n      sload\n        /* \"#utility.yul\":17714:17720   */\n      dup3\n        /* \"#utility.yul\":17707:17749   */\n      sstore\n        /* \"#utility.yul\":17788:17789   */\n      0x01\n        /* \"#utility.yul\":17780:17786   */\n      dup3\n        /* \"#utility.yul\":17776:17790   */\n      add\n        /* \"#utility.yul\":17766:17790   */\n      swap2\n      pop\n        /* \"#utility.yul\":17835:17836   */\n      0x01\n        /* \"#utility.yul\":17824:17833   */\n      dup6\n        /* \"#utility.yul\":17820:17837   */\n      add\n        /* \"#utility.yul\":17807:17837   */\n      swap5\n      pop\n        /* \"#utility.yul\":17681:17685   */\n      0x20\n        /* \"#utility.yul\":17678:17679   */\n      dup2\n        /* \"#utility.yul\":17674:17686   */\n      add\n        /* \"#utility.yul\":17669:17686   */\n      swap1\n      pop\n        /* \"#utility.yul\":17644:17851   */\n      jump(tag_388)\n    tag_390:\n        /* \"#utility.yul\":17879:17885   */\n      dup7\n        /* \"#utility.yul\":17870:17877   */\n      dup4\n        /* \"#utility.yul\":17867:17886   */\n      lt\n        /* \"#utility.yul\":17864:18043   */\n      iszero\n      tag_391\n      jumpi\n        /* \"#utility.yul\":17937:17946   */\n      dup5\n        /* \"#utility.yul\":17932:17935   */\n      dup10\n        /* \"#utility.yul\":17928:17947   */\n      add\n        /* \"#utility.yul\":17922:17948   */\n      sload\n        /* \"#utility.yul\":17980:18028   */\n      tag_392\n        /* \"#utility.yul\":18022:18026   */\n      0x1f\n        /* \"#utility.yul\":18014:18020   */\n      dup10\n        /* \"#utility.yul\":18010:18027   */\n      and\n        /* \"#utility.yul\":17999:18008   */\n      dup3\n        /* \"#utility.yul\":17980:18028   */\n      tag_211\n      jump\t// in\n    tag_392:\n        /* \"#utility.yul\":17972:17978   */\n      dup4\n        /* \"#utility.yul\":17965:18029   */\n      sstore\n        /* \"#utility.yul\":17887:18043   */\n      pop\n        /* \"#utility.yul\":17864:18043   */\n    tag_391:\n        /* \"#utility.yul\":18089:18090   */\n      0x01\n        /* \"#utility.yul\":18085:18086   */\n      0x02\n        /* \"#utility.yul\":18077:18083   */\n      dup9\n        /* \"#utility.yul\":18073:18087   */\n      mul\n        /* \"#utility.yul\":18069:18091   */\n      add\n        /* \"#utility.yul\":18063:18067   */\n      dup9\n        /* \"#utility.yul\":18056:18092   */\n      sstore\n        /* \"#utility.yul\":17437:18102   */\n      pop\n      pop\n      pop\n        /* \"#utility.yul\":17400:18341   */\n    tag_382:\n      pop\n        /* \"#utility.yul\":16985:18347   */\n      pop\n      pop\n      pop\n        /* \"#utility.yul\":16896:18347   */\n      pop\n      pop\n    tag_375:\n      jump\t// out\n        /* \"#utility.yul\":18353:18533   */\n    tag_80:\n        /* \"#utility.yul\":18401:18478   */\n      0x4e487b7100000000000000000000000000000000000000000000000000000000\n        /* \"#utility.yul\":18398:18399   */\n      0x00\n        /* \"#utility.yul\":18391:18479   */\n      mstore\n        /* \"#utility.yul\":18498:18502   */\n      0x31\n        /* \"#utility.yul\":18495:18496   */\n      0x04\n        /* \"#utility.yul\":18488:18503   */\n      mstore\n        /* \"#utility.yul\":18522:18526   */\n      0x24\n        /* \"#utility.yul\":18519:18520   */\n      0x00\n        /* \"#utility.yul\":18512:18527   */\n      revert\n        /* \"#utility.yul\":18539:19934   */\n    tag_149:\n        /* \"#utility.yul\":18656:18693   */\n      tag_395\n        /* \"#utility.yul\":18689:18692   */\n      dup3\n        /* \"#utility.yul\":18656:18693   */\n      tag_167\n      jump\t// in\n    tag_395:\n        /* \"#utility.yul\":18758:18776   */\n      0xffffffffffffffff\n        /* \"#utility.yul\":18750:18756   */\n      dup2\n        /* \"#utility.yul\":18747:18777   */\n      gt\n        /* \"#utility.yul\":18744:18800   */\n      iszero\n      tag_396\n      jumpi\n        /* \"#utility.yul\":18780:18798   */\n      tag_397\n      tag_186\n      jump\t// in\n    tag_397:\n        /* \"#utility.yul\":18744:18800   */\n    tag_396:\n        /* \"#utility.yul\":18824:18862   */\n      tag_398\n        /* \"#utility.yul\":18856:18860   */\n      dup3\n        /* \"#utility.yul\":18850:18861   */\n      sload\n        /* \"#utility.yul\":18824:18862   */\n      tag_34\n      jump\t// in\n    tag_398:\n        /* \"#utility.yul\":18909:18976   */\n      tag_399\n        /* \"#utility.yul\":18969:18975   */\n      dup3\n        /* \"#utility.yul\":18961:18967   */\n      dup3\n        /* \"#utility.yul\":18955:18959   */\n      dup6\n        /* \"#utility.yul\":18909:18976   */\n      tag_209\n      jump\t// in\n    tag_399:\n        /* \"#utility.yul\":19003:19004   */\n      0x00\n        /* \"#utility.yul\":19027:19031   */\n      0x20\n        /* \"#utility.yul\":19014:19031   */\n      swap1\n      pop\n        /* \"#utility.yul\":19059:19061   */\n      0x1f\n        /* \"#utility.yul\":19051:19057   */\n      dup4\n        /* \"#utility.yul\":19048:19062   */\n      gt\n        /* \"#utility.yul\":19076:19077   */\n      0x01\n        /* \"#utility.yul\":19071:19689   */\n      dup2\n      eq\n      tag_401\n      jumpi\n        /* \"#utility.yul\":19733:19734   */\n      0x00\n        /* \"#utility.yul\":19750:19756   */\n      dup5\n        /* \"#utility.yul\":19747:19824   */\n      iszero\n      tag_402\n      jumpi\n        /* \"#utility.yul\":19799:19808   */\n      dup3\n        /* \"#utility.yul\":19794:19797   */\n      dup8\n        /* \"#utility.yul\":19790:19809   */\n      add\n        /* \"#utility.yul\":19784:19810   */\n      mload\n        /* \"#utility.yul\":19775:19810   */\n      swap1\n      pop\n        /* \"#utility.yul\":19747:19824   */\n    tag_402:\n        /* \"#utility.yul\":19850:19917   */\n      tag_403\n        /* \"#utility.yul\":19910:19916   */\n      dup6\n        /* \"#utility.yul\":19903:19908   */\n      dup3\n        /* \"#utility.yul\":19850:19917   */\n      tag_212\n      jump\t// in\n    tag_403:\n        /* \"#utility.yul\":19844:19848   */\n      dup7\n        /* \"#utility.yul\":19837:19918   */\n      sstore\n        /* \"#utility.yul\":19706:19928   */\n      pop\n        /* \"#utility.yul\":19041:19928   */\n      jump(tag_400)\n        /* \"#utility.yul\":19071:19689   */\n    tag_401:\n        /* \"#utility.yul\":19123:19127   */\n      0x1f\n        /* \"#utility.yul\":19119:19128   */\n      not\n        /* \"#utility.yul\":19111:19117   */\n      dup5\n        /* \"#utility.yul\":19107:19129   */\n      and\n        /* \"#utility.yul\":19157:19194   */\n      tag_404\n        /* \"#utility.yul\":19189:19193   */\n      dup7\n        /* \"#utility.yul\":19157:19194   */\n      tag_198\n      jump\t// in\n    tag_404:\n        /* \"#utility.yul\":19216:19217   */\n      0x00\n        /* \"#utility.yul\":19230:19438   */\n    tag_405:\n        /* \"#utility.yul\":19244:19251   */\n      dup3\n        /* \"#utility.yul\":19241:19242   */\n      dup2\n        /* \"#utility.yul\":19238:19252   */\n      lt\n        /* \"#utility.yul\":19230:19438   */\n      iszero\n      tag_407\n      jumpi\n        /* \"#utility.yul\":19323:19332   */\n      dup5\n        /* \"#utility.yul\":19318:19321   */\n      dup10\n        /* \"#utility.yul\":19314:19333   */\n      add\n        /* \"#utility.yul\":19308:19334   */\n      mload\n        /* \"#utility.yul\":19300:19306   */\n      dup3\n        /* \"#utility.yul\":19293:19335   */\n      sstore\n        /* \"#utility.yul\":19374:19375   */\n      0x01\n        /* \"#utility.yul\":19366:19372   */\n      dup3\n        /* \"#utility.yul\":19362:19376   */\n      add\n        /* \"#utility.yul\":19352:19376   */\n      swap2\n      pop\n        /* \"#utility.yul\":19421:19423   */\n      0x20\n        /* \"#utility.yul\":19410:19419   */\n      dup6\n        /* \"#utility.yul\":19406:19424   */\n      add\n        /* \"#utility.yul\":19393:19424   */\n      swap5\n      pop\n        /* \"#utility.yul\":19267:19271   */\n      0x20\n        /* \"#utility.yul\":19264:19265   */\n      dup2\n        /* \"#utility.yul\":19260:19272   */\n      add\n        /* \"#utility.yul\":19255:19272   */\n      swap1\n      pop\n        /* \"#utility.yul\":19230:19438   */\n      jump(tag_405)\n    tag_407:\n        /* \"#utility.yul\":19466:19472   */\n      dup7\n        /* \"#utility.yul\":19457:19464   */\n      dup4\n        /* \"#utility.yul\":19454:19473   */\n      lt\n        /* \"#utility.yul\":19451:19630   */\n      iszero\n      tag_408\n      jumpi\n        /* \"#utility.yul\":19524:19533   */\n      dup5\n        /* \"#utility.yul\":19519:19522   */\n      dup10\n        /* \"#utility.yul\":19515:19534   */\n      add\n        /* \"#utility.yul\":19509:19535   */\n      mload\n        /* \"#utility.yul\":19567:19615   */\n      tag_409\n        /* \"#utility.yul\":19609:19613   */\n      0x1f\n        /* \"#utility.yul\":19601:19607   */\n      dup10\n        /* \"#utility.yul\":19597:19614   */\n      and\n        /* \"#utility.yul\":19586:19595   */\n      dup3\n        /* \"#utility.yul\":19567:19615   */\n      tag_211\n      jump\t// in\n    tag_409:\n        /* \"#utility.yul\":19559:19565   */\n      dup4\n        /* \"#utility.yul\":19552:19616   */\n      sstore\n        /* \"#utility.yul\":19474:19630   */\n      pop\n        /* \"#utility.yul\":19451:19630   */\n    tag_408:\n        /* \"#utility.yul\":19676:19677   */\n      0x01\n        /* \"#utility.yul\":19672:19673   */\n      0x02\n        /* \"#utility.yul\":19664:19670   */\n      dup9\n        /* \"#utility.yul\":19660:19674   */\n      mul\n        /* \"#utility.yul\":19656:19678   */\n      add\n        /* \"#utility.yul\":19650:19654   */\n      dup9\n        /* \"#utility.yul\":19643:19679   */\n      sstore\n        /* \"#utility.yul\":19078:19689   */\n      pop\n      pop\n      pop\n        /* \"#utility.yul\":19041:19928   */\n    tag_400:\n      pop\n        /* \"#utility.yul\":18631:19934   */\n      pop\n      pop\n      pop\n        /* \"#utility.yul\":18539:19934   */\n      pop\n      pop\n      jump\t// out\n        /* \"#utility.yul\":19940:20058   */\n    tag_213:\n        /* \"#utility.yul\":20027:20051   */\n      tag_411\n        /* \"#utility.yul\":20045:20050   */\n      dup2\n        /* \"#utility.yul\":20027:20051   */\n      tag_179\n      jump\t// in\n    tag_411:\n        /* \"#utility.yul\":20022:20025   */\n      dup3\n        /* \"#utility.yul\":20015:20052   */\n      mstore\n        /* \"#utility.yul\":19940:20058   */\n      pop\n      pop\n      jump\t// out\n        /* \"#utility.yul\":20064:20487   */\n    tag_156:\n        /* \"#utility.yul\":20205:20209   */\n      0x00\n        /* \"#utility.yul\":20243:20245   */\n      0x40\n        /* \"#utility.yul\":20232:20241   */\n      dup3\n        /* \"#utility.yul\":20228:20246   */\n      add\n        /* \"#utility.yul\":20220:20246   */\n      swap1\n      pop\n        /* \"#utility.yul\":20256:20327   */\n      tag_413\n        /* \"#utility.yul\":20324:20325   */\n      0x00\n        /* \"#utility.yul\":20313:20322   */\n      dup4\n        /* \"#utility.yul\":20309:20326   */\n      add\n        /* \"#utility.yul\":20300:20306   */\n      dup6\n        /* \"#utility.yul\":20256:20327   */\n      tag_213\n      jump\t// in\n    tag_413:\n        /* \"#utility.yul\":20374:20383   */\n      dup2\n        /* \"#utility.yul\":20368:20372   */\n      dup2\n        /* \"#utility.yul\":20364:20384   */\n      sub\n        /* \"#utility.yul\":20359:20361   */\n      0x20\n        /* \"#utility.yul\":20348:20357   */\n      dup4\n        /* \"#utility.yul\":20344:20362   */\n      add\n        /* \"#utility.yul\":20337:20385   */\n      mstore\n        /* \"#utility.yul\":20402:20480   */\n      tag_414\n        /* \"#utility.yul\":20475:20479   */\n      dup2\n        /* \"#utility.yul\":20466:20472   */\n      dup5\n        /* \"#utility.yul\":20402:20480   */\n      tag_183\n      jump\t// in\n    tag_414:\n        /* \"#utility.yul\":20394:20480   */\n      swap1\n      pop\n        /* \"#utility.yul\":20064:20487   */\n      swap4\n      swap3\n      pop\n      pop\n      pop\n      jump\t// out\n\n    auxdata: 0xa264697066735822122096cbf5c304e33ce8df2f812210a15bdd8c5d94cccc2e793a65a7e38578f17fad64736f6c634300081e0033\n}\n",
				"bytecode": {
					"linkReferences": {},
					"object": "6080604052348015600f57600080fd5b506118b48061001f6000396000f3fe608060405234801561001057600080fd5b50600436106100575760003560e01c8063460120181461005c57806364a96fea1461007a5780637da30b7314610096578063c64a5e0c146100ca578063dcc6408a146100fe575b600080fd5b61006461011a565b6040516100719190610fa1565b60405180910390f35b610094600480360381019061008f919061100d565b610453565b005b6100b060048036038101906100ab919061100d565b6105d9565b6040516100c1959493929190611084565b60405180910390f35b6100e460048036038101906100df919061100d565b6108c7565b6040516100f5959493929190611084565b60405180910390f35b6101186004803603810190610113919061122f565b610c4d565b005b60606000805480602002602001604051908101604052809291908181526020016000905b8282101561044a57838290600052602060002090600502016040518060a001604052908160008201805461017190611365565b80601f016020809104026020016040519081016040528092919081815260200182805461019d90611365565b80156101ea5780601f106101bf576101008083540402835291602001916101ea565b820191906000526020600020905b8154815290600101906020018083116101cd57829003601f168201915b5050505050815260200160018201805461020390611365565b80601f016020809104026020016040519081016040528092919081815260200182805461022f90611365565b801561027c5780601f106102515761010080835404028352916020019161027c565b820191906000526020600020905b81548152906001019060200180831161025f57829003601f168201915b5050505050815260200160028201805461029590611365565b80601f01602080910402602001604051908101604052809291908181526020018280546102c190611365565b801561030e5780601f106102e35761010080835404028352916020019161030e565b820191906000526020600020905b8154815290600101906020018083116102f157829003601f168201915b5050505050815260200160038201805461032790611365565b80601f016020809104026020016040519081016040528092919081815260200182805461035390611365565b80156103a05780601f10610375576101008083540402835291602001916103a0565b820191906000526020600020905b81548152906001019060200180831161038357829003601f168201915b505050505081526020016004820180546103b990611365565b80601f01602080910402602001604051908101604052809291908181526020018280546103e590611365565b80156104325780601f1061040757610100808354040283529160200191610432565b820191906000526020600020905b81548152906001019060200180831161041557829003601f168201915b5050505050815250508152602001906001019061013e565b50505050905090565b600080549050811061049a576040517f08c379a0000000000000000000000000000000000000000000000000000000008152600401610491906113e2565b60405180910390fd5b600060016000805490506104ae9190611431565b815481106104bf576104be611465565b5b9060005260206000209060050201600082815481106104e1576104e0611465565b5b9060005260206000209060050201600082018160000190816105039190611656565b50600182018160010190816105189190611656565b506002820181600201908161052d9190611656565b50600382018160030190816105429190611656565b50600482018160040190816105579190611656565b50905050600080548061056d5761056c61173e565b5b6001900381819060005260206000209060050201600080820160006105929190610d60565b6001820160006105a29190610d60565b6002820160006105b29190610d60565b6003820160006105c29190610d60565b6004820160006105d29190610d60565b5050905550565b600081815481106105e957600080fd5b906000526020600020906005020160009150905080600001805461060c90611365565b80601f016020809104026020016040519081016040528092919081815260200182805461063890611365565b80156106855780601f1061065a57610100808354040283529160200191610685565b820191906000526020600020905b81548152906001019060200180831161066857829003601f168201915b50505050509080600101805461069a90611365565b80601f01602080910402602001604051908101604052809291908181526020018280546106c690611365565b80156107135780601f106106e857610100808354040283529160200191610713565b820191906000526020600020905b8154815290600101906020018083116106f657829003601f168201915b50505050509080600201805461072890611365565b80601f016020809104026020016040519081016040528092919081815260200182805461075490611365565b80156107a15780601f10610776576101008083540402835291602001916107a1565b820191906000526020600020905b81548152906001019060200180831161078457829003601f168201915b5050505050908060030180546107b690611365565b80601f01602080910402602001604051908101604052809291908181526020018280546107e290611365565b801561082f5780601f106108045761010080835404028352916020019161082f565b820191906000526020600020905b81548152906001019060200180831161081257829003601f168201915b50505050509080600401805461084490611365565b80601f016020809104026020016040519081016040528092919081815260200182805461087090611365565b80156108bd5780601f10610892576101008083540402835291602001916108bd565b820191906000526020600020905b8154815290600101906020018083116108a057829003601f168201915b5050505050905085565b60608060608060606000805490508610610916576040517f08c379a000000000000000000000000000000000000000000000000000000000815260040161090d906113e2565b60405180910390fd5b600080878154811061092b5761092a611465565b5b90600052602060002090600502016040518060a001604052908160008201805461095490611365565b80601f016020809104026020016040519081016040528092919081815260200182805461098090611365565b80156109cd5780601f106109a2576101008083540402835291602001916109cd565b820191906000526020600020905b8154815290600101906020018083116109b057829003601f168201915b505050505081526020016001820180546109e690611365565b80601f0160208091040260200160405190810160405280929190818152602001828054610a1290611365565b8015610a5f5780601f10610a3457610100808354040283529160200191610a5f565b820191906000526020600020905b815481529060010190602001808311610a4257829003601f168201915b50505050508152602001600282018054610a7890611365565b80601f0160208091040260200160405190810160405280929190818152602001828054610aa490611365565b8015610af15780601f10610ac657610100808354040283529160200191610af1565b820191906000526020600020905b815481529060010190602001808311610ad457829003601f168201915b50505050508152602001600382018054610b0a90611365565b80601f0160208091040260200160405190810160405280929190818152602001828054610b3690611365565b8015610b835780601f10610b5857610100808354040283529160200191610b83565b820191906000526020600020905b815481529060010190602001808311610b6657829003601f168201915b50505050508152602001600482018054610b9c90611365565b80601f0160208091040260200160405190810160405280929190818152602001828054610bc890611365565b8015610c155780601f10610bea57610100808354040283529160200191610c15565b820191906000526020600020905b815481529060010190602001808311610bf857829003601f168201915b505050505081525050905080600001518160200151826040015183606001518460800151955095509550955095505091939590929450565b60006040518060a001604052808781526020018681526020018581526020018481526020018381525090806001815401808255809150506001900390600052602060002090600502016000909190919091506000820151816000019081610cb4919061176d565b506020820151816001019081610cca919061176d565b506040820151816002019081610ce0919061176d565b506060820151816003019081610cf6919061176d565b506080820151816004019081610d0c919061176d565b5050507f26b242ce039f3c3a2405b1ed562708522ace92186a3b4d899fb64d3f23b22d956001600080549050610d429190611431565b84604051610d5192919061184e565b60405180910390a15050505050565b508054610d6c90611365565b6000825580601f10610d7e5750610d9d565b601f016020900490600052602060002090810190610d9c9190610da0565b5b50565b5b80821115610db9576000816000905550600101610da1565b5090565b600081519050919050565b600082825260208201905092915050565b6000819050602082019050919050565b600081519050919050565b600082825260208201905092915050565b60005b83811015610e23578082015181840152602081019050610e08565b60008484015250505050565b6000601f19601f8301169050919050565b6000610e4b82610de9565b610e558185610df4565b9350610e65818560208601610e05565b610e6e81610e2f565b840191505092915050565b600060a0830160008301518482036000860152610e968282610e40565b91505060208301518482036020860152610eb08282610e40565b91505060408301518482036040860152610eca8282610e40565b91505060608301518482036060860152610ee48282610e40565b91505060808301518482036080860152610efe8282610e40565b9150508091505092915050565b6000610f178383610e79565b905092915050565b6000602082019050919050565b6000610f3782610dbd565b610f418185610dc8565b935083602082028501610f5385610dd9565b8060005b85811015610f8f5784840389528151610f708582610f0b565b9450610f7b83610f1f565b925060208a01995050600181019050610f57565b50829750879550505050505092915050565b60006020820190508181036000830152610fbb8184610f2c565b905092915050565b6000604051905090565b600080fd5b600080fd5b6000819050919050565b610fea81610fd7565b8114610ff557600080fd5b50565b60008135905061100781610fe1565b92915050565b60006020828403121561102357611022610fcd565b5b600061103184828501610ff8565b91505092915050565b600082825260208201905092915050565b600061105682610de9565b611060818561103a565b9350611070818560208601610e05565b61107981610e2f565b840191505092915050565b600060a082019050818103600083015261109e818861104b565b905081810360208301526110b2818761104b565b905081810360408301526110c6818661104b565b905081810360608301526110da818561104b565b905081810360808301526110ee818461104b565b90509695505050505050565b600080fd5b600080fd5b7f4e487b7100000000000000000000000000000000000000000000000000000000600052604160045260246000fd5b61113c82610e2f565b810181811067ffffffffffffffff8211171561115b5761115a611104565b5b80604052505050565b600061116e610fc3565b905061117a8282611133565b919050565b600067ffffffffffffffff82111561119a57611199611104565b5b6111a382610e2f565b9050602081019050919050565b82818337600083830152505050565b60006111d26111cd8461117f565b611164565b9050828152602081018484840111156111ee576111ed6110ff565b5b6111f98482856111b0565b509392505050565b600082601f830112611216576112156110fa565b5b81356112268482602086016111bf565b91505092915050565b600080600080600060a0868803121561124b5761124a610fcd565b5b600086013567ffffffffffffffff81111561126957611268610fd2565b5b61127588828901611201565b955050602086013567ffffffffffffffff81111561129657611295610fd2565b5b6112a288828901611201565b945050604086013567ffffffffffffffff8111156112c3576112c2610fd2565b5b6112cf88828901611201565b935050606086013567ffffffffffffffff8111156112f0576112ef610fd2565b5b6112fc88828901611201565b925050608086013567ffffffffffffffff81111561131d5761131c610fd2565b5b61132988828901611201565b9150509295509295909350565b7f4e487b7100000000000000000000000000000000000000000000000000000000600052602260045260246000fd5b6000600282049050600182168061137d57607f821691505b6020821081036113905761138f611336565b5b50919050565b7fc38d6e6469636520696e76c3a16c69646f000000000000000000000000000000600082015250565b60006113cc60118361103a565b91506113d782611396565b602082019050919050565b600060208201905081810360008301526113fb816113bf565b9050919050565b7f4e487b7100000000000000000000000000000000000000000000000000000000600052601160045260246000fd5b600061143c82610fd7565b915061144783610fd7565b925082820390508181111561145f5761145e611402565b5b92915050565b7f4e487b7100000000000000000000000000000000000000000000000000000000600052603260045260246000fd5b6000815490506114a381611365565b9050919050565b60008190508160005260206000209050919050565b60006020601f8301049050919050565b600082821b905092915050565b60006008830261150c7fffffffffffffffffffffffffffffffffffffffffffffffffffffffffffffffff826114cf565b61151686836114cf565b95508019841693508086168417925050509392505050565b6000819050919050565b600061155361154e61154984610fd7565b61152e565b610fd7565b9050919050565b6000819050919050565b61156d83611538565b6115816115798261155a565b8484546114dc565b825550505050565b600090565b611596611589565b6115a1818484611564565b505050565b5b818110156115c5576115ba60008261158e565b6001810190506115a7565b5050565b601f82111561160a576115db816114aa565b6115e4846114bf565b810160208510156115f3578190505b6116076115ff856114bf565b8301826115a6565b50505b505050565b600082821c905092915050565b600061162d6000198460080261160f565b1980831691505092915050565b6000611646838361161c565b9150826002028217905092915050565b81810361166457505061173c565b61166d82611494565b67ffffffffffffffff81111561168657611685611104565b5b6116908254611365565b61169b8282856115c9565b6000601f8311600181146116ca57600084156116b8578287015490505b6116c2858261163a565b865550611735565b601f1984166116d8876114aa565b96506116e3866114aa565b60005b8281101561170b578489015482556001820191506001850194506020810190506116e6565b868310156117285784890154611724601f89168261161c565b8355505b6001600288020188555050505b5050505050505b565b7f4e487b7100000000000000000000000000000000000000000000000000000000600052603160045260246000fd5b61177682610de9565b67ffffffffffffffff81111561178f5761178e611104565b5b6117998254611365565b6117a48282856115c9565b600060209050601f8311600181146117d757600084156117c5578287015190505b6117cf858261163a565b865550611837565b601f1984166117e5866114aa565b60005b8281101561180d578489015182556001820191506020850194506020810190506117e8565b8683101561182a5784890151611826601f89168261161c565b8355505b6001600288020188555050505b505050505050565b61184881610fd7565b82525050565b6000604082019050611863600083018561183f565b8181036020830152611875818461104b565b9050939250505056fea264697066735822122096cbf5c304e33ce8df2f812210a15bdd8c5d94cccc2e793a65a7e38578f17fad64736f6c634300081e0033",
					"opcodes": "PUSH1 0x80 PUSH1 0x40 MSTORE CALLVALUE DUP1 ISZERO PUSH1 0xF JUMPI PUSH1 0x0 DUP1 REVERT JUMPDEST POP PUSH2 0x18B4 DUP1 PUSH2 0x1F PUSH1 0x0 CODECOPY PUSH1 0x0 RETURN INVALID PUSH1 0x80 PUSH1 0x40 MSTORE CALLVALUE DUP1 ISZERO PUSH2 0x10 JUMPI PUSH1 0x0 DUP1 REVERT JUMPDEST POP PUSH1 0x4 CALLDATASIZE LT PUSH2 0x57 JUMPI PUSH1 0x0 CALLDATALOAD PUSH1 0xE0 SHR DUP1 PUSH4 0x46012018 EQ PUSH2 0x5C JUMPI DUP1 PUSH4 0x64A96FEA EQ PUSH2 0x7A JUMPI DUP1 PUSH4 0x7DA30B73 EQ PUSH2 0x96 JUMPI DUP1 PUSH4 0xC64A5E0C EQ PUSH2 0xCA JUMPI DUP1 PUSH4 0xDCC6408A EQ PUSH2 0xFE JUMPI JUMPDEST PUSH1 0x0 DUP1 REVERT JUMPDEST PUSH2 0x64 PUSH2 0x11A JUMP JUMPDEST PUSH1 0x40 MLOAD PUSH2 0x71 SWAP2 SWAP1 PUSH2 0xFA1 JUMP JUMPDEST PUSH1 0x40 MLOAD DUP1 SWAP2 SUB SWAP1 RETURN JUMPDEST PUSH2 0x94 PUSH1 0x4 DUP1 CALLDATASIZE SUB DUP2 ADD SWAP1 PUSH2 0x8F SWAP2 SWAP1 PUSH2 0x100D JUMP JUMPDEST PUSH2 0x453 JUMP JUMPDEST STOP JUMPDEST PUSH2 0xB0 PUSH1 0x4 DUP1 CALLDATASIZE SUB DUP2 ADD SWAP1 PUSH2 0xAB SWAP2 SWAP1 PUSH2 0x100D JUMP JUMPDEST PUSH2 0x5D9 JUMP JUMPDEST PUSH1 0x40 MLOAD PUSH2 0xC1 SWAP6 SWAP5 SWAP4 SWAP3 SWAP2 SWAP1 PUSH2 0x1084 JUMP JUMPDEST PUSH1 0x40 MLOAD DUP1 SWAP2 SUB SWAP1 RETURN JUMPDEST PUSH2 0xE4 PUSH1 0x4 DUP1 CALLDATASIZE SUB DUP2 ADD SWAP1 PUSH2 0xDF SWAP2 SWAP1 PUSH2 0x100D JUMP JUMPDEST PUSH2 0x8C7 JUMP JUMPDEST PUSH1 0x40 MLOAD PUSH2 0xF5 SWAP6 SWAP5 SWAP4 SWAP3 SWAP2 SWAP1 PUSH2 0x1084 JUMP JUMPDEST PUSH1 0x40 MLOAD DUP1 SWAP2 SUB SWAP1 RETURN JUMPDEST PUSH2 0x118 PUSH1 0x4 DUP1 CALLDATASIZE SUB DUP2 ADD SWAP1 PUSH2 0x113 SWAP2 SWAP1 PUSH2 0x122F JUMP JUMPDEST PUSH2 0xC4D JUMP JUMPDEST STOP JUMPDEST PUSH1 0x60 PUSH1 0x0 DUP1 SLOAD DUP1 PUSH1 0x20 MUL PUSH1 0x20 ADD PUSH1 0x40 MLOAD SWAP1 DUP2 ADD PUSH1 0x40 MSTORE DUP1 SWAP3 SWAP2 SWAP1 DUP2 DUP2 MSTORE PUSH1 0x20 ADD PUSH1 0x0 SWAP1 JUMPDEST DUP3 DUP3 LT ISZERO PUSH2 0x44A JUMPI DUP4 DUP3 SWAP1 PUSH1 0x0 MSTORE PUSH1 0x20 PUSH1 0x0 KECCAK256 SWAP1 PUSH1 0x5 MUL ADD PUSH1 0x40 MLOAD DUP1 PUSH1 0xA0 ADD PUSH1 0x40 MSTORE SWAP1 DUP2 PUSH1 0x0 DUP3 ADD DUP1 SLOAD PUSH2 0x171 SWAP1 PUSH2 0x1365 JUMP JUMPDEST DUP1 PUSH1 0x1F ADD PUSH1 0x20 DUP1 SWAP2 DIV MUL PUSH1 0x20 ADD PUSH1 0x40 MLOAD SWAP1 DUP2 ADD PUSH1 0x40 MSTORE DUP1 SWAP3 SWAP2 SWAP1 DUP2 DUP2 MSTORE PUSH1 0x20 ADD DUP3 DUP1 SLOAD PUSH2 0x19D SWAP1 PUSH2 0x1365 JUMP JUMPDEST DUP1 ISZERO PUSH2 0x1EA JUMPI DUP1 PUSH1 0x1F LT PUSH2 0x1BF JUMPI PUSH2 0x100 DUP1 DUP4 SLOAD DIV MUL DUP4 MSTORE SWAP2 PUSH1 0x20 ADD SWAP2 PUSH2 0x1EA JUMP JUMPDEST DUP3 ADD SWAP2 SWAP1 PUSH1 0x0 MSTORE PUSH1 0x20 PUSH1 0x0 KECCAK256 SWAP1 JUMPDEST DUP2 SLOAD DUP2 MSTORE SWAP1 PUSH1 0x1 ADD SWAP1 PUSH1 0x20 ADD DUP1 DUP4 GT PUSH2 0x1CD JUMPI DUP3 SWAP1 SUB PUSH1 0x1F AND DUP3 ADD SWAP2 JUMPDEST POP POP POP POP POP DUP2 MSTORE PUSH1 0x20 ADD PUSH1 0x1 DUP3 ADD DUP1 SLOAD PUSH2 0x203 SWAP1 PUSH2 0x1365 JUMP JUMPDEST DUP1 PUSH1 0x1F ADD PUSH1 0x20 DUP1 SWAP2 DIV MUL PUSH1 0x20 ADD PUSH1 0x40 MLOAD SWAP1 DUP2 ADD PUSH1 0x40 MSTORE DUP1 SWAP3 SWAP2 SWAP1 DUP2 DUP2 MSTORE PUSH1 0x20 ADD DUP3 DUP1 SLOAD PUSH2 0x22F SWAP1 PUSH2 0x1365 JUMP JUMPDEST DUP1 ISZERO PUSH2 0x27C JUMPI DUP1 PUSH1 0x1F LT PUSH2 0x251 JUMPI PUSH2 0x100 DUP1 DUP4 SLOAD DIV MUL DUP4 MSTORE SWAP2 PUSH1 0x20 ADD SWAP2 PUSH2 0x27C JUMP JUMPDEST DUP3 ADD SWAP2 SWAP1 PUSH1 0x0 MSTORE PUSH1 0x20 PUSH1 0x0 KECCAK256 SWAP1 JUMPDEST DUP2 SLOAD DUP2 MSTORE SWAP1 PUSH1 0x1 ADD SWAP1 PUSH1 0x20 ADD DUP1 DUP4 GT PUSH2 0x25F JUMPI DUP3 SWAP1 SUB PUSH1 0x1F AND DUP3 ADD SWAP2 JUMPDEST POP POP POP POP POP DUP2 MSTORE PUSH1 0x20 ADD PUSH1 0x2 DUP3 ADD DUP1 SLOAD PUSH2 0x295 SWAP1 PUSH2 0x1365 JUMP JUMPDEST DUP1 PUSH1 0x1F ADD PUSH1 0x20 DUP1 SWAP2 DIV MUL PUSH1 0x20 ADD PUSH1 0x40 MLOAD SWAP1 DUP2 ADD PUSH1 0x40 MSTORE DUP1 SWAP3 SWAP2 SWAP1 DUP2 DUP2 MSTORE PUSH1 0x20 ADD DUP3 DUP1 SLOAD PUSH2 0x2C1 SWAP1 PUSH2 0x1365 JUMP JUMPDEST DUP1 ISZERO PUSH2 0x30E JUMPI DUP1 PUSH1 0x1F LT PUSH2 0x2E3 JUMPI PUSH2 0x100 DUP1 DUP4 SLOAD DIV MUL DUP4 MSTORE SWAP2 PUSH1 0x20 ADD SWAP2 PUSH2 0x30E JUMP JUMPDEST DUP3 ADD SWAP2 SWAP1 PUSH1 0x0 MSTORE PUSH1 0x20 PUSH1 0x0 KECCAK256 SWAP1 JUMPDEST DUP2 SLOAD DUP2 MSTORE SWAP1 PUSH1 0x1 ADD SWAP1 PUSH1 0x20 ADD DUP1 DUP4 GT PUSH2 0x2F1 JUMPI DUP3 SWAP1 SUB PUSH1 0x1F AND DUP3 ADD SWAP2 JUMPDEST POP POP POP POP POP DUP2 MSTORE PUSH1 0x20 ADD PUSH1 0x3 DUP3 ADD DUP1 SLOAD PUSH2 0x327 SWAP1 PUSH2 0x1365 JUMP JUMPDEST DUP1 PUSH1 0x1F ADD PUSH1 0x20 DUP1 SWAP2 DIV MUL PUSH1 0x20 ADD PUSH1 0x40 MLOAD SWAP1 DUP2 ADD PUSH1 0x40 MSTORE DUP1 SWAP3 SWAP2 SWAP1 DUP2 DUP2 MSTORE PUSH1 0x20 ADD DUP3 DUP1 SLOAD PUSH2 0x353 SWAP1 PUSH2 0x1365 JUMP JUMPDEST DUP1 ISZERO PUSH2 0x3A0 JUMPI DUP1 PUSH1 0x1F LT PUSH2 0x375 JUMPI PUSH2 0x100 DUP1 DUP4 SLOAD DIV MUL DUP4 MSTORE SWAP2 PUSH1 0x20 ADD SWAP2 PUSH2 0x3A0 JUMP JUMPDEST DUP3 ADD SWAP2 SWAP1 PUSH1 0x0 MSTORE PUSH1 0x20 PUSH1 0x0 KECCAK256 SWAP1 JUMPDEST DUP2 SLOAD DUP2 MSTORE SWAP1 PUSH1 0x1 ADD SWAP1 PUSH1 0x20 ADD DUP1 DUP4 GT PUSH2 0x383 JUMPI DUP3 SWAP1 SUB PUSH1 0x1F AND DUP3 ADD SWAP2 JUMPDEST POP POP POP POP POP DUP2 MSTORE PUSH1 0x20 ADD PUSH1 0x4 DUP3 ADD DUP1 SLOAD PUSH2 0x3B9 SWAP1 PUSH2 0x1365 JUMP JUMPDEST DUP1 PUSH1 0x1F ADD PUSH1 0x20 DUP1 SWAP2 DIV MUL PUSH1 0x20 ADD PUSH1 0x40 MLOAD SWAP1 DUP2 ADD PUSH1 0x40 MSTORE DUP1 SWAP3 SWAP2 SWAP1 DUP2 DUP2 MSTORE PUSH1 0x20 ADD DUP3 DUP1 SLOAD PUSH2 0x3E5 SWAP1 PUSH2 0x1365 JUMP JUMPDEST DUP1 ISZERO PUSH2 0x432 JUMPI DUP1 PUSH1 0x1F LT PUSH2 0x407 JUMPI PUSH2 0x100 DUP1 DUP4 SLOAD DIV MUL DUP4 MSTORE SWAP2 PUSH1 0x20 ADD SWAP2 PUSH2 0x432 JUMP JUMPDEST DUP3 ADD SWAP2 SWAP1 PUSH1 0x0 MSTORE PUSH1 0x20 PUSH1 0x0 KECCAK256 SWAP1 JUMPDEST DUP2 SLOAD DUP2 MSTORE SWAP1 PUSH1 0x1 ADD SWAP1 PUSH1 0x20 ADD DUP1 DUP4 GT PUSH2 0x415 JUMPI DUP3 SWAP1 SUB PUSH1 0x1F AND DUP3 ADD SWAP2 JUMPDEST POP POP POP POP POP DUP2 MSTORE POP POP DUP2 MSTORE PUSH1 0x20 ADD SWAP1 PUSH1 0x1 ADD SWAP1 PUSH2 0x13E JUMP JUMPDEST POP POP POP POP SWAP1 POP SWAP1 JUMP JUMPDEST PUSH1 0x0 DUP1 SLOAD SWAP1 POP DUP2 LT PUSH2 0x49A JUMPI PUSH1 0x40 MLOAD PUSH32 0x8C379A000000000000000000000000000000000000000000000000000000000 DUP2 MSTORE PUSH1 0x4 ADD PUSH2 0x491 SWAP1 PUSH2 0x13E2 JUMP JUMPDEST PUSH1 0x40 MLOAD DUP1 SWAP2 SUB SWAP1 REVERT JUMPDEST PUSH1 0x0 PUSH1 0x1 PUSH1 0x0 DUP1 SLOAD SWAP1 POP PUSH2 0x4AE SWAP2 SWAP1 PUSH2 0x1431 JUMP JUMPDEST DUP2 SLOAD DUP2 LT PUSH2 0x4BF JUMPI PUSH2 0x4BE PUSH2 0x1465 JUMP JUMPDEST JUMPDEST SWAP1 PUSH1 0x0 MSTORE PUSH1 0x20 PUSH1 0x0 KECCAK256 SWAP1 PUSH1 0x5 MUL ADD PUSH1 0x0 DUP3 DUP2 SLOAD DUP2 LT PUSH2 0x4E1 JUMPI PUSH2 0x4E0 PUSH2 0x1465 JUMP JUMPDEST JUMPDEST SWAP1 PUSH1 0x0 MSTORE PUSH1 0x20 PUSH1 0x0 KECCAK256 SWAP1 PUSH1 0x5 MUL ADD PUSH1 0x0 DUP3 ADD DUP2 PUSH1 0x0 ADD SWAP1 DUP2 PUSH2 0x503 SWAP2 SWAP1 PUSH2 0x1656 JUMP JUMPDEST POP PUSH1 0x1 DUP3 ADD DUP2 PUSH1 0x1 ADD SWAP1 DUP2 PUSH2 0x518 SWAP2 SWAP1 PUSH2 0x1656 JUMP JUMPDEST POP PUSH1 0x2 DUP3 ADD DUP2 PUSH1 0x2 ADD SWAP1 DUP2 PUSH2 0x52D SWAP2 SWAP1 PUSH2 0x1656 JUMP JUMPDEST POP PUSH1 0x3 DUP3 ADD DUP2 PUSH1 0x3 ADD SWAP1 DUP2 PUSH2 0x542 SWAP2 SWAP1 PUSH2 0x1656 JUMP JUMPDEST POP PUSH1 0x4 DUP3 ADD DUP2 PUSH1 0x4 ADD SWAP1 DUP2 PUSH2 0x557 SWAP2 SWAP1 PUSH2 0x1656 JUMP JUMPDEST POP SWAP1 POP POP PUSH1 0x0 DUP1 SLOAD DUP1 PUSH2 0x56D JUMPI PUSH2 0x56C PUSH2 0x173E JUMP JUMPDEST JUMPDEST PUSH1 0x1 SWAP1 SUB DUP2 DUP2 SWAP1 PUSH1 0x0 MSTORE PUSH1 0x20 PUSH1 0x0 KECCAK256 SWAP1 PUSH1 0x5 MUL ADD PUSH1 0x0 DUP1 DUP3 ADD PUSH1 0x0 PUSH2 0x592 SWAP2 SWAP1 PUSH2 0xD60 JUMP JUMPDEST PUSH1 0x1 DUP3 ADD PUSH1 0x0 PUSH2 0x5A2 SWAP2 SWAP1 PUSH2 0xD60 JUMP JUMPDEST PUSH1 0x2 DUP3 ADD PUSH1 0x0 PUSH2 0x5B2 SWAP2 SWAP1 PUSH2 0xD60 JUMP JUMPDEST PUSH1 0x3 DUP3 ADD PUSH1 0x0 PUSH2 0x5C2 SWAP2 SWAP1 PUSH2 0xD60 JUMP JUMPDEST PUSH1 0x4 DUP3 ADD PUSH1 0x0 PUSH2 0x5D2 SWAP2 SWAP1 PUSH2 0xD60 JUMP JUMPDEST POP POP SWAP1 SSTORE POP JUMP JUMPDEST PUSH1 0x0 DUP2 DUP2 SLOAD DUP2 LT PUSH2 0x5E9 JUMPI PUSH1 0x0 DUP1 REVERT JUMPDEST SWAP1 PUSH1 0x0 MSTORE PUSH1 0x20 PUSH1 0x0 KECCAK256 SWAP1 PUSH1 0x5 MUL ADD PUSH1 0x0 SWAP2 POP SWAP1 POP DUP1 PUSH1 0x0 ADD DUP1 SLOAD PUSH2 0x60C SWAP1 PUSH2 0x1365 JUMP JUMPDEST DUP1 PUSH1 0x1F ADD PUSH1 0x20 DUP1 SWAP2 DIV MUL PUSH1 0x20 ADD PUSH1 0x40 MLOAD SWAP1 DUP2 ADD PUSH1 0x40 MSTORE DUP1 SWAP3 SWAP2 SWAP1 DUP2 DUP2 MSTORE PUSH1 0x20 ADD DUP3 DUP1 SLOAD PUSH2 0x638 SWAP1 PUSH2 0x1365 JUMP JUMPDEST DUP1 ISZERO PUSH2 0x685 JUMPI DUP1 PUSH1 0x1F LT PUSH2 0x65A JUMPI PUSH2 0x100 DUP1 DUP4 SLOAD DIV MUL DUP4 MSTORE SWAP2 PUSH1 0x20 ADD SWAP2 PUSH2 0x685 JUMP JUMPDEST DUP3 ADD SWAP2 SWAP1 PUSH1 0x0 MSTORE PUSH1 0x20 PUSH1 0x0 KECCAK256 SWAP1 JUMPDEST DUP2 SLOAD DUP2 MSTORE SWAP1 PUSH1 0x1 ADD SWAP1 PUSH1 0x20 ADD DUP1 DUP4 GT PUSH2 0x668 JUMPI DUP3 SWAP1 SUB PUSH1 0x1F AND DUP3 ADD SWAP2 JUMPDEST POP POP POP POP POP SWAP1 DUP1 PUSH1 0x1 ADD DUP1 SLOAD PUSH2 0x69A SWAP1 PUSH2 0x1365 JUMP JUMPDEST DUP1 PUSH1 0x1F ADD PUSH1 0x20 DUP1 SWAP2 DIV MUL PUSH1 0x20 ADD PUSH1 0x40 MLOAD SWAP1 DUP2 ADD PUSH1 0x40 MSTORE DUP1 SWAP3 SWAP2 SWAP1 DUP2 DUP2 MSTORE PUSH1 0x20 ADD DUP3 DUP1 SLOAD PUSH2 0x6C6 SWAP1 PUSH2 0x1365 JUMP JUMPDEST DUP1 ISZERO PUSH2 0x713 JUMPI DUP1 PUSH1 0x1F LT PUSH2 0x6E8 JUMPI PUSH2 0x100 DUP1 DUP4 SLOAD DIV MUL DUP4 MSTORE SWAP2 PUSH1 0x20 ADD SWAP2 PUSH2 0x713 JUMP JUMPDEST DUP3 ADD SWAP2 SWAP1 PUSH1 0x0 MSTORE PUSH1 0x20 PUSH1 0x0 KECCAK256 SWAP1 JUMPDEST DUP2 SLOAD DUP2 MSTORE SWAP1 PUSH1 0x1 ADD SWAP1 PUSH1 0x20 ADD DUP1 DUP4 GT PUSH2 0x6F6 JUMPI DUP3 SWAP1 SUB PUSH1 0x1F AND DUP3 ADD SWAP2 JUMPDEST POP POP POP POP POP SWAP1 DUP1 PUSH1 0x2 ADD DUP1 SLOAD PUSH2 0x728 SWAP1 PUSH2 0x1365 JUMP JUMPDEST DUP1 PUSH1 0x1F ADD PUSH1 0x20 DUP1 SWAP2 DIV MUL PUSH1 0x20 ADD PUSH1 0x40 MLOAD SWAP1 DUP2 ADD PUSH1 0x40 MSTORE DUP1 SWAP3 SWAP2 SWAP1 DUP2 DUP2 MSTORE PUSH1 0x20 ADD DUP3 DUP1 SLOAD PUSH2 0x754 SWAP1 PUSH2 0x1365 JUMP JUMPDEST DUP1 ISZERO PUSH2 0x7A1 JUMPI DUP1 PUSH1 0x1F LT PUSH2 0x776 JUMPI PUSH2 0x100 DUP1 DUP4 SLOAD DIV MUL DUP4 MSTORE SWAP2 PUSH1 0x20 ADD SWAP2 PUSH2 0x7A1 JUMP JUMPDEST DUP3 ADD SWAP2 SWAP1 PUSH1 0x0 MSTORE PUSH1 0x20 PUSH1 0x0 KECCAK256 SWAP1 JUMPDEST DUP2 SLOAD DUP2 MSTORE SWAP1 PUSH1 0x1 ADD SWAP1 PUSH1 0x20 ADD DUP1 DUP4 GT PUSH2 0x784 JUMPI DUP3 SWAP1 SUB PUSH1 0x1F AND DUP3 ADD SWAP2 JUMPDEST POP POP POP POP POP SWAP1 DUP1 PUSH1 0x3 ADD DUP1 SLOAD PUSH2 0x7B6 SWAP1 PUSH2 0x1365 JUMP JUMPDEST DUP1 PUSH1 0x1F ADD PUSH1 0x20 DUP1 SWAP2 DIV MUL PUSH1 0x20 ADD PUSH1 0x40 MLOAD SWAP1 DUP2 ADD PUSH1 0x40 MSTORE DUP1 SWAP3 SWAP2 SWAP1 DUP2 DUP2 MSTORE PUSH1 0x20 ADD DUP3 DUP1 SLOAD PUSH2 0x7E2 SWAP1 PUSH2 0x1365 JUMP JUMPDEST DUP1 ISZERO PUSH2 0x82F JUMPI DUP1 PUSH1 0x1F LT PUSH2 0x804 JUMPI PUSH2 0x100 DUP1 DUP4 SLOAD DIV MUL DUP4 MSTORE SWAP2 PUSH1 0x20 ADD SWAP2 PUSH2 0x82F JUMP JUMPDEST DUP3 ADD SWAP2 SWAP1 PUSH1 0x0 MSTORE PUSH1 0x20 PUSH1 0x0 KECCAK256 SWAP1 JUMPDEST DUP2 SLOAD DUP2 MSTORE SWAP1 PUSH1 0x1 ADD SWAP1 PUSH1 0x20 ADD DUP1 DUP4 GT PUSH2 0x812 JUMPI DUP3 SWAP1 SUB PUSH1 0x1F AND DUP3 ADD SWAP2 JUMPDEST POP POP POP POP POP SWAP1 DUP1 PUSH1 0x4 ADD DUP1 SLOAD PUSH2 0x844 SWAP1 PUSH2 0x1365 JUMP JUMPDEST DUP1 PUSH1 0x1F ADD PUSH1 0x20 DUP1 SWAP2 DIV MUL PUSH1 0x20 ADD PUSH1 0x40 MLOAD SWAP1 DUP2 ADD PUSH1 0x40 MSTORE DUP1 SWAP3 SWAP2 SWAP1 DUP2 DUP2 MSTORE PUSH1 0x20 ADD DUP3 DUP1 SLOAD PUSH2 0x870 SWAP1 PUSH2 0x1365 JUMP JUMPDEST DUP1 ISZERO PUSH2 0x8BD JUMPI DUP1 PUSH1 0x1F LT PUSH2 0x892 JUMPI PUSH2 0x100 DUP1 DUP4 SLOAD DIV MUL DUP4 MSTORE SWAP2 PUSH1 0x20 ADD SWAP2 PUSH2 0x8BD JUMP JUMPDEST DUP3 ADD SWAP2 SWAP1 PUSH1 0x0 MSTORE PUSH1 0x20 PUSH1 0x0 KECCAK256 SWAP1 JUMPDEST DUP2 SLOAD DUP2 MSTORE SWAP1 PUSH1 0x1 ADD SWAP1 PUSH1 0x20 ADD DUP1 DUP4 GT PUSH2 0x8A0 JUMPI DUP3 SWAP1 SUB PUSH1 0x1F AND DUP3 ADD SWAP2 JUMPDEST POP POP POP POP POP SWAP1 POP DUP6 JUMP JUMPDEST PUSH1 0x60 DUP1 PUSH1 0x60 DUP1 PUSH1 0x60 PUSH1 0x0 DUP1 SLOAD SWAP1 POP DUP7 LT PUSH2 0x916 JUMPI PUSH1 0x40 MLOAD PUSH32 0x8C379A000000000000000000000000000000000000000000000000000000000 DUP2 MSTORE PUSH1 0x4 ADD PUSH2 0x90D SWAP1 PUSH2 0x13E2 JUMP JUMPDEST PUSH1 0x40 MLOAD DUP1 SWAP2 SUB SWAP1 REVERT JUMPDEST PUSH1 0x0 DUP1 DUP8 DUP2 SLOAD DUP2 LT PUSH2 0x92B JUMPI PUSH2 0x92A PUSH2 0x1465 JUMP JUMPDEST JUMPDEST SWAP1 PUSH1 0x0 MSTORE PUSH1 0x20 PUSH1 0x0 KECCAK256 SWAP1 PUSH1 0x5 MUL ADD PUSH1 0x40 MLOAD DUP1 PUSH1 0xA0 ADD PUSH1 0x40 MSTORE SWAP1 DUP2 PUSH1 0x0 DUP3 ADD DUP1 SLOAD PUSH2 0x954 SWAP1 PUSH2 0x1365 JUMP JUMPDEST DUP1 PUSH1 0x1F ADD PUSH1 0x20 DUP1 SWAP2 DIV MUL PUSH1 0x20 ADD PUSH1 0x40 MLOAD SWAP1 DUP2 ADD PUSH1 0x40 MSTORE DUP1 SWAP3 SWAP2 SWAP1 DUP2 DUP2 MSTORE PUSH1 0x20 ADD DUP3 DUP1 SLOAD PUSH2 0x980 SWAP1 PUSH2 0x1365 JUMP JUMPDEST DUP1 ISZERO PUSH2 0x9CD JUMPI DUP1 PUSH1 0x1F LT PUSH2 0x9A2 JUMPI PUSH2 0x100 DUP1 DUP4 SLOAD DIV MUL DUP4 MSTORE SWAP2 PUSH1 0x20 ADD SWAP2 PUSH2 0x9CD JUMP JUMPDEST DUP3 ADD SWAP2 SWAP1 PUSH1 0x0 MSTORE PUSH1 0x20 PUSH1 0x0 KECCAK256 SWAP1 JUMPDEST DUP2 SLOAD DUP2 MSTORE SWAP1 PUSH1 0x1 ADD SWAP1 PUSH1 0x20 ADD DUP1 DUP4 GT PUSH2 0x9B0 JUMPI DUP3 SWAP1 SUB PUSH1 0x1F AND DUP3 ADD SWAP2 JUMPDEST POP POP POP POP POP DUP2 MSTORE PUSH1 0x20 ADD PUSH1 0x1 DUP3 ADD DUP1 SLOAD PUSH2 0x9E6 SWAP1 PUSH2 0x1365 JUMP JUMPDEST DUP1 PUSH1 0x1F ADD PUSH1 0x20 DUP1 SWAP2 DIV MUL PUSH1 0x20 ADD PUSH1 0x40 MLOAD SWAP1 DUP2 ADD PUSH1 0x40 MSTORE DUP1 SWAP3 SWAP2 SWAP1 DUP2 DUP2 MSTORE PUSH1 0x20 ADD DUP3 DUP1 SLOAD PUSH2 0xA12 SWAP1 PUSH2 0x1365 JUMP JUMPDEST DUP1 ISZERO PUSH2 0xA5F JUMPI DUP1 PUSH1 0x1F LT PUSH2 0xA34 JUMPI PUSH2 0x100 DUP1 DUP4 SLOAD DIV MUL DUP4 MSTORE SWAP2 PUSH1 0x20 ADD SWAP2 PUSH2 0xA5F JUMP JUMPDEST DUP3 ADD SWAP2 SWAP1 PUSH1 0x0 MSTORE PUSH1 0x20 PUSH1 0x0 KECCAK256 SWAP1 JUMPDEST DUP2 SLOAD DUP2 MSTORE SWAP1 PUSH1 0x1 ADD SWAP1 PUSH1 0x20 ADD DUP1 DUP4 GT PUSH2 0xA42 JUMPI DUP3 SWAP1 SUB PUSH1 0x1F AND DUP3 ADD SWAP2 JUMPDEST POP POP POP POP POP DUP2 MSTORE PUSH1 0x20 ADD PUSH1 0x2 DUP3 ADD DUP1 SLOAD PUSH2 0xA78 SWAP1 PUSH2 0x1365 JUMP JUMPDEST DUP1 PUSH1 0x1F ADD PUSH1 0x20 DUP1 SWAP2 DIV MUL PUSH1 0x20 ADD PUSH1 0x40 MLOAD SWAP1 DUP2 ADD PUSH1 0x40 MSTORE DUP1 SWAP3 SWAP2 SWAP1 DUP2 DUP2 MSTORE PUSH1 0x20 ADD DUP3 DUP1 SLOAD PUSH2 0xAA4 SWAP1 PUSH2 0x1365 JUMP JUMPDEST DUP1 ISZERO PUSH2 0xAF1 JUMPI DUP1 PUSH1 0x1F LT PUSH2 0xAC6 JUMPI PUSH2 0x100 DUP1 DUP4 SLOAD DIV MUL DUP4 MSTORE SWAP2 PUSH1 0x20 ADD SWAP2 PUSH2 0xAF1 JUMP JUMPDEST DUP3 ADD SWAP2 SWAP1 PUSH1 0x0 MSTORE PUSH1 0x20 PUSH1 0x0 KECCAK256 SWAP1 JUMPDEST DUP2 SLOAD DUP2 MSTORE SWAP1 PUSH1 0x1 ADD SWAP1 PUSH1 0x20 ADD DUP1 DUP4 GT PUSH2 0xAD4 JUMPI DUP3 SWAP1 SUB PUSH1 0x1F AND DUP3 ADD SWAP2 JUMPDEST POP POP POP POP POP DUP2 MSTORE PUSH1 0x20 ADD PUSH1 0x3 DUP3 ADD DUP1 SLOAD PUSH2 0xB0A SWAP1 PUSH2 0x1365 JUMP JUMPDEST DUP1 PUSH1 0x1F ADD PUSH1 0x20 DUP1 SWAP2 DIV MUL PUSH1 0x20 ADD PUSH1 0x40 MLOAD SWAP1 DUP2 ADD PUSH1 0x40 MSTORE DUP1 SWAP3 SWAP2 SWAP1 DUP2 DUP2 MSTORE PUSH1 0x20 ADD DUP3 DUP1 SLOAD PUSH2 0xB36 SWAP1 PUSH2 0x1365 JUMP JUMPDEST DUP1 ISZERO PUSH2 0xB83 JUMPI DUP1 PUSH1 0x1F LT PUSH2 0xB58 JUMPI PUSH2 0x100 DUP1 DUP4 SLOAD DIV MUL DUP4 MSTORE SWAP2 PUSH1 0x20 ADD SWAP2 PUSH2 0xB83 JUMP JUMPDEST DUP3 ADD SWAP2 SWAP1 PUSH1 0x0 MSTORE PUSH1 0x20 PUSH1 0x0 KECCAK256 SWAP1 JUMPDEST DUP2 SLOAD DUP2 MSTORE SWAP1 PUSH1 0x1 ADD SWAP1 PUSH1 0x20 ADD DUP1 DUP4 GT PUSH2 0xB66 JUMPI DUP3 SWAP1 SUB PUSH1 0x1F AND DUP3 ADD SWAP2 JUMPDEST POP POP POP POP POP DUP2 MSTORE PUSH1 0x20 ADD PUSH1 0x4 DUP3 ADD DUP1 SLOAD PUSH2 0xB9C SWAP1 PUSH2 0x1365 JUMP JUMPDEST DUP1 PUSH1 0x1F ADD PUSH1 0x20 DUP1 SWAP2 DIV MUL PUSH1 0x20 ADD PUSH1 0x40 MLOAD SWAP1 DUP2 ADD PUSH1 0x40 MSTORE DUP1 SWAP3 SWAP2 SWAP1 DUP2 DUP2 MSTORE PUSH1 0x20 ADD DUP3 DUP1 SLOAD PUSH2 0xBC8 SWAP1 PUSH2 0x1365 JUMP JUMPDEST DUP1 ISZERO PUSH2 0xC15 JUMPI DUP1 PUSH1 0x1F LT PUSH2 0xBEA JUMPI PUSH2 0x100 DUP1 DUP4 SLOAD DIV MUL DUP4 MSTORE SWAP2 PUSH1 0x20 ADD SWAP2 PUSH2 0xC15 JUMP JUMPDEST DUP3 ADD SWAP2 SWAP1 PUSH1 0x0 MSTORE PUSH1 0x20 PUSH1 0x0 KECCAK256 SWAP1 JUMPDEST DUP2 SLOAD DUP2 MSTORE SWAP1 PUSH1 0x1 ADD SWAP1 PUSH1 0x20 ADD DUP1 DUP4 GT PUSH2 0xBF8 JUMPI DUP3 SWAP1 SUB PUSH1 0x1F AND DUP3 ADD SWAP2 JUMPDEST POP POP POP POP POP DUP2 MSTORE POP POP SWAP1 POP DUP1 PUSH1 0x0 ADD MLOAD DUP2 PUSH1 0x20 ADD MLOAD DUP3 PUSH1 0x40 ADD MLOAD DUP4 PUSH1 0x60 ADD MLOAD DUP5 PUSH1 0x80 ADD MLOAD SWAP6 POP SWAP6 POP SWAP6 POP SWAP6 POP SWAP6 POP POP SWAP2 SWAP4 SWAP6 SWAP1 SWAP3 SWAP5 POP JUMP JUMPDEST PUSH1 0x0 PUSH1 0x40 MLOAD DUP1 PUSH1 0xA0 ADD PUSH1 0x40 MSTORE DUP1 DUP8 DUP2 MSTORE PUSH1 0x20 ADD DUP7 DUP2 MSTORE PUSH1 0x20 ADD DUP6 DUP2 MSTORE PUSH1 0x20 ADD DUP5 DUP2 MSTORE PUSH1 0x20 ADD DUP4 DUP2 MSTORE POP SWAP1 DUP1 PUSH1 0x1 DUP2 SLOAD ADD DUP1 DUP3 SSTORE DUP1 SWAP2 POP POP PUSH1 0x1 SWAP1 SUB SWAP1 PUSH1 0x0 MSTORE PUSH1 0x20 PUSH1 0x0 KECCAK256 SWAP1 PUSH1 0x5 MUL ADD PUSH1 0x0 SWAP1 SWAP2 SWAP1 SWAP2 SWAP1 SWAP2 POP PUSH1 0x0 DUP3 ADD MLOAD DUP2 PUSH1 0x0 ADD SWAP1 DUP2 PUSH2 0xCB4 SWAP2 SWAP1 PUSH2 0x176D JUMP JUMPDEST POP PUSH1 0x20 DUP3 ADD MLOAD DUP2 PUSH1 0x1 ADD SWAP1 DUP2 PUSH2 0xCCA SWAP2 SWAP1 PUSH2 0x176D JUMP JUMPDEST POP PUSH1 0x40 DUP3 ADD MLOAD DUP2 PUSH1 0x2 ADD SWAP1 DUP2 PUSH2 0xCE0 SWAP2 SWAP1 PUSH2 0x176D JUMP JUMPDEST POP PUSH1 0x60 DUP3 ADD MLOAD DUP2 PUSH1 0x3 ADD SWAP1 DUP2 PUSH2 0xCF6 SWAP2 SWAP1 PUSH2 0x176D JUMP JUMPDEST POP PUSH1 0x80 DUP3 ADD MLOAD DUP2 PUSH1 0x4 ADD SWAP1 DUP2 PUSH2 0xD0C SWAP2 SWAP1 PUSH2 0x176D JUMP JUMPDEST POP POP POP PUSH32 0x26B242CE039F3C3A2405B1ED562708522ACE92186A3B4D899FB64D3F23B22D95 PUSH1 0x1 PUSH1 0x0 DUP1 SLOAD SWAP1 POP PUSH2 0xD42 SWAP2 SWAP1 PUSH2 0x1431 JUMP JUMPDEST DUP5 PUSH1 0x40 MLOAD PUSH2 0xD51 SWAP3 SWAP2 SWAP1 PUSH2 0x184E JUMP JUMPDEST PUSH1 0x40 MLOAD DUP1 SWAP2 SUB SWAP1 LOG1 POP POP POP POP POP JUMP JUMPDEST POP DUP1 SLOAD PUSH2 0xD6C SWAP1 PUSH2 0x1365 JUMP JUMPDEST PUSH1 0x0 DUP3 SSTORE DUP1 PUSH1 0x1F LT PUSH2 0xD7E JUMPI POP PUSH2 0xD9D JUMP JUMPDEST PUSH1 0x1F ADD PUSH1 0x20 SWAP1 DIV SWAP1 PUSH1 0x0 MSTORE PUSH1 0x20 PUSH1 0x0 KECCAK256 SWAP1 DUP2 ADD SWAP1 PUSH2 0xD9C SWAP2 SWAP1 PUSH2 0xDA0 JUMP JUMPDEST JUMPDEST POP JUMP JUMPDEST JUMPDEST DUP1 DUP3 GT ISZERO PUSH2 0xDB9 JUMPI PUSH1 0x0 DUP2 PUSH1 0x0 SWAP1 SSTORE POP PUSH1 0x1 ADD PUSH2 0xDA1 JUMP JUMPDEST POP SWAP1 JUMP JUMPDEST PUSH1 0x0 DUP2 MLOAD SWAP1 POP SWAP2 SWAP1 POP JUMP JUMPDEST PUSH1 0x0 DUP3 DUP3 MSTORE PUSH1 0x20 DUP3 ADD SWAP1 POP SWAP3 SWAP2 POP POP JUMP JUMPDEST PUSH1 0x0 DUP2 SWAP1 POP PUSH1 0x20 DUP3 ADD SWAP1 POP SWAP2 SWAP1 POP JUMP JUMPDEST PUSH1 0x0 DUP2 MLOAD SWAP1 POP SWAP2 SWAP1 POP JUMP JUMPDEST PUSH1 0x0 DUP3 DUP3 MSTORE PUSH1 0x20 DUP3 ADD SWAP1 POP SWAP3 SWAP2 POP POP JUMP JUMPDEST PUSH1 0x0 JUMPDEST DUP4 DUP2 LT ISZERO PUSH2 0xE23 JUMPI DUP1 DUP3 ADD MLOAD DUP2 DUP5 ADD MSTORE PUSH1 0x20 DUP2 ADD SWAP1 POP PUSH2 0xE08 JUMP JUMPDEST PUSH1 0x0 DUP5 DUP5 ADD MSTORE POP POP POP POP JUMP JUMPDEST PUSH1 0x0 PUSH1 0x1F NOT PUSH1 0x1F DUP4 ADD AND SWAP1 POP SWAP2 SWAP1 POP JUMP JUMPDEST PUSH1 0x0 PUSH2 0xE4B DUP3 PUSH2 0xDE9 JUMP JUMPDEST PUSH2 0xE55 DUP2 DUP6 PUSH2 0xDF4 JUMP JUMPDEST SWAP4 POP PUSH2 0xE65 DUP2 DUP6 PUSH1 0x20 DUP7 ADD PUSH2 0xE05 JUMP JUMPDEST PUSH2 0xE6E DUP2 PUSH2 0xE2F JUMP JUMPDEST DUP5 ADD SWAP2 POP POP SWAP3 SWAP2 POP POP JUMP JUMPDEST PUSH1 0x0 PUSH1 0xA0 DUP4 ADD PUSH1 0x0 DUP4 ADD MLOAD DUP5 DUP3 SUB PUSH1 0x0 DUP7 ADD MSTORE PUSH2 0xE96 DUP3 DUP3 PUSH2 0xE40 JUMP JUMPDEST SWAP2 POP POP PUSH1 0x20 DUP4 ADD MLOAD DUP5 DUP3 SUB PUSH1 0x20 DUP7 ADD MSTORE PUSH2 0xEB0 DUP3 DUP3 PUSH2 0xE40 JUMP JUMPDEST SWAP2 POP POP PUSH1 0x40 DUP4 ADD MLOAD DUP5 DUP3 SUB PUSH1 0x40 DUP7 ADD MSTORE PUSH2 0xECA DUP3 DUP3 PUSH2 0xE40 JUMP JUMPDEST SWAP2 POP POP PUSH1 0x60 DUP4 ADD MLOAD DUP5 DUP3 SUB PUSH1 0x60 DUP7 ADD MSTORE PUSH2 0xEE4 DUP3 DUP3 PUSH2 0xE40 JUMP JUMPDEST SWAP2 POP POP PUSH1 0x80 DUP4 ADD MLOAD DUP5 DUP3 SUB PUSH1 0x80 DUP7 ADD MSTORE PUSH2 0xEFE DUP3 DUP3 PUSH2 0xE40 JUMP JUMPDEST SWAP2 POP POP DUP1 SWAP2 POP POP SWAP3 SWAP2 POP POP JUMP JUMPDEST PUSH1 0x0 PUSH2 0xF17 DUP4 DUP4 PUSH2 0xE79 JUMP JUMPDEST SWAP1 POP SWAP3 SWAP2 POP POP JUMP JUMPDEST PUSH1 0x0 PUSH1 0x20 DUP3 ADD SWAP1 POP SWAP2 SWAP1 POP JUMP JUMPDEST PUSH1 0x0 PUSH2 0xF37 DUP3 PUSH2 0xDBD JUMP JUMPDEST PUSH2 0xF41 DUP2 DUP6 PUSH2 0xDC8 JUMP JUMPDEST SWAP4 POP DUP4 PUSH1 0x20 DUP3 MUL DUP6 ADD PUSH2 0xF53 DUP6 PUSH2 0xDD9 JUMP JUMPDEST DUP1 PUSH1 0x0 JUMPDEST DUP6 DUP2 LT ISZERO PUSH2 0xF8F JUMPI DUP5 DUP5 SUB DUP10 MSTORE DUP2 MLOAD PUSH2 0xF70 DUP6 DUP3 PUSH2 0xF0B JUMP JUMPDEST SWAP5 POP PUSH2 0xF7B DUP4 PUSH2 0xF1F JUMP JUMPDEST SWAP3 POP PUSH1 0x20 DUP11 ADD SWAP10 POP POP PUSH1 0x1 DUP2 ADD SWAP1 POP PUSH2 0xF57 JUMP JUMPDEST POP DUP3 SWAP8 POP DUP8 SWAP6 POP POP POP POP POP POP SWAP3 SWAP2 POP POP JUMP JUMPDEST PUSH1 0x0 PUSH1 0x20 DUP3 ADD SWAP1 POP DUP2 DUP2 SUB PUSH1 0x0 DUP4 ADD MSTORE PUSH2 0xFBB DUP2 DUP5 PUSH2 0xF2C JUMP JUMPDEST SWAP1 POP SWAP3 SWAP2 POP POP JUMP JUMPDEST PUSH1 0x0 PUSH1 0x40 MLOAD SWAP1 POP SWAP1 JUMP JUMPDEST PUSH1 0x0 DUP1 REVERT JUMPDEST PUSH1 0x0 DUP1 REVERT JUMPDEST PUSH1 0x0 DUP2 SWAP1 POP SWAP2 SWAP1 POP JUMP JUMPDEST PUSH2 0xFEA DUP2 PUSH2 0xFD7 JUMP JUMPDEST DUP2 EQ PUSH2 0xFF5 JUMPI PUSH1 0x0 DUP1 REVERT JUMPDEST POP JUMP JUMPDEST PUSH1 0x0 DUP2 CALLDATALOAD SWAP1 POP PUSH2 0x1007 DUP2 PUSH2 0xFE1 JUMP JUMPDEST SWAP3 SWAP2 POP POP JUMP JUMPDEST PUSH1 0x0 PUSH1 0x20 DUP3 DUP5 SUB SLT ISZERO PUSH2 0x1023 JUMPI PUSH2 0x1022 PUSH2 0xFCD JUMP JUMPDEST JUMPDEST PUSH1 0x0 PUSH2 0x1031 DUP5 DUP3 DUP6 ADD PUSH2 0xFF8 JUMP JUMPDEST SWAP2 POP POP SWAP3 SWAP2 POP POP JUMP JUMPDEST PUSH1 0x0 DUP3 DUP3 MSTORE PUSH1 0x20 DUP3 ADD SWAP1 POP SWAP3 SWAP2 POP POP JUMP JUMPDEST PUSH1 0x0 PUSH2 0x1056 DUP3 PUSH2 0xDE9 JUMP JUMPDEST PUSH2 0x1060 DUP2 DUP6 PUSH2 0x103A JUMP JUMPDEST SWAP4 POP PUSH2 0x1070 DUP2 DUP6 PUSH1 0x20 DUP7 ADD PUSH2 0xE05 JUMP JUMPDEST PUSH2 0x1079 DUP2 PUSH2 0xE2F JUMP JUMPDEST DUP5 ADD SWAP2 POP POP SWAP3 SWAP2 POP POP JUMP JUMPDEST PUSH1 0x0 PUSH1 0xA0 DUP3 ADD SWAP1 POP DUP2 DUP2 SUB PUSH1 0x0 DUP4 ADD MSTORE PUSH2 0x109E DUP2 DUP9 PUSH2 0x104B JUMP JUMPDEST SWAP1 POP DUP2 DUP2 SUB PUSH1 0x20 DUP4 ADD MSTORE PUSH2 0x10B2 DUP2 DUP8 PUSH2 0x104B JUMP JUMPDEST SWAP1 POP DUP2 DUP2 SUB PUSH1 0x40 DUP4 ADD MSTORE PUSH2 0x10C6 DUP2 DUP7 PUSH2 0x104B JUMP JUMPDEST SWAP1 POP DUP2 DUP2 SUB PUSH1 0x60 DUP4 ADD MSTORE PUSH2 0x10DA DUP2 DUP6 PUSH2 0x104B JUMP JUMPDEST SWAP1 POP DUP2 DUP2 SUB PUSH1 0x80 DUP4 ADD MSTORE PUSH2 0x10EE DUP2 DUP5 PUSH2 0x104B JUMP JUMPDEST SWAP1 POP SWAP7 SWAP6 POP POP POP POP POP POP JUMP JUMPDEST PUSH1 0x0 DUP1 REVERT JUMPDEST PUSH1 0x0 DUP1 REVERT JUMPDEST PUSH32 0x4E487B7100000000000000000000000000000000000000000000000000000000 PUSH1 0x0 MSTORE PUSH1 0x41 PUSH1 0x4 MSTORE PUSH1 0x24 PUSH1 0x0 REVERT JUMPDEST PUSH2 0x113C DUP3 PUSH2 0xE2F JUMP JUMPDEST DUP2 ADD DUP2 DUP2 LT PUSH8 0xFFFFFFFFFFFFFFFF DUP3 GT OR ISZERO PUSH2 0x115B JUMPI PUSH2 0x115A PUSH2 0x1104 JUMP JUMPDEST JUMPDEST DUP1 PUSH1 0x40 MSTORE POP POP POP JUMP JUMPDEST PUSH1 0x0 PUSH2 0x116E PUSH2 0xFC3 JUMP JUMPDEST SWAP1 POP PUSH2 0x117A DUP3 DUP3 PUSH2 0x1133 JUMP JUMPDEST SWAP2 SWAP1 POP JUMP JUMPDEST PUSH1 0x0 PUSH8 0xFFFFFFFFFFFFFFFF DUP3 GT ISZERO PUSH2 0x119A JUMPI PUSH2 0x1199 PUSH2 0x1104 JUMP JUMPDEST JUMPDEST PUSH2 0x11A3 DUP3 PUSH2 0xE2F JUMP JUMPDEST SWAP1 POP PUSH1 0x20 DUP2 ADD SWAP1 POP SWAP2 SWAP1 POP JUMP JUMPDEST DUP3 DUP2 DUP4 CALLDATACOPY PUSH1 0x0 DUP4 DUP4 ADD MSTORE POP POP POP JUMP JUMPDEST PUSH1 0x0 PUSH2 0x11D2 PUSH2 0x11CD DUP5 PUSH2 0x117F JUMP JUMPDEST PUSH2 0x1164 JUMP JUMPDEST SWAP1 POP DUP3 DUP2 MSTORE PUSH1 0x20 DUP2 ADD DUP5 DUP5 DUP5 ADD GT ISZERO PUSH2 0x11EE JUMPI PUSH2 0x11ED PUSH2 0x10FF JUMP JUMPDEST JUMPDEST PUSH2 0x11F9 DUP5 DUP3 DUP6 PUSH2 0x11B0 JUMP JUMPDEST POP SWAP4 SWAP3 POP POP POP JUMP JUMPDEST PUSH1 0x0 DUP3 PUSH1 0x1F DUP4 ADD SLT PUSH2 0x1216 JUMPI PUSH2 0x1215 PUSH2 0x10FA JUMP JUMPDEST JUMPDEST DUP2 CALLDATALOAD PUSH2 0x1226 DUP5 DUP3 PUSH1 0x20 DUP7 ADD PUSH2 0x11BF JUMP JUMPDEST SWAP2 POP POP SWAP3 SWAP2 POP POP JUMP JUMPDEST PUSH1 0x0 DUP1 PUSH1 0x0 DUP1 PUSH1 0x0 PUSH1 0xA0 DUP7 DUP9 SUB SLT ISZERO PUSH2 0x124B JUMPI PUSH2 0x124A PUSH2 0xFCD JUMP JUMPDEST JUMPDEST PUSH1 0x0 DUP7 ADD CALLDATALOAD PUSH8 0xFFFFFFFFFFFFFFFF DUP2 GT ISZERO PUSH2 0x1269 JUMPI PUSH2 0x1268 PUSH2 0xFD2 JUMP JUMPDEST JUMPDEST PUSH2 0x1275 DUP9 DUP3 DUP10 ADD PUSH2 0x1201 JUMP JUMPDEST SWAP6 POP POP PUSH1 0x20 DUP7 ADD CALLDATALOAD PUSH8 0xFFFFFFFFFFFFFFFF DUP2 GT ISZERO PUSH2 0x1296 JUMPI PUSH2 0x1295 PUSH2 0xFD2 JUMP JUMPDEST JUMPDEST PUSH2 0x12A2 DUP9 DUP3 DUP10 ADD PUSH2 0x1201 JUMP JUMPDEST SWAP5 POP POP PUSH1 0x40 DUP7 ADD CALLDATALOAD PUSH8 0xFFFFFFFFFFFFFFFF DUP2 GT ISZERO PUSH2 0x12C3 JUMPI PUSH2 0x12C2 PUSH2 0xFD2 JUMP JUMPDEST JUMPDEST PUSH2 0x12CF DUP9 DUP3 DUP10 ADD PUSH2 0x1201 JUMP JUMPDEST SWAP4 POP POP PUSH1 0x60 DUP7 ADD CALLDATALOAD PUSH8 0xFFFFFFFFFFFFFFFF DUP2 GT ISZERO PUSH2 0x12F0 JUMPI PUSH2 0x12EF PUSH2 0xFD2 JUMP JUMPDEST JUMPDEST PUSH2 0x12FC DUP9 DUP3 DUP10 ADD PUSH2 0x1201 JUMP JUMPDEST SWAP3 POP POP PUSH1 0x80 DUP7 ADD CALLDATALOAD PUSH8 0xFFFFFFFFFFFFFFFF DUP2 GT ISZERO PUSH2 0x131D JUMPI PUSH2 0x131C PUSH2 0xFD2 JUMP JUMPDEST JUMPDEST PUSH2 0x1329 DUP9 DUP3 DUP10 ADD PUSH2 0x1201 JUMP JUMPDEST SWAP2 POP POP SWAP3 SWAP6 POP SWAP3 SWAP6 SWAP1 SWAP4 POP JUMP JUMPDEST PUSH32 0x4E487B7100000000000000000000000000000000000000000000000000000000 PUSH1 0x0 MSTORE PUSH1 0x22 PUSH1 0x4 MSTORE PUSH1 0x24 PUSH1 0x0 REVERT JUMPDEST PUSH1 0x0 PUSH1 0x2 DUP3 DIV SWAP1 POP PUSH1 0x1 DUP3 AND DUP1 PUSH2 0x137D JUMPI PUSH1 0x7F DUP3 AND SWAP2 POP JUMPDEST PUSH1 0x20 DUP3 LT DUP2 SUB PUSH2 0x1390 JUMPI PUSH2 0x138F PUSH2 0x1336 JUMP JUMPDEST JUMPDEST POP SWAP2 SWAP1 POP JUMP JUMPDEST PUSH32 0xC38D6E6469636520696E76C3A16C69646F000000000000000000000000000000 PUSH1 0x0 DUP3 ADD MSTORE POP JUMP JUMPDEST PUSH1 0x0 PUSH2 0x13CC PUSH1 0x11 DUP4 PUSH2 0x103A JUMP JUMPDEST SWAP2 POP PUSH2 0x13D7 DUP3 PUSH2 0x1396 JUMP JUMPDEST PUSH1 0x20 DUP3 ADD SWAP1 POP SWAP2 SWAP1 POP JUMP JUMPDEST PUSH1 0x0 PUSH1 0x20 DUP3 ADD SWAP1 POP DUP2 DUP2 SUB PUSH1 0x0 DUP4 ADD MSTORE PUSH2 0x13FB DUP2 PUSH2 0x13BF JUMP JUMPDEST SWAP1 POP SWAP2 SWAP1 POP JUMP JUMPDEST PUSH32 0x4E487B7100000000000000000000000000000000000000000000000000000000 PUSH1 0x0 MSTORE PUSH1 0x11 PUSH1 0x4 MSTORE PUSH1 0x24 PUSH1 0x0 REVERT JUMPDEST PUSH1 0x0 PUSH2 0x143C DUP3 PUSH2 0xFD7 JUMP JUMPDEST SWAP2 POP PUSH2 0x1447 DUP4 PUSH2 0xFD7 JUMP JUMPDEST SWAP3 POP DUP3 DUP3 SUB SWAP1 POP DUP2 DUP2 GT ISZERO PUSH2 0x145F JUMPI PUSH2 0x145E PUSH2 0x1402 JUMP JUMPDEST JUMPDEST SWAP3 SWAP2 POP POP JUMP JUMPDEST PUSH32 0x4E487B7100000000000000000000000000000000000000000000000000000000 PUSH1 0x0 MSTORE PUSH1 0x32 PUSH1 0x4 MSTORE PUSH1 0x24 PUSH1 0x0 REVERT JUMPDEST PUSH1 0x0 DUP2 SLOAD SWAP1 POP PUSH2 0x14A3 DUP2 PUSH2 0x1365 JUMP JUMPDEST SWAP1 POP SWAP2 SWAP1 POP JUMP JUMPDEST PUSH1 0x0 DUP2 SWAP1 POP DUP2 PUSH1 0x0 MSTORE PUSH1 0x20 PUSH1 0x0 KECCAK256 SWAP1 POP SWAP2 SWAP1 POP JUMP JUMPDEST PUSH1 0x0 PUSH1 0x20 PUSH1 0x1F DUP4 ADD DIV SWAP1 POP SWAP2 SWAP1 POP JUMP JUMPDEST PUSH1 0x0 DUP3 DUP3 SHL SWAP1 POP SWAP3 SWAP2 POP POP JUMP JUMPDEST PUSH1 0x0 PUSH1 0x8 DUP4 MUL PUSH2 0x150C PUSH32 0xFFFFFFFFFFFFFFFFFFFFFFFFFFFFFFFFFFFFFFFFFFFFFFFFFFFFFFFFFFFFFFFF DUP3 PUSH2 0x14CF JUMP JUMPDEST PUSH2 0x1516 DUP7 DUP4 PUSH2 0x14CF JUMP JUMPDEST SWAP6 POP DUP1 NOT DUP5 AND SWAP4 POP DUP1 DUP7 AND DUP5 OR SWAP3 POP POP POP SWAP4 SWAP3 POP POP POP JUMP JUMPDEST PUSH1 0x0 DUP2 SWAP1 POP SWAP2 SWAP1 POP JUMP JUMPDEST PUSH1 0x0 PUSH2 0x1553 PUSH2 0x154E PUSH2 0x1549 DUP5 PUSH2 0xFD7 JUMP JUMPDEST PUSH2 0x152E JUMP JUMPDEST PUSH2 0xFD7 JUMP JUMPDEST SWAP1 POP SWAP2 SWAP1 POP JUMP JUMPDEST PUSH1 0x0 DUP2 SWAP1 POP SWAP2 SWAP1 POP JUMP JUMPDEST PUSH2 0x156D DUP4 PUSH2 0x1538 JUMP JUMPDEST PUSH2 0x1581 PUSH2 0x1579 DUP3 PUSH2 0x155A JUMP JUMPDEST DUP5 DUP5 SLOAD PUSH2 0x14DC JUMP JUMPDEST DUP3 SSTORE POP POP POP POP JUMP JUMPDEST PUSH1 0x0 SWAP1 JUMP JUMPDEST PUSH2 0x1596 PUSH2 0x1589 JUMP JUMPDEST PUSH2 0x15A1 DUP2 DUP5 DUP5 PUSH2 0x1564 JUMP JUMPDEST POP POP POP JUMP JUMPDEST JUMPDEST DUP2 DUP2 LT ISZERO PUSH2 0x15C5 JUMPI PUSH2 0x15BA PUSH1 0x0 DUP3 PUSH2 0x158E JUMP JUMPDEST PUSH1 0x1 DUP2 ADD SWAP1 POP PUSH2 0x15A7 JUMP JUMPDEST POP POP JUMP JUMPDEST PUSH1 0x1F DUP3 GT ISZERO PUSH2 0x160A JUMPI PUSH2 0x15DB DUP2 PUSH2 0x14AA JUMP JUMPDEST PUSH2 0x15E4 DUP5 PUSH2 0x14BF JUMP JUMPDEST DUP2 ADD PUSH1 0x20 DUP6 LT ISZERO PUSH2 0x15F3 JUMPI DUP2 SWAP1 POP JUMPDEST PUSH2 0x1607 PUSH2 0x15FF DUP6 PUSH2 0x14BF JUMP JUMPDEST DUP4 ADD DUP3 PUSH2 0x15A6 JUMP JUMPDEST POP POP JUMPDEST POP POP POP JUMP JUMPDEST PUSH1 0x0 DUP3 DUP3 SHR SWAP1 POP SWAP3 SWAP2 POP POP JUMP JUMPDEST PUSH1 0x0 PUSH2 0x162D PUSH1 0x0 NOT DUP5 PUSH1 0x8 MUL PUSH2 0x160F JUMP JUMPDEST NOT DUP1 DUP4 AND SWAP2 POP POP SWAP3 SWAP2 POP POP JUMP JUMPDEST PUSH1 0x0 PUSH2 0x1646 DUP4 DUP4 PUSH2 0x161C JUMP JUMPDEST SWAP2 POP DUP3 PUSH1 0x2 MUL DUP3 OR SWAP1 POP SWAP3 SWAP2 POP POP JUMP JUMPDEST DUP2 DUP2 SUB PUSH2 0x1664 JUMPI POP POP PUSH2 0x173C JUMP JUMPDEST PUSH2 0x166D DUP3 PUSH2 0x1494 JUMP JUMPDEST PUSH8 0xFFFFFFFFFFFFFFFF DUP2 GT ISZERO PUSH2 0x1686 JUMPI PUSH2 0x1685 PUSH2 0x1104 JUMP JUMPDEST JUMPDEST PUSH2 0x1690 DUP3 SLOAD PUSH2 0x1365 JUMP JUMPDEST PUSH2 0x169B DUP3 DUP3 DUP6 PUSH2 0x15C9 JUMP JUMPDEST PUSH1 0x0 PUSH1 0x1F DUP4 GT PUSH1 0x1 DUP2 EQ PUSH2 0x16CA JUMPI PUSH1 0x0 DUP5 ISZERO PUSH2 0x16B8 JUMPI DUP3 DUP8 ADD SLOAD SWAP1 POP JUMPDEST PUSH2 0x16C2 DUP6 DUP3 PUSH2 0x163A JUMP JUMPDEST DUP7 SSTORE POP PUSH2 0x1735 JUMP JUMPDEST PUSH1 0x1F NOT DUP5 AND PUSH2 0x16D8 DUP8 PUSH2 0x14AA JUMP JUMPDEST SWAP7 POP PUSH2 0x16E3 DUP7 PUSH2 0x14AA JUMP JUMPDEST PUSH1 0x0 JUMPDEST DUP3 DUP2 LT ISZERO PUSH2 0x170B JUMPI DUP5 DUP10 ADD SLOAD DUP3 SSTORE PUSH1 0x1 DUP3 ADD SWAP2 POP PUSH1 0x1 DUP6 ADD SWAP5 POP PUSH1 0x20 DUP2 ADD SWAP1 POP PUSH2 0x16E6 JUMP JUMPDEST DUP7 DUP4 LT ISZERO PUSH2 0x1728 JUMPI DUP5 DUP10 ADD SLOAD PUSH2 0x1724 PUSH1 0x1F DUP10 AND DUP3 PUSH2 0x161C JUMP JUMPDEST DUP4 SSTORE POP JUMPDEST PUSH1 0x1 PUSH1 0x2 DUP9 MUL ADD DUP9 SSTORE POP POP POP JUMPDEST POP POP POP POP POP POP JUMPDEST JUMP JUMPDEST PUSH32 0x4E487B7100000000000000000000000000000000000000000000000000000000 PUSH1 0x0 MSTORE PUSH1 0x31 PUSH1 0x4 MSTORE PUSH1 0x24 PUSH1 0x0 REVERT JUMPDEST PUSH2 0x1776 DUP3 PUSH2 0xDE9 JUMP JUMPDEST PUSH8 0xFFFFFFFFFFFFFFFF DUP2 GT ISZERO PUSH2 0x178F JUMPI PUSH2 0x178E PUSH2 0x1104 JUMP JUMPDEST JUMPDEST PUSH2 0x1799 DUP3 SLOAD PUSH2 0x1365 JUMP JUMPDEST PUSH2 0x17A4 DUP3 DUP3 DUP6 PUSH2 0x15C9 JUMP JUMPDEST PUSH1 0x0 PUSH1 0x20 SWAP1 POP PUSH1 0x1F DUP4 GT PUSH1 0x1 DUP2 EQ PUSH2 0x17D7 JUMPI PUSH1 0x0 DUP5 ISZERO PUSH2 0x17C5 JUMPI DUP3 DUP8 ADD MLOAD SWAP1 POP JUMPDEST PUSH2 0x17CF DUP6 DUP3 PUSH2 0x163A JUMP JUMPDEST DUP7 SSTORE POP PUSH2 0x1837 JUMP JUMPDEST PUSH1 0x1F NOT DUP5 AND PUSH2 0x17E5 DUP7 PUSH2 0x14AA JUMP JUMPDEST PUSH1 0x0 JUMPDEST DUP3 DUP2 LT ISZERO PUSH2 0x180D JUMPI DUP5 DUP10 ADD MLOAD DUP3 SSTORE PUSH1 0x1 DUP3 ADD SWAP2 POP PUSH1 0x20 DUP6 ADD SWAP5 POP PUSH1 0x20 DUP2 ADD SWAP1 POP PUSH2 0x17E8 JUMP JUMPDEST DUP7 DUP4 LT ISZERO PUSH2 0x182A JUMPI DUP5 DUP10 ADD MLOAD PUSH2 0x1826 PUSH1 0x1F DUP10 AND DUP3 PUSH2 0x161C JUMP JUMPDEST DUP4 SSTORE POP JUMPDEST PUSH1 0x1 PUSH1 0x2 DUP9 MUL ADD DUP9 SSTORE POP POP POP JUMPDEST POP POP POP POP POP POP JUMP JUMPDEST PUSH2 0x1848 DUP2 PUSH2 0xFD7 JUMP JUMPDEST DUP3 MSTORE POP POP JUMP JUMPDEST PUSH1 0x0 PUSH1 0x40 DUP3 ADD SWAP1 POP PUSH2 0x1863 PUSH1 0x0 DUP4 ADD DUP6 PUSH2 0x183F JUMP JUMPDEST DUP2 DUP2 SUB PUSH1 0x20 DUP4 ADD MSTORE PUSH2 0x1875 DUP2 DUP5 PUSH2 0x104B JUMP JUMPDEST SWAP1 POP SWAP4 SWAP3 POP POP POP JUMP INVALID LOG2 PUSH5 0x6970667358 0x22 SLT KECCAK256 SWAP7 0xCB CREATE2 0xC3 DIV CALLF 0x3CE8 0xDF 0x2F DUP2 0x22 LT LOG1 JUMPDEST 0xDD DUP13 TSTORE SWAP5 0xCC 0xCC 0x2E PUSH26 0x3A65A7E38578F17FAD64736F6C634300081E0033000000000000 "
				},
				"gasEstimates": {
					"creation": {
						"codeDepositCost": "1264800",
						"executionCost": "1315",
						"totalCost": "1266115"
					},
					"external": {
						"baterias(uint256)": "infinite",
						"getBateria(uint256)": "infinite",
						"listar()": "infinite",
						"registrarBateria(string,string,string,string,string)": "infinite",
						"removerBateria(uint256)": "infinite"
					}
				},
				"methodIdentifiers": {
					"baterias(uint256)": "7da30b73",
					"getBateria(uint256)": "c64a5e0c",
					"listar()": "46012018",
					"registrarBateria(string,string,string,string,string)": "dcc6408a",
					"removerBateria(uint256)": "64a96fea"
				}
			},
			"storageLayout": {
				"storage": [
					{
						"astId": 16,
						"contract": "21.10/contracts/projeto_final/rastreio_baterias.sol:BateriasDefeituosas",
						"label": "baterias",
						"offset": 0,
						"slot": "0",
						"type": "t_array(t_struct(Bateria)12_storage)dyn_storage"
					}
				],
				"types": {
					"t_array(t_struct(Bateria)12_storage)dyn_storage": {
						"base": "t_struct(Bateria)12_storage",
						"encoding": "dynamic_array",
						"label": "struct BateriasDefeituosas.Bateria[]",
						"numberOfBytes": "32"
					},
					"t_string_storage": {
						"encoding": "bytes",
						"label": "string",
						"numberOfBytes": "32"
					},
					"t_struct(Bateria)12_storage": {
						"encoding": "inplace",
						"label": "struct BateriasDefeituosas.Bateria",
						"members": [
							{
								"astId": 3,
								"contract": "21.10/contracts/projeto_final/rastreio_baterias.sol:BateriasDefeituosas",
								"label": "tipo",
								"offset": 0,
								"slot": "0",
								"type": "t_string_storage"
							},
							{
								"astId": 5,
								"contract": "21.10/contracts/projeto_final/rastreio_baterias.sol:BateriasDefeituosas",
								"label": "uso",
								"offset": 0,
								"slot": "1",
								"type": "t_string_storage"
							},
							{
								"astId": 7,
								"contract": "21.10/contracts/projeto_final/rastreio_baterias.sol:BateriasDefeituosas",
								"label": "numeroSerie",
								"offset": 0,
								"slot": "2",
								"type": "t_string_storage"
							},
							{
								"astId": 9,
								"contract": "21.10/contracts/projeto_final/rastreio_baterias.sol:BateriasDefeituosas",
								"label": "dataProducao",
								"offset": 0,
								"slot": "3",
								"type": "t_string_storage"
							},
							{
								"astId": 11,
								"contract": "21.10/contracts/projeto_final/rastreio_baterias.sol:BateriasDefeituosas",
								"label": "lote",
								"offset": 0,
								"slot": "4",
								"type": "t_string_storage"
							}
						],
						"numberOfBytes": "160"
					}
				}
			},
			"userdoc": {
				"kind": "user",
				"methods": {},
				"version": 1
			}
		}
	}
}