{
	"21.10/contracts/Proxy.sol": {
		"Proxy": {
			"abi": [
				{
					"inputs": [
						{
							"internalType": "address",
							"name": "_implementation",
							"type": "address"
						}
					],
					"stateMutability": "nonpayable",
					"type": "constructor"
				},
				{
					"stateMutability": "payable",
					"type": "fallback"
				},
				{
					"inputs": [],
					"name": "admin",
					"outputs": [
						{
							"internalType": "address",
							"name": "",
							"type": "address"
						}
					],
					"stateMutability": "view",
					"type": "function"
				},
				{
					"inputs": [
						{
							"internalType": "address",
							"name": "nova",
							"type": "address"
						}
					],
					"name": "atualizarImplementacao",
					"outputs": [],
					"stateMutability": "nonpayable",
					"type": "function"
				},
				{
					"inputs": [],
					"name": "implementation",
					"outputs": [
						{
							"internalType": "address",
							"name": "",
							"type": "address"
						}
					],
					"stateMutability": "view",
					"type": "function"
				},
				{
					"stateMutability": "payable",
					"type": "receive"
				}
			],
			"devdoc": {
				"kind": "dev",
				"methods": {},
				"version": 1
			},
			"evm": {
				"assembly": "    /* \"21.10/contracts/Proxy.sol\":59:1120  contract Proxy {... */\n  mstore(0x40, 0x80)\n    /* \"21.10/contracts/Proxy.sol\":144:261  constructor(address _implementation) {... */\n  callvalue\n  dup1\n  iszero\n  tag_1\n  jumpi\n  0x00\n  dup1\n  revert\ntag_1:\n  pop\n  mload(0x40)\n  sub(codesize, bytecodeSize)\n  dup1\n  bytecodeSize\n  dup4\n  codecopy\n  dup2\n  dup2\n  add\n  0x40\n  mstore\n  dup2\n  add\n  swap1\n  tag_2\n  swap2\n  swap1\n  tag_3\n  jump\t// in\ntag_2:\n    /* \"21.10/contracts/Proxy.sol\":209:224  _implementation */\n  dup1\n    /* \"21.10/contracts/Proxy.sol\":192:206  implementation */\n  0x00\n  dup1\n    /* \"21.10/contracts/Proxy.sol\":192:224  implementation = _implementation */\n  0x0100\n  exp\n  dup2\n  sload\n  dup2\n  0xffffffffffffffffffffffffffffffffffffffff\n  mul\n  not\n  and\n  swap1\n  dup4\n  0xffffffffffffffffffffffffffffffffffffffff\n  and\n  mul\n  or\n  swap1\n  sstore\n  pop\n    /* \"21.10/contracts/Proxy.sol\":243:253  msg.sender */\n  caller\n    /* \"21.10/contracts/Proxy.sol\":235:240  admin */\n  0x01\n  0x00\n    /* \"21.10/contracts/Proxy.sol\":235:253  admin = msg.sender */\n  0x0100\n  exp\n  dup2\n  sload\n  dup2\n  0xffffffffffffffffffffffffffffffffffffffff\n  mul\n  not\n  and\n  swap1\n  dup4\n  0xffffffffffffffffffffffffffffffffffffffff\n  and\n  mul\n  or\n  swap1\n  sstore\n  pop\n    /* \"21.10/contracts/Proxy.sol\":144:261  constructor(address _implementation) {... */\n  pop\n    /* \"21.10/contracts/Proxy.sol\":59:1120  contract Proxy {... */\n  jump(tag_6)\n    /* \"#utility.yul\":88:205   */\ntag_8:\n    /* \"#utility.yul\":197:198   */\n  0x00\n    /* \"#utility.yul\":194:195   */\n  dup1\n    /* \"#utility.yul\":187:199   */\n  revert\n    /* \"#utility.yul\":334:460   */\ntag_10:\n    /* \"#utility.yul\":371:378   */\n  0x00\n    /* \"#utility.yul\":411:453   */\n  0xffffffffffffffffffffffffffffffffffffffff\n    /* \"#utility.yul\":404:409   */\n  dup3\n    /* \"#utility.yul\":400:454   */\n  and\n    /* \"#utility.yul\":389:454   */\n  swap1\n  pop\n    /* \"#utility.yul\":334:460   */\n  swap2\n  swap1\n  pop\n  jump\t// out\n    /* \"#utility.yul\":466:562   */\ntag_11:\n    /* \"#utility.yul\":503:510   */\n  0x00\n    /* \"#utility.yul\":532:556   */\n  tag_20\n    /* \"#utility.yul\":550:555   */\n  dup3\n    /* \"#utility.yul\":532:556   */\n  tag_10\n  jump\t// in\ntag_20:\n    /* \"#utility.yul\":521:556   */\n  swap1\n  pop\n    /* \"#utility.yul\":466:562   */\n  swap2\n  swap1\n  pop\n  jump\t// out\n    /* \"#utility.yul\":568:690   */\ntag_12:\n    /* \"#utility.yul\":641:665   */\n  tag_22\n    /* \"#utility.yul\":659:664   */\n  dup2\n    /* \"#utility.yul\":641:665   */\n  tag_11\n  jump\t// in\ntag_22:\n    /* \"#utility.yul\":634:639   */\n  dup2\n    /* \"#utility.yul\":631:666   */\n  eq\n    /* \"#utility.yul\":621:684   */\n  tag_23\n  jumpi\n    /* \"#utility.yul\":680:681   */\n  0x00\n    /* \"#utility.yul\":677:678   */\n  dup1\n    /* \"#utility.yul\":670:682   */\n  revert\n    /* \"#utility.yul\":621:684   */\ntag_23:\n    /* \"#utility.yul\":568:690   */\n  pop\n  jump\t// out\n    /* \"#utility.yul\":696:839   */\ntag_13:\n    /* \"#utility.yul\":753:758   */\n  0x00\n    /* \"#utility.yul\":784:790   */\n  dup2\n    /* \"#utility.yul\":778:791   */\n  mload\n    /* \"#utility.yul\":769:791   */\n  swap1\n  pop\n    /* \"#utility.yul\":800:833   */\n  tag_25\n    /* \"#utility.yul\":827:832   */\n  dup2\n    /* \"#utility.yul\":800:833   */\n  tag_12\n  jump\t// in\ntag_25:\n    /* \"#utility.yul\":696:839   */\n  swap3\n  swap2\n  pop\n  pop\n  jump\t// out\n    /* \"#utility.yul\":845:1196   */\ntag_3:\n    /* \"#utility.yul\":915:921   */\n  0x00\n    /* \"#utility.yul\":964:966   */\n  0x20\n    /* \"#utility.yul\":952:961   */\n  dup3\n    /* \"#utility.yul\":943:950   */\n  dup5\n    /* \"#utility.yul\":939:962   */\n  sub\n    /* \"#utility.yul\":935:967   */\n  slt\n    /* \"#utility.yul\":932:1051   */\n  iszero\n  tag_27\n  jumpi\n    /* \"#utility.yul\":970:1049   */\n  tag_28\n  tag_8\n  jump\t// in\ntag_28:\n    /* \"#utility.yul\":932:1051   */\ntag_27:\n    /* \"#utility.yul\":1090:1091   */\n  0x00\n    /* \"#utility.yul\":1115:1179   */\n  tag_29\n    /* \"#utility.yul\":1171:1178   */\n  dup5\n    /* \"#utility.yul\":1162:1168   */\n  dup3\n    /* \"#utility.yul\":1151:1160   */\n  dup6\n    /* \"#utility.yul\":1147:1169   */\n  add\n    /* \"#utility.yul\":1115:1179   */\n  tag_13\n  jump\t// in\ntag_29:\n    /* \"#utility.yul\":1105:1179   */\n  swap2\n  pop\n    /* \"#utility.yul\":1061:1189   */\n  pop\n    /* \"#utility.yul\":845:1196   */\n  swap3\n  swap2\n  pop\n  pop\n  jump\t// out\n    /* \"21.10/contracts/Proxy.sol\":59:1120  contract Proxy {... */\ntag_6:\n  dataSize(sub_0)\n  dup1\n  dataOffset(sub_0)\n  0x00\n  codecopy\n  0x00\n  return\nstop\n\nsub_0: assembly {\n        /* \"21.10/contracts/Proxy.sol\":59:1120  contract Proxy {... */\n      mstore(0x40, 0x80)\n      jumpi(tag_1, lt(calldatasize, 0x04))\n      shr(0xe0, calldataload(0x00))\n      dup1\n      0x5c60da1b\n      eq\n      tag_3\n      jumpi\n      dup1\n      0x98d731e9\n      eq\n      tag_4\n      jumpi\n      dup1\n      0xf851a440\n      eq\n      tag_5\n      jumpi\n      jump(tag_2)\n    tag_1:\n      jumpi(tag_2, calldatasize)\n      stop\n    tag_2:\n        /* \"21.10/contracts/Proxy.sol\":475:487  address impl */\n      0x00\n        /* \"21.10/contracts/Proxy.sol\":490:504  implementation */\n      dup1\n      0x00\n      swap1\n      sload\n      swap1\n      0x0100\n      exp\n      swap1\n      div\n      0xffffffffffffffffffffffffffffffffffffffff\n      and\n        /* \"21.10/contracts/Proxy.sol\":475:504  address impl = implementation */\n      swap1\n      pop\n        /* \"21.10/contracts/Proxy.sol\":539:540  0 */\n      0x00\n        /* \"21.10/contracts/Proxy.sol\":523:541  impl != address(0) */\n      0xffffffffffffffffffffffffffffffffffffffff\n      and\n        /* \"21.10/contracts/Proxy.sol\":523:527  impl */\n      dup2\n        /* \"21.10/contracts/Proxy.sol\":523:541  impl != address(0) */\n      0xffffffffffffffffffffffffffffffffffffffff\n      and\n      sub\n        /* \"21.10/contracts/Proxy.sol\":515:572  require(impl != address(0), \"Implementacao nao definida\") */\n      tag_10\n      jumpi\n      mload(0x40)\n      0x08c379a000000000000000000000000000000000000000000000000000000000\n      dup2\n      mstore\n      0x04\n      add\n      tag_11\n      swap1\n      tag_12\n      jump\t// in\n    tag_11:\n      mload(0x40)\n      dup1\n      swap2\n      sub\n      swap1\n      revert\n    tag_10:\n        /* \"21.10/contracts/Proxy.sol\":668:682  calldatasize() */\n      calldatasize\n        /* \"21.10/contracts/Proxy.sol\":665:666  0 */\n      0x00\n        /* \"21.10/contracts/Proxy.sol\":662:663  0 */\n      dup1\n        /* \"21.10/contracts/Proxy.sol\":649:683  calldatacopy(0, 0, calldatasize()) */\n      calldatacopy\n        /* \"21.10/contracts/Proxy.sol\":813:814  0 */\n      0x00\n        /* \"21.10/contracts/Proxy.sol\":810:811  0 */\n      dup1\n        /* \"21.10/contracts/Proxy.sol\":794:808  calldatasize() */\n      calldatasize\n        /* \"21.10/contracts/Proxy.sol\":791:792  0 */\n      0x00\n        /* \"21.10/contracts/Proxy.sol\":785:789  impl */\n      dup5\n        /* \"21.10/contracts/Proxy.sol\":778:783  gas() */\n      gas\n        /* \"21.10/contracts/Proxy.sol\":765:815  delegatecall(gas(), impl, 0, calldatasize(), 0, 0) */\n      delegatecall\n        /* \"21.10/contracts/Proxy.sol\":880:896  returndatasize() */\n      returndatasize\n        /* \"21.10/contracts/Proxy.sol\":877:878  0 */\n      0x00\n        /* \"21.10/contracts/Proxy.sol\":874:875  0 */\n      dup1\n        /* \"21.10/contracts/Proxy.sol\":859:897  returndatacopy(0, 0, returndatasize()) */\n      returndatacopy\n        /* \"21.10/contracts/Proxy.sol\":953:959  result */\n      dup1\n        /* \"21.10/contracts/Proxy.sol\":978:979  0 */\n      0x00\n        /* \"21.10/contracts/Proxy.sol\":973:1011  case 0 { revert(0, returndatasize()) } */\n      dup2\n      eq\n      tag_14\n      jumpi\n        /* \"21.10/contracts/Proxy.sol\":1045:1061  returndatasize() */\n      returndatasize\n        /* \"21.10/contracts/Proxy.sol\":1042:1043  0 */\n      0x00\n        /* \"21.10/contracts/Proxy.sol\":1035:1062  return(0, returndatasize()) */\n      return\n        /* \"21.10/contracts/Proxy.sol\":973:1011  case 0 { revert(0, returndatasize()) } */\n    tag_14:\n        /* \"21.10/contracts/Proxy.sol\":992:1008  returndatasize() */\n      returndatasize\n        /* \"21.10/contracts/Proxy.sol\":989:990  0 */\n      0x00\n        /* \"21.10/contracts/Proxy.sol\":982:1009  revert(0, returndatasize()) */\n      revert\n        /* \"21.10/contracts/Proxy.sol\":81:110  address public implementation */\n    tag_3:\n      callvalue\n      dup1\n      iszero\n      tag_15\n      jumpi\n      0x00\n      dup1\n      revert\n    tag_15:\n      pop\n      tag_16\n      tag_17\n      jump\t// in\n    tag_16:\n      mload(0x40)\n      tag_18\n      swap2\n      swap1\n      tag_19\n      jump\t// in\n    tag_18:\n      mload(0x40)\n      dup1\n      swap2\n      sub\n      swap1\n      return\n        /* \"21.10/contracts/Proxy.sol\":267:430  function atualizarImplementacao(address nova) public {... */\n    tag_4:\n      callvalue\n      dup1\n      iszero\n      tag_20\n      jumpi\n      0x00\n      dup1\n      revert\n    tag_20:\n      pop\n      tag_21\n      0x04\n      dup1\n      calldatasize\n      sub\n      dup2\n      add\n      swap1\n      tag_22\n      swap2\n      swap1\n      tag_23\n      jump\t// in\n    tag_22:\n      tag_24\n      jump\t// in\n    tag_21:\n      stop\n        /* \"21.10/contracts/Proxy.sol\":117:137  address public admin */\n    tag_5:\n      callvalue\n      dup1\n      iszero\n      tag_25\n      jumpi\n      0x00\n      dup1\n      revert\n    tag_25:\n      pop\n      tag_26\n      tag_27\n      jump\t// in\n    tag_26:\n      mload(0x40)\n      tag_28\n      swap2\n      swap1\n      tag_19\n      jump\t// in\n    tag_28:\n      mload(0x40)\n      dup1\n      swap2\n      sub\n      swap1\n      return\n        /* \"21.10/contracts/Proxy.sol\":81:110  address public implementation */\n    tag_17:\n      0x00\n      dup1\n      sload\n      swap1\n      0x0100\n      exp\n      swap1\n      div\n      0xffffffffffffffffffffffffffffffffffffffff\n      and\n      dup2\n      jump\t// out\n        /* \"21.10/contracts/Proxy.sol\":267:430  function atualizarImplementacao(address nova) public {... */\n    tag_24:\n        /* \"21.10/contracts/Proxy.sol\":353:358  admin */\n      0x01\n      0x00\n      swap1\n      sload\n      swap1\n      0x0100\n      exp\n      swap1\n      div\n      0xffffffffffffffffffffffffffffffffffffffff\n      and\n        /* \"21.10/contracts/Proxy.sol\":339:358  msg.sender == admin */\n      0xffffffffffffffffffffffffffffffffffffffff\n      and\n        /* \"21.10/contracts/Proxy.sol\":339:349  msg.sender */\n      caller\n        /* \"21.10/contracts/Proxy.sol\":339:358  msg.sender == admin */\n      0xffffffffffffffffffffffffffffffffffffffff\n      and\n      eq\n        /* \"21.10/contracts/Proxy.sol\":331:390  require(msg.sender == admin, \"Apenas admin pode atualizar\") */\n      tag_30\n      jumpi\n      mload(0x40)\n      0x08c379a000000000000000000000000000000000000000000000000000000000\n      dup2\n      mstore\n      0x04\n      add\n      tag_31\n      swap1\n      tag_32\n      jump\t// in\n    tag_31:\n      mload(0x40)\n      dup1\n      swap2\n      sub\n      swap1\n      revert\n    tag_30:\n        /* \"21.10/contracts/Proxy.sol\":418:422  nova */\n      dup1\n        /* \"21.10/contracts/Proxy.sol\":401:415  implementation */\n      0x00\n      dup1\n        /* \"21.10/contracts/Proxy.sol\":401:422  implementation = nova */\n      0x0100\n      exp\n      dup2\n      sload\n      dup2\n      0xffffffffffffffffffffffffffffffffffffffff\n      mul\n      not\n      and\n      swap1\n      dup4\n      0xffffffffffffffffffffffffffffffffffffffff\n      and\n      mul\n      or\n      swap1\n      sstore\n      pop\n        /* \"21.10/contracts/Proxy.sol\":267:430  function atualizarImplementacao(address nova) public {... */\n      pop\n      jump\t// out\n        /* \"21.10/contracts/Proxy.sol\":117:137  address public admin */\n    tag_27:\n      0x01\n      0x00\n      swap1\n      sload\n      swap1\n      0x0100\n      exp\n      swap1\n      div\n      0xffffffffffffffffffffffffffffffffffffffff\n      and\n      dup2\n      jump\t// out\n        /* \"#utility.yul\":7:176   */\n    tag_33:\n        /* \"#utility.yul\":91:102   */\n      0x00\n        /* \"#utility.yul\":125:131   */\n      dup3\n        /* \"#utility.yul\":120:123   */\n      dup3\n        /* \"#utility.yul\":113:132   */\n      mstore\n        /* \"#utility.yul\":165:169   */\n      0x20\n        /* \"#utility.yul\":160:163   */\n      dup3\n        /* \"#utility.yul\":156:170   */\n      add\n        /* \"#utility.yul\":141:170   */\n      swap1\n      pop\n        /* \"#utility.yul\":7:176   */\n      swap3\n      swap2\n      pop\n      pop\n      jump\t// out\n        /* \"#utility.yul\":182:358   */\n    tag_34:\n        /* \"#utility.yul\":322:350   */\n      0x496d706c656d656e746163616f206e616f20646566696e696461000000000000\n        /* \"#utility.yul\":318:319   */\n      0x00\n        /* \"#utility.yul\":310:316   */\n      dup3\n        /* \"#utility.yul\":306:320   */\n      add\n        /* \"#utility.yul\":299:351   */\n      mstore\n        /* \"#utility.yul\":182:358   */\n      pop\n      jump\t// out\n        /* \"#utility.yul\":364:730   */\n    tag_35:\n        /* \"#utility.yul\":506:509   */\n      0x00\n        /* \"#utility.yul\":527:594   */\n      tag_50\n        /* \"#utility.yul\":591:593   */\n      0x1a\n        /* \"#utility.yul\":586:589   */\n      dup4\n        /* \"#utility.yul\":527:594   */\n      tag_33\n      jump\t// in\n    tag_50:\n        /* \"#utility.yul\":520:594   */\n      swap2\n      pop\n        /* \"#utility.yul\":603:696   */\n      tag_51\n        /* \"#utility.yul\":692:695   */\n      dup3\n        /* \"#utility.yul\":603:696   */\n      tag_34\n      jump\t// in\n    tag_51:\n        /* \"#utility.yul\":721:723   */\n      0x20\n        /* \"#utility.yul\":716:719   */\n      dup3\n        /* \"#utility.yul\":712:724   */\n      add\n        /* \"#utility.yul\":705:724   */\n      swap1\n      pop\n        /* \"#utility.yul\":364:730   */\n      swap2\n      swap1\n      pop\n      jump\t// out\n        /* \"#utility.yul\":736:1155   */\n    tag_12:\n        /* \"#utility.yul\":902:906   */\n      0x00\n        /* \"#utility.yul\":940:942   */\n      0x20\n        /* \"#utility.yul\":929:938   */\n      dup3\n        /* \"#utility.yul\":925:943   */\n      add\n        /* \"#utility.yul\":917:943   */\n      swap1\n      pop\n        /* \"#utility.yul\":989:998   */\n      dup2\n        /* \"#utility.yul\":983:987   */\n      dup2\n        /* \"#utility.yul\":979:999   */\n      sub\n        /* \"#utility.yul\":975:976   */\n      0x00\n        /* \"#utility.yul\":964:973   */\n      dup4\n        /* \"#utility.yul\":960:977   */\n      add\n        /* \"#utility.yul\":953:1000   */\n      mstore\n        /* \"#utility.yul\":1017:1148   */\n      tag_53\n        /* \"#utility.yul\":1143:1147   */\n      dup2\n        /* \"#utility.yul\":1017:1148   */\n      tag_35\n      jump\t// in\n    tag_53:\n        /* \"#utility.yul\":1009:1148   */\n      swap1\n      pop\n        /* \"#utility.yul\":736:1155   */\n      swap2\n      swap1\n      pop\n      jump\t// out\n        /* \"#utility.yul\":1161:1287   */\n    tag_36:\n        /* \"#utility.yul\":1198:1205   */\n      0x00\n        /* \"#utility.yul\":1238:1280   */\n      0xffffffffffffffffffffffffffffffffffffffff\n        /* \"#utility.yul\":1231:1236   */\n      dup3\n        /* \"#utility.yul\":1227:1281   */\n      and\n        /* \"#utility.yul\":1216:1281   */\n      swap1\n      pop\n        /* \"#utility.yul\":1161:1287   */\n      swap2\n      swap1\n      pop\n      jump\t// out\n        /* \"#utility.yul\":1293:1389   */\n    tag_37:\n        /* \"#utility.yul\":1330:1337   */\n      0x00\n        /* \"#utility.yul\":1359:1383   */\n      tag_56\n        /* \"#utility.yul\":1377:1382   */\n      dup3\n        /* \"#utility.yul\":1359:1383   */\n      tag_36\n      jump\t// in\n    tag_56:\n        /* \"#utility.yul\":1348:1383   */\n      swap1\n      pop\n        /* \"#utility.yul\":1293:1389   */\n      swap2\n      swap1\n      pop\n      jump\t// out\n        /* \"#utility.yul\":1395:1513   */\n    tag_38:\n        /* \"#utility.yul\":1482:1506   */\n      tag_58\n        /* \"#utility.yul\":1500:1505   */\n      dup2\n        /* \"#utility.yul\":1482:1506   */\n      tag_37\n      jump\t// in\n    tag_58:\n        /* \"#utility.yul\":1477:1480   */\n      dup3\n        /* \"#utility.yul\":1470:1507   */\n      mstore\n        /* \"#utility.yul\":1395:1513   */\n      pop\n      pop\n      jump\t// out\n        /* \"#utility.yul\":1519:1741   */\n    tag_19:\n        /* \"#utility.yul\":1612:1616   */\n      0x00\n        /* \"#utility.yul\":1650:1652   */\n      0x20\n        /* \"#utility.yul\":1639:1648   */\n      dup3\n        /* \"#utility.yul\":1635:1653   */\n      add\n        /* \"#utility.yul\":1627:1653   */\n      swap1\n      pop\n        /* \"#utility.yul\":1663:1734   */\n      tag_60\n        /* \"#utility.yul\":1731:1732   */\n      0x00\n        /* \"#utility.yul\":1720:1729   */\n      dup4\n        /* \"#utility.yul\":1716:1733   */\n      add\n        /* \"#utility.yul\":1707:1713   */\n      dup5\n        /* \"#utility.yul\":1663:1734   */\n      tag_38\n      jump\t// in\n    tag_60:\n        /* \"#utility.yul\":1519:1741   */\n      swap3\n      swap2\n      pop\n      pop\n      jump\t// out\n        /* \"#utility.yul\":1828:1945   */\n    tag_40:\n        /* \"#utility.yul\":1937:1938   */\n      0x00\n        /* \"#utility.yul\":1934:1935   */\n      dup1\n        /* \"#utility.yul\":1927:1939   */\n      revert\n        /* \"#utility.yul\":2074:2196   */\n    tag_42:\n        /* \"#utility.yul\":2147:2171   */\n      tag_65\n        /* \"#utility.yul\":2165:2170   */\n      dup2\n        /* \"#utility.yul\":2147:2171   */\n      tag_37\n      jump\t// in\n    tag_65:\n        /* \"#utility.yul\":2140:2145   */\n      dup2\n        /* \"#utility.yul\":2137:2172   */\n      eq\n        /* \"#utility.yul\":2127:2190   */\n      tag_66\n      jumpi\n        /* \"#utility.yul\":2186:2187   */\n      0x00\n        /* \"#utility.yul\":2183:2184   */\n      dup1\n        /* \"#utility.yul\":2176:2188   */\n      revert\n        /* \"#utility.yul\":2127:2190   */\n    tag_66:\n        /* \"#utility.yul\":2074:2196   */\n      pop\n      jump\t// out\n        /* \"#utility.yul\":2202:2341   */\n    tag_43:\n        /* \"#utility.yul\":2248:2253   */\n      0x00\n        /* \"#utility.yul\":2286:2292   */\n      dup2\n        /* \"#utility.yul\":2273:2293   */\n      calldataload\n        /* \"#utility.yul\":2264:2293   */\n      swap1\n      pop\n        /* \"#utility.yul\":2302:2335   */\n      tag_68\n        /* \"#utility.yul\":2329:2334   */\n      dup2\n        /* \"#utility.yul\":2302:2335   */\n      tag_42\n      jump\t// in\n    tag_68:\n        /* \"#utility.yul\":2202:2341   */\n      swap3\n      swap2\n      pop\n      pop\n      jump\t// out\n        /* \"#utility.yul\":2347:2676   */\n    tag_23:\n        /* \"#utility.yul\":2406:2412   */\n      0x00\n        /* \"#utility.yul\":2455:2457   */\n      0x20\n        /* \"#utility.yul\":2443:2452   */\n      dup3\n        /* \"#utility.yul\":2434:2441   */\n      dup5\n        /* \"#utility.yul\":2430:2453   */\n      sub\n        /* \"#utility.yul\":2426:2458   */\n      slt\n        /* \"#utility.yul\":2423:2542   */\n      iszero\n      tag_70\n      jumpi\n        /* \"#utility.yul\":2461:2540   */\n      tag_71\n      tag_40\n      jump\t// in\n    tag_71:\n        /* \"#utility.yul\":2423:2542   */\n    tag_70:\n        /* \"#utility.yul\":2581:2582   */\n      0x00\n        /* \"#utility.yul\":2606:2659   */\n      tag_72\n        /* \"#utility.yul\":2651:2658   */\n      dup5\n        /* \"#utility.yul\":2642:2648   */\n      dup3\n        /* \"#utility.yul\":2631:2640   */\n      dup6\n        /* \"#utility.yul\":2627:2649   */\n      add\n        /* \"#utility.yul\":2606:2659   */\n      tag_43\n      jump\t// in\n    tag_72:\n        /* \"#utility.yul\":2596:2659   */\n      swap2\n      pop\n        /* \"#utility.yul\":2552:2669   */\n      pop\n        /* \"#utility.yul\":2347:2676   */\n      swap3\n      swap2\n      pop\n      pop\n      jump\t// out\n        /* \"#utility.yul\":2682:2859   */\n    tag_44:\n        /* \"#utility.yul\":2822:2851   */\n      0x4170656e61732061646d696e20706f646520617475616c697a61720000000000\n        /* \"#utility.yul\":2818:2819   */\n      0x00\n        /* \"#utility.yul\":2810:2816   */\n      dup3\n        /* \"#utility.yul\":2806:2820   */\n      add\n        /* \"#utility.yul\":2799:2852   */\n      mstore\n        /* \"#utility.yul\":2682:2859   */\n      pop\n      jump\t// out\n        /* \"#utility.yul\":2865:3231   */\n    tag_45:\n        /* \"#utility.yul\":3007:3010   */\n      0x00\n        /* \"#utility.yul\":3028:3095   */\n      tag_75\n        /* \"#utility.yul\":3092:3094   */\n      0x1b\n        /* \"#utility.yul\":3087:3090   */\n      dup4\n        /* \"#utility.yul\":3028:3095   */\n      tag_33\n      jump\t// in\n    tag_75:\n        /* \"#utility.yul\":3021:3095   */\n      swap2\n      pop\n        /* \"#utility.yul\":3104:3197   */\n      tag_76\n        /* \"#utility.yul\":3193:3196   */\n      dup3\n        /* \"#utility.yul\":3104:3197   */\n      tag_44\n      jump\t// in\n    tag_76:\n        /* \"#utility.yul\":3222:3224   */\n      0x20\n        /* \"#utility.yul\":3217:3220   */\n      dup3\n        /* \"#utility.yul\":3213:3225   */\n      add\n        /* \"#utility.yul\":3206:3225   */\n      swap1\n      pop\n        /* \"#utility.yul\":2865:3231   */\n      swap2\n      swap1\n      pop\n      jump\t// out\n        /* \"#utility.yul\":3237:3656   */\n    tag_32:\n        /* \"#utility.yul\":3403:3407   */\n      0x00\n        /* \"#utility.yul\":3441:3443   */\n      0x20\n        /* \"#utility.yul\":3430:3439   */\n      dup3\n        /* \"#utility.yul\":3426:3444   */\n      add\n        /* \"#utility.yul\":3418:3444   */\n      swap1\n      pop\n        /* \"#utility.yul\":3490:3499   */\n      dup2\n        /* \"#utility.yul\":3484:3488   */\n      dup2\n        /* \"#utility.yul\":3480:3500   */\n      sub\n        /* \"#utility.yul\":3476:3477   */\n      0x00\n        /* \"#utility.yul\":3465:3474   */\n      dup4\n        /* \"#utility.yul\":3461:3478   */\n      add\n        /* \"#utility.yul\":3454:3501   */\n      mstore\n        /* \"#utility.yul\":3518:3649   */\n      tag_78\n        /* \"#utility.yul\":3644:3648   */\n      dup2\n        /* \"#utility.yul\":3518:3649   */\n      tag_45\n      jump\t// in\n    tag_78:\n        /* \"#utility.yul\":3510:3649   */\n      swap1\n      pop\n        /* \"#utility.yul\":3237:3656   */\n      swap2\n      swap1\n      pop\n      jump\t// out\n\n    auxdata: 0xa26469706673582212201b3eb52c60703b8992433c53f67bd3faa748e59c33e33fe95fb778e51934e38a64736f6c634300081e0033\n}\n",
				"bytecode": {
					"linkReferences": {},
					"object": "608060405234801561001057600080fd5b506040516105c73803806105c78339818101604052810190610032919061011c565b806000806101000a81548173ffffffffffffffffffffffffffffffffffffffff021916908373ffffffffffffffffffffffffffffffffffffffff16021790555033600160006101000a81548173ffffffffffffffffffffffffffffffffffffffff021916908373ffffffffffffffffffffffffffffffffffffffff16021790555050610149565b600080fd5b600073ffffffffffffffffffffffffffffffffffffffff82169050919050565b60006100e9826100be565b9050919050565b6100f9816100de565b811461010457600080fd5b50565b600081519050610116816100f0565b92915050565b600060208284031215610132576101316100b9565b5b600061014084828501610107565b91505092915050565b61046f806101586000396000f3fe6080604052600436106100385760003560e01c80635c60da1b146100fa57806398d731e914610125578063f851a4401461014e5761003f565b3661003f57005b60008060009054906101000a900473ffffffffffffffffffffffffffffffffffffffff169050600073ffffffffffffffffffffffffffffffffffffffff168173ffffffffffffffffffffffffffffffffffffffff16036100d4576040517f08c379a00000000000000000000000000000000000000000000000000000000081526004016100cb906102f3565b60405180910390fd5b3660008037600080366000845af43d6000803e80600081146100f5573d6000f35b3d6000fd5b34801561010657600080fd5b5061010f610179565b60405161011c9190610354565b60405180910390f35b34801561013157600080fd5b5061014c600480360381019061014791906103a0565b61019d565b005b34801561015a57600080fd5b50610163610270565b6040516101709190610354565b60405180910390f35b60008054906101000a900473ffffffffffffffffffffffffffffffffffffffff1681565b600160009054906101000a900473ffffffffffffffffffffffffffffffffffffffff1673ffffffffffffffffffffffffffffffffffffffff163373ffffffffffffffffffffffffffffffffffffffff161461022d576040517f08c379a000000000000000000000000000000000000000000000000000000000815260040161022490610419565b60405180910390fd5b806000806101000a81548173ffffffffffffffffffffffffffffffffffffffff021916908373ffffffffffffffffffffffffffffffffffffffff16021790555050565b600160009054906101000a900473ffffffffffffffffffffffffffffffffffffffff1681565b600082825260208201905092915050565b7f496d706c656d656e746163616f206e616f20646566696e696461000000000000600082015250565b60006102dd601a83610296565b91506102e8826102a7565b602082019050919050565b6000602082019050818103600083015261030c816102d0565b9050919050565b600073ffffffffffffffffffffffffffffffffffffffff82169050919050565b600061033e82610313565b9050919050565b61034e81610333565b82525050565b60006020820190506103696000830184610345565b92915050565b600080fd5b61037d81610333565b811461038857600080fd5b50565b60008135905061039a81610374565b92915050565b6000602082840312156103b6576103b561036f565b5b60006103c48482850161038b565b91505092915050565b7f4170656e61732061646d696e20706f646520617475616c697a61720000000000600082015250565b6000610403601b83610296565b915061040e826103cd565b602082019050919050565b60006020820190508181036000830152610432816103f6565b905091905056fea26469706673582212201b3eb52c60703b8992433c53f67bd3faa748e59c33e33fe95fb778e51934e38a64736f6c634300081e0033",
					"opcodes": "PUSH1 0x80 PUSH1 0x40 MSTORE CALLVALUE DUP1 ISZERO PUSH2 0x10 JUMPI PUSH1 0x0 DUP1 REVERT JUMPDEST POP PUSH1 0x40 MLOAD PUSH2 0x5C7 CODESIZE SUB DUP1 PUSH2 0x5C7 DUP4 CODECOPY DUP2 DUP2 ADD PUSH1 0x40 MSTORE DUP2 ADD SWAP1 PUSH2 0x32 SWAP2 SWAP1 PUSH2 0x11C JUMP JUMPDEST DUP1 PUSH1 0x0 DUP1 PUSH2 0x100 EXP DUP2 SLOAD DUP2 PUSH20 0xFFFFFFFFFFFFFFFFFFFFFFFFFFFFFFFFFFFFFFFF MUL NOT AND SWAP1 DUP4 PUSH20 0xFFFFFFFFFFFFFFFFFFFFFFFFFFFFFFFFFFFFFFFF AND MUL OR SWAP1 SSTORE POP CALLER PUSH1 0x1 PUSH1 0x0 PUSH2 0x100 EXP DUP2 SLOAD DUP2 PUSH20 0xFFFFFFFFFFFFFFFFFFFFFFFFFFFFFFFFFFFFFFFF MUL NOT AND SWAP1 DUP4 PUSH20 0xFFFFFFFFFFFFFFFFFFFFFFFFFFFFFFFFFFFFFFFF AND MUL OR SWAP1 SSTORE POP POP PUSH2 0x149 JUMP JUMPDEST PUSH1 0x0 DUP1 REVERT JUMPDEST PUSH1 0x0 PUSH20 0xFFFFFFFFFFFFFFFFFFFFFFFFFFFFFFFFFFFFFFFF DUP3 AND SWAP1 POP SWAP2 SWAP1 POP JUMP JUMPDEST PUSH1 0x0 PUSH2 0xE9 DUP3 PUSH2 0xBE JUMP JUMPDEST SWAP1 POP SWAP2 SWAP1 POP JUMP JUMPDEST PUSH2 0xF9 DUP2 PUSH2 0xDE JUMP JUMPDEST DUP2 EQ PUSH2 0x104 JUMPI PUSH1 0x0 DUP1 REVERT JUMPDEST POP JUMP JUMPDEST PUSH1 0x0 DUP2 MLOAD SWAP1 POP PUSH2 0x116 DUP2 PUSH2 0xF0 JUMP JUMPDEST SWAP3 SWAP2 POP POP JUMP JUMPDEST PUSH1 0x0 PUSH1 0x20 DUP3 DUP5 SUB SLT ISZERO PUSH2 0x132 JUMPI PUSH2 0x131 PUSH2 0xB9 JUMP JUMPDEST JUMPDEST PUSH1 0x0 PUSH2 0x140 DUP5 DUP3 DUP6 ADD PUSH2 0x107 JUMP JUMPDEST SWAP2 POP POP SWAP3 SWAP2 POP POP JUMP JUMPDEST PUSH2 0x46F DUP1 PUSH2 0x158 PUSH1 0x0 CODECOPY PUSH1 0x0 RETURN INVALID PUSH1 0x80 PUSH1 0x40 MSTORE PUSH1 0x4 CALLDATASIZE LT PUSH2 0x38 JUMPI PUSH1 0x0 CALLDATALOAD PUSH1 0xE0 SHR DUP1 PUSH4 0x5C60DA1B EQ PUSH2 0xFA JUMPI DUP1 PUSH4 0x98D731E9 EQ PUSH2 0x125 JUMPI DUP1 PUSH4 0xF851A440 EQ PUSH2 0x14E JUMPI PUSH2 0x3F JUMP JUMPDEST CALLDATASIZE PUSH2 0x3F JUMPI STOP JUMPDEST PUSH1 0x0 DUP1 PUSH1 0x0 SWAP1 SLOAD SWAP1 PUSH2 0x100 EXP SWAP1 DIV PUSH20 0xFFFFFFFFFFFFFFFFFFFFFFFFFFFFFFFFFFFFFFFF AND SWAP1 POP PUSH1 0x0 PUSH20 0xFFFFFFFFFFFFFFFFFFFFFFFFFFFFFFFFFFFFFFFF AND DUP2 PUSH20 0xFFFFFFFFFFFFFFFFFFFFFFFFFFFFFFFFFFFFFFFF AND SUB PUSH2 0xD4 JUMPI PUSH1 0x40 MLOAD PUSH32 0x8C379A000000000000000000000000000000000000000000000000000000000 DUP2 MSTORE PUSH1 0x4 ADD PUSH2 0xCB SWAP1 PUSH2 0x2F3 JUMP JUMPDEST PUSH1 0x40 MLOAD DUP1 SWAP2 SUB SWAP1 REVERT JUMPDEST CALLDATASIZE PUSH1 0x0 DUP1 CALLDATACOPY PUSH1 0x0 DUP1 CALLDATASIZE PUSH1 0x0 DUP5 GAS DELEGATECALL RETURNDATASIZE PUSH1 0x0 DUP1 RETURNDATACOPY DUP1 PUSH1 0x0 DUP2 EQ PUSH2 0xF5 JUMPI RETURNDATASIZE PUSH1 0x0 RETURN JUMPDEST RETURNDATASIZE PUSH1 0x0 REVERT JUMPDEST CALLVALUE DUP1 ISZERO PUSH2 0x106 JUMPI PUSH1 0x0 DUP1 REVERT JUMPDEST POP PUSH2 0x10F PUSH2 0x179 JUMP JUMPDEST PUSH1 0x40 MLOAD PUSH2 0x11C SWAP2 SWAP1 PUSH2 0x354 JUMP JUMPDEST PUSH1 0x40 MLOAD DUP1 SWAP2 SUB SWAP1 RETURN JUMPDEST CALLVALUE DUP1 ISZERO PUSH2 0x131 JUMPI PUSH1 0x0 DUP1 REVERT JUMPDEST POP PUSH2 0x14C PUSH1 0x4 DUP1 CALLDATASIZE SUB DUP2 ADD SWAP1 PUSH2 0x147 SWAP2 SWAP1 PUSH2 0x3A0 JUMP JUMPDEST PUSH2 0x19D JUMP JUMPDEST STOP JUMPDEST CALLVALUE DUP1 ISZERO PUSH2 0x15A JUMPI PUSH1 0x0 DUP1 REVERT JUMPDEST POP PUSH2 0x163 PUSH2 0x270 JUMP JUMPDEST PUSH1 0x40 MLOAD PUSH2 0x170 SWAP2 SWAP1 PUSH2 0x354 JUMP JUMPDEST PUSH1 0x40 MLOAD DUP1 SWAP2 SUB SWAP1 RETURN JUMPDEST PUSH1 0x0 DUP1 SLOAD SWAP1 PUSH2 0x100 EXP SWAP1 DIV PUSH20 0xFFFFFFFFFFFFFFFFFFFFFFFFFFFFFFFFFFFFFFFF AND DUP2 JUMP JUMPDEST PUSH1 0x1 PUSH1 0x0 SWAP1 SLOAD SWAP1 PUSH2 0x100 EXP SWAP1 DIV PUSH20 0xFFFFFFFFFFFFFFFFFFFFFFFFFFFFFFFFFFFFFFFF AND PUSH20 0xFFFFFFFFFFFFFFFFFFFFFFFFFFFFFFFFFFFFFFFF AND CALLER PUSH20 0xFFFFFFFFFFFFFFFFFFFFFFFFFFFFFFFFFFFFFFFF AND EQ PUSH2 0x22D JUMPI PUSH1 0x40 MLOAD PUSH32 0x8C379A000000000000000000000000000000000000000000000000000000000 DUP2 MSTORE PUSH1 0x4 ADD PUSH2 0x224 SWAP1 PUSH2 0x419 JUMP JUMPDEST PUSH1 0x40 MLOAD DUP1 SWAP2 SUB SWAP1 REVERT JUMPDEST DUP1 PUSH1 0x0 DUP1 PUSH2 0x100 EXP DUP2 SLOAD DUP2 PUSH20 0xFFFFFFFFFFFFFFFFFFFFFFFFFFFFFFFFFFFFFFFF MUL NOT AND SWAP1 DUP4 PUSH20 0xFFFFFFFFFFFFFFFFFFFFFFFFFFFFFFFFFFFFFFFF AND MUL OR SWAP1 SSTORE POP POP JUMP JUMPDEST PUSH1 0x1 PUSH1 0x0 SWAP1 SLOAD SWAP1 PUSH2 0x100 EXP SWAP1 DIV PUSH20 0xFFFFFFFFFFFFFFFFFFFFFFFFFFFFFFFFFFFFFFFF AND DUP2 JUMP JUMPDEST PUSH1 0x0 DUP3 DUP3 MSTORE PUSH1 0x20 DUP3 ADD SWAP1 POP SWAP3 SWAP2 POP POP JUMP JUMPDEST PUSH32 0x496D706C656D656E746163616F206E616F20646566696E696461000000000000 PUSH1 0x0 DUP3 ADD MSTORE POP JUMP JUMPDEST PUSH1 0x0 PUSH2 0x2DD PUSH1 0x1A DUP4 PUSH2 0x296 JUMP JUMPDEST SWAP2 POP PUSH2 0x2E8 DUP3 PUSH2 0x2A7 JUMP JUMPDEST PUSH1 0x20 DUP3 ADD SWAP1 POP SWAP2 SWAP1 POP JUMP JUMPDEST PUSH1 0x0 PUSH1 0x20 DUP3 ADD SWAP1 POP DUP2 DUP2 SUB PUSH1 0x0 DUP4 ADD MSTORE PUSH2 0x30C DUP2 PUSH2 0x2D0 JUMP JUMPDEST SWAP1 POP SWAP2 SWAP1 POP JUMP JUMPDEST PUSH1 0x0 PUSH20 0xFFFFFFFFFFFFFFFFFFFFFFFFFFFFFFFFFFFFFFFF DUP3 AND SWAP1 POP SWAP2 SWAP1 POP JUMP JUMPDEST PUSH1 0x0 PUSH2 0x33E DUP3 PUSH2 0x313 JUMP JUMPDEST SWAP1 POP SWAP2 SWAP1 POP JUMP JUMPDEST PUSH2 0x34E DUP2 PUSH2 0x333 JUMP JUMPDEST DUP3 MSTORE POP POP JUMP JUMPDEST PUSH1 0x0 PUSH1 0x20 DUP3 ADD SWAP1 POP PUSH2 0x369 PUSH1 0x0 DUP4 ADD DUP5 PUSH2 0x345 JUMP JUMPDEST SWAP3 SWAP2 POP POP JUMP JUMPDEST PUSH1 0x0 DUP1 REVERT JUMPDEST PUSH2 0x37D DUP2 PUSH2 0x333 JUMP JUMPDEST DUP2 EQ PUSH2 0x388 JUMPI PUSH1 0x0 DUP1 REVERT JUMPDEST POP JUMP JUMPDEST PUSH1 0x0 DUP2 CALLDATALOAD SWAP1 POP PUSH2 0x39A DUP2 PUSH2 0x374 JUMP JUMPDEST SWAP3 SWAP2 POP POP JUMP JUMPDEST PUSH1 0x0 PUSH1 0x20 DUP3 DUP5 SUB SLT ISZERO PUSH2 0x3B6 JUMPI PUSH2 0x3B5 PUSH2 0x36F JUMP JUMPDEST JUMPDEST PUSH1 0x0 PUSH2 0x3C4 DUP5 DUP3 DUP6 ADD PUSH2 0x38B JUMP JUMPDEST SWAP2 POP POP SWAP3 SWAP2 POP POP JUMP JUMPDEST PUSH32 0x4170656E61732061646D696E20706F646520617475616C697A61720000000000 PUSH1 0x0 DUP3 ADD MSTORE POP JUMP JUMPDEST PUSH1 0x0 PUSH2 0x403 PUSH1 0x1B DUP4 PUSH2 0x296 JUMP JUMPDEST SWAP2 POP PUSH2 0x40E DUP3 PUSH2 0x3CD JUMP JUMPDEST PUSH1 0x20 DUP3 ADD SWAP1 POP SWAP2 SWAP1 POP JUMP JUMPDEST PUSH1 0x0 PUSH1 0x20 DUP3 ADD SWAP1 POP DUP2 DUP2 SUB PUSH1 0x0 DUP4 ADD MSTORE PUSH2 0x432 DUP2 PUSH2 0x3F6 JUMP JUMPDEST SWAP1 POP SWAP2 SWAP1 POP JUMP INVALID LOG2 PUSH5 0x6970667358 0x22 SLT KECCAK256 SHL RETURNDATACOPY 0xB5 0x2C PUSH1 0x70 EXTCODESIZE DUP10 SWAP3 NUMBER EXTCODECOPY MSTORE8 0xF6 PUSH28 0xD3FAA748E59C33E33FE95FB778E51934E38A64736F6C634300081E00 CALLER "
				},
				"gasEstimates": {
					"creation": {
						"codeDepositCost": "227000",
						"executionCost": "infinite",
						"totalCost": "infinite"
					},
					"external": {
						"": "infinite",
						"admin()": "2536",
						"atualizarImplementacao(address)": "26892",
						"implementation()": "2489"
					}
				},
				"methodIdentifiers": {
					"admin()": "f851a440",
					"atualizarImplementacao(address)": "98d731e9",
					"implementation()": "5c60da1b"
				}
			},
			"storageLayout": {
				"storage": [
					{
						"astId": 3,
						"contract": "21.10/contracts/Proxy.sol:Proxy",
						"label": "implementation",
						"offset": 0,
						"slot": "0",
						"type": "t_address"
					},
					{
						"astId": 5,
						"contract": "21.10/contracts/Proxy.sol:Proxy",
						"label": "admin",
						"offset": 0,
						"slot": "1",
						"type": "t_address"
					}
				],
				"types": {
					"t_address": {
						"encoding": "inplace",
						"label": "address",
						"numberOfBytes": "20"
					}
				}
			},
			"userdoc": {
				"kind": "user",
				"methods": {},
				"version": 1
			}
		}
	}
}