{
	"contracts/BlockInfo.sol": {
		"BlockInfo": {
			"abi": [
				{
					"inputs": [],
					"name": "getBlockDetails",
					"outputs": [
						{
							"internalType": "uint256",
							"name": "blockNumber",
							"type": "uint256"
						},
						{
							"internalType": "uint256",
							"name": "timestamp",
							"type": "uint256"
						},
						{
							"internalType": "uint256",
							"name": "difficulty",
							"type": "uint256"
						},
						{
							"internalType": "uint256",
							"name": "gasLimit",
							"type": "uint256"
						},
						{
							"internalType": "address",
							"name": "coinbase",
							"type": "address"
						},
						{
							"internalType": "bytes32",
							"name": "blockHash",
							"type": "bytes32"
						}
					],
					"stateMutability": "view",
					"type": "function"
				}
			],
			"devdoc": {
				"kind": "dev",
				"methods": {},
				"version": 1
			},
			"evm": {
				"assembly": "    /* \"contracts/BlockInfo.sol\":62:663  contract BlockInfo {... */\n  mstore(0x40, 0x80)\n  callvalue\n  dup1\n  iszero\n  tag_1\n  jumpi\n  0x00\n  dup1\n  revert\ntag_1:\n  pop\n  dataSize(sub_0)\n  dup1\n  dataOffset(sub_0)\n  0x00\n  codecopy\n  0x00\n  return\nstop\n\nsub_0: assembly {\n        /* \"contracts/BlockInfo.sol\":62:663  contract BlockInfo {... */\n      mstore(0x40, 0x80)\n      callvalue\n      dup1\n      iszero\n      tag_1\n      jumpi\n      0x00\n      dup1\n      revert\n    tag_1:\n      pop\n      jumpi(tag_2, lt(calldatasize, 0x04))\n      shr(0xe0, calldataload(0x00))\n      dup1\n      0xbd38216e\n      eq\n      tag_3\n      jumpi\n    tag_2:\n      0x00\n      dup1\n      revert\n        /* \"contracts/BlockInfo.sol\":92:660  function getBlockDetails() public view returns (... */\n    tag_3:\n      tag_4\n      tag_5\n      jump\t// in\n    tag_4:\n      mload(0x40)\n      tag_6\n      swap7\n      swap6\n      swap5\n      swap4\n      swap3\n      swap2\n      swap1\n      tag_7\n      jump\t// in\n    tag_6:\n      mload(0x40)\n      dup1\n      swap2\n      sub\n      swap1\n      return\n    tag_5:\n        /* \"contracts/BlockInfo.sol\":154:170  uint blockNumber */\n      0x00\n        /* \"contracts/BlockInfo.sol\":185:199  uint timestamp */\n      dup1\n        /* \"contracts/BlockInfo.sol\":214:229  uint difficulty */\n      0x00\n        /* \"contracts/BlockInfo.sol\":244:257  uint gasLimit */\n      dup1\n        /* \"contracts/BlockInfo.sol\":272:288  address coinbase */\n      0x00\n        /* \"contracts/BlockInfo.sol\":303:320  bytes32 blockHash */\n      dup1\n        /* \"contracts/BlockInfo.sol\":361:373  block.number */\n      number\n        /* \"contracts/BlockInfo.sol\":347:373  blockNumber = block.number */\n      swap6\n      pop\n        /* \"contracts/BlockInfo.sol\":400:415  block.timestamp */\n      timestamp\n        /* \"contracts/BlockInfo.sol\":388:415  timestamp = block.timestamp */\n      swap5\n      pop\n        /* \"contracts/BlockInfo.sol\":443:459  block.prevrandao */\n      prevrandao\n        /* \"contracts/BlockInfo.sol\":430:459  difficulty = block.prevrandao */\n      swap4\n      pop\n        /* \"contracts/BlockInfo.sol\":485:499  block.gaslimit */\n      gaslimit\n        /* \"contracts/BlockInfo.sol\":474:499  gasLimit = block.gaslimit */\n      swap3\n      pop\n        /* \"contracts/BlockInfo.sol\":525:539  block.coinbase */\n      coinbase\n        /* \"contracts/BlockInfo.sol\":514:539  coinbase = block.coinbase */\n      swap2\n      pop\n        /* \"contracts/BlockInfo.sol\":590:591  1 */\n      0x01\n        /* \"contracts/BlockInfo.sol\":576:588  block.number */\n      number\n        /* \"contracts/BlockInfo.sol\":576:591  block.number- 1 */\n      tag_9\n      swap2\n      swap1\n      tag_10\n      jump\t// in\n    tag_9:\n        /* \"contracts/BlockInfo.sol\":566:592  blockhash(block.number- 1) */\n      blockhash\n        /* \"contracts/BlockInfo.sol\":554:592  blockHash = blockhash(block.number- 1) */\n      swap1\n      pop\n        /* \"contracts/BlockInfo.sol\":92:660  function getBlockDetails() public view returns (... */\n      swap1\n      swap2\n      swap3\n      swap4\n      swap5\n      swap6\n      jump\t// out\n        /* \"#utility.yul\":7:84   */\n    tag_11:\n        /* \"#utility.yul\":44:51   */\n      0x00\n        /* \"#utility.yul\":73:78   */\n      dup2\n        /* \"#utility.yul\":62:78   */\n      swap1\n      pop\n        /* \"#utility.yul\":7:84   */\n      swap2\n      swap1\n      pop\n      jump\t// out\n        /* \"#utility.yul\":90:208   */\n    tag_12:\n        /* \"#utility.yul\":177:201   */\n      tag_22\n        /* \"#utility.yul\":195:200   */\n      dup2\n        /* \"#utility.yul\":177:201   */\n      tag_11\n      jump\t// in\n    tag_22:\n        /* \"#utility.yul\":172:175   */\n      dup3\n        /* \"#utility.yul\":165:202   */\n      mstore\n        /* \"#utility.yul\":90:208   */\n      pop\n      pop\n      jump\t// out\n        /* \"#utility.yul\":214:340   */\n    tag_13:\n        /* \"#utility.yul\":251:258   */\n      0x00\n        /* \"#utility.yul\":291:333   */\n      0xffffffffffffffffffffffffffffffffffffffff\n        /* \"#utility.yul\":284:289   */\n      dup3\n        /* \"#utility.yul\":280:334   */\n      and\n        /* \"#utility.yul\":269:334   */\n      swap1\n      pop\n        /* \"#utility.yul\":214:340   */\n      swap2\n      swap1\n      pop\n      jump\t// out\n        /* \"#utility.yul\":346:442   */\n    tag_14:\n        /* \"#utility.yul\":383:390   */\n      0x00\n        /* \"#utility.yul\":412:436   */\n      tag_25\n        /* \"#utility.yul\":430:435   */\n      dup3\n        /* \"#utility.yul\":412:436   */\n      tag_13\n      jump\t// in\n    tag_25:\n        /* \"#utility.yul\":401:436   */\n      swap1\n      pop\n        /* \"#utility.yul\":346:442   */\n      swap2\n      swap1\n      pop\n      jump\t// out\n        /* \"#utility.yul\":448:566   */\n    tag_15:\n        /* \"#utility.yul\":535:559   */\n      tag_27\n        /* \"#utility.yul\":553:558   */\n      dup2\n        /* \"#utility.yul\":535:559   */\n      tag_14\n      jump\t// in\n    tag_27:\n        /* \"#utility.yul\":530:533   */\n      dup3\n        /* \"#utility.yul\":523:560   */\n      mstore\n        /* \"#utility.yul\":448:566   */\n      pop\n      pop\n      jump\t// out\n        /* \"#utility.yul\":572:649   */\n    tag_16:\n        /* \"#utility.yul\":609:616   */\n      0x00\n        /* \"#utility.yul\":638:643   */\n      dup2\n        /* \"#utility.yul\":627:643   */\n      swap1\n      pop\n        /* \"#utility.yul\":572:649   */\n      swap2\n      swap1\n      pop\n      jump\t// out\n        /* \"#utility.yul\":655:773   */\n    tag_17:\n        /* \"#utility.yul\":742:766   */\n      tag_30\n        /* \"#utility.yul\":760:765   */\n      dup2\n        /* \"#utility.yul\":742:766   */\n      tag_16\n      jump\t// in\n    tag_30:\n        /* \"#utility.yul\":737:740   */\n      dup3\n        /* \"#utility.yul\":730:767   */\n      mstore\n        /* \"#utility.yul\":655:773   */\n      pop\n      pop\n      jump\t// out\n        /* \"#utility.yul\":779:1554   */\n    tag_7:\n        /* \"#utility.yul\":1012:1016   */\n      0x00\n        /* \"#utility.yul\":1050:1053   */\n      0xc0\n        /* \"#utility.yul\":1039:1048   */\n      dup3\n        /* \"#utility.yul\":1035:1054   */\n      add\n        /* \"#utility.yul\":1027:1054   */\n      swap1\n      pop\n        /* \"#utility.yul\":1064:1135   */\n      tag_32\n        /* \"#utility.yul\":1132:1133   */\n      0x00\n        /* \"#utility.yul\":1121:1130   */\n      dup4\n        /* \"#utility.yul\":1117:1134   */\n      add\n        /* \"#utility.yul\":1108:1114   */\n      dup10\n        /* \"#utility.yul\":1064:1135   */\n      tag_12\n      jump\t// in\n    tag_32:\n        /* \"#utility.yul\":1145:1217   */\n      tag_33\n        /* \"#utility.yul\":1213:1215   */\n      0x20\n        /* \"#utility.yul\":1202:1211   */\n      dup4\n        /* \"#utility.yul\":1198:1216   */\n      add\n        /* \"#utility.yul\":1189:1195   */\n      dup9\n        /* \"#utility.yul\":1145:1217   */\n      tag_12\n      jump\t// in\n    tag_33:\n        /* \"#utility.yul\":1227:1299   */\n      tag_34\n        /* \"#utility.yul\":1295:1297   */\n      0x40\n        /* \"#utility.yul\":1284:1293   */\n      dup4\n        /* \"#utility.yul\":1280:1298   */\n      add\n        /* \"#utility.yul\":1271:1277   */\n      dup8\n        /* \"#utility.yul\":1227:1299   */\n      tag_12\n      jump\t// in\n    tag_34:\n        /* \"#utility.yul\":1309:1381   */\n      tag_35\n        /* \"#utility.yul\":1377:1379   */\n      0x60\n        /* \"#utility.yul\":1366:1375   */\n      dup4\n        /* \"#utility.yul\":1362:1380   */\n      add\n        /* \"#utility.yul\":1353:1359   */\n      dup7\n        /* \"#utility.yul\":1309:1381   */\n      tag_12\n      jump\t// in\n    tag_35:\n        /* \"#utility.yul\":1391:1464   */\n      tag_36\n        /* \"#utility.yul\":1459:1462   */\n      0x80\n        /* \"#utility.yul\":1448:1457   */\n      dup4\n        /* \"#utility.yul\":1444:1463   */\n      add\n        /* \"#utility.yul\":1435:1441   */\n      dup6\n        /* \"#utility.yul\":1391:1464   */\n      tag_15\n      jump\t// in\n    tag_36:\n        /* \"#utility.yul\":1474:1547   */\n      tag_37\n        /* \"#utility.yul\":1542:1545   */\n      0xa0\n        /* \"#utility.yul\":1531:1540   */\n      dup4\n        /* \"#utility.yul\":1527:1546   */\n      add\n        /* \"#utility.yul\":1518:1524   */\n      dup5\n        /* \"#utility.yul\":1474:1547   */\n      tag_17\n      jump\t// in\n    tag_37:\n        /* \"#utility.yul\":779:1554   */\n      swap8\n      swap7\n      pop\n      pop\n      pop\n      pop\n      pop\n      pop\n      pop\n      jump\t// out\n        /* \"#utility.yul\":1560:1740   */\n    tag_18:\n        /* \"#utility.yul\":1608:1685   */\n      0x4e487b7100000000000000000000000000000000000000000000000000000000\n        /* \"#utility.yul\":1605:1606   */\n      0x00\n        /* \"#utility.yul\":1598:1686   */\n      mstore\n        /* \"#utility.yul\":1705:1709   */\n      0x11\n        /* \"#utility.yul\":1702:1703   */\n      0x04\n        /* \"#utility.yul\":1695:1710   */\n      mstore\n        /* \"#utility.yul\":1729:1733   */\n      0x24\n        /* \"#utility.yul\":1726:1727   */\n      0x00\n        /* \"#utility.yul\":1719:1734   */\n      revert\n        /* \"#utility.yul\":1746:1940   */\n    tag_10:\n        /* \"#utility.yul\":1786:1790   */\n      0x00\n        /* \"#utility.yul\":1806:1826   */\n      tag_40\n        /* \"#utility.yul\":1824:1825   */\n      dup3\n        /* \"#utility.yul\":1806:1826   */\n      tag_11\n      jump\t// in\n    tag_40:\n        /* \"#utility.yul\":1801:1826   */\n      swap2\n      pop\n        /* \"#utility.yul\":1840:1860   */\n      tag_41\n        /* \"#utility.yul\":1858:1859   */\n      dup4\n        /* \"#utility.yul\":1840:1860   */\n      tag_11\n      jump\t// in\n    tag_41:\n        /* \"#utility.yul\":1835:1860   */\n      swap3\n      pop\n        /* \"#utility.yul\":1884:1885   */\n      dup3\n        /* \"#utility.yul\":1881:1882   */\n      dup3\n        /* \"#utility.yul\":1877:1886   */\n      sub\n        /* \"#utility.yul\":1869:1886   */\n      swap1\n      pop\n        /* \"#utility.yul\":1908:1909   */\n      dup2\n        /* \"#utility.yul\":1902:1906   */\n      dup2\n        /* \"#utility.yul\":1899:1910   */\n      gt\n        /* \"#utility.yul\":1896:1933   */\n      iszero\n      tag_42\n      jumpi\n        /* \"#utility.yul\":1913:1931   */\n      tag_43\n      tag_18\n      jump\t// in\n    tag_43:\n        /* \"#utility.yul\":1896:1933   */\n    tag_42:\n        /* \"#utility.yul\":1746:1940   */\n      swap3\n      swap2\n      pop\n      pop\n      jump\t// out\n\n    auxdata: 0xa2646970667358221220751ffcc81e2a525cafdff87cfd175c41ffdf9b7734d8313d87c875d71c5e782b64736f6c634300081e0033\n}\n",
				"bytecode": {
					"linkReferences": {},
					"object": "6080604052348015600f57600080fd5b506101f08061001f6000396000f3fe608060405234801561001057600080fd5b506004361061002b5760003560e01c8063bd38216e14610030575b600080fd5b610038610053565b60405161004a969594939291906100f6565b60405180910390f35b6000806000806000804395504294504493504592504191506001436100789190610186565b409050909192939495565b6000819050919050565b61009681610083565b82525050565b600073ffffffffffffffffffffffffffffffffffffffff82169050919050565b60006100c78261009c565b9050919050565b6100d7816100bc565b82525050565b6000819050919050565b6100f0816100dd565b82525050565b600060c08201905061010b600083018961008d565b610118602083018861008d565b610125604083018761008d565b610132606083018661008d565b61013f60808301856100ce565b61014c60a08301846100e7565b979650505050505050565b7f4e487b7100000000000000000000000000000000000000000000000000000000600052601160045260246000fd5b600061019182610083565b915061019c83610083565b92508282039050818111156101b4576101b3610157565b5b9291505056fea2646970667358221220751ffcc81e2a525cafdff87cfd175c41ffdf9b7734d8313d87c875d71c5e782b64736f6c634300081e0033",
					"opcodes": "PUSH1 0x80 PUSH1 0x40 MSTORE CALLVALUE DUP1 ISZERO PUSH1 0xF JUMPI PUSH1 0x0 DUP1 REVERT JUMPDEST POP PUSH2 0x1F0 DUP1 PUSH2 0x1F PUSH1 0x0 CODECOPY PUSH1 0x0 RETURN INVALID PUSH1 0x80 PUSH1 0x40 MSTORE CALLVALUE DUP1 ISZERO PUSH2 0x10 JUMPI PUSH1 0x0 DUP1 REVERT JUMPDEST POP PUSH1 0x4 CALLDATASIZE LT PUSH2 0x2B JUMPI PUSH1 0x0 CALLDATALOAD PUSH1 0xE0 SHR DUP1 PUSH4 0xBD38216E EQ PUSH2 0x30 JUMPI JUMPDEST PUSH1 0x0 DUP1 REVERT JUMPDEST PUSH2 0x38 PUSH2 0x53 JUMP JUMPDEST PUSH1 0x40 MLOAD PUSH2 0x4A SWAP7 SWAP6 SWAP5 SWAP4 SWAP3 SWAP2 SWAP1 PUSH2 0xF6 JUMP JUMPDEST PUSH1 0x40 MLOAD DUP1 SWAP2 SUB SWAP1 RETURN JUMPDEST PUSH1 0x0 DUP1 PUSH1 0x0 DUP1 PUSH1 0x0 DUP1 NUMBER SWAP6 POP TIMESTAMP SWAP5 POP PREVRANDAO SWAP4 POP GASLIMIT SWAP3 POP COINBASE SWAP2 POP PUSH1 0x1 NUMBER PUSH2 0x78 SWAP2 SWAP1 PUSH2 0x186 JUMP JUMPDEST BLOCKHASH SWAP1 POP SWAP1 SWAP2 SWAP3 SWAP4 SWAP5 SWAP6 JUMP JUMPDEST PUSH1 0x0 DUP2 SWAP1 POP SWAP2 SWAP1 POP JUMP JUMPDEST PUSH2 0x96 DUP2 PUSH2 0x83 JUMP JUMPDEST DUP3 MSTORE POP POP JUMP JUMPDEST PUSH1 0x0 PUSH20 0xFFFFFFFFFFFFFFFFFFFFFFFFFFFFFFFFFFFFFFFF DUP3 AND SWAP1 POP SWAP2 SWAP1 POP JUMP JUMPDEST PUSH1 0x0 PUSH2 0xC7 DUP3 PUSH2 0x9C JUMP JUMPDEST SWAP1 POP SWAP2 SWAP1 POP JUMP JUMPDEST PUSH2 0xD7 DUP2 PUSH2 0xBC JUMP JUMPDEST DUP3 MSTORE POP POP JUMP JUMPDEST PUSH1 0x0 DUP2 SWAP1 POP SWAP2 SWAP1 POP JUMP JUMPDEST PUSH2 0xF0 DUP2 PUSH2 0xDD JUMP JUMPDEST DUP3 MSTORE POP POP JUMP JUMPDEST PUSH1 0x0 PUSH1 0xC0 DUP3 ADD SWAP1 POP PUSH2 0x10B PUSH1 0x0 DUP4 ADD DUP10 PUSH2 0x8D JUMP JUMPDEST PUSH2 0x118 PUSH1 0x20 DUP4 ADD DUP9 PUSH2 0x8D JUMP JUMPDEST PUSH2 0x125 PUSH1 0x40 DUP4 ADD DUP8 PUSH2 0x8D JUMP JUMPDEST PUSH2 0x132 PUSH1 0x60 DUP4 ADD DUP7 PUSH2 0x8D JUMP JUMPDEST PUSH2 0x13F PUSH1 0x80 DUP4 ADD DUP6 PUSH2 0xCE JUMP JUMPDEST PUSH2 0x14C PUSH1 0xA0 DUP4 ADD DUP5 PUSH2 0xE7 JUMP JUMPDEST SWAP8 SWAP7 POP POP POP POP POP POP POP JUMP JUMPDEST PUSH32 0x4E487B7100000000000000000000000000000000000000000000000000000000 PUSH1 0x0 MSTORE PUSH1 0x11 PUSH1 0x4 MSTORE PUSH1 0x24 PUSH1 0x0 REVERT JUMPDEST PUSH1 0x0 PUSH2 0x191 DUP3 PUSH2 0x83 JUMP JUMPDEST SWAP2 POP PUSH2 0x19C DUP4 PUSH2 0x83 JUMP JUMPDEST SWAP3 POP DUP3 DUP3 SUB SWAP1 POP DUP2 DUP2 GT ISZERO PUSH2 0x1B4 JUMPI PUSH2 0x1B3 PUSH2 0x157 JUMP JUMPDEST JUMPDEST SWAP3 SWAP2 POP POP JUMP INVALID LOG2 PUSH5 0x6970667358 0x22 SLT KECCAK256 PUSH22 0x1FFCC81E2A525CAFDFF87CFD175C41FFDF9B7734D831 RETURNDATASIZE DUP8 0xC8 PUSH22 0xD71C5E782B64736F6C634300081E0033000000000000 "
				},
				"gasEstimates": {
					"creation": {
						"codeDepositCost": "99200",
						"executionCost": "147",
						"totalCost": "99347"
					},
					"external": {
						"getBlockDetails()": "infinite"
					}
				},
				"methodIdentifiers": {
					"getBlockDetails()": "bd38216e"
				}
			},
			"storageLayout": {
				"storage": [],
				"types": null
			},
			"userdoc": {
				"kind": "user",
				"methods": {},
				"version": 1
			}
		}
	}
}